:020000040800F2
:10000000C808002089010008AB1C0008971A0008E6
:10001000A91C0008F30200083520000800000000B9
:10002000000000000000000000000000771D000834
:100030000103000800000000AD1C0008791D000845
:10004000A3010008A3010008A3010008A301000800
:10005000A3010008A3010008A3010008A3010008F0
:10006000A3010008A3010008A3010008A3010008E0
:10007000A3010008A3010008A3010008A3010008D0
:10008000A3010008A3010008A3010008A3010008C0
:1000900029200008F5020008A3010008A3010008B8
:1000A000A3010008011E0008A3010008A301000825
:1000B000A3010008A3010008A3010008A301000890
:1000C000A3010008A3010008A3010008A301000880
:1000D000A3010008A3010008A3010008A301000870
:1000E000A3010008A3010008A301000800F002F822
:1000F00000F03AF80AA090E8000C82448344AAF188
:100100000107DA4501D100F02FF8AFF2090EBAE885
:100110000F0013F0010F18BFFB1A43F0010318473B
:10012000C81F0000E81F0000103A24BF78C878C13B
:10013000FAD8520724BF30C830C144BF04680C60ED
:10014000704700000023002400250026103A28BF35
:1001500078C1FBD8520728BF30C148BF0B60704739
:100160001FB51FBD10B510BD00F08AF81146FFF78E
:10017000F7FF01F071FF00F0A8F803B4FFF7F2FFFA
:1001800003BC00F0AFF80000094880470948004769
:10019000FEE7FEE7FEE7FEE7FEE7FEE7FEE7FEE737
:1001A000FEE7FEE704480549054A064B7047000094
:1001B000FD1D0008ED000008C8020020C80800204E
:1001C000C8040020C804002010B5203AC0F00B80FD
:1001D000B1E81850203AA0E81850B1E81850A0E84B
:1001E0001850BFF4F5AF5FEA027C24BFB1E81850A5
:1001F000A0E8185044BF18C918C0BDE810405FEA15
:10020000827C24BF51F8043B40F8043B08BF704790
:10021000D20728BF31F8023B48BF11F8012B28BF95
:1002200020F8023B48BF00F8012B70474FF0000256
:1002300000B5134694469646203922BFA0E80C50DC
:10024000A0E80C50B1F12001BFF4F7AF090728BFB7
:10025000A0E80C5048BF0CC05DF804EB890028BF33
:1002600040F8042B08BF704748BF20F8022B11F05C
:10027000804F18BF00F8012B7047704770477047D8
:10028000754600F02BF8AE4605006946534620F04F
:100290000700854618B020B5FFF784FFBDE8204071
:1002A0004FF000064FF000074FF000084FF0000B32
:1002B00021F00701AC46ACE8C009ACE8C009ACE8E5
:1002C000C009ACE8C0098D46704710B50446AFF3CD
:1002D00000802046BDE81040FFF74FBF0048704740
:1002E0006402002001491820ABBEFEE72600020090
:1002F0007047FEE7014800F0B1B900005800002047
:100300007047000070B5114C0E460146207808B1C8
:10031000002070BD0E4DA068182205EB4010FFF7BD
:1003200053FFA068326805EB4011401C8A61726877
:10033000CA610A2190FBF1F201FB1200A060616822
:10034000884201D101202070012070BD08000020EA
:100350008000002072B6FEE790F82020012A07D026
:10036000022A05D0416A41F4802141620120704790
:10037000006842690A43426100207047F0B590F876
:1003800020500468A468012D05D0022D03D0416AD5
:1003900041F4802157E014F0406F01D1E5004FD5C2
:1003A000C4F301640125A5401D608D684FF4C0733E
:1003B0009DB1CE6835434E6845EAC605066803EB35
:1003C0000417F5514FF4C275076805EB04150E6963
:1003D0007E51097D012905D009E00E88CD6845EAE6
:1003E0004655EBE701684E5946F480764E51117937
:1003F000D579567941EA056195792D0445EA0625B6
:1004000029434FF4C676056806EB0416A951117806
:10041000D57841EA0561957852782D0445EA0222A3
:1004200011434FF4C475026805EB0415515100687F
:1004300003EB0411425842F0010242500020F0BD8B
:10044000416A41F4001141620120F0BD10B590F8FD
:1004500020300268012B07D0022B05D0416A41F4FD
:1004600080214162012010BDD2F8000240F001005D
:10047000C2F80002087D00F01F0301209840D2F866
:100480001C328343C2F81C32CB69B3B9D2F80C32A8
:100490008343C2F80C328C894B6864F31F434C6968
:1004A00002EBC404C4F840320C890B6864F31F43A8
:1004B0004C6902EBC404C4F84432CB69012B16D159
:1004C000D2F80C320343C2F80C320C884B6864F348
:1004D0001F434C6902EBC404C4F840320C89CB685A
:1004E00064F31F434C6902EBC404C4F844328B69C3
:1004F000002BD2F804320FD053EA0003C2F80432C2
:100500000B69002BD2F8143208D00343C2F814321E
:10051000096A012904D008E08343EFE78343F5E744
:10052000D2F81C120143C2F81C12D2F8000220F0CB
:100530000100C2F80002002010BD704770B590F8AD
:100540002040012C05D0022C03D0416A41F48021C7
:1005500028E0046809B32469A40720D04FF4D874B4
:10056000056804EB01142D5915F004059560056824
:100570002D591AD0ED08556005682C5904F0020475
:10058000D4604FF4DA74056804EB01142E5906F0B8
:100590000F06082E0CD308250DE0E468DCE7416A5D
:1005A00041F400114162012070BD6D0D1560E3E75B
:1005B0002D5905F00F05156105682D59C5F307255F
:1005C000956105682C59240C54614FF4DC72046861
:1005D00002EB0112A4581C700468A458240A5C7031
:1005E0000468A458240C9C700468A258120EDA7097
:1005F0004FF4DE72046802EB0112A4581C71046807
:10060000A458240A5C710468A458240C9C710468E2
:10061000A258120EDA71006829B1016941F0200177
:100620000161002070BDC16841F02001C160F8E7A0
:100630000246002092F82010012901D002290CD195
:1006400011688A68520100D501208A68120100D51C
:10065000401C8968C90000D5401C70472DE9F05F37
:100660000546006800244669D0F804908768D0F8F1
:100670000CB0D0F810A0D0F81880F10748D0F907D6
:1006800014D001218160B80703D5284600F0FBF99A
:100690000CE0780702D54FF4006407E0380702D574
:1006A0004FF4805402E0284600F0ECF9F80516D526
:1006B00029684FF480708860B80503D5284600F09B
:1006C000E4F90CE0780502D544F4005407E038055D
:1006D00002D544F4804402E0284600F0D5F9F8033E
:1006E00016D529684FF480308860B80303D52846B2
:1006F00000F0CDF90CE0780302D544F4004407E0A3
:10070000380302D544F4803402E0284600F0BEF9F4
:10071000300707D55FEACB6004D52968102044F480
:100720000074C86070074FF0080707D55FEA0B70C8
:1007300004D52868C760284600F062F9B00706D5DE
:100740002868C068800702D0284600F05BF9700670
:1007500007D55FEACA6004D52968102044F4806494
:100760000861B00607D55FEA0A7004D528680761FA
:10077000284600F057F9F00606D52868006980077A
:1007800002D0284600F04FF9B00308D55FEAC960EF
:1007900005D5296810204860284600F045F9F00387
:1007A00007D55FEA097004D528684760284600F03D
:1007B0006FF9300446D55FEA497040D5F00504D59D
:1007C0005FEAC87001D044F00104B00504D55FEAC7
:1007D000887001D544F00204700504D55FEA4870C2
:1007E00001D544F00404300529D518F0700F26D047
:1007F00008F07000402815D006DC102809D0202809
:100800000AD0302816D10AE050280ED0602811D125
:100810000EE044F008040DE044F010040AE044F057
:10082000200407E044F0400404E044F0800401E0C8
:1008300044F480742868816921F07001816129681D
:1008400004204860002C05D0686A2043686228466E
:10085000FFF773FEBDE8F09F70B5040003D094F875
:10086000200010B104E0012070BD204600F082F8A5
:100870002068016841F00101016000F00DFA0546B1
:10088000052604E000F008FA401B0A2811D8206869
:100890004068C007F6D02068016821F002010160BD
:1008A00000F0FAF905460BE000F0F6F9401B0A28C3
:1008B00006D9606A40F40030606284F82060D2E7B4
:1008C000206840688007EFD4207E012820680168F6
:1008D0003DD021F080010160607E01282068016820
:1008E00038D021F040010160A07E01282068016815
:1008F00033D021F020010160E07E012820680168EA
:100900002ED041F010010160207F0128206801688D
:1009100029D021F008010160607F0128206801686A
:1009200024D021F004010160D4E902010843D4E994
:100930000412114308436168491E08432168C861D5
:1009400000206062012084F82000002070BD41F08A
:100950008001C0E741F04001C5E741F02001CAE74E
:1009600021F01001CFE741F00801D4E741F0040184
:10097000D9E7000010B586B00021009101910291E5
:10098000039100681B49884232D11B48C16941F07C
:100990000071C161C16901F000710491816941F088
:1009A000040181618069154C00F0040004904FF44B
:1009B000006000906946204600F07EF8A014009088
:1009C00002200190032003906946204600F074F84D
:1009D00000221146142000F0CBF9142000F0BAF9DF
:1009E00000221146152000F0C3F9152000F0B2F9DD
:1009F00006B010BD00640040001002400008014035
:100A00007047000000B587B0054B6A460021FFF72C
:100A100095FD002801D0FFF79DFC07B000BD000048
:100A200028000020704770477047000070B50446EA
:100A300090F82000012804D0606A40F40020606231
:100A400018E0022084F820002068016821F00101EC
:100A5000016000F021F905460EE000BF00F01CF92E
:100A6000401B0A2808D9606A40F400306062052003
:100A700084F82000012070BD20684068C007EDD1D7
:100A8000606270BD7047704770477047704770472D
:100A90007047000070B5044600F0FEF80546601C83
:100AA00002D004480078044400F0F6F8401BA0424D
:100AB000FAD370BD300000202DE9F84FDFF8B8916F
:100AC0000024A9F1040B23460F2709F1040AABF116
:100AD000040EC9E00125A5402A40AA427DD1674EF7
:100AE000D1F804C0ACEB0608B44532D014DCBCF13C
:100AF000030F3AD009DCBCF1000F2AD0BCF1010F82
:100B00001CD0BCF1020F31D11DE0BCF1110F17D088
:100B1000BCF1120F2AD119E0B8F5881F19D006DCF4
:100B2000B8F5803F15D0B8F5801F1FD111E0B8F59A
:100B3000001F0ED0B8F5041F18D10AE0CB6815E0ED
:100B4000CB681B1D12E0CB6808330FE0CB680C3379
:100B50000CE08B682BB1012B4FF0080303D04561EB
:100B600004E0042302E0056100E00023FF2A01D82D
:100B7000064601E000F104064FEA840501D9A5F11B
:100B80002005D6F8008007FA05FC28EA0C0803FACD
:100B900005F548EA0508C6F800804D68ED0062D505
:100BA000374DAE6946F00106AE61AD6924F003062B
:100BB00005F001050095334D06EB050CDCF80850F7
:100BC000A607360F07FA06F825EA0805DFF8B88009
:100BD000404503D14FF0000817E044E0DFF8AC8057
:100BE000404502D14FF001080FE0DFF8A4804045F6
:100BF00002D14FF0020808E0DFF89880404502D1AA
:100C00004FF0030801E04FF0040808FA06F848EA3C
:100C10000508CCF808804D68D9F80060ED024D4613
:100C200001D5164300E096432E604D68DAF8006067
:100C3000AD02554601D5164300E096432E604D683F
:100C4000DBF80060AD035D4601D5164300E0964336
:100C50002E604D68DEF80060ED03754601D5164341
:100C600000E096432E60641C0D682A46E5407FF440
:100C700031AFBDE8F88F00000804014000001110FA
:100C8000001002400000014000080140000C01403B
:100C900000100140001401400148806870470000C6
:100CA000300000200248816802781144816070475A
:100CB00030000020074810B5016841F010010160C4
:100CC000032000F075F80F2000F006F800F024F87B
:100CD000002010BD0020024070B50D4D04464FF4B9
:100CE0007A712878B1FBF0F00A490968B1FBF0F09D
:100CF00000F01BFC48B9102C07D200222146501EE0
:100D000000F036F800206C6070BD012070BD00005E
:100D1000300000203C0000200C4808B5816941F0FB
:100D200001018161816901F001010091C16941F016
:100D30008051C161C06900F0805000900448416852
:100D400021F0E06141F00071416008BD00100240F7
:100D500000000140002809DB00F01F020121914042
:100D60004009800000F1E020C0F800117047000049
:100D7000F0B40E4B1B680C46C3F30223C3F1070506
:100D8000042D00D90425191D072901D2002300E0F4
:100D9000DB1E012606FA05F1491E214099409E40BE
:100DA000761E16403143F0BC01F045B90CED00E071
:100DB000064900F0070208684FF6FF03184040EAB2
:100DC0000220034A10430860704700000CED00E069
:100DD0000000FA05014901200862704700000E4238
:100DE00010B501460020234C012922D0022939D018
:100DF00010291DD161682268D20119D51E48C1F39E
:100E00008342C903805C0AD561681B4AC1F3404133
:100E1000921E515C194AB2FBF1F1484301E01849B6
:100E200048436168490203D440000321B0FBF1F05C
:100E300010BD226AC2F30121012903D1920701D515
:100E4000C80310BD022905D1626A920702D549F68E
:100E5000404010BD0329FCD121688903F9D54FF228
:100E6000244010BD00F01AF96168C1F38131491CBA
:100E70004900DBE700100240C020000800127A00A1
:100E800000093D002DE9F84305460078354CC007C0
:100E900054D0E0690026C00008D4E06940F08050DA
:100EA000E061E069012600F0805000902E48016862
:100EB000C90512D40168804641F480710160FFF7D2
:100EC000EBFE074605E000BFFFF7E6FEC01B642807
:100ED00023D8D8F80000C005F6D5206A10F4407079
:100EE00021D0A98801F4407181421CD0206A1F4999
:100EF000012220F440700A6000220A602062C007CC
:100F000011D0FFF7C9FE074641F2883808E000BF5C
:100F1000FFF7C2FEC11B414502D90320BDE8F8839B
:100F2000206A8007F4D5206A696820F4407008437D
:100F300020621EB1E06920F08050E06128788007CF
:100F400005D56068A96820F44040084360602878AF
:100F5000C00605D56068E96820F480000843606039
:100F60000020DBE7001002400070004040044242D5
:100F70002DE9F0470F46050061D0434E306800F080
:100F80000700B84209D2306820F0070038433060CB
:100F9000306800F00700B84251D128683B4C810707
:100FA00012D5400703D5606840F4E060606028789F
:100FB000000703D5606840F4605060606068A9680D
:100FC00020F0F000084360602878C00728D06868E7
:100FD000012810D02168022810D0890700292EDAB4
:100FE000616821F0030101436160FFF755FE80460F
:100FF00041F288390DE021688903EFE78901EDE7C7
:10100000FFF74AFEA0EB0801494502D90320BDE8DD
:10101000F0876068696800F00C00B0EB810FEFD1D9
:10102000306800F00700B8420BD9306820F00700A4
:1010300038433060306800F00700B84201D001202A
:10104000E5E72878400705D56068E96820F4E060A6
:10105000084360602878000706D56068296920F495
:10106000605040EAC100606000F028F86168084AFA
:10107000C1F30311515CC840064908600648006886
:10108000FFF72AFE0020C2E70020024000100240C5
:10109000D02000083C00002034000020044805490E
:1010A00000684968044AC1F3C221515CC8407047D6
:1010B0003C00002000100240E02000080E4A516869
:1010C0000E4801F00C03042B11D0082B0FD10C4853
:1010D000C1F38343C903C05C0AD55168084AC1F310
:1010E0004041921E515C054A5043B0FBF1F07047FD
:1010F00004494843704700000010024000127A0083
:10110000AE20000800093D002DE9F84F040070D022
:101110002078C04DC00749D06868C0F3810001281D
:1011200007D06868C0F38100022809D16868C0034D
:1011300006D52868800339D560680028E7D035E0F7
:101140006068B0F5803F0BD010B1B0F5A02F11D082
:10115000286820F480302860286820F4802002E08D
:10116000286840F480302860606890B1FFF794FDF3
:1011700006460AE0286840F480202860F0E700BFB7
:10118000FFF78AFD801B642873D828688003F7D591
:101190000CE0FFF781FD064605E000BFFFF77CFD90
:1011A000801B6428F0D828688003F7D420789A4EF2
:1011B00080074FF001094FF0000839D5686810F03A
:1011C0000C0F07D06868C0F38100022809D1686855
:1011D000C00306D42868800714D52069012808D1E7
:1011E00010E02069B0B1C6F80090FFF755FD074642
:1011F00005E00AE1FFF750FDC01B0228C4D82868AB
:101200008007F7D52868616920F0F80040EAC1003E
:1012100028600DE0C6F80080FFF73EFD074604E0B9
:10122000FFF73AFDC01B022823D828688007F7D4AF
:10123000207800072CD57948A169D9B1C0F8009071
:10124000FFF72AFD074604E0FFF726FDC01B022832
:101250000FD8686A8007F7D571484FF4FA510068D3
:10126000B0FBF1F0009000BF0098411E0091FAD24F
:101270000EE080E0C0F80080FFF70EFD074604E0B6
:10128000FFF70AFDC01B022875D8686A8007F7D4EB
:101290002078400760D5E8690027C00008D4E869D5
:1012A00040F08050E861E869012700F0805000902C
:1012B0005C480168C90513D40168834641F4807114
:1012C0000160FFF7E9FC824606E000BFFFF7E4FC9F
:1012D000A0EB0A0064284ED8DBF80000C005F5D565
:1012E000E06801280AD008B1052813D0286A20F048
:1012F00001002862286A20F0040002E0286A40F019
:1013000001002862E06841F2883B98B1FFF7C4FC15
:1013100082460BE0286A40F004002862EEE700BF36
:10132000FFF7BAFCA0EB0A0159455AD8286A800792
:10133000F6D50CE0FFF7B0FC824605E0FFF7ACFC09
:10134000A0EB0A0159454CD8286A8007F6D41FB192
:10135000E86920F08050E861E06988B36968C1F30A
:101360008101022944D00228C6F8608004D0FFF72A
:1013700093FC044638E034E0FFF78EFC074604E0B7
:10138000FFF78AFCC01B02282BD828688001F7D4FD
:10139000206AB0F5803F05D16868A16820F400306C
:1013A00008436860D4E908010843696821F47411AE
:1013B00008436860C6F86090FFF76EFC044606E0DC
:1013C00025E000BFFFF768FC001B022809D8286849
:1013D0008001F7D51BE000BFFFF75EFC001B022871
:1013E00002D90320BDE8F88F28688001F4D40EE00C
:1013F0000128F7D06868226A00F48031914204D154
:10140000616A00F47010884201D00120EAE70020F0
:10141000E8E700000010024000004242800442421F
:101420003C0000200070004070B5040003D0607CD8
:10143000002610B105E0012070BD2674204600F0A2
:101440003DF802206074204600F052F8042550BB9D
:10145000204600F05BFC30BB2068416821F00701AA
:101460004160A06820B11448016821F001010160C9
:101470001148001F0168A26821F4607111430160E6
:101480006068411C04D10120FFF7AAFC58B1401E3E
:101490002268C0F303419160216880B2C860204691
:1014A00000F04EFC08B16574C5E7E6730120607377
:1014B000A0736074002070BD306C004008B50068F7
:1014C000084988420DD1FFF785FC0748C16941F002
:1014D0000061C161C069054900F000600090012011
:1014E000086008BD00280040001002403C04424251
:1014F00070B504000AD02068416821F008014160FD
:10150000FFF7CAFB05464FF47A7608E0012070BD6C
:10151000FFF7C2FB401BB04201D9032070BD206819
:1015200040680007F4D5002070BD10B5401EB0F132
:10153000807F01D3012010BD4FF0E02460610F21B6
:10154000601700F078FD0020A061072020610020D6
:1015500010BD70477047000070B590F83C20012A1C
:1015600026D0012480F83C40022280F83D20036808
:101570005A689D6822F070060A6832435A600D4B23
:1015800002689A4208D0B2F1804F05D00A4B9A42C5
:1015900002D00A4B9A4204D1496825F080031943CE
:1015A000916080F83D40002180F83C10084670BDF5
:1015B000022070BD002C01400004004000080040E3
:1015C00010B5040003D094F83D0010B107E00120ED
:1015D00010BD002084F83C00204600F01FF80220D7
:1015E00084F83D00211D206800F010FC012084F8E3
:1015F000460084F83E0084F83F0084F8400084F8F8
:10160000410084F8420084F8430084F8440084F8E0
:10161000450084F83D00002010BD000008B50068BA
:101620000B49884212D10B48816941F40061816104
:101630008069002200F40060009011461920FFF735
:1016400097FBBDE808401920FFF784BB08BD0000E8
:10165000002C01400010024090F83D10012901D0FB
:1016600001207047022180F83D100168CA6842F0ED
:101670000102CA6000680B49884208D0B0F1804F6F
:1016800005D00949884202D00849884204D18168BE
:1016900001F00701062903D0016841F00101016052
:1016A00000207047002C014000040040000800406A
:1016B00070B5044690F83C000025012817D001269B
:1016C00084F83C60022084F83D002068826822F0A3
:1016D000770222F47F4282600868502838D00DDCFF
:1016E00020284FD005DC90B3102811D14AE0022009
:1016F00070BD302846D040280AD13BE060282FD06A
:1017000070280DD0B0F5805F03D0B0F5005F12D027
:10171000012584F83D60002084F83C00284670BD17
:10172000CB68D1E90121206800F0A6FB2068816820
:1017300041F0770109E0CB68D1E90121206800F090
:101740009BFB2068816841F480418160E1E719E0FA
:10175000CA684968206800F043FC5021206806E010
:10176000CA684968206800F04CFC6021206800F0DD
:101770008DFBCEE7CA684968206800F031FC402143
:101780002068F4E7226801461046F0E7704770B51C
:101790000446006801694FF00005C943890715D464
:1017A000C168C943890711D4E91E0161012020776E
:1017B000206880698007204602D0FFF7E7FF04E039
:1017C00000F0BEF8204600F063F925772068016933
:1017D000C943490717D4C168C943490713D46FF0F7
:1017E00004010161022020772068806910F4407FA5
:1017F000204602D0FFF7CAFF04E000F0A1F820461F
:1018000000F046F9257720680169C943090716D415
:10181000C168C943090712D46FF0080101610420AF
:1018200020772068C0698007204602D0FFF7AEFF0E
:1018300004E000F085F8204600F02AF925772068BA
:101840000169C943C90617D4C168C943C90613D47D
:101850006FF010010161082020772068C06910F442
:10186000407F204602D0FFF791FF04E000F068F8C7
:10187000204600F00DF9257720680169C943C907A2
:1018800008D1C168C943C90704D1891E0161204636
:1018900000F0FFF820680169C943090609D4C1684E
:1018A000C943090605D46FF0800101612046FFF7A6
:1018B00050FE20680169C943490609D4C168C9437B
:1018C000490605D46FF040010161204600F0E2F8BE
:1018D00020680169C94389060BD4C168C9438906D8
:1018E00007D46FF0200101612046BDE87040FFF78A
:1018F00031BE70BD00B585B000210091019102910B
:10190000039100680B49884212D10B48816941F06C
:10191000080181618069694600F0080004904FF475
:10192000707000900220019003900448FFF7C4F803
:1019300005B000BD0008004000100240000C01404E
:10194000704770B5044690F83C0000260D4601280B
:101950000FD0012084F83C006AB1042A1DD0082A67
:101960002FD00C2A3FD00126002084F83C003046BE
:1019700070BD022070BD206800F090FA2068816977
:1019800041F0080181612068816921F004018161D1
:10199000206881692A69114311E0206800F0A6FAE5
:1019A0002068816941F4006181612068816921F4C6
:1019B00080618161206881692A6941EA022181612F
:1019C000D2E7206800F0BEFA2068C16941F0080142
:1019D000C1612068C16921F00401C1612068C16949
:1019E0002A69114311E0206800F0D8FA2068C16923
:1019F00041F40061C1612068C16921F48061C16165
:101A00002068C1692A6941EA0221C161ACE710B5C9
:101A1000040003D094F83D0010B107E0012010BD90
:101A2000002084F83C00204600F01EF8022084F8D4
:101A30003D00211D206800F0E9F9012084F84600EE
:101A400084F83E0084F83F0084F8400084F84100A8
:101A500084F8420084F8430084F8440084F8450088
:101A600084F83D00002010BD08B500680649884292
:101A700008D10648C16941F00401C161C06900F0A4
:101A80000400009008BD0000000800400010024063
:101A9000704770477047FEE730B51E488BB01C4951
:101AA0000160102141604FF040410024C0E9021460
:101AB0004FF4003101614901416104764476847636
:101AC0000125C57604774477FEF7C6FE08B1FEF718
:101AD00041FC03940E200494CDE90850CDE906455D
:101AE000059400940194029469460A48FEF7AEFCFE
:101AF00008B1FEF72FFC02210648FEF72DFC08B1C5
:101B0000FEF728FC0348FEF791FF0BB030BD000044
:101B10000064004058000020114808B5816941F078
:101B200010018161816901F010010091816941F02A
:101B300020018161816901F020010091816941F0FA
:101B400004018161816901F004010091816941F022
:101B500008018161806900F00800009008BD000064
:101B6000001002400A4810B5084901604FF0FF31EB
:101B700041604FF480718160FFF756FC002803D06C
:101B8000BDE81040FEF7E6BB10BD00000028004095
:101B9000C001002010B586B000241A4800940194BA
:101BA0000294039404941649059401600921C0E944
:101BB000011440F29F51C0E9031444618461FFF7AE
:101BC000FFFC08B1FEF7C6FB4FF480500090694659
:101BD0000C48FFF76DFD08B1FEF7BCFB049404A9A7
:101BE00008480594FFF7B8FC08B1FEF7B3FB0548B9
:101BF000FFF732FD002801D0FEF7ACFB06B010BDA8
:101C0000002C0140D401002010B58AB000240794B4
:101C10001C2168460894FEF709FB22482049C0E9C8
:101C200000144FF6FF71C0E9024104618461FFF7BF
:101C3000EEFE08B1FEF78EFB079407A91948089439
:101C4000FFF78AFC08B1FEF785FB6020CDE90004B0
:101C500002940022694613480494FFF772FE08B10B
:101C6000FEF778FB042269460E48FFF76AFE08B1CA
:101C7000FEF770FB082269460A48FFF762FE08B1CA
:101C8000FEF768FB0C2269460648FFF75AFE08B1CA
:101C9000FEF760FB0348FFF72DFE0AB010BD000001
:101CA000000800401C020020FEE7FEE7704700002D
:101CB000F8B50A26134D0027134C1BE011482838AD
:101CC000FEF7B6FC00281CD060686B4605EB40119F
:101CD0000C4801F118022838FEF750FB002810D1FB
:101CE0006068401C90FBF6F106FB110060602078F4
:101CF00000B12770D4E901018842DFD120780028A3
:101D0000DCD1F8BD800000200800002070B504463A
:101D1000FEF7C2FF05464FF47A7606E0FEF7BCFFF9
:101D2000401BB04201D9032070BD20684068800686
:101D3000F4D52068416841F010014160002070BD79
:101D400070B504460068416821F010014160FEF75B
:101D5000A3FF05464FF47A7607E000BFFEF79CFF2D
:101D6000401BB04201D9032070BD20684068800646
:101D7000F4D5002070BD7047FEF794BF70B594B0E5
:101D800028216846FEF752FA14210AA8FEF74EFAF7
:101D900000250F95092001241095009011951295AA
:101DA0004FF4803004940694CDE901050226CDE974
:101DB00007604FF4E01009906846FFF7A5F908B1F5
:101DC00072B6FEE70F20CDE90A064FF48060CDE938
:101DD0000C5002210AA80E95FFF7CAF808B172B696
:101DE000FEE74FF40070CDE90F400FA8FFF74AF867
:101DF000002801D072B6FEE714B070BD7047000035
:101E00000148FFF7C4BC0000D4010020F0B502680F
:101E1000164B174C174D4FF08047984205D0B842EB
:101E200003D0A04201D0A84203D122F070064A6834
:101E30003243984205D0B84203D0A04201D0A84214
:101E400003D122F44074CA6822434C6922F0800214
:101E5000224302608A68C2620A688262984201D1A3
:101E60000969016301214161F0BD0000002C0140BE
:101E7000000400400008004010B5846842EA0322D4
:101E800024F47F440A432243826010BD826822F01A
:101E900070020A4342F007018160704730B5036A5F
:101EA000026A22F0010202624268846924F073052A
:101EB0000C682C4323F002058B682B430A4DA84283
:101EC0000BD123F00805CB6822F440722B434D69F7
:101ED00023F0040315438A692A43426084614968F8
:101EE0004163036230BD0000002C014030B5026A3E
:101EF000036A23F010030362436884690D6824F4C5
:101F0000E64444EA05248D6822F0200242EA0512E4
:101F10000B4DA8420ED1CD6822F0800242EA051294
:101F20004D6923F4406343EA85038D6922F0400242
:101F300043EA85034360846149688163026230BD7E
:101F4000002C014030B5036A026A22F480720262FA
:101F50004268C46923F4007324F073050C682C43B1
:101F60008D6843EA05230C4DA8420ED1CD6823F4B9
:101F7000006343EA05234D6922F4405242EA051208
:101F80008D6923F4806342EA05124260C4614968A6
:101F9000C163036230BD0000002C014030B5046A0B
:101FA000026A22F4805202624268C3690D6823F417
:101FB000E64343EA05238D6824F4005444EA0534DB
:101FC000064DA84204D14D6922F4804242EA8512AE
:101FD0004260C36149680164046230BD002C014065
:101FE00010B5036A046A24F001040462846924F0D1
:101FF000F00444EA021423F00A020A4384610262F4
:1020000010BD10B5036A046A24F0100404628469E8
:1020100023F0A00324F4704444EA023243EA01119D
:102020008261016210BD00000148FEF717BB00008D
:1020300058000020FEE70907090E002804DB00F124
:10204000E02080F80014704700F00F0000F1E0205D
:1020500080F8141D70470000FEF72CFEFFF78EFE7F
:10206000FFF75AFDFFF718FDFFF77CFDFFF792FD24
:10207000FFF7CAFD00250B4C0B4E082740F2231832
:10208000C4F80080A560C4E9035730780649401CB5
:1020900030700448FEF736F9FFF70AFE0A20FEF713
:1020A000F9FCEDE7400000200000002001020203DF
:1020B0000405060708090A0B0C0D0E0F101001028B
:1020C00002030405060708090A0B0C0D0E0F101079
:1020D00000000000000000000102030406070809D8
:1020E0000000000001020304082100080000002095
:1020F000400000002801000848210008400000209E
:1021000088080000440100080102030405060708CE
:1021100000000000000000000000000000000000BF
:1021200000000000000000000000000000000000AF
:10213000000000000000000001000000100000008E
:08214000000000000024F4007F
:04000005080000ED02
:00000001FF
