:020000040800F2
:1000000000C000208D780008954100089741000845
:10001000994100089B4100089D4100080000000034
:10002000000000000000000000000000016E000859
:100030009F41000800000000A16E0008E56E000866
:10004000D5780008D5780008D5780008D57800085C
:10005000D5780008D5780008D5780008D57800084C
:10006000D5780008D5780008D5780008D57800083C
:10007000D5780008D5780008A1410008B1410008F2
:10008000D5780008D5780008D5780008D57800081C
:10009000D5780008D5780008D5780008D57800080C
:1000A000D5780008D5780008D5780008D5780008FC
:1000B000D5780008D5780008D5780008D5780008EC
:1000C000D5780008D5780008D5780008D5780008DC
:1000D000D5780008C1410008D5780008D578000817
:1000E000D5780008D5780008D5780008D5780008BC
:1000F000D1410008D5780008D5780008D5780008E7
:10010000D5780008D5780008D5780008D57800089B
:10011000D5780008D5780008D5780008D57800088B
:10012000D5780008D5780008D5780008D57800087B
:1001300000000000000000000000000000000000BF
:1001400000000000000000000000000000000000AF
:10015000000000000000000000000000000000009F
:10016000000000000000000000000000000000008F
:10017000000000000000000000000000000000007F
:10018000000000000000000000000000000000006F
:10019000000000000000000000000000000000005F
:1001A000000000000000000000000000000000004F
:1001B000000000000000000000000000000000003F
:1001C000000000000000000000000000000000002F
:1001D000000000000000000000000000000000001F
:0401E0005FF8E0F1F3
:1001F0000348044B834202D0034B03B118477047B6
:1002000018010020180100200000000005480649E0
:100210000B1AD90F01EBA301491002D0034B03B114
:100220001847704718010020180100200000000046
:1002300010B5064C237843B9FFF7DAFF044B13B12E
:100240000448AFF300800123237010BD1801002083
:1002500000000000DC04010808B5044B1BB1044990
:100260000448AFF30080BDE80840CFE7000000007D
:100270001C010020DC040108014B1868704700BF16
:100280000000002070B50D4E0D4D761BB61006D047
:10029000002455F8043B01349847A642F9D1094E91
:1002A000094D10F01BF9761BB61006D0002455F846
:1002B000043B01349847A642F9D170BD581101089A
:1002C000581101086011010858110108844641EADB
:1002D000000313F0030349D1403A23D30B680360B2
:1002E0004B6843608B688360CB68C3600B690361B4
:1002F0004B6943618B698361CB69C3610B6A03629C
:100300004B6A43628B6A8362CB6AC3620B6B036383
:100310004B6B43638B6B8363CB6BC3634030403168
:10032000403ADBD230320BD30B6803604B6843603A
:100330008B688360CB68C36010301031103AF3D201
:100340000C3205D351F8043B40F8043B043AF9D28F
:10035000043208D0D2071CBF11F8013B00F8013B62
:1003600001D30B8803806046704700BF082A13D36F
:100370008B07B1D010F00303AED0C3F10403D21A3F
:10038000DB071CBF11F8013B00F8013BA4D331F897
:10039000023B20F8023B9FE7043AD9D3013A11F817
:1003A000013B00F8013BF9D20B7803704B784370A6
:1003B0008B78837060467047830730B548D0541EF1
:1003C000002A3FD00346CAB201E0013C3AD303F809
:1003D000012B9D07F9D1032C2DD9CDB245EA052576
:1003E0000F2C45EA054536D9A4F1100222F00F0C76
:1003F00003F1200EE6444FEA121C03F1100242E919
:10040000045542E9025510327245F8D10CF101024F
:1004100014F00C0F03EB021204F00F0C13D0ACF12C
:10042000040323F003030433134442F8045B9342B0
:10043000FBD10CF003042CB1CAB21C4403F8012B0D
:100440009C42FBD130BD64461346002CF4D1F9E741
:1004500003461446BFE71A46A446E0E70EB410B5BB
:10046000044683B008B183695BB106AB2046059AA8
:10047000A168019300F004FB03B0BDE8104003B095
:10048000704700F09DF9F0E70FB410B50A4B82B049
:100490001C680CB1A3695BB105AB2046049AA16846
:1004A000019300F0EDFA02B0BDE8104004B07047CF
:1004B000204600F085F9EFE7000000202DE9F0412B
:1004C0000E680C460546BEB137688FB1D7F800807C
:1004D000B8F1000F08D0D8F8001009B1FFF7EEFF0F
:1004E0004146284600F0D0F93946284600F0CCF9BC
:1004F0003146284600F0C8F921462846BDE8F041BB
:1005000000F0C2B9314B1B68834259D0426A70B5C2
:100510000546002A4FD0D16891B100268C5944B1CC
:1005200021462468284600F0AFF9002CF8D16B6A08
:10053000D9680436802EF1D1284600F0A5F96A6A00
:10054000116800293DD0284600F09EF9696911B173
:10055000284600F099F96A6A1AB11146284600F057
:1005600093F9A96B11B1284600F08EF9E96B11B12E
:10057000284600F089F9296C11B1284600F084F969
:10058000E96D11B1284600F07FF9A96D11B1284637
:1005900000F07AF9696B11B1284600F075F9AB6982
:1005A0006BB12846AB6A9847A96C41B12846BDE8B3
:1005B0007040FFF783BF41690029C9D1D1E770BD01
:1005C000704769690029C3D1C7E700BF0000002058
:1005D00000207047014900F033B900BFD91400086A
:1005E00000207047682270B54D1E02FB05F50E46CF
:1005F00005F1740100F0AEF9044640B100210C3061
:10060000C4E9016005F168022160FFF7D5FE2046CC
:1006100070BD00BF274B2DE9F0411E680746B36946
:1006200053B34FF004084836D6E90134013B04D5F2
:100630001EE05A1C04F168041AD0B4F90C50013BB6
:10064000002DF6D11C4B08222946C4E90055C4E907
:100650000253C4E904556566A56104F15C00FFF727
:10066000ABFEC4E90D55C4E912552046BDE8F08142
:1006700035682DB12E46D7E7304600F01FF8D0E799
:100680004FF4D671384600F065F9044668B105604C
:1006900029460546C0F804800C304FF4D072A060A3
:1006A000FFF78AFE34602E46BEE70C2330603B60C5
:1006B000DBE700BF300501080100FFFF0023334ADC
:1006C0002DE9F0471268C0E912339042036508BF74
:1006D00001232F4908BF836181620546FFF79AFF16
:1006E000034628466B60FFF795FFA8602846002464
:1006F000FFF790FF04236E68DFF898A0DFF898906A
:10070000DFF89880264FE8600822F3602146C6E9AA
:100710000044C6E904447466B460B46106F15C0048
:10072000FFF74AFE1F4BC6E9086AC6E90A98376315
:10073000AE680822F3602146C6E90044C6E90444D5
:100740007466B460B46106F15C00FFF735FE164BC9
:10075000C6E9086AC6E90A983763EE682146F3607D
:100760000822C6E90044C6E904447466B460B46172
:1007700006F15C00FFF720FE0123C6E9086AC6E91E
:100780000B87C6F82890AB61BDE8F08730050108FB
:10079000D505000829110008511100089111000821
:1007A000B11100080900010012000200024B0349C8
:1007B000186800F045B800BF30050108D9140008DA
:1007C000836903B97AE77047704700BF704700BF7D
:1007D000704700BF704700BF024B0349186800F024
:1007E0000FB800BF00000020D1050008024B0349EC
:1007F000186800F005B800BF00000020E1050008FF
:100800002DE9F0410026884600F14807D7E9015458
:10081000013D0ED4A389013D012B06D9B4F90E3058
:10082000013302D02046C04706436B1C04F1680424
:10083000F0D13F68002FE9D13046BDE8F08100BF1C
:100840002DE9F8434FF000090746884600F14806B5
:10085000D6E90154013D10D4A389013D012B08D9EB
:10086000B4F90E30013304D021463846C04749EA76
:1008700000096B1C04F16804EED13668002EE7D144
:100880004846BDE8F88300BF002952D038B551F87A
:10089000043C0C1F002BB8BFE418054601F066F9B4
:1008A0002B4A1368002B45D0A3420CD9216860184D
:1008B000834228D0636028461460BDE8384001F0C8
:1008C00057B9A3420FD81A465B68002BF9D11168BB
:1008D000501884421DD034D3636054602846BDE86C
:1008E000384001F045B911685018A04215D028D8F9
:1008F000216860188342EFD118685B680144C4E93D
:1009000000135460EAE718685B680144C4E9001307
:10091000D1E7236819441160E0E7206801445018CA
:1009200083421160DAD1D3E900030144C2E9001324
:10093000D4E77047284663601460BDE8384001F092
:1009400017B90C2328462B60BDE8384001F010B9D8
:1009500038010020F8B5CD1C25F0030508350C2D15
:1009600038BF0C25002D064623DBA94221D8264F8F
:1009700001F0FCF83A6822B3144603E063682246AB
:10098000FBB11C4623685B1BF8D40B2B15D863689E
:1009900094420CBF3B605360304601F0E9F804F12B
:1009A0000B00231D20F00700C21A01D01B1AA35010
:1009B000F8BD0C2300203360F8BD23601C44256083
:1009C000EAE77968D1B12946304600F09BFB431C29
:1009D00001460CD0C41C24F00304A04205D03046CC
:1009E000611A00F08FFB013001D02560D4E70C23A1
:1009F0003046336001F0BCF80020F8BD304600F00E
:100A000081FB7860DFE700BF380100209368013B7D
:100A1000002B936005DAD2F818C0634507DB0A297A
:100A200005D01368581C106008461970704700F014
:100A3000C3BB00BF9BB1F8B5134406460F46541E16
:100A40005D1E01E0AC4208D03A46304614F8011F62
:100A5000FFF7DCFF431CF5D1F8BD0020F8BD0020F6
:100A6000704700BF936810B5144613B91846536019
:100A700010BD00F09BFD0023C4E9013310BD00BF91
:100A80002DE9F04F0E4692461C4607469FB018B11E
:100A90008369002B00F0A880954B9E4200F0AA804D
:100AA000944B9E4200F0B580934B9E4208BFFE6877
:100AB000B389180740F1A3803369002B00F09F80B1
:100AC000002320220B9330239AF80010059401256F
:100AD0008A4C8DF831208DF8323000297DD0D146F6
:100AE0000B4604E019F8013F002B00F09480252B01
:100AF000F8D1B9EB0A0B40F0918099F80030002B47
:100B00006BD000234FF0FF3209F10109CDE9072333
:100B1000069309938DF85B301C9304E0001B05FAE3
:100B200000F018430690CA460522204619F8011B1A
:100B300000F058FF069B0028F0D1D90644BF2022C0
:100B40008DF85B201A0748BF2B229AF8001048BF87
:100B50008DF85B202A2972D1059A11680432002988
:100B60000592C0F2A08009919AF801100AF1010AD9
:100B70002E2976D0DFF888910322484600F032FF14
:100B800048B14022069BA0EB090002FA00F00343A3
:100B90000AF1010A06931AF8011B062259488DF83A
:100BA000301000F01FFF002800F08380564B002B10
:100BB0006CD005A9009132463846544B06A9AFF3D4
:100BC00000800390039B013307D00B9B039A9AF894
:100BD000001013440B93002981D1B3895B0615D40F
:100BE0000B981FB0BDE8F08FFFF7EAFD404B9E4227
:100BF0007FF456AF7E68B38918073FF55DAF314685
:100C0000384600F051FB00283FF45AAF4FF0FF3058
:100C1000E7E7BE684CE7B9EB0A0BDED0D046CAF175
:100C2000010A03E0934538D918F8011F32463846C7
:100C3000FFF7ECFE01300AEB0802F3D1CDE7A1F19A
:100C40003002092A94D8099B1AF8011F03EB830389
:100C500002EB4303A1F13002092AF5D92E290993A9
:100C600088D19AF801102A292DD1059B0AF102009A
:100C70001A680433002A0593B8BF4FF0FF339AF87F
:100C8000021007928246B8BF079373E7059B0733AC
:100C900023F007030833059397E70B9A99F8003080
:100CA0005A440B922BE7494243F002030991069301
:100CB0005AE705A9009132463846144B06A900F0C0
:100CC000CBF803907EE70023A1F13002092A0AF154
:100CD000010A07933FF64EAF1AF8011F03EB830397
:100CE00002EB4303A1F13002092AF5D9079341E74A
:100CF000740501085405010834050108540701086A
:100D00005C0701086007010800000000350A0008C0
:100D10008C4600B586461346034A714610685DF856
:100D200004EB6246FFF7ACBE000000202DE9F0475F
:100D300091461E460A698B680C469A42B8BF1A460D
:100D4000C9F8002091F843300546DDF8208013B142
:100D50000132C9F80020226891065DD5D9F800302B
:100D60000233C9F80030226812F0060F11461ED176
:100D7000E168CB1A002BD8BF114618DD002704F11B
:100D8000190A06E0D9F80030E268A2EB030CBC4572
:100D90000CDD0123524631462846C047013007F199
:100DA0000107EFD14FF0FF30BDE8F087216894F8DC
:100DB0004330003B18BF01238A060AD53021E218D0
:100DC00082F8431094F845105A1C2244023382F8EA
:100DD00043103146284604F14302C0470130E1D0B8
:100DE000236803F00603042B1DD0A36822699342F5
:100DF00025DD00279B1A1F4404F11A09002401E095
:100E0000BC421CDA01234A4631462846C04701301D
:100E100004F10104F4D1C5E712F0060F12D0003B33
:100E200018BF0123D5E7D9F80030E1682269C91A53
:100E3000A36821EAE1779342DCDC0029DCDC0020B6
:100E4000BDE8F087E168D9F80030CB1A002BD8BF95
:100E5000114693DCABE700BF2DE9F04317460A7E4D
:100E600085B00C46064698460C9D01F1430C002ABD
:100E700033D0A2F15803D9B2202967D8202B65D8E6
:100E8000DFE813F0DD0064006400640064006400C7
:100E900064006400640064006400A3006E006400E9
:100EA0006400640064006E00640064006400640018
:100EB00021007F00BF0064006400AE0064007F007A
:100EC00064006400E40023681A0640F102812B6884
:100ED0006269191D29601B681A600023E1462361BD
:100EE0003B4621463046CDF8008003AAFFF71EFF9F
:100EF000013020D04A46394630462369C047013088
:100F000019D02368E0689B07039919D5431A002B71
:100F100016DD002504F1190904E0E0680399431A7D
:100F2000AB420DDD01234A4639463046C047013009
:100F300005F10105F1D14FF0FF3005B0BDE8F083B8
:100F40008842B8BF084605B0BDE8F083012384F8A5
:100F5000422004F142092361002384F84330BFE7B3
:100F60002368190602D45A0600F1BF8029680A686E
:100F7000043129601146002A6ADB0A25DFF87CE18A
:100F800010E02368180640F19A802B68191D29602B
:100F900019686F2A0CBF08250A25DFF860E10023D5
:100FA00084F843306268002AA2607DDB236823F066
:100FB00004032360002959D1002A77D1E146082D86
:100FC00063D0ACEB090323618AE701222B6804F1AB
:100FD0004209196804332B6084F842102261BBE790
:100FE0002B6800211A1D2A60D3F8009062684846D9
:100FF00000F0F8FC00287FD0A0EB090060602061C1
:10100000AAE7236843F0200323607822DFF8F0E0AA
:1010100084F845202A68111D2960190642D45D060E
:1010200040D51188D80744BF43F02003236000292E
:1010300043D12368102523F020032360AFE7582312
:10104000DFF8B8E084F845302368E3E72368DCE79D
:101050002D2284F8432062684942002AA26002DB04
:1010600023F0040323600A25DFF890E0E146B1FB9A
:10107000F5F30A4605FB131019461EF80030AA4284
:1010800009F8013DF3D2082D9BD12368D90798D5E3
:10109000626823699A4294DC302309F1FF3989F8A8
:1010A00000308EE71168BDE70029DFD19EF80030DF
:1010B00004F1420984F8423081E710256FE713F00C
:1010C000400F2B6803F1040129600CBF19681988CF
:1010D0005FE713F0400F2B68626903F10401296098
:1010E0001B6814BF1A801A60F7E62A68B2F900106C
:1010F00004322A600A463EE7606880E76807010814
:101100007C070108002238B5064D044608462A60CF
:1011100003F008F9431C00D038BD2B68002BFBD02E
:10112000236038BD3401002010B50C46B1F90E1013
:1011300000F048FD002803DB636D0344636510BDC8
:10114000A38923F48053A38110BD00BF0020704702
:101150002DE9F0410C46B1F90C101F46CB050546B0
:1011600016460BD421F48051A1813B4632462846D5
:10117000B4F90E10BDE8F04100F080B8B4F90E10DB
:101180000223002200F08AFBB4F90C10EAE700BF4A
:1011900010B50C46B1F90E1000F080FBA389421C7B
:1011A0000EBF23F4805343F480536065A38110BDC8
:1011B000B1F90E1000F0FAB8F8B506460D4614461F
:1011C00008B1836943B3254B9C422AD0244B9C42EF
:1011D00029D0244B9C4208BFF468A269A389A2606D
:1011E0001A0722D5236903B322686169D31AEDB2C5
:1011F00099422F4629DD0133A1680139A160511CB4
:101200002160157062699A4216D0A389DB0701D567
:101210000A2D11D03846F8BDFFF7D2FA0F4B9C4289
:10122000D4D17468D9E7B468D7E72146304600F0D6
:101230003BF838B92369D7E72146304600F04CF92E
:101240000028E7D04FF0FF37E4E72146304600F0B2
:1012500043F90028F6D101232268CDE7740501087F
:10126000540501083405010803460A460249086886
:101270001946FFF7A1BF00BF0000002038B50C469B
:10128000114600228446074D20462A601A466446CD
:1012900003F03AF8431C00D038BD2B68002BFBD07C
:1012A000236038BD340100203C4B70B51D680646F4
:1012B0000C460DB1AB69E3B1394B9C421FD0394BA1
:1012C0009C424DD0384B9C4208BFEC68B4F90C30BE
:1012D00018079AB219D5216911B312F001002FD065
:1012E00000256069A5604042A06100292ED0002041
:1012F00070BD2846FFF764FA294B9C42DFD16C6829
:10130000B4F90C3018079AB2E5D4D1063ED552078D
:1013100028D4216943F00803A3819AB20029DCD1C3
:1013200002F42070B0F5007FD7D02146304600F09F
:10133000CBFAB4F90C3021699AB212F00100CFD186
:10134000950758BF6069A0600029D0D1120658BF28
:101350000846CDD543F040034FF0FF30A38170BD68
:10136000AC68B3E7616B51B104F14402914204D01F
:101370003046FFF789FAB4F90C300022626300228C
:10138000216923F02403C4E90012C3E7092243F0D2
:10139000400332604FF0FF30A38170BD0000002099
:1013A000740501085405010834050108002238B508
:1013B000064D044608462A6002F0DAFF431C00D0BE
:1013C00038BD2B68002BFBD0236038BD34010020D2
:1013D000F8B58B890C46190707463BD46268002A8A
:1013E00055DDE66A002E50D000223D683A6013F4C5
:1013F000805250D101233846216AB047421C5CD04C
:10140000A389E66A5B0705D56368C01A636B0BB1F5
:10141000236CC01A0246216A00233846B047411C9B
:101420003BD13B68002B38D01D2B01D0162B4BD164
:1014300000232269C4E90023616B3D6029B304F1F4
:101440004403994202D03846FFF71EFA002318469B
:101450006363F8BD2669C6B19A0718BF00232568E3
:1014600008BF63692660AD1BA3600CE02B463246C3
:10147000D4F828C03846216AE047B0F1000CA5EB4B
:101480000C05664412DD002DF0DC0020F8BD226C56
:10149000002AA6DCF9E7606DB4E7002223696260E8
:1014A0002360A389DB04C7D56065C5E7A3894FF036
:1014B000FF3043F04003A381F8BD3B68002B9FD071
:1014C0001D2B06D0162B04D0A38943F04003A38123
:1014D000F8BD00203D60F8BD38B50B69BBB10C46C6
:1014E000054608B18369B3B10D4B9C4211D00D4B39
:1014F0009C4213D00C4B9C4208BFEC68B4F90C30F2
:101500002BB121462846BDE83840FFF761BF0020D7
:1015100038BD6C68F2E7FFF753F9E5E7AC68EDE733
:1015200074050108540501083405010838B540B3B5
:1015300003690446E3B1174B1D680DB1AB69CBB12C
:10154000154B9C420FD0154B9C4221D0144B9C4212
:1015500008BFEC68B4F90C3053B121462846BDE809
:101560003840FFF735BF6C68B4F90C30002BF4D16C
:10157000002038BD2846FFF723F9074B9C42E2D1F3
:10158000F1E7084B08491868BDE83840FFF758B93B
:10159000AC68DFE70000002074050108540501086D
:1015A0003405010830050108D91400089368002BA0
:1015B00000F0B7802DE9F04FB1F90C300C46190757
:1015C0008046174683B098B225D523691BB310F027
:1015D00002033D682DD04FF0000B5E46DFF8B8A245
:1015E000002E00F08B80564533465A4628BF53469E
:1015F0004046216AD4F828C0E047002840F387809D
:10160000BB6883441B1A361ABB60002BE8D100204C
:1016100003B0BDE8F08F21464046FFF745FE0028A5
:1016200040F03681B4F90C303D6898B210F00203F6
:10163000D1D110F0010976D14E46002E5AD0820544
:10164000D4F808B040F1B580B3455A4600F2CD80D9
:1016500010F4906F00F0CB8023682169A3EB010B9D
:10166000636903EB430A0AEBDA7A0BF101034FEAF1
:101670006A0A33445345524684BF9A46524643054C
:1016800040F1EA8011464046FFF764F9002800F077
:10169000F9805A4621690190FEF718FEA289019B44
:1016A00022F4906242F08002A28103EB0B002361DE
:1016B0003246AAEB0B03B346C4F814A0A360206023
:1016C000B24600264946019200F0D4F9A368216889
:1016D000019AA3EB0B030A44A3602260B868D144CB
:1016E000A0EB0A00B860002891D0B4F90C0080B2D9
:1016F000002EA4D1D5E9009608359EE7D5E900B6BD
:1017000008356DE721464046FFF7E6FE80B3B4F9A1
:101710000C304FF0FF3043F04003A38103B0BDE82D
:10172000F08F002070471E46AA46994618461D466F
:1017300056B3002832D04A4620682169B24228BFF9
:1017400032468842636904D9A16803EB010B5A450C
:1017500074DC934265DC2A464046216AD4F828C0EE
:10176000E047B0F1000BD2DDB9EB0B09CAD0012084
:10177000BB685D44A3EB0B03A6EB0B06BB60002B21
:101780003FF445AF002ED4D10AF1080353F8046C9E
:101790009A4653F8085C0833002EF7D032460A21E7
:1017A000284600F01FF9002869D00130A0EB050998
:1017B000C1E72068236998421BD86369B34218D8EF
:1017C0006FF0004CB44528BFB4469CFBF3FC4A467E
:1017D00003FB0CF34046216AD4F828C0E047B0F17F
:1017E000000A94DDA6EB0A0678E7B3463246206885
:1017F00066E7B345DA4628BFB2464946524600F08E
:1018000039F9A3682268A3EB0A035244A36022605B
:10181000002BE7D121464046FFF75EFE0028E1D0CD
:1018200075E729469346019200F024F9A368019ACE
:101830009B1AA36023681A44226095E729465A46FA
:1018400000F018F9236821465B4440462360FFF707
:1018500043FE002888D05AE7404600F08BF9034643
:1018600000287FF422AF40462169FFF70DF80C22D3
:10187000B4F90C30C8F8002023F0800349E7721C4B
:10188000914659E70C22B4F90C30C8F8002040E723
:101890004FF0FF30BCE600BF00FCFF7F38B50C46C0
:1018A000114600228446074D20462A601A466446A7
:1018B00002F068FD431C00D038BD2B68002BFBD024
:1018C000236038BD34010020F0B58B890C469907A0
:1018D00097B007D5012204F14703C4E9043223601D
:1018E00017B0F0BDB4F90E10054600292DDB6A468D
:1018F00000F07EF9002827DB019E4FF4806706F494
:101900007046A6F50056B6FA86F639462846760998
:10191000FFF720F830B3A3891A4A43F08003AA6284
:10192000C4E90407A3812060002ED9D02846B4F969
:101930000E1000F071F90028D2D0A38923F0030320
:1019400043F00103A381CBE7A38913F0800F14BFF9
:1019500040274FF48067284639460026FEF7FAFFF5
:101960000028D8D1B4F90C309A05B9D4012123F05C
:10197000030304F1470243F00203C4E90421A381F5
:101980002260ADE7D505000870B50C46B1F90E1020
:10199000164600291D4696B013DB6A4600F028F96A
:1019A00000280EDB01994FF4806301F47041A1F52A
:1019B0000051B1FA81F1002049092960336016B065
:1019C00070BD0022B4F90C302A601B0604D54023F8
:1019D0000020336016B070BD4FF480630020336088
:1019E00016B070BD5FFA81FC810710D00346511E0E
:1019F0002AB90AE09A0718460AD0013905D31846D1
:101A000013F8012B6245F5D170470020704711464D
:101A100003290CD80029F8D00346014401E08B4289
:101A2000F3D0184613F8012B6245F8D1ECE70246D3
:101A300010B54CEA0C2444EA04441046036804320E
:101A40006340A3F1013E2EEA030313F0803F04D16B
:101A5000043903291046F0D851B10346014401E08E
:101A60008B4205D0184613F8012B6245F8D110BD02
:101A7000002010BD88420DD98B1883420AD900EB93
:101A8000020CBAB1624613F801CD994202F801CDB9
:101A9000F9D170470F2A0ED8034602F1FF3C4AB134
:101AA0000CF1010C013B8C4411F8012B614503F84A
:101AB000012FF9D1704740EA01039B074FD1A2F1F2
:101AC000100370B501F1200C23F00F0501F1100E89
:101AD00000F11004AC441B095EF8105C0EF1100E0E
:101AE00044F8105C5EF81C5C103444F81C5C5EF832
:101AF000185C44F8185C5EF8145CE64544F8145C25
:101B0000EAD1013312F00C0F01EB031102F00F04C4
:101B100000EB031327D08E46043C24F003064FEA63
:101B2000940C1E441C1F5EF8045B44F8045FB4422E
:101B3000F9D10CF1010402F0030203EB840301EB81
:101B4000840102F1FF3C4AB10CF1010C013B8C44D1
:101B500011F8012B614503F8012FF9D170BD03463F
:101B600002F1FF3C9CE72246EBE700BF704700BF55
:101B7000704700BFF8B51446F9B1CAB106460D4624
:101B800000F05CF8A04202D32F463846F8BD21464B
:101B90003046FEF7DFFE07460028F6D022462946EB
:101BA000FEF794FB30462946FEF76EFE3846F8BD38
:101BB0002746FEF769FE3846F8BD1146BDE8F840F5
:101BC000FEF7C8BE38B50C46114600228446074DC4
:101BD00020462A601A46644602F086FB431C00D069
:101BE00038BD2B68002BFBD0236038BD34010020AA
:101BF00070B50026074D0446084611462E6002F0D7
:101C0000BAFB431C00D070BD2B68002BFBD02360B7
:101C100070BD00BF34010020002238B5064D0446D7
:101C200008462A6002F0ACFB431C00D038BD2B688C
:101C3000002BFBD0236038BD3401002051F8040C88
:101C40000028A0F10400BCBF0B58C018704700BFAB
:101C500081F0004102E000BF83F0004330B54FEA5D
:101C600041044FEA430594EA050F08BF90EA020FCA
:101C70001FBF54EA000C55EA020C7FEA645C7FEA5D
:101C8000655C00F0E2804FEA5454D4EB5555B8BF80
:101C90006D420CDD2C4480EA020281EA030382EAF1
:101CA000000083EA010180EA020281EA0303362D83
:101CB00088BF30BD11F0004F4FEA01314FF4801C56
:101CC0004CEA113102D0404261EB410113F0004F68
:101CD0004FEA03334CEA133302D0524263EB43031F
:101CE00094EA050F00F0A780A4F10104D5F1200EBD
:101CF0000DDB02FA0EFC22FA05F2801841F1000118
:101D000003FA0EF2801843FA05F359410EE0A5F1EB
:101D100020050EF1200E012A03FA0EFC28BF4CF01C
:101D2000020C43FA05F3C01851EBE37101F00045D2
:101D300007D54FF0000EDCF1000C7EEB00006EEBDF
:101D40000101B1F5801F1BD3B1F5001F0CD3490869
:101D50005FEA30004FEA3C0C04F101044FEA4452C0
:101D600012F5800F80F09A80BCF1004F08BF5FEA47
:101D7000500C50F1000041EB045141EA050130BD27
:101D80005FEA4C0C404141EB0101013C28BFB1F539
:101D9000801FE9D291F0000F04BF01460020B1FA84
:101DA00081F308BF2033A3F10B03B3F120020CDA57
:101DB0000C3208DD02F1140CC2F10C0201FA0CF035
:101DC00021FA02F10CE002F11402D8BFC2F1200C9A
:101DD00001FA02F120FA0CFCDCBF41EA0C01904050
:101DE000E41AA2BF01EB0451294330BD6FEA040499
:101DF0001F3C1CDA0C340EDC04F11404C4F1200284
:101E000020FA04F001FA02F340EA030021FA04F395
:101E100045EA030130BDC4F10C04C4F1200220FAEC
:101E200002F001FA04F340EA0300294630BD21FA2A
:101E300004F0294630BD94F0000F83F4801306BFF0
:101E400081F480110134013D4EE77FEA645C18BFE4
:101E50007FEA655C29D094EA050F08BF90EA020F7B
:101E600005D054EA000C04BF1946104630BD91EA73
:101E7000030F1EBF0021002030BD5FEA545C05D176
:101E80004000494128BF41F0004130BD14F58004B5
:101E90003CBF01F5801130BD01F0004545F0FE4129
:101EA00041F470014FF0000030BD7FEA645C1ABF5E
:101EB000194610467FEA655C1CBF0B46024650EA95
:101EC000013406BF52EA033591EA030F41F40021C1
:101ED00030BD00BF90F0000F04BF0021704730B547
:101EE0004FF4806404F132044FF000054FF000011C
:101EF00050E700BF90F0000F04BF0021704730B5DD
:101F00004FF4806404F1320410F0004548BF4042B1
:101F10004FF000013EE700BF42004FEAE2014FEA06
:101F200031014FEA02701FBF12F07F4393F07F4FE1
:101F300081F06051704732F07F4208BF704793F0E4
:101F40007F4F04BF41F40021704730B54FF46074F7
:101F500001F0004521F000411CE700BF50EA0102FA
:101F600008BF704730B54FF000050AE050EA0102A3
:101F700008BF704730B511F0004502D5404261EB13
:101F800041014FF4806404F132045FEA915C3FF454
:101F9000D8AE4FF003025FEADC0C18BF03325FEAF1
:101FA000DC0C18BF033202EBDC02C2F1200300FAA2
:101FB00003FC20FA02F001FA03FE40EA0E0021FAC7
:101FC00002F11444BDE600BF70B54FF0FF0C4CF4B5
:101FD000E06C1CEA11541DBF1CEA135594EA0C0F67
:101FE00095EA0C0F00F0DEF82C4481EA030621EAA2
:101FF0004C5123EA4C5350EA013518BF52EA0335DD
:1020000041F4801143F4801338D0A0FB02CE4FF08E
:102010000005E1FB02E506F00042E0FB03E54FF0BE
:102020000006E1FB03569CF0000F18BF4EF0010EB6
:10203000A4F1FF04B6F5007F64F5407404D25FEAB2
:102040004E0E6D4146EB060642EAC62141EA555165
:102050004FEAC52040EA5E504FEACE2EB4F1FD0CA7
:1020600088BFBCF5E06F1ED8BEF1004F08BF5FEA25
:10207000500E50F1000041EB045170BD06F00046D7
:1020800046EA010140EA020081EA0301B4EB5C0484
:10209000C2BFD4EB0C0541EA045170BD41F480117C
:1020A0004FF0000E013C00F3AB8014F1360FDEBFA1
:1020B000002001F0004170BDC4F10004203C35DA7D
:1020C0000C341BDC04F11404C4F1200500FA05F300
:1020D00020FA04F001FA05F240EA020001F00042A1
:1020E00021F0004110EBD37021FA04F642EB060117
:1020F0005EEA430E08BF20EAD37070BDC4F10C0441
:10210000C4F1200500FA04F320FA05F001FA04F204
:1021100040EA020001F0004110EBD37041F10001F0
:102120005EEA430E08BF20EAD37070BDC4F12005FB
:1021300000FA05F24EEA020E20FA04F301FA05F263
:1021400043EA020321FA04F001F0004121FA04F20B
:1021500020EA020000EBD3705EEA430E08BF20EADB
:10216000D37070BD94F0000F0FD101F00046400015
:1021700041EB010111F4801F08BF013CF7D041EA97
:10218000060195F0000F18BF704703F0004652009B
:1021900043EB030313F4801F08BF013DF7D043EA6C
:1021A0000603704794EA0C0F0CEA135518BF95EA22
:1021B0000C0F0CD050EA410618BF52EA4306D1D1A9
:1021C00081EA030101F000414FF0000070BD50EAC8
:1021D000410606BF1046194652EA430619D094EA52
:1021E0000C0F02D150EA013613D195EA0C0F05D13C
:1021F00052EA03361CBF104619460AD181EA030190
:1022000001F0004141F0FE4141F470014FF0000047
:1022100070BD41F0FE4141F4780170BD70B54FF0E2
:10222000FF0C4CF4E06C1CEA11541DBF1CEA135562
:1022300094EA0C0F95EA0C0F00F0A7F8A4EB050444
:1022400081EA030E52EA03354FEA013100F088803B
:102250004FEA03334FF0805545EA131343EA126304
:102260004FEA022245EA111545EA10654FEA0026B9
:102270000EF000419D4208BF964244F1FD0404F572
:10228000407402D25B084FEA3202B61A65EB0305CE
:102290005B084FEA32024FF480104FF4002CB6EB8B
:1022A000020E75EB030E22BFB61A754640EA0C000B
:1022B0005B084FEA3202B6EB020E75EB030E22BF4B
:1022C000B61A754640EA5C005B084FEA3202B6EB8C
:1022D000020E75EB030E22BFB61A754640EA9C004B
:1022E0005B084FEA3202B6EB020E75EB030E22BF1B
:1022F000B61A754640EADC0055EA060E18D04FEAD9
:10230000051545EA16754FEA06164FEAC30343EA78
:1023100052734FEAC2025FEA1C1CC0D111F4801F45
:102320000BD141EA00014FF000004FF0004CB6E73E
:1023300011F4801F04BF01430020B4F1FD0C88BFDD
:10234000BCF5E06F3FF6AFAEB5EB030C04BFB6EBE8
:10235000020C5FEA500C50F1000041EB045170BDDB
:102360000EF0004E4EEA113114EB5C04C2BFD4EB08
:102370000C0541EA045170BD41F480114FF0000E8C
:10238000013C90E645EA060E8DE60CEA135594EA08
:102390000C0F08BF95EA0C0F3FF43BAF94EA0C0F0B
:1023A0000AD150EA01347FF434AF95EA0C0F7FF480
:1023B00025AF104619462CE795EA0C0F06D152EAD4
:1023C00003353FF4FDAE1046194622E750EA4106B8
:1023D00018BF52EA43067FF4C5AE50EA41047FF4C9
:1023E0000DAF52EA43057FF4EBAE12E74FEA41022C
:1023F00012F5001215D211D56FF47873B3EB625257
:1024000012D94FEAC12343F0004343EA505311F07D
:10241000004F23FA02F018BF404270474FF000000F
:10242000704750EA013005D111F0004008BF6FF04D
:10243000004070474FF00000704700BF7BB972B991
:102440000029BEBF00204FF0004106E008BF002871
:102450001CBF6FF000414FF0FF3000F0A9B9ADF1A3
:10246000080C6DE904CE002909DB002B1ADB00F013
:1024700035F8DDF804E0DDE9022304B0704740429E
:1024800061EB4101002B1BDB00F028F8DDF804E0D4
:10249000DDE9022304B0404261EB4101524263EBAB
:1024A00043037047524263EB430300F017F8DDF833
:1024B00004E0DDE9022304B0404261EB41017047D2
:1024C000524263EB430300F009F8DDF804E0DDE974
:1024D000022304B0524263EB430370472DE9F047F7
:1024E000089E0D4604468846002B4DD18A429446EC
:1024F00068D9B2FA82F252B101FA02F3C2F12001B4
:1025000020FA01F10CFA02FC41EA030894404FEA78
:102510001C41B8FBF1F71FFA8CFE01FB178807FB83
:102520000EF0230C43EA084398420AD91CEB03033C
:1025300007F1FF3580F01E81984240F21B81023F77
:1025400063441B1AB3FBF1F001FB103300FB0EFEDA
:10255000A4B244EA0344A6450AD91CEB040400F1E2
:10256000FF3380F00981A64540F2068164440238B9
:102570000021A4EB0E0440EA07401EB10023D44022
:10258000C6E90043BDE8F0878B4208D9002E00F071
:10259000EE800021C6E900050846BDE8F087B3FAE1
:1025A00083F100294AD1AB4202D3824200F2FC807F
:1025B000841A65EB030301209846002EE2D0C6E999
:1025C0000048DFE702B9FFDEB2FA82F2002A40F0EB
:1025D0009180A1EB0C0001214FEA1C471FFA8CFEF1
:1025E000B0FBF7F307FB1300250C45EA00450EFB93
:1025F00003F0A84208D91CEB050503F1FF3802D20D
:10260000A84200F2CE8043462D1AB5FBF7F007FB37
:1026100010550EFB00FEA4B244EA0544A64508D9B5
:102620001CEB040400F1FF3502D2A64500F2B6808F
:102630002846A4EB0E0440EA03409EE7C1F12007C0
:102640008B4022FA07FC4CEA030C25FA07FA4FEA02
:102650001C49BAFBF9F820FA07F309FB18AA8D40C8
:102660001FFA8CFE1D4300FA01F308FB0EF02C0C40
:1026700044EA0A44A04202FA01F20BD91CEB04041A
:1026800008F1FF3A80F08880A04240F28580A8F1EE
:1026900002086444241AB4FBF9F009FB104400FB5F
:1026A0000EFEADB245EA0444A64508D91CEB04046D
:1026B00000F1FF356CD2A6456AD90238644440EA7D
:1026C0000840A0FB0295A4EB0E04AC42C846AE46FF
:1026D00056D353D0002E69D0B3EB080264EB0E043E
:1026E00022FA01F304FA07F71F43CC40C6E900744D
:1026F000002147E70CFA02FCC2F1200125FA01F3A0
:102700004FEA1C4720FA01F195400D43B3FBF7F166
:1027100007FB11331FFA8CFE280C40EA034001FB33
:102720000EF3834204FA02F408D91CEB000001F115
:10273000FF382FD283422DD902396044C01AB0FB32
:10274000F7F307FB1300ADB245EA004503FB0EF0BB
:10275000A84208D91CEB050503F1FF3816D2A842A0
:1027600014D9023B6544281A43EA014138E731464F
:10277000304607E72F46E4E61846F9E64B45A9D26E
:10278000B9EB020865EB0C0E0138A3E74346EAE714
:10279000284694E74146D1E7D0467BE764440238B7
:1027A00047E7023B65442FE7084606E73146E9E67E
:1027B000704700BF03460A4602490868194600F000
:1027C00073B800BF0000002003460A4602490868AB
:1027D000194600F011B800BF0000002000B5054BFD
:1027E00083B0014601AA186800F006F803B05DF84E
:1027F00004FB00BF000000202DE9F047DFF87480E3
:1028000006468946174600F0CBFED8F8005055B171
:1028100099F800301C4673B14C4602E014F8013FB1
:102820003BB13D2BFAD1304600F0BCFE0020BDE8A4
:10283000F087A4EB090428680028F4D02246494612
:1028400000F012FB28B92B681A5D03EB040A3D2A3D
:1028500004D055F8040F0028F0D1E4E7D8F8003090
:102860003046ED1AAD103D6000F09CFE0AF101000B
:10287000BDE8F0876400002000B583B001AAFFF72F
:10288000BBFF03B05DF804FB024B01461868FEF77E
:1028900061B800BF00000020024B01461868FDF738
:1028A000F3BF00BF0000002038B502FB01F5294648
:1028B000FEF750F8044618B12A460021FDF77CFDCA
:1028C000204638BD38B5124B04461D68AA6B1AB1B4
:1028D0000023C2E9044338BD1820FFF7D5FF0246A4
:1028E000A86378B100210B2301209381C2E9040180
:1028F000084B0949094DC2E9011300231560C2E9DB
:10290000044338BD4221064B064800F023FE00BFB9
:1029100000000020ECDE050034126DE60E33CDAB76
:10292000C4100108DC10010838B5194B1C68A26BF3
:102930008AB113691749546903FB01F1164800FB7A
:102940000411A3FB0030013341EB0001C2E9043163
:1029500021F0004038BD1820FFF796FF0246A06323
:1029600088B1012400250B230A480C49C2E904451B
:10297000116001460A4D0B4C93810B4BC2E9015487
:10298000C2E9043138BD4E21084B094800F0E2FD90
:10299000000000202DF451582D7F954C0E33CDAB07
:1029A00034126DE6ECDE05002E7F954CC410010854
:1029B000DC10010803460A46024908681946FFF779
:1029C000D9B800BF0000002008B410B5002A0446A2
:1029D0009DB031DB4FF402734FF6FF7CADF814303D
:1029E0000291069120AB15D0013A0492079202A9F8
:1029F0001F9A0193ADF816C000F00CFF421C01DADB
:102A00008B2323600022029B1A701DB0BDE810408A
:102A100001B070470492079202A91F9A0193ADF882
:102A200016C000F0F7FE431C01DA8B2323601DB0B3
:102A3000BDE8104001B070478B234FF0FF3023609A
:102A4000F5E700BF0CB410B51E4B00291C689CB004
:102A500033DB4FF402734FF6FF7CADF81430029075
:102A600006901FAB16D001391E9A0491079120469B
:102A700002A90193ADF816C000F0CCFE421C01DAA9
:102A80008B2323600022029B1A701CB0BDE810400B
:102A900002B070470491079120461E9A02A9019343
:102AA000ADF816C000F0B6FE431C01DA8B2323609C
:102AB0001CB0BDE8104002B070478B234FF0FF30D0
:102AC0002360F5E70000002011F0FF01034644D029
:102AD000820732D110B5046841EA012E4EEA0E4E4B
:102AE0008EEA0402A2F1013323EA0203A4F10132C7
:102AF00022EA0402134313F0803F0FD150F8044F31
:102B000084EA0E0CA4F10133ACF1013223EA040390
:102B100022EA0C02134313F0803FEFD0037823B96D
:102B200036E010F8013F002B32D09942F9D110BDA8
:102B30008A4211D09A071846CCD0184613F8012BB8
:102B4000002AF5D1104670479907184607D0184655
:102B500002780133002AF7D170478207F7D1026863
:102B6000A2F1013323EA020313F0803F08D150F8A9
:102B7000042FA2F1013323EA020313F0803FF6D0C1
:102B80000378002BE8D010F8013F002BFBD17047F1
:102B9000184610BD80EA010C1CF0030F37D110F06D
:102BA000030C20F0030021F0030150F8042B08BFB0
:102BB00051F8043B0ED08CF0030C6FF07F434FEACA
:102BC000CC0C23FA0CFC51F8043B42EA0C0243EA19
:102BD0000C0300BFA2F1013C9A4201BF2CEA020C97
:102BE0001CF0803F50F8042B51F8043BF2D04FEA20
:102BF00002604FEA1222012828BFB0EB036F08BF22
:102C00001B0AF4D003F0FF03000EC01A704710F047
:102C1000030F0AD010F8012B11F8013B012A28BF3D
:102C20009A42F4D0A2EB030070474DF8045D50F8CF
:102C3000042B01F0030521F0030151F8043B022DA0
:102C400026D04DD822F07F45B5EB132FA2F1013CE1
:102C50002CEA020C0DD11CF0803C08BF51F8043B5B
:102C60000AD185EA0205B5EB036F0CD150F8042BAD
:102C7000E8E74FEA13235BE03CF07F4C54D10B783C
:102C80004FEA126554E04FEA126503F0FF034FE08C
:102C90004FEA0245A2F1013C4FEA15452CEA020C2D
:102CA000B5EB134F18D11CF0803C08BF51F8043B22
:102CB00007D185EA0205B5EB034F09D150F8042B83
:102CC000E6E75FEA0C4C2FD10B884FEA12452FE064
:102CD0004FEA03434FEA12454FEA134328E000BF8F
:102CE00002F0FF05B5EB136FA2F1013C2CEA020CD8
:102CF0000DD11CF0803C08BF51F8043B0AD185EA95
:102D00000205B5EB032F0AD150F8042BE8E74FEA90
:102D100013630DE012F0FF0F06D051F8043B4FEAA9
:102D2000122523F07F4303E04FF0000020BC7047E2
:102D300005F0FF0203F0FF00012828BF904204BF06
:102D40002D0A1B0AF4D0A2EB000020BC704700BF84
:102D500080EA0102844612F0030F4FD111F0030FF5
:102D600032D14DF8044D11F0040F51F8043B0BD053
:102D7000A3F101329A4312F0803F04BF4CF8043BA8
:102D800051F8043B16D100BF51F8044BA3F10132B6
:102D90009A4312F0803FA4F101320BD14CF8043B6E
:102DA000A24312F0803F04BF51F8043B4CF8044B9F
:102DB000EAD023460CF8013B13F0FF0F4FEA332310
:102DC000F8D15DF8044B704711F0010F06D011F8EF
:102DD000012B0CF8012B002A08BF704711F0020FDD
:102DE000BFD031F8022B12F0FF0F16BF2CF8022BC8
:102DF0008CF8002012F47F4FB3D1704711F8012BEB
:102E00000CF8012B002AF9D1704700BF20F0030114
:102E100010F00300C0F1000051F8043B00F1040C75
:102E20004FEACC0C6FF000021CBF22FA0CF21343E5
:102E30004FF0010C4CEA0C2C4CEA0C4CA3EB0C02AE
:102E400022EA030212EACC1204BF51F8043B043018
:102E5000F4D0C2F1000102EA0102B2FA82F2C2F138
:102E60001F0200EBD2007047A2B330B540EA010464
:102E7000A40786460B462AD004780B78A3422FD1AC
:102E8000012A0CD0844654B11CF8014F11F8013FBF
:102E90009C4225D16FEA0C031344C318F3D10020E0
:102EA00030BD1946DEF800407046A4F1013323EA34
:102EB000040C0B4653F8045B0EF1040EAC420BD12C
:102EC000043AECD01CF0803FE9D170461946032A41
:102ED000E7D8D1E71046704704780B789C42D1D0F0
:102EE000E01A30BD2DE9F04F012B1D4681460F46FB
:102EF0009046ADF21C4D40F24781012300219C46D3
:102F00004FF0FF341A4606E019460122A3EB040CE9
:102F10008B189D4210D908EB0400805C18F8036000
:102F20008642F1D300F081804FF0010C62460C46DE
:102F300061448B189D42EED8CDF808C04FF0010CCB
:102F400000204FF0FF366146634606E01846012137
:102F5000A3EB060C43189D420FD908EB010218F8A9
:102F600003E0925D9645F1D865D04FF0010C6146C3
:102F70000646604443189D42EFD8013604F1010B28
:102F8000B34502D8B346CDF808C005AB0DF21442E4
:102F900043F8045F9342FBD1002D00F0FA806C1ED1
:102FA00006AE08F1FF3208EB0400019612F8011F8B
:102FB000D3432B444344904246F82130F6D1029E3D
:102FC0005A46404608EB060100F010FB002840F08E
:102FD00083800BF1FF3305938246AB1B06460393B8
:102FE00009EB060E1EF80430019A52F8233043B361
:102FF000BAF1000F04D0029A9342039A38BF1346E5
:103000004FF0000A1E447B1BB342E9D209EB0700D4
:1030100045F4006100F018FD07447B1BB342DFD28A
:1030200000200DF21C4DBDE8F08F94450ABF01222F
:10303000013261446CE761450ABF4018013101214A
:1030400088E7D3455B4638BF5346A34214D2591E86
:103050009A1941444A4402E00133A3420CD212F8C7
:10306000010B11F801CF8445F6D0CBF101021644D3
:103070004FF0000A1E44C6E7D345059B7DD90BEBF4
:1030800006024A4408EB0B01CDF810B002E05345AC
:1030900016D0034612F8010D11F801CD03F1010B12
:1030A000844503F1FF30F2D05B46DDF810B00AF141
:1030B000010A9A450BD8029BDDF80CA01E44A2E73A
:1030C00053460AF1010A9A45DDF810B0F3D970466B
:1030D0000DF21C4DBDE8F08FA5EB0B035B4538BF2F
:1030E0005B4600260BF1FF3202920133CBF1010265
:1030F000039245F4006A049309EB060E1EF80430AF
:10310000019A52F823306BB11E447B1B9E42F3D9C7
:1031100009EB0700514600F097FC07447B1B9E42D9
:10312000EAD97DE7A34513D202990BEB06025B4671
:103130004A44414402E00133A34209D212F8010B90
:1031400011F801CF8445F6D0039A16441E44DCE7FB
:10315000BBF1000F13D00BEB0601494408EB0B0247
:1031600002E0013B43450AD0134611F8010D12F865
:1031700001CD8445F5D0049BC6E75B4697E77046D2
:103180000DF21C4DBDE8F08F01234FF0000B0293B0
:10319000FBE606AB4FF0FF34019310E72DE9F04159
:1031A0000D460978044690B0002953D06A78002A69
:1031B00000F08380AB78002B50D0E878002800F036
:1031C00083802B79002B57D02846FFF71FFE064639
:1031D000204646F4007100F037FC86425CD8FE2E93
:1031E00000F28780801B271840226846711CFDF77B
:1031F000E3F87EB16A1E5FFA86FC901912F8013F6F
:1032000003F03F034033A91A6B446144824203F840
:10321000401CF3D1013CA35D03F03F0340336B44FA
:1032200013F8400C0444A74203D23AE04444A742B6
:1032300037D314F806C020460CF03F0C0CF14003C5
:103240000DEB030C324629461CF8408C00F0CEF9F9
:103250000028EBD1204610B0BDE8F081007842EAAA
:10326000014200E00C4640EA0343611CA0B19A42CF
:103270006078F7D1013CEDE722786AB1296809BA94
:1032800001E099421ED0204642EA032314F8012FA0
:10329000002AF6D1994215D00024204610B0BDE88E
:1032A000F081BB5DB819002BF6D04FF4006100F03F
:1032B000CBFB0744BC42ADD9EEE710B0BDE8F0410E
:1032C000FFF702BCC41EC5E7120442EA016242EAEB
:1032D00003230146207800E02C4640EA0102651CE9
:1032E00011020028D8D0B3EB022F6078F4D1023C51
:1032F000B0E7014633462A46204610B0BDE8F0410B
:10330000F0E500BF2DE9F04707460E464A4D30462E
:1033100016F801CB15F80C4014F00804F7D1BCF1F5
:103320002D0FE64658D0BCF12B0F04BF96F800E0F5
:10333000861C5BB1102B54D04FF0FF38B8FBF3F86C
:1033400003FB08FA99466FEA0A0A08E0BEF1300F5B
:103350005AD00A234FF0050A9946DFF8E08000258D
:10336000284607E0404515D829D0012509FB00C0B3
:1033700016F801EBAEF1300CBCF1090F06D9AEF135
:10338000410CBCF1190F08D8AEF1370C63450DDDC7
:10339000002DE7DA4FF0FF35EAE7AEF1610CBCF142
:1033A000190F03D8AEF1570C6345F1DC002D0BDB90
:1033B00004B140420AB16DB91160BDE8F087D4454F
:1033C000D3DD4FF0FF35D3E722234FF0FF303B60D2
:1033D000002AF2D0711EEFE796F800E00124861C67
:1033E000A7E7BEF1300F21D1307800F0DF00582878
:1033F00016D14FF0100996F801E04FF00F0A6FF068
:1034000070484B460236AAE7337803F0DF03582BA7
:10341000EFD008234FF0070A6FF0604899469EE707
:1034200099466FF070484FF00F0A98E74FF00F0A77
:103430006FF07048994692E7A1050108999999198A
:1034400060E700BF8C4600B586461346034A7146C6
:1034500010685DF804EB624654E700BF00000020EE
:103460008C4600B586461346034A714610685DF8DF
:1034700004EB624646E700BF0000002010B5194C7F
:10348000002924689AB028DB009004904FF4027061
:103490004FF6FF7CADF80C0011D001390291059177
:1034A00020466946ADF80EC000F0B4F9421C01DABE
:1034B0008B2323600022009B1A701AB010BD02916A
:1034C000059120466946ADF80EC000F0A3F9431CF3
:1034D00001DA8B2323601AB010BD8B234FF0FF302D
:1034E0002360F8E70000002030B51446002C0546A4
:1034F0009BB029DB1A464FF402734FF6FF7C009114
:103500000491ADF80C3011D0013C69461E9B029429
:103510000594ADF80EC000F07DF9421C01DA8B2352
:103520002B600022009B1A701BB030BD1E9B6946A9
:1035300002940594ADF80EC000F06CF9431C01DA5A
:103540008B232B601BB030BD8B234FF0FF302B60E3
:10355000F8E700BF144600B51A460A4B0D461B6833
:1035600085B0DE6803464CB10749019130460749F2
:103570000294009500F026F800F078FA04490C4611
:10358000F3E700BF0000002010110108201101081E
:103590001C11010808B513460022FFF7DBFF00BF2E
:1035A000704700BF704700BF0CB400B583B004ABD8
:1035B00053F8042B0193FDF763FA03B05DF804EBB5
:1035C00002B070470EB400B5074A82B003AB0146A3
:1035D000106853F8042B0193FDF752FA02B05DF81E
:1035E00004EB03B0704700BF00000020032A10B5B1
:1035F00016D940EA010C1CF0030F04460B4622D1F9
:1036000019462046D1F800E0D0F800C00433F44554
:1036100004F1040417D1043A032A20461946EFD8CE
:10362000541EA2B100F1FF3C013901E0C3180CD0D7
:103630001CF801EF11F8012FA4EB0C039645F5D00F
:10364000AEEB020010BD541EECE7184610BD10464C
:1036500010BD00BF2DE9F0478F680C469F421D4604
:10366000164638D88246888910F4906F0ED13D46B0
:1036700008682A463146FEF7FDF90020A268236853
:10368000D21B2B44A2602360BDE8F0874B69096917
:1036900003EB4308236808EBD878A3EB01096B1C04
:1036A0004FEA68084B444345424684BF9846424629
:1036B000430513D511465046FDF74CF9074608B3AC
:1036C0004A462169FCF702FEA38923F4906343F084
:1036D0008003A38107E01F460868CAE75046FEF74B
:1036E00049FA074650B107EB0900A8EB0903276127
:1036F000C4F814802F46A3602060BAE750462169C1
:10370000FDF7C2F80C23CAF80030A3894FF0FF3050
:1037100043F04003A381B7E72DE9F04F936891464A
:1037200083B0002B6ED0176880460C4608688D6801
:10373000083744E0B4F80CC01CF4906F2ED0D4E9E4
:103740000413451A03EB430303EBD373AA194FEA9F
:10375000630A531C5345524684BF9A4652461CF492
:10376000806F36D011464046FDF7F4F800283AD075
:103770002A4621690190FCF7A9FDA289019B22F448
:10378000906242F08002A2815819AAEB0505A5605B
:10379000C4F814A03546B24623612060594652460B
:1037A000FEF768F9D9F80830A16820684D1B50442D
:1037B0009E1BA5602060C9F808601EB3083757E952
:1037C00002B6002EFAD0B542AA46B3D93546B24663
:1037D000E4E74046FEF7CEF903460028D4D1404640
:1037E0002169FDF751F80C2300224FF0FF30C8F893
:1037F0000030A38943F04003A381C9E9012203B04B
:10380000BDE8F08F00231846C9F8043003B0BDE8C6
:10381000F08F00BF2DE9F04F1C468B890F461D0627
:10382000804692469DB003D50B69002B00F0F380D3
:1038300000230993302320228DF82A309AF8003093
:10384000039401257B4C8DF82920002B76D0D1469E
:1038500003E019F8013F002B79D0252BF9D1B9EB02
:103860000A0B77D199F80020002A67D000234FF087
:10387000FF3209F10109CDE90523049307938DF87F
:1038800053301A9304E0001B05FA00F0184304902B
:10389000CA460522204619F8011BFEF7A3F8049B2F
:1038A0000028F0D1D80644BF20228DF853201907F4
:1038B00048BF2B229AF8001048BF8DF853202A29C0
:1038C00056D1039A11680432002903927EDB0791D6
:1038D0009AF801100AF1010A2E295BD0DFF85891FD
:1038E00003224846FEF77EF848B14022049BA0EB35
:1038F000090002FA00F003430AF1010A04931AF8DE
:10390000011B06224D488DF82810FEF76BF80028A1
:1039100062D04B4B002B52D003A900913A4640464F
:10392000484B04A9AFF300800646721C06D0099BE1
:10393000334409939AF80030002B88D1BB895B0689
:103940004CBF4FF0FF3009981DB0BDE8F08FB9EBC8
:103950000A0BF3D05B46524639464046FFF77AFEE3
:103960000130EBD0099B99F800205B4409937BE779
:10397000A1F13002092AAFD8079B1AF8011F03EB07
:10398000830302EB4303A1F13002092AF5D92E2962
:103990000793A3D19AF801102A2927D1039B0AF192
:1039A00002001A680433002A0393B8BF4FF0FF33B4
:1039B0009AF8021005928246B8BF05938EE7039BE2
:1039C000073323F0070308330393B0E7494243F07A
:1039D0000203079104937BE703A900913A4640460E
:1039E000184B04A9FDF738FA06469EE70023A1F11B
:1039F0003002092A0AF1010A05933FF66FAF1AF85F
:103A0000011F03EB830302EB4303A1F13002092AF8
:103A1000F5D9059362E74021FCF79CFF38603861D7
:103A200010B140237B6103E70C234FF0FF30C8F84F
:103A3000003089E7540701085C07010860070108A6
:103A4000000000005536000871B1034600EB010C80
:103A500001E0634506D01A46117801330029F8D1F8
:103A6000101A7047181A704708467047062008B5A4
:103A700000F09AF8012000F031FC00BF38B5446C2A
:103A80000CB1002038BD80210546FCF763FF0246DB
:103A9000686430B1031F7C3243F8044F9342FBD17A
:103AA000EFE74FF0FF3038BD1F29F8B5054608D8BD
:103AB000466C0C4617464EB156F8240046F8247062
:103AC000F8BD16234FF0FF302B60F8BD8021FCF7C6
:103AD00041FF0646686440B10021031F00F17C05E8
:103AE00043F8041F9D42FBD1E6E74FF0FF30F8BDDD
:103AF0001F2938B5054620D8426C0C466AB152F8E9
:103B0000213053B1012B16D0591C10D0002520466E
:103B100042F824509847284638BD284600F0F8F867
:103B2000224601462846BDE8384000F0DDB816239D
:103B300001202B6038BD002038BD16234FF0FF3028
:103B40002B6038BD1F292BD8426C38B50C46054672
:103B500082B152F8243002EB84024BB1591C1AD0C6
:103B6000012B16D00025204615609847284638BD01
:103B7000012038BD8021FCF7EDFE0246686460B18B
:103B80000020131F02F17C0143F8040F9942FBD17E
:103B9000DFE7032038BD022038BD4FF0FF3038BDCD
:103BA0004FF0FF30704700BF38B5144B1F281D6819
:103BB0001FD86A6C044662B152F820304BB1012B19
:103BC00015D0591C0FD0002542F8205098472846A0
:103BD00038BD284600F09CF8224601462846BDE83C
:103BE000384000F081B8162301202B6038BD00203A
:103BF00038BD16234FF0FF302B6038BD0000002089
:103C0000124B1F2870B51E6808D80D46716C04460B
:103C100049B151F8240041F8245070BD16234FF0EB
:103C2000FF30336070BD80213046FCF793FE0146C3
:103C3000706440B10022031F00F17C0C43F8042F94
:103C40006345FBD1E5E74FF0FF3070BD0000002079
:103C500038B50B4B1D686C6C0CB1002038BD802151
:103C60002846FCF777FE686438B1031F00F17C0238
:103C700043F8044F9342FBD1EFE74FF0FF3038BDDC
:103C80000000002038B5174B1F281D6827D86A6C24
:103C9000044682B152F8243002EB84024BB1591C25
:103CA0001BD0012B17D000252046156098472846C9
:103CB00038BD012038BD80212846FCF74BFE024666
:103CC000686460B10020131F02F17C0143F8040F07
:103CD0008B42FBD1DEE7032038BD022038BD4FF018
:103CE000FF3038BD0000002070B50026074D0446A7
:103CF000084611462E6000F0E9FA431C00D070BD62
:103D00002B68002BFBD0236070BD00BF3401002066
:103D100000F0DABA08B50268034B9A4200D008BD39
:103D200000F044FBFBE700BF0034014072B6FEE741
:103D300000B591B02822002106A8FCF73DFB002326
:103D400001930293039304930593012206924FF487
:103D5000803307930A9202220D920E934FF4E013E0
:103D60000F9306A800F05EFB80B90F230193022198
:103D70000291002303934FF480620492059301A8FB
:103D800000F082FD20B911B05DF804FBFFF7CEFF13
:103D9000FFF7CCFF08B500F0F7FAFFF7C9FF00F016
:103DA0000DF800F03DF900F05DF903F011FA03F0B1
:103DB0006FFA00F007F903F025F9FEE72DE9F0416D
:103DC00088B000240494059406940794244B9A69BF
:103DD00042F010029A619A6902F010020092009A71
:103DE0009A6942F020029A619A6902F020020192D7
:103DF000019A9A6942F004029A619A6902F00402F7
:103E00000292029A9A6942F008029A619B6903F051
:103E100008030393039BDFF84C80224603214046AE
:103E200000F04CFF104D2246C021284600F046FF0E
:103E3000032304930127059706940226079604A9F5
:103E4000404600F01BFEC023049305970694079696
:103E500004A9284600F012FE08B0BDE8F08100BFBA
:103E60000010024000080140000C014000B5A5B060
:103E70002A4B01932A4B00932A4B2B4A2B490120B2
:103E800003F05AFF1FA803F0D9FE294B1F93294BBB
:103E90002093294B2193294B22931FA803F0DEFE88
:103EA00028B302A803F0F8FE0DF12C0E0DF1080C5A
:103EB000BCE80F00AEE80F00DCF80030CEF80030B0
:103EC0000BAB0022114610A803F0F6FD10AB1C4A04
:103ED0001C4909A803F03AFE04F0AEFB02461A4B57
:103EE00009A91EA803F06EFE00231D930EE0AC216D
:103EF0001648FCF7C9FAD4E7CD211548FCF7C4FAF7
:103F00001D9B01331D93C82003F0B6F800221DA9A4
:103F10001EA803F0ADFD0028EED1F1E715780008EA
:103F2000D7770008C9770008B177000898490020C2
:103F3000497600086D7600088D760008CD76000879
:103F40001C110108E4060108F0060108BC0601087E
:103F50000407010808B5114C0821204601F09CFD1A
:103F60000C21204601F098FD4FF080436422DA6373
:103F70004FF4C8721A6401224021094800F09EFEE5
:103F800001221146074800F099FE074803F0E4F9C2
:103F90004FF47A6003F070F8F7E700BF7057002025
:103FA000000C01400008014000003443034B036053
:103FB000034B0B6080231360704700BF90440020C8
:103FC0008C42002010B58EB0124C0DF11C0CA64690
:103FD000BEE80F00ACE80F009EE807008CE8070081
:103FE000002107A803F013F80B4B1860EE4604F10C
:103FF0001C0CBCE80F00AEE80F009CE807008EE840
:1040000007000021684603F002F8044B18600EB068
:1040100010BD00BFF8040108C0370020884200200E
:1040200000B583B00E4B5A6942F001025A615B69D8
:1040300003F001030193019B002205210E2001F0F2
:1040400041F90E2001F076F9002205210F2001F040
:1040500039F90F2001F06EF903B05DF804FB00BFE1
:104060000010024008B50A480A4B03600A4B43603F
:1040700000238360C36003610C2242618361C361DA
:1040800001F07CFE00B908BDFFF750FEFBE700BF62
:10409000984900200038014060E3160070B586B0F2
:1040A000002302930393049305930268334B9A42CF
:1040B00001D006B070BD044603F558439A6942F436
:1040C00080429A619A6902F480420092009A9A6949
:1040D00042F004029A619B6903F004030193019B7F
:1040E0004FF4007302930223039303230593244E9A
:1040F00002A9304600F0C2FC4FF480630293002511
:104100000395049502A9304600F0B8FC1D481E4BEB
:104110000360456085608023C3600561456120239D
:1041200083614FF44053C36100F0E4FD00BB154BC5
:10413000E3635C621548164B036010234360002361
:1041400083608022C2600361436183614FF4405306
:10415000C36100F0CFFD70B90C4BA3635C62002219
:104160000521252001F0AEF8252001F0E3F8A0E7B5
:10417000FFF7DCFDDBE7FFF7D9FDEDE70038014095
:104180000008014010490020580002405449002016
:1041900044000240FEE7FEE7FEE7FEE7FEE7704769
:1041A00008B5024800F006FF08BD00BF54490020D2
:1041B00008B5024800F0FEFE08BD00BF104900200F
:1041C00008B5024801F074FF08BD00BF98490020FF
:1041D00008B5024801F0BFF908BD00BFE049002062
:1041E00000B583B0114B9A6942F001029A619A6955
:1041F00002F001020092009ADA6942F08052DA611C
:10420000DB6903F080530193019B00220F216FF0C3
:10421000010001F057F8064A536823F0E06343F0C9
:104220000073536003B05DF804FB00BF0010024050
:104230000000014030B589B004461E4B9A6942F433
:1042400000529A619B6903F400530193019B02A9F8
:1042500003A800F0F5FB00F0E3FB03461648A0FBC3
:1042600003239B0C013B1548154A026040F2E732DC
:10427000C2604360002303618360836101F074FACC
:10428000054610B1284609B030BD0C4801F022F9AE
:1042900005460028F6D12C2001F04CF80F2C01D94E
:1042A0000125EFE7002221462C2001F00BF8054BF9
:1042B0001C60E7E70010024083DE1B43E04900205A
:1042C000003401406C0000200120704708B5FBF766
:1042D000D3FF162303604FF0FF3008BD08B54FF041
:1042E000FF31FFF7F3FFFEE770B50C4616460025D9
:1042F00006E0AFF30080214601F8010B01350C46C2
:10430000B542F6DB304670BD70B50C46164600254A
:1043100004E014F8010BAFF300800135B542F8DB7F
:10432000304670BD08B503460D4A12685AB10C4AB2
:10433000106803440B4A11780B4A521A934206D86C
:10434000074A136008BD064A08491160EFE700BE3E
:10435000FBF792FF0C2303604FF0FF30F2E700BF42
:104360002C4A00200004000000C0002030B70020CC
:104370004FF0FF3070474FF400534B600020704700
:10438000012070470020704708B5074A136843F0C2
:1043900010031360032000F083FF0F20FFF74AFF94
:1043A000FFF71EFF002008BD00200240034A1168ED
:1043B000034B1B780B441360704700BF304A00204A
:1043C00068000020014B1868704700BF304A002089
:1043D00038B50446FFF7F6FF0546B4F1FF3F02D0BB
:1043E000044B1B781C44FFF7EDFF401BA042FAD39F
:1043F00038BD00BF6800002082B0084B1B68084A27
:10440000A2FB03235B0A00FB03F3019300BF019BA4
:104410005A1E0192002BF9D102B0704770000020A3
:10442000D34D6210002800F0F18170B582B00446CF
:10443000036813F0010F2CD0994B5B6803F00C0359
:10444000042B1DD0964B5B6803F00C03082B12D095
:104450006368B3F5803F41D0002B55D103F1804311
:1044600003F504331A6822F480321A601A6822F4C1
:1044700080221A6037E08A4B5B6813F4803FE7D0F4
:10448000874B1B6813F4003F03D06368002B00F0D8
:10449000BF81236813F0020F75D0814B5B6813F066
:1044A0000C0F5FD07E4B5B6803F00C03082B54D0DD
:1044B0002369002B00F08A807A4B01221A60FFF7F3
:1044C00081FF0546764B1B6813F0020F75D1FFF78D
:1044D00079FF401B0228F5D903209EE1704A13683A
:1044E00043F480331360636843B3FFF76BFF054603
:1044F0006B4B1B6813F4003FCBD1FFF763FF401BEE
:104500006428F5D9032088E1B3F5A02F09D0644BC6
:104510001A6822F480321A601A6822F480221A6023
:10452000E1E703F18043A3F53C331A6842F48022AB
:104530001A601A6842F480321A60D4E7FFF742FF2B
:104540000546574B1B6813F4003FA2D0FFF73AFF14
:10455000401B6428F5D903205FE1514B5B6813F4DD
:10456000803FA5D14E4B1B6813F0020F03D0236987
:10457000012B40F04F814A4A136823F0F803616928
:1045800043EAC1031360236813F0080F33D0A36913
:10459000002B5CD0434B0122C3F88024FFF712FFAD
:1045A00005463F4B5B6A13F0020F21D1FFF70AFF6C
:1045B000401B0228F5D903202FE1394A136823F064
:1045C000F803616943EAC1031360DCE7354B00225D
:1045D0001A60FFF7F7FE0546314B1B6813F0020F18
:1045E000D1D0FFF7EFFE401B0228F5D9032014E1DC
:1045F0000120FFF701FF236813F0040F00F09680FD
:10460000274BDB6913F0805F34D1254BDA6942F028
:104610008052DA61DB6903F080530193019B01252D
:10462000214B1B6813F4807F26D0E368012B3DD01B
:10463000002B53D103F1804303F504331A6A22F0AF
:1046400001021A621A6A22F004021A6233E0154B60
:104650000022C3F88024FFF7B5FE0546104B5B6AC5
:1046600013F0020FC7D0FFF7ADFE401B0228F5D9AB
:104670000320D2E00025D3E70B4A136843F480738C
:104680001360FFF79FFE0646074B1B6813F4807FFD
:10469000CBD1FFF797FE801B6428F5D90320BCE03F
:1046A0000010024000004242007000405F4A136A5E
:1046B00043F001031362E36833B3FFF783FE06465A
:1046C0005A4B1B6A13F0020F2FD1FFF77BFE801BA2
:1046D00041F288339842F3D903209EE0052B09D09C
:1046E000524B1A6A22F001021A621A6A22F004027C
:1046F0001A62E0E74D4B1A6A42F004021A621A6A23
:1047000042F001021A62D6E7FFF75CFE0646474B0D
:104710001B6A13F0020F08D0FFF754FE801B41F212
:1047200088339842F3D9032077E0E5B9E369002B99
:1047300072D03E4A526802F00C02082A56D0022B70
:1047400017D03B4B00221A66FFF73CFE0446374B5E
:104750001B6813F0007F47D0FFF734FE001B0228D0
:10476000F5D9032059E0314AD36923F08053D3614E
:10477000DCE72F4B00221A66FFF724FE05462B4B81
:104780001B6813F0007F06D0FFF71CFE401B0228B9
:10479000F5D9032041E0236AB3F5803F1AD02349BD
:1047A0004B6823F47413226A606A024313434B601C
:1047B0001F4B01221A66FFF705FE04461B4B1B68C0
:1047C00013F0007F0ED1FFF7FDFD001B0228F5D985
:1047D000032022E0154A536823F40033A1680B43F9
:1047E0005360DCE7002018E0002016E0012B16D013
:1047F0000E4B5B6803F48031226A914211D103F4BD
:104800007013626A93420ED1002006E001207047C7
:10481000012002E0012000E0002002B070BD012074
:10482000FBE70120F9E70120F7E700BF0010024095
:10483000000042420F4B5B6803F00C02082A01D0D3
:104840000D487047C3F383420C49885C13F4803FE2
:104850000BD0084B5B68C3F34043094AD35C064A5C
:1048600002FB00F0B0FBF3F07047064B03FB00F0D7
:10487000704700BF0010024000127A0020070108B4
:104880003007010800093D00002800F0A08070B545
:104890000D460446524B1B6803F007038B420BD2B4
:1048A0004F4A136823F007030B431360136803F0A8
:1048B00007038B4240F08D80236813F0020F17D05E
:1048C00013F0040F04D0474A536843F4E063536085
:1048D000236813F0080F04D0424A536843F460532E
:1048E0005360404A536823F0F003A1680B435360C0
:1048F000236813F0010F31D06368012B20D0022B05
:1049000025D0384A126812F0020F64D035494A683F
:1049100022F0030213434B60FFF754FD0646314B70
:104920005B6803F00C036268B3EB820F16D0FFF7ED
:1049300049FD801B41F288339842F0D9032045E0BD
:10494000284A126812F4003FE0D101203EE0254AD7
:10495000126812F0007FD9D1012037E0204B1B688C
:1049600003F00703AB420AD91D4A136823F007037B
:104970002B431360136803F00703AB422DD1236868
:1049800013F0040F06D0174A536823F4E063E1687C
:104990000B435360236813F0080F07D0114A536884
:1049A00023F46053216943EAC1035360FFF742FFD8
:1049B0000C4B5B68C3F303130B4AD35CD8400B4B1F
:1049C00018600B4B1868FFF735FC002070BD012004
:1049D00070470120FAE70120F8E70120F6E700BF61
:1049E000002002400010024034070108700000203F
:1049F0006C000020014B1868704700BF7000002059
:104A000008B5FFF7F7FF044B5B68C3F30223034AC3
:104A1000D35CD84008BD00BF001002404407010825
:104A200008B5FFF7E7FF044B5B68C3F3C223034AF3
:104A3000D35CD84008BD00BF001002404407010805
:104A40000F2303600B4B5A6802F0030242605A685E
:104A500002F0F00282605A6802F4E062C2605B68B1
:104A6000DB0803F4E0630361034B1B6803F00703F7
:104A70000B607047001002400020024070B582B009
:104A80000024A446B0E0874DAA4210D007D9864D35
:104A9000AA420CD005F58035AA4208D013E0A5F54E
:104AA0008015AA4203D005F57025AA4207D18A686D
:104AB000002A62D0012A5BD04361082403E0A5F5F7
:104AC0008015AA42F3D0BEF1FF0F58D80646BEF1BA
:104AD000FF0F56D84FEA8C0233680F25954023EA22
:104AE000050304FA02F2134333604B6813F0805F4E
:104AF00078D06E4B9A6942F001029A619B6903F08B
:104B000001030193019B4FEA9C02951C684B53F8EB
:104B100025600CF003039D000F23AB4026EA03063B
:104B2000644B984233D003F58063984200F098803C
:104B300003F58063984200F0958003F58063984206
:104B400000F0928003F58063984200F08F8003F5B7
:104B50008063984219D006231AE0CC68B3E7CC688A
:104B60000434B0E7CC680834ADE7CC680C34AAE76D
:104B700003610824A7E70024A5E70424A3E7061D92
:104B8000A5E7ACF108029200A6E7052300E00023A8
:104B9000AB4033430232464D45F822304B6813F4A4
:104BA000801F65D0444A936843EA0E0393604B68C4
:104BB00013F4001F62D0404AD36843EA0E03D36067
:104BC0004B6813F4003F5FD03B4A536843EA0E033F
:104BD00053604B6813F4803F5CD0374A136843EA54
:104BE0000E0313600CF1010C0A6832FA0CF357D073
:104BF000012303FA0CF302EA030E33EA0202F1D1B5
:104C00004A68122A3FF63FAF122A3FF65CAF01A571
:104C100055F822F0AF4A00085B4B0008654B0008CE
:104C2000774B0008C74A0008C74A0008C74A00086F
:104C3000C74A0008C74A0008C74A0008C74A000810
:104C4000C74A0008C74A0008C74A0008C74A000800
:104C5000C74A0008C74A00085F4B00086B4B0008B2
:104C6000012395E7022393E7032391E704238FE7CA
:104C7000114A936823EA0E03936098E70E4AD368BB
:104C800023EA0E03D3609BE70B4A536823EA0E0323
:104C900053609EE7084A136823EA0E031360A1E7F6
:104CA00002B070BD00002210000031100010024060
:104CB0000000014000080140000401400AB1016108
:104CC000704709040161704730B40124056CAC40A1
:104CD000C56B6C60046863604368102B05D0036883
:104CE00099600368DA6030BC704703689A600368B3
:104CF000D960F8E700283AD010B4024600681D4B8E
:104D0000984229D81C4B03441C49A1FB03131B09DF
:104D10009B0013641A4BD363022382F8213001688D
:104D200021F47F5121F03001536894682343D46803
:104D30002343146923435469234394692343D46967
:104D400023430B43036000209063012382F821304A
:104D500082F8200010BC70470A4B03440749A1FBAE
:104D600003131B099B001364074BD363D4E7012093
:104D7000704700BF07040240F8FFFDBFCDCCCCCC8C
:104D800000000240F8FBFDBF0004024038B50446B5
:104D900090F82000012832D0012084F8200094F8F7
:104DA0002100C0B2012804D0002384F82030022062
:104DB00038BD022084F821000020A06325682868FF
:104DC00020F0010028602046FFF77EFFE36A5BB118
:104DD0002268136843F00E0313602268136843F0DF
:104DE000010313600020E3E72268136823F0040343
:104DF00013602268136843F00A031360EDE7022092
:104E0000D6E790F82130DBB2022B06D0042383636F
:104E1000002380F82030012070470268136823F0D7
:104E20000E0313600268136823F001031360036C20
:104E3000C16B012202FA03F34B6080F821200023AA
:104E400080F820301846704708B590F82130DBB262
:104E5000022B03D004238363012008BD026813687A
:104E600023F00E0313600268136823F0010313603C
:104E700003684C4A93424ED9783A934224D0143274
:104E8000934230D0143293422FD0143293422FD019
:104E9000143293422FD0143293422FD014329342C3
:104EA0002FD002F5627293422ED0143293422DD04D
:104EB000143293422CD01432934202D04FF48032F9
:104EC00003E04FF4805200E00122374B5A60012387
:104ED00080F82130002380F82030436B002B5ED017
:104EE00098470020B9E71022EFE74FF48072ECE713
:104EF0004FF48052E9E74FF48032E6E74FF4801236
:104F0000E3E74FF08072E0E70122DEE71022DCE702
:104F10004FF48072D9E7254A934224D01432934249
:104F200025D01432934224D01432934224D0143228
:104F3000934224D01432934224D01432934224D08A
:104F400002F56272934223D01432934222D014327B
:104F5000934221D01432934202D04FF4803203E0C6
:104F60004FF4805200E00122114B5A60AFE710224B
:104F7000FAE74FF48072F7E74FF48052F4E74FF40A
:104F80008032F1E74FF48012EEE74FF08072EBE7EA
:104F90000122E9E71022E7E74FF48072E4E70020FE
:104FA0005BE700BF800002400004024008000240AE
:104FB0000000024038B5C36B1A6804682568016CAC
:104FC00004238B40134200F09B8015F0040F00F087
:104FD0009780236813F0200F03D1236823F0040384
:104FE000236003689A4A934246D9783A934224D080
:104FF0001432934228D01432934227D01432934271
:1050000027D01432934227D01432934227D014323F
:10501000934227D002F56272934226D01432934213
:1050200025D01432934224D01432934202D04FF44C
:10503000802203E04FF4804200E00422854B5A6056
:10504000C36A03B1984738BD4022F7E74FF4806246
:10505000F4E74FF48042F1E74FF48022EEE74FF49B
:105060008002EBE74FF08062E8E70422E6E74022A7
:10507000E4E74FF48062E1E7774A934224D01432A8
:10508000934225D01432934224D01432934224D038
:105090001432934224D01432934224D014329342D7
:1050A00024D002F56272934223D01432934222D06C
:1050B0001432934221D01432934202D04FF4802212
:1050C00003E04FF4804200E00422644B5A60B7E7EB
:1050D0004022FAE74FF48062F7E74FF48042F4E7AA
:1050E0004FF48022F1E74FF48002EEE74FF0806248
:1050F000EBE70422E9E74022E7E74FF48062E4E7C8
:1051000002238B40134200F0AB8015F0020F00F039
:10511000A780236813F0200F06D1236823F00A0329
:105120002360012380F821300368494A93424BD918
:10513000783A934224D0143293422DD014329342C1
:105140002CD0143293422CD0143293422CD01432EF
:1051500093422CD0143293422CD002F562729342C7
:105160002BD0143293422AD01432934229D01432D5
:10517000934202D04FF4003203E04FF4005200E0BB
:105180000222344B5A60002380F82030836A002BBF
:105190003FF459AF984756E72022F2E74FF40072E8
:1051A000EFE74FF40052ECE74FF40032E9E74FF439
:1051B0000012E6E74FF00072E3E70222E1E7202267
:1051C000DFE74FF40072DCE7234A934224D0143225
:1051D000934225D01432934224D01432934224D0E7
:1051E0001432934224D01432934224D01432934286
:1051F00024D002F56272934223D01432934222D01B
:105200001432934221D01432934202D04FF4003230
:1052100003E04FF4005200E00222104B5A60B2E764
:105220002022FAE74FF40072F7E74FF40052F4E758
:105230004FF40032F1E74FF40012EEE74FF0007246
:10524000EBE70222E9E72022E7E74FF40072E4E708
:1052500080000240000402400800024000000240BA
:10526000082303FA01F111423FF4EDAE15F0080FE7
:105270003FF4E9AE236823F00E032360026CC16B98
:10528000012303FA02F24A60836380F8213000238D
:1052900080F82030036B002B3FF4D5AE9847D2E660
:1052A000074AD36823F4E0631B041B0C000200F4DC
:1052B000E060034343F0BF6343F40033D3607047BF
:1052C00000ED00E000B5194BDB68C3F30223C3F126
:1052D000070CBCF1040F28BF4FF0040C03F1040EBF
:1052E000BEF1060F18D9033B4FF0FF3E0EFA0CFC3F
:1052F00021EA0C0199400EFA03F322EA0303194351
:1053000000280BDB0901C9B200F1604000F56140E3
:1053100080F800135DF804FB0023E5E700F00F00C0
:105320000901C9B2024B1954F4E700BF00ED00E0D7
:1053300014ED00E0002807DB00F01F024009012304
:105340009340024A42F82030704700BF00E100E07D
:1053500030B4036A026A22F0010202624268846980
:1053600024F073040D682C4323F0020C8B6843EA8D
:105370000C03104DA84203D005F50065A84205D1E5
:1053800023F00803CD682B4323F00403094DA84202
:1053900003D005F50065A84205D122F440724D699D
:1053A0002A438D692A43426084614A6842630362EA
:1053B00030BC7047002C014030B4036A026A22F40A
:1053C000807202624268C46924F0730C0C6844EA7B
:1053D0000C0523F400738C6843EA0423114CA042AB
:1053E00003D004F50064A04206D123F40063CC6826
:1053F00043EA042323F480630A4CA04203D004F55B
:105400000064A04207D122F440524C6942EA0412DF
:105410008C6942EA04124260C5614A68C263036251
:1054200030BC7047002C014030B4036A026A22F499
:10543000805202624468C26922F4E6420D6842EA80
:10544000052223F400538D6843EA0533094DA84231
:1054500003D005F50065A84204D124F480444D69C9
:1054600044EA85144460C2614A680264036230BC45
:10547000704700BF002C014010B4036A046A24F096
:1054800001040462846924F0F00C4CEA021223F057
:105490000A030B438261036210BC704710B4036AB5
:1054A000046A24F010040462846924F4704C4CEA09
:1054B000023223F0A00343EA01138261036210BCAD
:1054C0007047836823F070030B4343F00703836046
:1054D0007047000090F83D30DBB2012B2FD1022342
:1054E00080F83D300268D36843F00103D36003685D
:1054F000154A934218D002F50062934214D0B3F1DA
:10550000804F11D0A2F5983293420DD002F58062FF
:10551000934209D002F58062934205D01A6842F0A6
:1055200001021A60002070479A6802F00702062AFA
:1055300007D01A6842F001021A600020704701206B
:1055400070470020704700BF002C01407047704733
:1055500070477047704710B5044603681A6912F027
:10556000020F11D0DA6812F0020F0DD06FF00202B4
:105570001A610123037703689B6913F0030F70D04E
:10558000FFF7E6FF0023237723681A6912F0040F60
:1055900012D0DA6812F0040F0ED06FF004021A6114
:1055A0000223237723689B6913F4407F5FD0204652
:1055B000FFF7CEFF0023237723681A6912F0080F44
:1055C00012D0DA6812F0080F0ED06FF008021A61DC
:1055D000042323772368DB6913F0030F4ED02046A2
:1055E000FFF7B6FF0023237723681A6912F0100F24
:1055F00012D0DA6812F0100F0ED06FF010021A619C
:10560000082323772368DB6913F4407F3DD02046CD
:10561000FFF79EFF0023237723681A6912F0010F1A
:1056200003D0DA6812F0010F36D123681A6912F03C
:10563000800F03D0DA6812F0800F34D123681A6922
:1056400012F0400F03D0DA6812F0400F32D1236815
:105650001A6912F0200F03D0DA6812F0200F30D14F
:1056600010BDFFF774FF2046FFF773FF8AE720465F
:10567000FFF76DFF2046FFF76CFF9BE72046FFF723
:1056800066FF2046FFF765FFACE72046FFF75FFFA8
:105690002046FFF75EFFBDE76FF001021A6120466A
:1056A000FEF738FBC1E76FF080021A61204600F078
:1056B000ACFAC3E76FF040021A612046FFF74AFFD9
:1056C000C5E76FF020021A61204600F09DFAC7E797
:1056D0000368244A904212D002F5006290420ED034
:1056E000B0F1804F0BD0A2F59832904207D002F56E
:1056F0008062904203D002F58062904203D123F091
:1057000070034A681343174A904212D002F50062B0
:1057100090420ED0B0F1804F0BD0A2F5983290425B
:1057200007D002F58062904203D002F58062904279
:1057300003D123F44073CA68134323F080034A69FA
:10574000134303608B68C3620B688362054B984206
:1057500003D003F50063984201D10B690363012371
:1057600043617047002C014040B310B5044690F8E7
:105770003D30F3B1022384F83D30214651F8040B4B
:10578000FFF7A6FF012384F8463084F83E3084F802
:105790003F3084F8403084F8413084F8423084F857
:1057A000433084F8443084F8453084F83D3000209C
:1057B00010BD80F83C3001F0A3FCDBE7012070470E
:1057C00040B310B5044690F83D30F3B1022384F89D
:1057D0003D30214651F8040BFFF77AFF012384F88E
:1057E000463084F83E3084F83F3084F8403084F806
:1057F000413084F8423084F8433084F8443084F8EF
:10580000453084F83D30002010BD80F83C30FFF773
:105810009DFEDBE70120704730B4036A026A22F084
:10582000100202624468826922F4E6420D6842EA8C
:10583000052223F020038D6843EA0513114DA84289
:1058400003D005F50065A84206D123F08003CD689A
:1058500043EA051323F040030A4DA84203D005F59F
:105860000065A84207D124F440644D6944EA8504E8
:105870008D6944EA8504446082614A6882630362F8
:1058800030BC7047002C014038B590F83C30012BFB
:1058900066D004460D46012380F83C300C2A5AD8C5
:1058A000DFE802F0075959591B59595930595959CC
:1058B00044000068FFF74CFD2268936943F0080339
:1058C00093612268936923F00403936122689369CA
:1058D00029690B43936100203EE00068FFF79CFFBD
:1058E0002268936943F4006393612268936923F407
:1058F0008063936122689369296943EA0123936174
:10590000002029E00068FFF757FD2268D36943F0C3
:105910000803D3612268D36923F00403D3612268AA
:10592000D36929690B43D361002015E00068FFF7B4
:105930007BFD2268D36943F40063D3612268D36995
:1059400023F48063D3612268D369296943EA012380
:10595000D361002000E00120002384F83C3038BDF2
:105960000220FCE710B4846824F47F4C42EA03224E
:105970000A4342EA0C02826010BC704790F83C3047
:10598000012B78D010B50446012380F83C30022367
:1059900080F83D300268936823F47F4323F0770357
:1059A00093600B68602B4CD029D8402B54D00CD975
:1059B000502B22D1CA6849680068FFF75DFD50216D
:1059C0002068FFF77EFD002005E0202B0DD009D9CF
:1059D000302B0AD00120012384F83D30002384F8C5
:1059E0003C3010BD0BB1102B05D119462068FFF7D4
:1059F00068FD0020EFE70120EDE70120EBE7B3F5BC
:105A0000805F34D0B3F5005F0CD1CB684A688968F9
:105A10000068FFF7A7FF2268936843F48043936010
:105A20000020D8E7702B24D1CB684A6889680068C9
:105A3000FFF798FF2268936843F077039360002094
:105A4000C9E7CA6849680068FFF728FD6021206837
:105A5000FFF737FD0020BEE7CA6849680068FFF716
:105A60000BFD40212068FFF72CFD0020B3E700204C
:105A7000B1E70120AFE70220704701F01F010123C9
:105A800003FA01FC036A23EA0C030362036A02FAC5
:105A900001F10B430362704710B504460846002924
:105AA0003AD194F83E30DBB2013B18BF0123002B02
:105AB00066D1002849D1022384F83E3001220146F4
:105AC0002068FFF7DAFF23682F4A934203D002F5DC
:105AD0000062934203D15A6C42F400425A64236834
