:020000040800F2
:1000000000000220ED8E00089D3800089F3800088F
:10001000A1380008A3380008A53800080000000037
:10002000000000000000000000000000216A00083D
:10003000A738000800000000C16A0008BB6500087E
:100040003D8F00083D8F00083D8F00083D8F000860
:100050003D8F00083D8F00083D8F00083D8F000850
:100060003D8F00083D8F00083D8F00083D8F000840
:100070003D8F00083D8F00083D8F00083D8F000830
:10008000A9380008B93800083D8F00083D8F0008E6
:100090003D8F00083D8F00083D8F00083D8F000810
:1000A0003D8F0008C93800083D8F00083D8F0008CB
:1000B0003D8F00083D8F00083D8F00083D8F0008F0
:1000C0003D8F00083D8F00083D8F00083D8F0008E0
:1000D0003D8F0008D9380008E93800083D8F000836
:1000E0003D8F00083D8F00083D8F00083D8F0008C0
:1000F0003D8F00083D8F00083D8F00083D8F0008B0
:100100003D8F00083D8F00083D8F00083D8F00089F
:100110003D8F00083D8F00083D8F00083D8F00088F
:100120003D8F00083D8F0008F93800083D8F00081A
:100130003D8F00083D8F00083D8F00083D8F00086F
:100140003D8F00083D8F00083D8F00083D8F00085F
:100150003D8F00083D8F0008093900083D8F0008D9
:100160003D8F00083D8F00083D8F00083D8F00083F
:100170003D8F00083D8F00083D8F00080000000003
:080180003D8F00083D8F0008CF
:1001C0000348044B834202D0034B03B118477047E6
:1001D0001801002018010020000000000548064911
:1001E0000B1AD90F01EBA301491002D0034B03B145
:1001F0001847704718010020180100200000000077
:1002000010B5064C237843B9FFF7DAFF044B13B15E
:100210000448AFF300800123237010BD18010020B3
:10022000000000009C1B010808B5044B1BB10449E9
:100230000448AFF30080BDE80840CFE700000000AD
:100240001C0100209C1B0108014B1868704700BF6F
:100250000000002070B50D4E0D4D761BB61006D077
:10026000002455F8043B01349847A642F9D1094EC1
:10027000094D761B11F092FCB61006D0002455F8FB
:10028000043B01349847A642F9D170BDF827010814
:10029000F827010800280108F8270108844641EAE8
:1002A000000313F003036DD1403A41D351F8043BEE
:1002B00040F8043B51F8043B40F8043B51F8043B40
:1002C00040F8043B51F8043B40F8043B51F8043B30
:1002D00040F8043B51F8043B40F8043B51F8043B20
:1002E00040F8043B51F8043B40F8043B51F8043B10
:1002F00040F8043B51F8043B40F8043B51F8043B00
:1003000040F8043B51F8043B40F8043B51F8043BEF
:1003100040F8043B51F8043B40F8043B51F8043BDF
:1003200040F8043B51F8043B40F8043B403ABDD24E
:10033000303211D351F8043B40F8043B51F8043BF0
:1003400040F8043B51F8043B40F8043B51F8043BAF
:1003500040F8043B103AEDD20C3205D351F8043B7F
:1003600040F8043B043AF9D2043208D0D2071CBF4B
:1003700011F8013B00F8013B01D30B880380604674
:10038000704700BF082A13D38B078DD010F00303EA
:100390008AD0C3F10403D21ADB071CBF11F8013B5A
:1003A00000F8013B80D331F8023B20F8023B7BE7A9
:1003B000043AD9D3013A11F8013B00F8013BF9D2D4
:1003C0000B7803704B7843708B788370604670476E
:1003D000830730B548D0541E002A3FD0CAB2034626
:1003E00001E0013C3AD303F8012B9D07F9D1032C1E
:1003F0002DD9CDB245EA05250F2C45EA054536D95C
:10040000A4F1100222F00F0C03F1200EE6444FEA93
:10041000121C03F1100242E9045542E90255103260
:100420007245F8D10CF1010214F00C0F03EB02122B
:1004300004F00F0C13D0ACF1040323F003030433D6
:10044000134442F8045B9342FBD10CF003042CB13B
:10045000CAB21C4403F8012B9C42FBD130BD644658
:100460001346002CF4D1F9E703461446BFE71A46B9
:10047000A446E0E70EB410B5044683B008B1836922
:100480005BB106ABA168059A0193204600F020FA03
:1004900003B0BDE8104003B0704700F017F9F0E773
:1004A0000FB410B50A4B1C6882B00CB1A3695BB1E4
:1004B00005ABA168049A0193204600F009FA02B046
:1004C000BDE8104004B07047204600F0FFF8EFE7A9
:1004D0000000002000207047014900F037B900BF3C
:1004E000311300080020704770B568224D1E02FBD2
:1004F00005F50E4605F1740100F04CF9044640B1D3
:1005000000210C30C4E90016A06005F16802FFF775
:100510005FFF204670BD00BF274B2DE9F0411E68EC
:10052000B369074653B348364FF00408D6E901349F
:10053000013B04D51EE05A1C04F168041AD0B4F93A
:100540000C50013B002DF6D11C4B6566C4E90055EB
:10055000C4E90253C4E90455A5610822294604F1FF
:100560005C00FFF735FFC4E90D55C4E9125520467C
:10057000BDE8F08135682DB12E46D7E7304600F052
:100580001FF8D0E74FF4D671384600F003F904465F
:1005900068B10560C0F804800C302946A06025468B
:1005A0004FF4D072FFF714FF34602E46BEE70C23E1
:1005B00030603B60DBE700BFB81B01080100FFFFB4
:1005C0002DE9F84F344B35491A68816290424FF05B
:1005D0000003C0E91233036504BF012383610546AC
:1005E000FFF79AFF68602846FFF796FFA860284645
:1005F000FFF792FF6F68E86000240423C7E9024315
:1006000008222146C7E90044C7E904447C66BC616E
:1006100007F15C00FFF7DCFEDFF88CB0AE68DFF8B6
:100620008CA0DFF88C90DFF88C801D4BC7F828A0D9
:10063000C7E9087BC7F82C90C7F830800822F36020
:10064000C6E90044C6E904447466B460B461214656
:1006500006F15C00FFF7BCFEC6E9086BC6E90AA913
:10066000C6F83080EE680F4BF360C6E90044C6E977
:1006700004447466B460B4612146082206F15C004B
:10068000FFF7A6FE0123C6E9086BC6E90B98C6F87A
:1006900028A0AB61BDE8F88FB81B0108D904000899
:1006A0000900010012000200710F0008990F0008F4
:1006B000D90F0008F90F0008024B0349186800F031
:1006C00045B800BFB81B010831130008836903B99E
:1006D00076E77047704700BF704700BF704700BFA4
:1006E000704700BF024B0349186800F00FB800BF05
:1006F00000000020D5040008024B0349186800F0F0
:1007000005B800BF00000020E50400082DE9F04115
:10071000884600F148070026D7E90154013D0FD46F
:10072000A389012B05F1FF3506D9B4F90E30013349
:10073000204601D0C04706436B1C04F16804EFD18A
:100740003F68002FE8D13046BDE8F0812DE9F8433D
:100750000746884600F148064FF00009D6E90154E3
:10076000013D11D4A389012B05F1FF3508D9B4F956
:100770000E300133214603D03846C04749EA00090C
:100780006B1C04F16804EDD13668002EE6D14846B2
:10079000BDE8F883F8B5CD1C25F0030508350C2D10
:1007A00038BF0C25002D064623DBA94221D8254F52
:1007B00001F012F93A6822B3144603E06368224656
:1007C000FBB11C4623685B1BF8D40B2B15D8636860
:1007D00094420CBF3B605360304601F0FFF804F1D7
:1007E0000B00231D20F00700C21A01D01B1AA350D2
:1007F000F8BD0C2333600020F8BD23601C44256045
:10080000EAE77968C9B12946304600F09FFB431CEE
:100810000CD0C41C24F00304A04205D0211A304699
:1008200000F094FB013001D02560D5E70C23304661
:10083000336001F0D3F80020F8BD304600F086FBAD
:100840007860E0E7340100209368013B002B93605F
:1008500011DA10B49469A34209DB0A2907D013689E
:10086000581C1060197008465DF8044B70475DF81D
:10087000044B00F0C5BB1368581C10601970084683
:10088000704700BF9BB1F8B5134406460F46541E8F
:100890005D1E01E0AC4208D014F8011F3A46304614
:1008A000FFF7D2FF431CF5D1F8BD0020F8BD0020B2
:1008B000704700BF936810B5144613B953601846CB
:1008C00010BD00F09FFD0023C4E9013310BD00BF3F
:1008D0002DE9F04F88469FB015461C46814618B159
:1008E0008369002B00F0A280924B984500F0A48011
:1008F000914B984500F0B180904B984508BFD9F8CE
:100900000C80B8F80C30180740F19D80D8F81030F2
:10091000002B00F0988000230B932978884E0594D3
:1009200020238DF8313030238DF832300127002913
:1009300074D02C460B4604E014F8013F002B00F065
:100940008F80252BF8D1B4EB050B40F08C802378F9
:10095000002B63D000234FF0FF32CDE9072306932D
:1009600009938DF85B301C93013404E0069A07FA72
:1009700003F3134306932546052214F8011B304662
:1009800000F05EFF831B0028F0D1069BD90644BF10
:1009900020228DF85B2029781A0744BF2B228DF87E
:1009A0005B202A2970D1059A11680432002905922A
:1009B000C0F29B800991697801352E2976D0614C6F
:1009C0000322204600F03CFF38B1069B001B402468
:1009D00004FA00F003430693013515F8011B5A4849
:1009E0008DF83010062200F02BFF002800F08380E5
:1009F000564B002B6DD005AA0092554B424606A9D6
:100A00004846AFF300800390039B013306D00B9B55
:100A1000039A297813440B9300298AD1B8F80C3033
:100A20005B0617D40B981FB0BDE8F08FFFF74EFEA2
:100A3000404B98457FF45CAFD9F80480B8F80C308F
:100A400018073FF563AF4146484600F053FB0028C6
:100A50003FF461AF4FF0FF30E5E7D9F8088050E789
:100A6000B4EB050BDAD0AA46C5F1010503E09345C6
:100A700036D91AF8011F42464846FFF7E5FE013015
:100A800005EB0A02F3D1C9E7A1F13002092A94D893
:100A9000099B15F8011F03EB830302EB4303A1F14C
:100AA0003002092AF5D92E29099388D169782A2993
:100AB0002BD1059BA9781A6807920433002A05F107
:100AC00002000593B8BF4FF0FF330546B8BF079348
:100AD00075E7059B073323F007030833059396E773
:100AE0000B9A23785A440B9232E7494243F00203AF
:100AF000099106935FE705AA0092154B424606A9A5
:100B0000484600F0CBF803907EE7A1F130020023C5
:100B1000092A079305F101053FF651AF15F8011FAA
:100B200003EB830302EB4303A1F13002092AF5D959
:100B3000079344E7FC1B0108DC1B0108BC1B0108F0
:100B4000F81D0108001E0108041E01080000000035
:100B50008508000810B4054C8446134620685DF8EB
:100B6000044B0A466146FFF7B3BE00BF00000020F9
:100B70002DE9F84F92461F460A698B68DDF82890E8
:100B80009A42B8BF1A46CAF8002091F843300C4682
:100B9000064613B10132CAF80020226891065DD5DD
:100BA000DAF800300233CAF80030226812F0060F7B
:100BB00011461ED1E168CB1A002BD8BF114618DDB3
:100BC00004F1190B4FF0000805E0E568DAF8003091
:100BD000ED1A45450CDD01235A4639463046C847D3
:100BE000013008F10108F0D14FF0FF30BDE8F88F77
:100BF000216894F84330003B18BF01238A060AD5C8
:100C0000E1185A1C302081F84300224494F8451022
:100C100082F84310023304F1430239463046C84794
:100C20000130E1D0236803F00603042B1DD0A36834
:100C30002269934225DD4FF000089B1A98441A342C
:100C4000002501E045451CDA01232246394630469D
:100C5000C847013005F10105F4D1C5E712F0060FD0
:100C600012D0003B18BF0123D5E7DAF80030E16865
:100C70002269C91AA368934221EAE178DDDC0029E0
:100C8000DDDC0020BDE8F88FE168DAF80030CB1A2F
:100C9000002BD8BF114693DCABE700BF2DE9F0472E
:100CA0000C4684B09046227E0C990746994604F182
:100CB0004300002A33D0A2F15803DDB2202D67D8BB
:100CC000202B65D8DFE813F0DE00640064006400C8
:100CD0006400640064006400640064006400A300B5
:100CE0006E0064006400640064006E0064006400D0
:100CF0006400640021007F00C00064006400AE0056
:100D000064007F0064006400E50023681A0640F177
:100D100004810B6862691D1D0D601B681A60002349
:100D200082462361CDF80090434603AA2146384607
:100D3000FFF71EFF013020D0236952464146384656
:100D4000C847013019D02368E068039E9B0719D576
:100D5000831B002B16DD04F1190A002504E0E0686E
:100D6000039E831BAB420DDD0123524641463846AC
:100D7000C847013005F10105F1D14FF0FF3004B053
:100D8000BDE8F087B042B8BF304604B0BDE8F08798
:100D9000012384F84220236104F1420A002384F8ED
:100DA0004330BFE723681A0602D45E0600F1C18013
:100DB0000D682A6804350D601546002A6BDBDFF8E4
:100DC00084C10A2610E023681D0640F19C800B6850
:100DD0001D1D0D601D68DFF86CC16F2A0CBF082651
:100DE0000A26002384F843306268A260002A7FDB71
:100DF000236823F004032360002D5BD1002A79D1FE
:100E00008246082E65D0A0EB0A0020618AE70B68B5
:100E10000122186804330B6004F1420A84F842008E
:100E20002261BBE70B686268181D0860D3F800A058
:100E30000021504600F004FD002800F08180A0EB66
:100E40000A0060602061A9E7236843F02003236063
:100E50007822DFF8F4C084F845200A68151D0D607B
:100E60001D0643D4590641D51588DE0744BF43F01B
:100E700020032360002D44D1236823F02003236046
:100E80001026AEE7582384F84530DFF8B8C0236851
:100E9000E3E72368DCE76268A2602D21002AC5F140
:100EA000000584F8431002DB23F004032360DFF81D
:100EB00094C00A268246B5FBF6F306FB13512A4678
:100EC0001CF801100AF8011DB2421D46F3D2082E8B
:100ED00099D12368D90796D5626823699A4292DC32
:100EE00030230AF8013C0AF1FF3A8CE71568BCE7A9
:100EF000002DDFD19CF8003084F8423004F1420A22
:100F00007FE710266DE713F0400F0B6803F104052F
:100F10000D600CBF1D681D885DE713F0400F0B6866
:100F2000626903F104050D601B6814BF1A801A6022
:100F3000F5E60A68B2F9005004320A602A463CE736
:100F400060687FE70C1E0108201E010838B5074DB8
:100F50000022044608462A6006F0AAFF431C00D07F
:100F600038BD2B68002BFBD0236038BD3C0100202E
:100F700010B50C46B1F90E1000F0BCFD002803DBE3
:100F8000636D0344636510BDA38923F48053A3817B
:100F900010BD00BF002070472DE9F0410C46B1F9AB
:100FA0000C101F46CB05054616460BD421F4805184
:100FB000A1813B46B4F90E1032462846BDE8F04107
:100FC00000F082B8B4F90E100223002200F092FB68
:100FD000B4F90C10EAE700BF10B50C46B1F90E10D9
:100FE00000F088FBA389421C0EBF23F4805343F416
:100FF00080536065A38110BDB1F90E1000F0FCB8FC
:10100000F8B50D461446064608B1836943B3254B2F
:101010009C422AD0244B9C4229D0244B9C4208BF9E
:10102000F468A389A269A2601A0722D5236903B3D1
:1010300022686169D31AEDB299422F4629DD013346
:10104000A1680139A160511C2160157062699A4242
:1010500016D0A389DB0701D50A2D11D03846F8BD7B
:10106000FFF734FB0F4B9C42D4D17468D9E7B468C6
:10107000D7E72146304600F03DF838B92369D7E775
:101080002146304600F054F90028E7D04FF0FF37F2
:10109000E4E72146304600F04BF90028F6D12268FB
:1010A0000123CDE7FC1B0108DC1B0108BC1B010868
:1010B00010B4044C03460A4620685DF8044B1946F8
:1010C000FFF79EBF0000002038B50C46084D84464F
:1010D000114620461A4600232B60644606F0DAFECD
:1010E000431C00D038BD2B68002BFBD0236038BDDB
:1010F0003C0100203C4B70B51D6806460C460DB106
:10110000AB69E3B1394B9C421FD0394B9C424DD067
:10111000384B9C4208BFEC68B4F90C3018079AB2FF
:1011200019D5216911B312F001002FD00020A06061
:1011300060694042A06100292ED0002070BD284681
:10114000FFF7C4FA294B9C42DFD16C68B4F90C302C
:1011500018079AB2E5D4D1063ED5520728D42169A2
:1011600043F00803A3819AB20029DCD102F4207075
:10117000B0F5007FD7D02146304600F0D1FAB4F95F
:101180000C3021699AB212F00100CFD1950758BFF7
:101190006069A0600029D0D1120658BF0846CDD59D
:1011A00043F04003A3814FF0FF3070BDAC68B3E75C
:1011B000616B51B104F14402914204D0304600F019
:1011C0000FFCB4F90C300022626321690022C4E9EB
:1011D000001223F02403C3E7092243F040033260E6
:1011E0004FF0FF30A38170BD00000020FC1B010800
:1011F000DC1B0108BC1B010838B5074D0022044662
:1012000008462A6006F07AFE431C00D038BD2B68E1
:10121000002BFBD0236038BD3C0100208B891A07CE
:101220002DE9F0410C4680463FD44A68002A58DD3B
:10123000E66A002E52D00022D8F80050C8F80020EC
:1012400013F4805251D10123216A4046B047431C18
:101250005ED0A389E66A5F0705D56368C01A636B31
:101260000BB1236CC01A216A024600234046B047E6
:10127000411C3CD1D8F80030002B38D01D2B01D0B8
:10128000162B4DD123690022C4E90032616BC8F8E6
:10129000005019B304F14403994202D0404600F0D3
:1012A0009FFB00206063BDE8F0810E69B6B10D6858
:1012B0000E609A070CBF4B690023AD1B8B600BE0DF
:1012C0002B463246216AA76A4046B847B0F1000C67
:1012D000A5EB0C05664413DD002DF1DC0020BDE814
:1012E000F0810A6C002AA3DCF8E7606DB3E7002305
:1012F000636023692360A389DB04C7D56065C5E704
:10130000A38943F040034FF0FF30A381BDE8F08193
:10131000D8F80030002B9CD01D2B06D0162B04D003
:10132000A38943F04003A381D9E7C8F80050D5E76B
:1013300038B50B69BBB10D46044608B18369B3B13A
:101340000D4B9D4211D00D4B9D4213D00C4B9D4235
:1013500008BFE568B5F90C302BB129462046BDE839
:101360003840FFF75BBF002038BD6568F2E7FFF744
:10137000ADF9E5E7A568EDE7FC1B0108DC1B0108FA
:10138000BC1B010838B540B303690446E3B1174BF1
:101390001D680DB1AB69CBB1154B9C420FD0154BFD
:1013A0009C4221D0144B9C4208BFEC68B4F90C302D
:1013B00053B121462846BDE83840FFF72FBF6C687F
:1013C000B4F90C30002BF4D1002038BD2846FFF7CB
:1013D0007DF9074B9C42E2D1F1E7084B08491868B8
:1013E000BDE83840FFF7B2B9AC68DFE70000002085
:1013F000FC1B0108DC1B0108BC1B0108B81B010811
:10140000311300089368002B00F085802DE9F04F20
:10141000B1F90C300C461907804683B0174698B2D4
:1014200025D523691BB310F002033D682DD04FF082
:10143000000ADFF8BCB25646B9465E45334652460E
:1014400028BF5B464046002E52D0216AA76AB847A3
:10145000002856DDD9F808301B1A8244361AC9F81C
:101460000830002BE9D1002003B0BDE8F08F214601
:101470004046FFF73FFE002840F03681B4F90C30BB
:101480003D6898B210F00203D1D110F0010944D1A7
:101490004E46009746B38205D4F808B040F18380E9
:1014A000B3455A4600F2B28010F4906F40F0BF800E
:1014B00020680192494600F013FAA368019AA3EB51
:1014C0000B012368A1601344B24623600026009BF1
:1014D0009868A0EB0A00D14498600028C3D0B4F902
:1014E0000C0080B2002ED6D1D5E900960835D1E7A0
:1014F000D5E900A60835A0E721464046FFF718FFCA
:1015000080B3B4F90C3043F040034FF0FF30A381B7
:1015100003B0BDE8F08F002070471E46AA469946EA
:1015200018461D46009756B388B34A46D4E90413BB
:101530002068B24228BF3246884205D9A16803EB31
:10154000010B5A4500F3A680934263DC216AA76A27
:101550002A464046B847B0F1000BD2DDB9EB0B0983
:10156000CAD00120009A9368A3EB0B035D44A6EB5D
:101570000B069360002B3FF476AF002ED4D10AF116
:10158000080353E902569A460833002EF9D0324632
:101590000A21284600F054F9002800F09C80013010
:1015A000A0EB0509C1E720682369984216D8636952
:1015B000B34213D86FF00042B24228BF3246216ACC
:1015C00092FBF3F2A76A02FB03F340464A46B84790
:1015D000B0F1000A95DDA6EB0A0678E7B345DA46D6
:1015E00028BFB2465246494600F07AF9A3682268FD
:1015F000A3EB0A035244A3602260002BEBD12146E7
:101600004046FFF795FE0028E5D07AE72068B3460C
:1016100032464EE72946019200F062F9019AA3682A
:101620009B1AA360236813442360934696E72368BC
:101630002169A3EB010B636903EB430A0AEBDA7A36
:101640000BF101034FEA6A0A33445345524684BF03
:101650009A46524643052CD511464046FFF79AF864
:1016600000283BD05A4621690190FEF717FEA28957
:10167000019B22F4906242F08002A28103EB0B00F6
:101680002361AAEB0B03C4F814A0A3602060B34647
:1016900032460EE729465A4600F022F923685B4499
:1016A000236021464046FFF743FE00283FF456AF33
:1016B00027E7404600F0F6F903460028DED121690D
:1016C000404600F08DF9B4F90C300C2223F0800371
:1016D000C8F8002017E7721C914627E70C22B4F9DE
:1016E0000C30C8F800200EE74FF0FF30BCE600BF1A
:1016F00000FCFF7F38B50C46084D84461146204655
:101700001A4600232B60644606F002FC431C00D0FE
:1017100038BD2B68002BFBD0236038BD3C01002076
:10172000F0B58B890C46990797B007D504F14703AC
:101730000122C4E90432236017B0F0BDB4F90E10E1
:10174000002905462DDB6A4600F0EAF9002827DB70
:10175000019E06F470464FF48067A6F50056B6FA6F
:1017600086F6394628467609FFF714F830B3A38980
:101770001A4AAA6243F08003C4E90407A3812060E7
:10178000002ED9D0B4F90E10284600F0DFF9002859
:10179000D2D0A38923F0030343F00103A381CBE755
:1017A000A38913F0800F14BF40274FF48067394698
:1017B00028460026FEF7EEFF0028D8D1B4F90C30F9
:1017C0009A05B9D423F0030304F1470243F002035E
:1017D0000121C4E90421A3812260ADE7D9040008F6
:1017E00070B50C46B1F90E10002996B016461D468C
:1017F00013DB6A4600F094F900280EDB019901F42E
:101800007041A1F50051B1FA81F14FF480634909AB
:1018100000202960336016B070BDB4F90C3000228E
:101820001B062A6004D540230020336016B070BD2B
:101830004FF480630020336016B070BD00000000DC
:1018400001F0FF01102A2BDB10F0070F08D010F871
:10185000013B013A8B422DD010F0070F42B3F6D175
:10186000F0B441EA012141EA014122F007047FF08E
:1018700000070023F0E80256083C85EA010586EAE5
:10188000010685FA47F5A3FA87F586FA47F6A5FA21
:1018900087F68EB9EED1F0BC01F0FF0102F007022D
:1018A00032B110F8013B013A83EA010313B1F8D1D8
:1018B0000020704701387047002D06BF35460338B9
:1018C000073815F0010F07D1013015F4807F02BFF2
:1018D000013015F4C03F0130F0BC0138704700BF43
:1018E00088420DD98B1883420AD900EB020CBAB199
:1018F000624613F801CD02F801CD9942F9D1704743
:101900000F2A0ED8034602F1FF3C4AB10CF1010C3C
:10191000013B8C4411F8012B03F8012F6145F9D1EB
:10192000704740EA01039B0750D1A2F1100370B544
:1019300001F1200C23F00F0501F1100E00F110044D
:10194000AC441B095EF8105C44F8105C5EF80C5C5B
:1019500044F80C5C5EF8085C44F8085C5EF8045CD3
:1019600044F8045C0EF1100EE64504F11004E9D1D0
:10197000013312F00C0F01EB031102F00F0400EB26
:10198000031327D0043C24F003064FEA940C1E44B2
:101990001C1F8E465EF8045B44F8045FB442F9D124
:1019A0000CF1010402F0030203EB840301EB840158
:1019B00002F1FF3C4AB10CF1010C013B8C4411F8DF
:1019C000012B03F8012F6145F9D170BD02F1FF3CF5
:1019D00003469BE72246EBE7704700BF704700BF16
:1019E000002958D030B551F8043C83B0002BA1F148
:1019F0000404B8BFE4180190FFF7EEFF284A0198ED
:101A0000136833B1A3420DD9216804EB010C63457F
:101A10002FD06360146003B0BDE83040FFF7DEBF35
:101A2000A34210D81A465B68002BF9D1116802EB6B
:101A3000010C644519D02FD36360546003B0BDE836
:101A40003040FFF7CBBF116802EB010CA44516D064
:101A500022D8216804EB010C6345EDD11D685B6859
:101A60002944C4E900135460D5E723681944116080
:101A7000D1E71D685B682944C4E90013CAE72468FC
:101A800021445418A3421160C5D1D3E90043214435
:101A9000C2E90013BFE770470C230360BBE700BF38
:101AA00034010020F8B51446F9B1CAB106460D4616
:101AB00000F05EF8A04202D32F463846F8BD21461A
:101AC0003046FEF767FE07460028F6D02246294634
:101AD000FEF7E4FB30462946FFF782FF3846F8BDA3
:101AE0002746FFF77DFF3846F8BDBDE8F8401146B0
:101AF000FEF750BE38B50C46084D844611462046C8
:101B00001A4600232B60644606F0B4F9431C00D04B
:101B100038BD2B68002BFBD0236038BD3C01002072
:101B200070B50C46084D03460026204611461C465B
:101B30002E6006F0E6F9431C00D070BD2B68002B28
:101B4000FBD0236070BD00BF3C01002038B5074DBD
:101B50000022044608462A6006F0D8F9431C00D04B
:101B600038BD2B68002BFBD0236038BD3C01002022
:101B700051F8040C0028A0F10400BCBF0B58C01899
:101B8000704700BF7BB972B90029BEBF00204FF07B
:101B9000004106E008BF00281CBF6FF000414FF075
:101BA000FF3000F0BFB9ADF1080C6DE904CE00299B
:101BB00009DB002B1ADB00F04DF8DDF804E0DDE96D
:101BC000022304B07047404261EB4101002B1BDB54
:101BD00000F040F8DDF804E0DDE9022304B0404203
:101BE00061EB4101524263EB43037047524263EBA6
:101BF000430300F02FF8DDF804E0DDE9022304B030
:101C0000404261EB41017047524263EB430300F0F5
:101C100021F8DDF804E0DDE9022304B0524263EB71
:101C20004303704753B94AB9002908BF00281CBFB5
:101C30004FF0FF314FF0FF3000F074B9ADF1080CF8
:101C40006DE904CE00F006F8DDF804E0DDE90223DA
:101C500004B070472DE9F047089D04468E46002BDE
:101C60004DD18A42944669D9B2FA82F252B101FA50
:101C700002F3C2F1200120FA01F10CFA02FC41EA60
:101C8000030E94404FEA1C48210CBEFBF8F61FFAE5
:101C90008CF708FB16E341EA034306FB07F1994280
:101CA0000AD91CEB030306F1FF3080F01F81994233
:101CB00040F21C81023E63445B1AA4B2B3FBF8F00D
:101CC00008FB103344EA034400FB07F7A7420AD994
:101CD0001CEB040400F1FF3380F00A81A74240F2BC
:101CE00007816444023840EA0640E41B00261DB127
:101CF000D4400023C5E900433146BDE8F0878B425C
:101D000009D9002D00F0EF800026C5E9000130461A
:101D10003146BDE8F087B3FA83F6002E4AD18B42F4
:101D200002D3824200F2F980841A61EB030301209E
:101D30009E46002DE0D0C5E9004EDDE702B9FFDE8A
:101D4000B2FA82F2002A40F09280A1EB0C014FEA35
:101D50001C471FFA8CFE0126200CB1FBF7F307FB92
:101D6000131140EA01410EFB03F0884208D91CEB35
:101D7000010103F1FF3802D2884200F2CB804346D2
:101D8000091AA4B2B1FBF7F007FB101144EA0144B1
:101D90000EFB00FEA64508D91CEB040400F1FF3140
:101DA00002D2A64500F2BB800846A4EB0E0440EA2E
:101DB00003409CE7C6F12007B34022FA07FC4CEA37
:101DC000030C20FA07F401FA06F31C43F9404FEA2A
:101DD0001C4900FA06F3B1FBF9F8200C1FFA8CFE3F
:101DE00009FB181140EA014108FB0EF0884202FA93
:101DF00006F20BD91CEB010108F1FF3A80F0888054
:101E0000884240F28580A8F102086144091AA4B210
:101E1000B1FBF9F009FB101144EA014100FB0EFE91
:101E20008E4508D91CEB010100F1FF346CD28E45C0
:101E30006AD90238614440EA0840A0FB0294A1EB51
:101E40000E01A142C846A64656D353D05DB1B3EBAE
:101E5000080261EB0E0101FA07F722FA06F3F140DE
:101E60001F43C5E9007100263146BDE8F087C2F185
:101E70002003D8400CFA02FC21FA03F391400143FD
:101E80004FEA1C471FFA8CFEB3FBF7F007FB103636
:101E90000B0C43EA064300FB0EF69E4204FA02F4E2
:101EA00008D91CEB030300F1FF382FD29E422DD935
:101EB000023863449B1B89B2B3FBF7F607FB16336A
:101EC00041EA034106FB0EF38B4208D91CEB0101EA
:101ED00006F1FF3816D28B4214D9023E6144C91A6A
:101EE00046EA004638E72E46284605E70646E3E67A
:101EF0001846F8E64B45A9D2B9EB020864EB0C0E84
:101F00000138A3E74646EAE7204694E74046D1E792
:101F1000D0467BE7023B614432E7304609E7644440
:101F2000023842E7704700BF10B4044C03460A462B
:101F300020685DF8044B194600F074B800000020DA
:101F400010B4044C03460A4620685DF8044B194659
:101F500000F010B80000002000B5054B83B001462A
:101F600001AA186800F006F803B05DF804FB00BF92
:101F7000000000202DE9F047DFF87480064689460E
:101F8000174600F0C7FFD8F8005055B199F8003057
:101F90001C4673B14C4602E014F8013F3BB13D2BA7
:101FA000FAD1304600F0B8FF0020BDE8F087A4EB7E
:101FB000090428680028F4D02246494600F00EFCA7
:101FC00028B92B681A5D3D2A03EB040A04D055F8A2
:101FD000040F0028F0D1E4E7D8F80030ED1AAD1076
:101FE00030463D6000F098FF0AF10100BDE8F0873F
:101FF0007400002000B583B001AAFFF7BBFF03B057
:102000005DF804FB024B01461868FEF7C3BB00BF36
:1020100000000020024B01461868FFF7E1BC00BF3A
:102020000000002038B502FB01F52946FEF7B2FB9F
:10203000044618B12A460021FEF7CAF9204638BDE9
:1020400038B5124B1D68AA6B04461AB10023C2E9C9
:10205000044338BD1820FFF7D5FF0246A86378B1C6
:1020600001200021C2E90401094B0A480A49916094
:10207000C2E900030B2393810023C2E9044338BD66
:10208000064B0748422100F01FFF00BF0000002060
:1020900034126DE60E33CDABECDE0500642701088B
:1020A0007C2701081C4B10B51C68A26B8AB1136910
:1020B0001A4954691A4803FB01F100FB0411A3FB00
:1020C0000030013341EB0001C2E9043121F000404E
:1020D00010BD1820FFF796FF0246A06388B1114C8F
:1020E000114B0E48114991609FED097BC2E90043F5
:1020F0000B2393810E4B014682ED047BC2E9043130
:1021000010BD0C4B0C484E2100F0DEFEAFF30080FA
:102110000100000000000000000000202DF45158D4
:102120002D7F954C0E33CDAB34126DE6ECDE050001
:102130002E7F954C642701087C27010810B4044CBD
:1021400003460A4620685DF8044B1946FFF7AABC0F
:102150000000002008B410B5002A9DB0044633DB0F
:102160004FF40273ADF814300291069120AB17D0F2
:10217000013A4FF6FF7104920792ADF816101F9ABC
:10218000019302A900F0FCFF421C01DA8B232360BB
:10219000029B00221A701DB0BDE8104001B07047CC
:1021A0004FF6FF7104920792ADF816101F9A019333
:1021B00002A900F0E5FF431C01DA8B2323601DB068
:1021C000BDE8104001B070478B2303604FF0FF3033
:1021D000F5E700BF0CB410B51F4B00291C689CB07C
:1021E00035DB4FF40273ADF81430029006901FAB4C
:1021F00018D001394FF6FF7204910791ADF81620FF
:1022000002A91E9A0193204600F0BAFF421C01DA8F
:102210008B232360029B00221A701CB0BDE8104083
:1022200002B070474FF6FF7204910791ADF8162087
:1022300002A91E9A0193204600F0A2FF431C01DA76
:102240008B2323601CB0BDE8104002B070478B2385
:1022500023604FF0FF30F5E70000002011F0FF0190
:10226000034644D0820732D110B5046841EA012EFA
:102270004EEA0E4E8EEA0402A2F1013323EA020373
:10228000A4F1013222EA0402134313F0803F0FD17C
:1022900050F8044F84EA0E0CA4F10133ACF1013282
:1022A00023EA040322EA0C02134313F0803FEFD029
:1022B000037823B936E010F8013F002B32D0994261
:1022C000F9D110BD8A4211D09A071846CCD01846D1
:1022D00013F8012B002AF5D11046704799071846CC
:1022E00007D0184601330278002AF7D170478207D9
:1022F000F7D10268A2F1013323EA020313F0803F11
:1023000008D150F8042FA2F1013323EA020313F09D
:10231000803FF6D00378002BE8D010F8013F002B67
:10232000FBD17047184610BD0000000000000000FF
:10233000000000000000000000000000000000009D
:10234000A2EB0300704700BF02780B78012A28BF78
:102350009A42F5D16DE9044540EA0104CDE90267EE
:102360006FF0000C4FEA447212B380EA010414F0DB
:10237000070F6AD100F0070420F0070004F00305FE
:1023800021F007014FEAC505F0E8042314F0040F1B
:10239000F1E804670CFA05F462EA040266EA04064E
:1023A0000AD063EA0403624667EA0407664603E06C
:1023B000F0E80423F1E8046782FA4CF582EA0604A7
:1023C000A4FA8CF46CBB83FA4CF583EA0705A5FAF2
:1023D0008CF595B950E9022351E9026782FA4CF570
:1023E00082EA0604A4FA8CF483FA4CF583EA070522
:1023F000A5FA8CF52543DBD09CB92DBAB5FA85F446
:1024000024F0070427FA04F1DDE9026723FA04F354
:1024100003F0FF0001F0FF01FDE80445A0EB01001F
:10242000704724BAB4FA84F424F0070426FA04F1BD
:10243000DDE9026722FA04F202F0FF0001F0FF0179
:10244000FDE80445A0EB0100704714F0030F3CD1F8
:1024500010F0030428D150F8082B51F8083B82FAF9
:102460004CF582EA0305A5FA8CF55DB950F8042C09
:1024700051F8043C82FA4CF582EA0305A5FA8CF582
:10248000002DE8D02DBAB5FA85F424F0070423FA1C
:1024900004F122FA04F202F0FF0001F0FF01FDE86E
:1024A0000445A0EB010070474FEAC40420F003008C
:1024B00050F8082B21F0030151F8083B0CFA04F402
:1024C00062EA040263EA0403C9E710F003041AD0C5
:1024D000A1EB040120F00300E40750F8042B06D020
:1024E0000FD28B785FFAA2F4E41A06D12BB1CB7825
:1024F0005FFAB2F4E41A00D11BB920465DF8104B24
:10250000704701F1040150F8042BCC0721F00301BE
:1025100051F8043B48D824D222F07F4482FA4CF58B
:1025200094EA1325A5FA8CF50AD165B951F8043B54
:1025300084EA0204B4EB036F0ED150F8042BEBE7EE
:102540004FEA132355E035F07F454DD10878FDE87B
:102550000445C0F1000070474FEA126203F0FF0328
:1025600047E002EA1C4482FA4CF594EA1345A5FAC6
:102570008CF50AD165B951F8043B84EA0204B4EB46
:10258000034F0CD150F8042BEBE74FEA134330E034
:1025900015EA1C4528D10B884FEA124229E04FEA80
:1025A000124203EA1C4324E002F0FF0482FA4CF5D5
:1025B00094EA1365A5FA8CF50AD165B951F8043B84
:1025C00084EA0204B4EB032F09D150F8042BEBE7A3
:1025D0004FEA13630DE015F0FF0F05D10B684FEACA
:1025E000122223F07F4304E04FF00000FDE8044591
:1025F000704712BA1BBA82FA4CF482EA0304A4FAB6
:102600008CF5B5FA85F402FA04F203FA04F34FEA02
:102610001260FDE80445A0EB1360704780EA0102F8
:10262000844612F0030F4FD111F0030F32D14DF851
:10263000044D11F0040F51F8043B0BD0A3F101320B
:102640009A4312F0803F04BF4CF8043B51F8043B1E
:1026500016D100BF51F8044BA3F101329A4312F096
:10266000803FA4F101320BD14CF8043BA24312F09D
:10267000803F04BF51F8043B4CF8044BEAD023469A
:102680000CF8013B13F0FF0F4FEA3323F8D15DF84C
:10269000044B704711F0010F06D011F8012B0CF814
:1026A000012B002A08BF704711F0020FBFD031F88C
:1026B000022B12F0FF0F16BF2CF8022B8CF8002013
:1026C00012F47F4FB3D1704711F8012B0CF8012B96
:1026D000002AF9D1704700BF000000000000000090
:1026E00000000000000000000000000000000000EA
:1026F00000000000000000000000000000000000DA
:1027000090F800F06DE9024520F007016FF0000C31
:1027100010F0070491F820F040F049804FF00004D9
:102720006FF00700D1E9002391F840F000F10800B4
:1027300082FA4CF2A4FA8CF283FA4CF3A2FA8CF3EC
:102740004BBBD1E9022382FA4CF200F10800A4FA53
:102750008CF283FA4CF3A2FA8CF3E3B9D1E90423A7
:1027600082FA4CF200F10800A4FA8CF283FA4CF3DE
:10277000A2FA8CF37BB9D1E9062301F1200182FA98
:102780004CF200F10800A4FA8CF283FA4CF3A2FA9E
:102790008CF3002BC6D0002A04BF04301A4612BAAC
:1027A000B2FA82F2FDE8024500EBD2007047D1E9AF
:1027B000002304F00305C4F100004FEAC50514F03E
:1027C000040F91F840F00CFA05F562EA05021CBF0F
:1027D00063EA050362464FF00004A9E7A2B330B5EF
:1027E00040EA0104A40784460B462AD09CF8000066
:1027F0000C7884422FD1012A0DD0E64660B11EF834
:10280000010F11F8014F6FEA0E03A042134422D1C9
:102810001CEB0303F2D1002030BD0468194653F8C5
:10282000045BA4F1013EAC4284462EEA040E00F1A2
:1028300004000BD1043A84461946ECD01EF0803FC8
:10284000E9D1032AE9D8D1E7104670479CF8000087
:102850000C78A042D1D0001B30BD00BF2DE9F04F55
:10286000012BADF21C4D1D4681460F46904640F2AD
:1028700045810123002419464FF0FF309C4606E0B5
:10288000A3EB000C1C46012163189D4210D908EBF4
:10289000000218F80360525C9642F1D300F0828087
:1028A0004FF0010C20466146644463189D42EED807
:1028B000CDF808C04FF0010C002461464FF0FF3600
:1028C000634606E0A3EB060C1C46012163189D42FB
:1028D0000FD908EB010218F803E0925D9645F1D894
:1028E00066D04FF0010C26466146644463189D4251
:1028F000EFD8013600F1010BB34502D8CDF808C07E
:10290000B34605AB0DF2144243F8045F9342FBD18A
:10291000002D00F0F8806C1E06AE08F1FF3208EBC7
:102920000400019612F8011FD3432B444344904204
:1029300046F82130F6D1029B5A4608EB0301404687
:1029400000F00EFB002840F08280029B0BF1FF326A
:10295000EB1A824606460592039309EB060E019A8E
:102960001EF8043052F8233043B3BAF1000F04D0FC
:10297000029A9342039A38BF13461E444FF0000A4E
:102980007B1BB342E9D209EB070045F4006100F07C
:1029900011FD07447B1BB342DFD200200DF21C4D1A
:1029A000BDE8F08F8C4512BF0131644401216BE713
:1029B00061450ABF64180131012187E7D3455B46B1
:1029C00038BF5346A34211D2591E9A1941444A4472
:1029D00002E00133A34209D212F8010B11F801CF32
:1029E0008445F6D0CBF101021644C6E7D345059BDA
:1029F00040F282800BEB06024A4408EB0B01CDF853
:102A000010B002E0534516D0034612F8010D11F83C
:102A100001CD844503F1010B03F1FF30F2D05B4699
:102A2000DDF810B00AF1010A9A450BD8029BDDF8D7
:102A30000CA01E44A4E753460AF1010A9A45DDF8AA
:102A400010B0F3D970460DF21C4DBDE8F08FA5EB28
:102A50000B035B4538BF5B46013304930BF1FF3337
:102A60000293CBF101030026039345F4006A09EBBE
:102A70000601019A0B5D52F823306BB11E447B1B9B
:102A80009E42F4D909EB0700514600F093FC07443D
:102A90007B1B9E42EBD980E7A34514D2029B0BEB34
:102AA000060208EB030C4A445B4602E00133A342F2
:102AB00009D212F8010B1CF801EF8645F6D0039AF3
:102AC00016441E44DBE7BBF1000F10D00BEB0600F1
:102AD000484408EB0B0201E0434508D012F801ED31
:102AE00010F801CDE6451346F6D0049BC6E708462C
:102AF0000DF21C4DBDE8F08F5B4693E70123029376
:102B00004FF0000BFDE606AB4FF0FF34019312E7E8
:102B10002DE9F0410D46097890B00446002953D0C4
:102B20006A78002A00F08380AB78002B50D0E878D8
:102B3000002800F083802B79002B57D02846FFF720
:102B4000DFFD064640F40071204600F033FC86426B
:102B50005CD8FE2E00F28780801B27184022711C53
:102B60006846FDF735FC7EB16A1E5FFA86FC901957
:102B700012F8013F03F03F0340336B44A91A61444C
:102B8000824203F8401CF3D1013CA35D03F03F03F4
:102B900040336B4413F8400C0444A74203D23AE09C
:102BA0004444A74237D314F806C00CF03F0C0CF194
:102BB00040030DEB030C2046324629461CF8408C9E
:102BC00000F0CEF90028EBD1204610B0BDE8F0812E
:102BD000007842EA014200E00C4640EA0343611CEF
:102BE000A0B19A426078F7D1013CEDE722786AB152
:102BF000296809BA01E099421ED042EA032320461F
:102C000014F8012F002AF6D1994215D0002420464D
:102C100010B0BDE8F081BB5DB819002BF6D04FF4C1
:102C2000006100F0C7FB0744BC42ADD9EEE710B02D
:102C3000BDE8F041FFF712BBC41EC5E7120442EA2B
:102C4000016242EA03232178024600E02C4641EA71
:102C50000200651C02020029D8D0B3EB002F617876
:102C6000F4D1023CB0E7014633462A46204610B074
:102C7000BDE8F041F2E500BF2DE9F04707464B48BB
:102C80000E46354616F801CB10F80C4014F0080437
:102C9000F7D1BCF12D0FE64658D0BCF12B0F04BF85
:102CA00096F800E0AE1C5BB1102B54D04FF0FF380B
:102CB000B8FBF3F803FB08FA6FEA0A0A994608E042
:102CC000BEF1300F5AD00A23DFF8E4804FF0050A36
:102CD00099460025284607E0404515D829D009FB2C
:102CE00000C0012516F801EBAEF1300CBCF1090F64
:102CF00006D9AEF1410CBCF1190F08D8AEF1370C72
:102D000063450DDD002DE7DA4FF0FF35EAE7AEF160
:102D1000610CBCF1190F03D8AEF1570C6345F1DC1F
:102D2000002D0BDB04B140420AB16DB91160BDE862
:102D3000F087D445D3DD4FF0FF35D3E722233B6046
:102D40004FF0FF30002AF2D0711EEFE796F800E056
:102D50000124AE1CA7E7BEF1300F21D1307800F07E
:102D6000DF00582816D14FF0100996F801E04FF017
:102D70000F0A02366FF070484B46AAE7337803F02B
:102D8000DF03582BEFD008234FF0070A6FF060489D
:102D900099469EE799466FF070484FF00F0A98E702
:102DA0004FF00F0A6FF07048994692E7291C01080E
:102DB0009999991960E700BF10B4044C84461346F2
:102DC00020685DF8044B0A46614655E70000002084
:102DD00010B4044C8446134620685DF8044B0A4640
:102DE000614649E70000002010B51A4C002924680C
:102DF0009AB02ADB009004904FF40270ADF80C00FA
:102E000013D001394FF6FF7002910591ADF80E0015
:102E10006946204600F0B4F9421C01DA8B23236096
:102E2000009B00221A701AB010BD4FF6FF7002917D
:102E30000591ADF80E006946204600F0A1F9431C4B
:102E400001DA8B2323601AB010BD8B2323604FF06F
:102E5000FF30F8E70000002030B5141E9BB0054697
:102E60002CDB4FF4027200910491ADF80C2014D0C9
:102E70004FF6FF711A46013CADF80E101E9B0294EE
:102E80006946059400F07CF9421C01DA8B232B6023
:102E9000009B00221A701BB030BD4FF6FF711A461E
:102EA000ADF80E101E9B02946946059400F068F977
:102EB000431C01DA8B232B601BB030BD8B230360D6
:102EC0004FF0FF30F8E700BF00B50B4C2568144603
:102ED000EE681A4685B003460D464CB10749009589
:102EE000CDE901143046064900F026F800F074FAE6
:102EF00004490C46F3E700BF00000020B02701089A
:102F0000C0270108BC27010808B513460022FFF7B7
:102F1000DBFF00BF704700BF704700BF0CB400B5B7
:102F200083B004AB53F8042B0193FDF7D1FC03B03D
:102F30005DF804EB02B070470EB410B583B005AB7A
:102F4000064C53F8042B019301462068FDF7C0FCA2
:102F500003B0BDE8104003B0704700BF0000002080
:102F6000032A70B515D940EA010C1CF0030F044682
:102F70000B4621D1194620460E680568B54204F17A
:102F8000040403F1040317D1043A032A2046194626
:102F9000F0D8541EA2B100F1FF3C013901E0C31882
:102FA0000CD01CF801EF11F8012F9645A4EB0C038F
:102FB000F5D0AEEB020070BD541EECE7184670BDB4
:102FC000104670BD2DE9F0478F689F420C461D46A4
:102FD000164638D88246888910F4906F0ED108685A
:102FE0003D462A463146FEF77BFCA2682368D21B89
:102FF0002B44A26023600020BDE8F0874B6909697B
:1030000003EB4308236808EBD878A3EB01096B1C9A
:103010004FEA68084B444345424684BF98464246BF
:10302000430513D511465046FDF7B4FB074608B3D8
:1030300021694A46FDF732F9A38923F4906343F0EE
:103040008003A38107E008681F46CAE75046FEF7E1
:1030500029FD074650B107EB0900A8EB09032761DA
:10306000C4F81480A36020602F46BAE72169504657
:10307000FEF7B6FC0C23CAF80030A38943F04003E6
:103080004FF0FF30A381B7E72DE9F04F936883B08D
:103090009146002B6ED017688D6880460C460868F4
:1030A000083744E0A38913F4906F2ED0D4E90415B7
:1030B000A0EB010A05EB450505EBD5750AEB06000B
:1030C0006D100130A8422A4684BF05462A465B059A
:1030D00037D511464046FDF75DFB00283BD05246F0
:1030E00021690190FDF7DAF8A289019B22F4906230
:1030F00042F08002A281A5EB0A0203EB0A0065619F
:10310000A260236120603546B24659465246FEF71A
:10311000E7FBA068D9F808102368451B8E1B03EB5A
:103120000A00A5602060C9F808601EB3083757E997
:1031300002B6002EFAD0B542AA46B3D93546B246F9
:10314000E3E74046FEF7AEFC03460028D3D12169F1
:103150004046FEF745FC0C23C8F80030A389002246
:1031600043F040034FF0FF30A381C9E9012203B0CF
:10317000BDE8F08F0020C9F8040003B0BDE8F08F6F
:103180002DE9F04F92468A8915069DB08846814602
:103190001C4603D50A69002A00F0EF80002209923C
:1031A0009AF800307E4D039420228DF82920302299
:1031B0008DF82A200126002B72D0544603E014F823
:1031C000013F002B76D0252BF9D1B4EB0A0B74D13B
:1031D0002278002A64D000234FF0FF32CDE9052386
:1031E000049307938DF853301A93013404E0049A42
:1031F00006FA03F313430493A246052214F8011BB5
:103200002846FEF71DFB431B0028F0D1049BD8067F
:1032100044BF20228DF8532019079AF8001044BFAC
:103220002B228DF853202A2954D1039A1168043295
:10323000002903927CDB07919AF801100AF1010A38
:103240002E2959D0574C03222046FEF7F9FA40B1F7
:10325000049B001B402404FA00F0034304930AF18A
:10326000010A1AF8011B50488DF828100622FEF7B3
:10327000E7FA002862D04D4B002B52D003AA0092EF
:103280004B4B424604A94846AFF3008007467A1CE0
:1032900006D0099B3B4409939AF80030002B8CD14F
:1032A000B8F80C305B0654BF09984FF0FF301DB0E2
:1032B000BDE8F08FB4EB0A0BF2D05B4652464146B4
:1032C0004846FFF77FFE0130EAD0099B22785B4435
:1032D00009937EE7A1F13002092AB1D8079B1AF8B9
:1032E000011F03EB830302EB4303A1F13002092A20
:1032F000F5D92E290793A5D19AF801102A2927D1AB
:10330000039B9AF802101A6805920433002A0AF106
:1033100002000393B8BF4FF0FF338246B8BF059356
:1033200090E7039B073323F0070308330393B0E7C9
:10333000494243F00203079104937DE703AA0092F8
:103340001B4B424604A94846FDF7A8FC07469EE7EA
:10335000A1F130020023092A05930AF1010A3FF680
:1033600071AF1AF8011F03EB830302EB4303A1F1D2
:103370003002092AF5D9059364E74021FDF70AFADE
:10338000C8F80000C8F8100018B14022C8F814208E
:1033900004E70C23C9F800304FF0FF3087E700BF87
:1033A000F81D0108001E0108041E010800000000AD
:1033B000C52F000871B1034600EB010C01E0634525
:1033C00006D01A46013311780029F8D1101A704737
:1033D000181A70470846704708B5062000F098F89C
:1033E000012004F041FD00BF38B5446C0CB1002051
:1033F00038BD80210546FDF7CDF90246686430B13D
:10340000031F7C3243F8044F9342FBD1EFE74FF0A8
:10341000FF3038BD1F29F8B5054608D8466C0C4664
:1034200017464EB156F8240046F82470F8BD16230E
:1034300003604FF0FF30F8BD8021FDF7ABF9064681
:10344000686440B1031F00F17C05002143F8041FAC
:103450009D42FBD1E6E74FF0FF30F8BD1F2938B59C
:10346000054620D8426C0C466AB152F8213053B15F
:10347000012B16D0591C10D00025204642F82450AC
:103480009847284638BD284600F0F8F822460146FD
:103490002846BDE8384000F0DBB816230360012061
:1034A00038BD002038BD162303604FF0FF3038BD13
:1034B0001F292AD8426C38B50C46054682B152F80D
:1034C000243002EB84024BB1591C19D0012B15D0CA
:1034D0000025204615609847284638BD012038BD94
:1034E0008021FDF757F90246686458B1031F002197
:1034F0007C3043F8041F9842FBD1E0E7032038BD3D
:10350000022038BD4FF0FF3038BD4FF0FF3070471C
:1035100038B5144B1F281D681FD86A6C044662B169
:1035200052F820304BB1012B15D0591C0FD000257B
:1035300042F820509847284638BD284600F09EF8AB
:10354000224601462846BDE8384000F081B81623DF
:103550002B60012038BD002038BD16232B604FF0B2
:10356000FF3038BD00000020124B1F2870B51E68C8
:1035700008D80D46716C044649B151F8240041F851
:10358000245070BD162333604FF0FF3070BD802192
:103590003046FDF7FFF80146706440B1031F00F1AB
:1035A0007C0C002243F8042F6345FBD1E5E74FF084
:1035B000FF3070BD0000002038B50B4B1D686C6CEF
:1035C0000CB1002038BD80212846FDF7E3F868647F
:1035D00038B1031F00F17C0243F8044F9342FBD142
:1035E000EFE74FF0FF3038BD0000002038B5174B33
:1035F0001F281D6826D86A6C044682B152F8243010
:1036000002EB84024BB1591C1AD0012B16D00025B5
:10361000204615609847284638BD012038BD8021D6
:103620002846FDF7B7F80246686458B1031F002129
:103630007C3043F8041F8342FBD1DFE7032038BD11
:10364000022038BD4FF0FF3038BD00BF0000002021
:1036500070B50C46084D03460026204611461C4610
:103660002E6004F0F9FB431C00D070BD2B68002BCA
:10367000FBD0236070BD00BF3C01002004F0EABB1A
:1036800008B50268034B9A4200D008BD01F00AFC5D
:10369000FBE700BF0000014072B6FEE700B595B041
:1036A0003022002108A8FCF793FE00230393049323
:1036B00005930693079301931F4A116C41F08051C3
:1036C0001164126C02F080520192019A02931B4A1B
:1036D000116841F480411160126802F48042029244
:1036E000029A0222089201210B9110210C910E9254
:1036F0000F9308231093A82311931292042313937A
:1037000008A800F0BDFC98B90F230393022304938B
:10371000002305934FF4A05306934FF4805307936F
:10372000052103A800F0FAFE20B915B05DF804FBEE
:10373000FFF7B2FFFFF7B0FF003802400070004013
:1037400008B501F095FBFFF7A9FF00F025F803F09D
:10375000CDFA03F055FB04F0E5FA03F037FB04F073
:10376000D9FB04F02BFC04F0C5FC04F045FC04F08C
:10377000E1FC04F047FF04F079FA04F02FFB03F0BA
:10378000F1FA03F009FB03F057FB02F023FF01F00D
:1037900033FC02F031FFFEE72DE9F0418CB000244C
:1037A0000794089409940A940B940194374B1A6B6C
:1037B00042F010021A631A6B02F010020192019A91
:1037C00002941A6B42F004021A631A6B02F00402AC
:1037D0000292029A03941A6B42F080021A631A6BE7
:1037E00002F080020392039A04941A6B42F00102E1
:1037F0001A631A6B02F001020492049A05941A6B80
:1038000042F002021A631A6B02F002020592059A54
:1038100006941A6B42F008021A631B6B03F008034C
:103820000693069BDFF8708022464FF40051404615
:1038300001F05AF8164F22460221384601F054F89A
:10384000144E22462021304601F04EF84FF400532A
:1038500007930125089509940A9407A9404600F0AA
:1038600051FF02230793089509940A9407A9384643
:1038700000F048FF20230793089509940A9407A9AC
:10388000304600F03FFF0CB0BDE8F0810038024048
:1038900000000240000C024000080240FEE7FEE784
:1038A000FEE7FEE7FEE7704708B5024801F09AF927
:1038B00008BD00BFDC7A002008B5024801F092F98B
:1038C00008BD00BF3C7B002008B5024800F070F93D
:1038D00008BD00BF4001002008B5024803F006FF04
:1038E00008BD00BF9C7B002008B5024803F0FEFE27
:1038F00008BD00BFE07B002008B5024801F072F966
:1039000008BD00BF1C7A002008B5024801F06AF922
:1039100008BD00BF7C7A002000B583B00022009271
:103920000D4B596C41F480415964596C01F480414C
:10393000009100990192196C41F0805119641B6C3F
:1039400003F080530193019B0F216FF0010001F000
:1039500049FA03B05DF804FB0038024030B589B085
:103960000546002401941E4B5A6C42F001025A6431
:103970005B6C03F001030193019B02A903A800F013
:10398000A3FE00F091FE43001648A0FB03239B0C0E
:10399000013B1548154A026040F2E732C2604360BD
:1039A00004618460846100F025FA044610B1204669
:1039B00009B030BD0C4800F0B3F804460028F6D139
:1039C000192001F047FA0F2D01D90124EFE7002259
:1039D0002946192001F006FA054B1D60E7E700BFF4
:1039E0000038024083DE1B434001002000000140FC
:1039F0006800002030B4036A23F001030362036A05
:103A00004268846924F073040D682C4323F0020C8F
:103A10008B6843EA0C03104DA84203D005F580657E
:103A2000A84205D123F00803CD682B4323F00403FB
:103A3000094DA84203D005F58065A84205D122F4BE
:103A400040724D692A438D692A43426084614A6805
:103A50004263036230BC70470000014030B4036A27
:103A600023F480730362036A4268C46924F0730C10
:103A70000C6844EA0C0523F400738C6843EA0423C1
:103A8000114CA04203D004F58064A04206D123F477
:103A90000063CC6843EA042323F480630A4CA04209
:103AA00003D004F58064A04207D122F440524C694F
:103AB00042EA04128C6942EA04124260C5614A6813
:103AC000C263036230BC70470000014030B4036A37
:103AD00023F480530362036A4468C26922F4E64215
:103AE0000D6842EA052223F400538D6843EA05334A
:103AF000094DA84203D005F58065A84204D124F4FD
:103B000080444D6944EA85144460C2614A68026495
:103B1000036230BC704700BF0000014070470000E6
:103B200090F83D30DBB2012B37D1022380F83D30D5
:103B30000268D36843F00103D3600368194A9342D3
:103B400020D0B3F1804F1DD0A2F57C42934219D012
:103B500002F58062934215D002F58062934211D043
:103B600002F5784293420DD002F57052934209D08B
:103B7000A2F59432934205D01A6842F001021A600D
:103B8000002070479A6802F00702062A07D01A68D8
:103B900042F001021A6000207047012070470020A7
:103BA000704700BF00000140704770477047704782
:103BB00010B5044603681A6912F0020F11D0DA68D2
:103BC00012F0020F0DD06FF002021A610123037789
:103BD00003689B6913F0030F70D0FFF7E6FF002323
:103BE000237723681A6912F0040F12D0DA6812F0F2
:103BF000040F0ED06FF004021A61022323772368AA
:103C00009B6913F4407F5FD02046FFF7CEFF00236F
:103C1000237723681A6912F0080F12D0DA6812F0BD
:103C2000080F0ED06FF008021A610423237723686F
:103C3000DB6913F0030F4ED02046FFF7B6FF0023D9
:103C4000237723681A6912F0100F12D0DA6812F085
:103C5000100F0ED06FF010021A610823237723682B
:103C6000DB6913F4407F3DD02046FFF79EFF002321
:103C7000237723681A6912F0010F03D0DA6812F073
:103C8000010F36D123681A6912F0800F03D0DA6869
:103C900012F0800F34D123681A6912F0400F03D05C
:103CA000DA6812F0400F32D123681A6912F0200F3F
:103CB00003D0DA6812F0200F30D110BDFFF774FF87
:103CC0002046FFF773FF8AE72046FFF76DFF204687
:103CD000FFF76CFF9BE72046FFF766FF2046FFF7E4
:103CE00065FFACE72046FFF75FFF2046FFF75EFF6A
:103CF000BDE76FF001021A612046FFF7C1FCC1E782
:103D00006FF080021A61204600F0B9F9C3E76FF046
:103D100040021A612046FFF74AFFC5E76FF0200214
:103D20001A61204600F0AAF9C7E700000368304A8C
:103D3000904212D0B0F1804F0FD0A2F57C42904259
:103D40000BD002F58062904207D002F5806290426B
:103D500003D002F57842904203D123F070034A6801
:103D60001343234A90422AD0B0F1804F27D0A2F5C6
:103D70007C42904223D002F5806290421FD002F52F
:103D8000806290421BD002F57842904217D002F533
:103D90007052904213D002F5806290420FD002F52B
:103DA000806290420BD0A2F59832904207D002F583
:103DB0008062904203D002F58062904203D123F4E6
:103DC0004073CA68134323F080034A6913430360B6
:103DD0008B68C3620B688362054B984203D003F57E
:103DE0008063984201D10B690363012343617047EB
:103DF0000000014040B310B5044690F83D30F3B1E7
:103E0000022384F83D30214651F8040BFFF78EFF62
:103E1000012384F8463084F83E3084F83F3084F83B
:103E2000403084F8413084F8423084F8433084F8DC
:103E3000443084F8453084F83D30002010BD80F8CF
:103E40003C30FFF76BFEDBE70120704740B310B555
:103E5000044690F83D30F3B1022384F83D3021460A
:103E600051F8040BFFF762FF012384F8463084F811
:103E70003E3084F83F3084F8403084F8413084F894
:103E8000423084F8433084F8443084F8453084F874
:103E90003D30002010BD80F83C3003F02FFEDBE702
:103EA0000120704730B4036A23F010030362036AF1
:103EB0004468826922F4E6420D6842EA052223F052
:103EC00020038D6843EA0513114DA84203D005F580
:103ED0008065A84206D123F08003CD6843EA05132C
:103EE00023F040030A4DA84203D005F58065A8429F
:103EF00007D124F440644D6944EA85048D6944EA9D
:103F00008504446082614A688263036230BC704702
:103F10000000014038B590F83C30012B66D00446D3
:103F20000D46012380F83C300C2A5AD8DFE802F015
:103F3000075959591B595959305959594400006862
:103F4000FFF758FD2268936943F0080393612268E4
:103F5000936923F0040393612268936929690B43F1
:103F6000936100203EE00068FFF79CFF22689369A0
:103F700043F4006393612268936923F4806393613F
:103F800022689369296943EA01239361002029E0AB
:103F90000068FFF763FD2268D36943F00803D3612B
:103FA0002268D36923F00403D3612268D3692969A5
:103FB0000B43D361002015E00068FFF787FD2268FE
:103FC000D36943F40063D3612268D36923F4806327
:103FD000D3612268D369296943EA0123D3610020B0
:103FE00000E00120002384F83C3038BD0220FCE7CB
:103FF00090F83C30012B3DD010B4012380F83C30C8
:10400000022380F83D3003685A689C6822F0700CE7
:104010000A6842EA0C025A600368174A93421AD0AF
:10402000B3F1804F17D0A2F57C42934213D002F532
:10403000806293420FD002F5806293420BD002F56A
:104040007842934207D002F57052934203D0A2F512
:104050009432934204D124F080044A6814439C6053
:10406000012380F83D30002380F83C3018465DF88D
:10407000044B7047022070470000014070477047B2
:10408000002800F0E08170B582B00446036813F0A8
:10409000010F3BD09F4B9B6803F00C03042B2CD0EB
:1040A0009C4B9B6803F00C03082B21D06368B3F58D
:1040B000803F4FD0B3F5A02F52D0964B1A6822F410
:1040C00080321A601A6822F480221A606368002B1A
:1040D00050D000F0F3FE05468E4B1B6813F4003FF2
:1040E00014D100F0EBFE401B6428F5D90320B1E1A8
:1040F000884B5B6813F4800FD8D0864B1B6813F491
:10410000003F03D06368002B00F09F81236813F009
:10411000020F54D07F4B9B6813F00C0F3ED07D4BA9
:104120009B6803F00C03082B33D0E368002B68D0A6
:10413000794B01221A6000F0C1FE0546754B1B68E1
:1041400013F0020F54D100F0B9FE401B0228F5D93C
:1041500003207FE16F4A136843F480331360B5E7AF
:104160006C4B1A6842F480221A601A6842F480325A
:104170001A60ABE700F0A2FE0546664B1B6813F41D
:10418000003FC3D000F09AFE401B6428F5D90320FD
:1041900060E1604B5B6813F4800FC6D15D4B1B6818
:1041A00013F0020F03D0E368012B40F05081594A0D
:1041B000136823F0F803216943EAC10313602368FD
:1041C00013F0080F42D063696BB3534B0122C3F85D
:1041D000802E00F073FE05464E4B5B6F13F0020F0E
:1041E00034D100F06BFE401B0228F5D9032031E1E9
:1041F000484A136823F0F803216943EAC1031360B6
:10420000DDE7454B00221A6000F058FE0546414BA1
:104210001B6813F0020FD2D000F050FE401B0228A2
:10422000F5D9032016E13C4B0022C3F8802E00F0A4
:1042300045FE0546374B5B6F13F0020F06D000F0CA
:104240003DFE401B0228F5D9032003E1236813F04B
:10425000040F77D02F4B1B6C13F0805F33D10023FA
:1042600001932C4B1A6C42F080521A641B6C03F0C1
:1042700080530193019B0125284B1B6813F4807F19
:1042800023D0A368012B34D0052B38D0214B1A6FD3
:1042900022F001021A671A6F22F004021A67A3685B
:1042A000002B3DD000F00AFE06461A4B1B6F13F0A0
:1042B000020F46D100F002FE801B41F28833984283
:1042C000F3D90320C6E00025D6E7144A136843F467
:1042D0008073136000F0F2FD0646104B1B6813F468
:1042E000807FCED100F0EAFD801B0228F5D90320A3
:1042F000B0E0084A136F43F001031367CFE7054BA3
:104300001A6F42F004021A671A6F42F001021A672C
:10431000C5E700BF0038024000004742007000407F
:1043200000F0CCFD0646524B1B6F13F0020F08D075
:1043300000F0C4FD801B41F288339842F3D903207A
:1043400088E0EDB9A369002B00F08380484A9268A9
:1043500002F00C02082A51D0022B17D0454B002244
:104360001A6600F0ABFD0446414B1B6813F0007F5A
:1043700042D000F0A3FD001B0228F5D9032069E01C
:104380003B4A136C23F080531364DBE7394B002264
:104390001A6600F093FD0546354B1B6813F0007F4D
:1043A00006D000F08BFD401B0228F5D9032051E018
:1043B000E369226A1343626A43EA8213A26A5208DB
:1043C000013A43EA0243E26A43EA0263284A53603D
:1043D000284B01221A6600F071FD0446244B1B682D
:1043E00013F0007F06D100F069FD001B0228F5D90B
:1043F00003202FE000202DE000202BE0012B2BD00C
:104400001B4B5B6803F48001E269914226D103F003
:104410003F02216A8A4223D1616A47F6C0721A407C
:10442000B2EB811F1ED103F44031A26A5208013A57
:10443000B1EB024F18D103F07063E26AB3EB026F85
:1044400014D1002006E001207047012002E0012085
:1044500000E0002002B070BD0120FBE70120F9E779
:104460000120F7E70120F5E70120F3E70120F1E75C
:10447000003802400000474208B5254B9B6803F016
:104480000C03042B3FD0082B3FD1214B5A6802F07C
:104490003F025B6813F4800F12D01D4B5968C1F3C3
:1044A00088111C480023A1FB0001FDF7BBFB184B42
:1044B0005B68C3F3014301335B00B0FBF3F025E01D
:1044C000134B5968C1F3881C4FEA4C11B1EB0C0037
:1044D0006EEB0E0E4FEA8E1343EA90638101091AC8
:1044E00063EB0E03DB0043EA5173C90011EB0C0CC4
:1044F00043F10003990200234FEA8C2041EA9C51CA
:10450000FDF790FBD3E7034800E0034808BD00BF78
:104510000038024040787D010024F400002800F0BB
:104520009B8070B50D4604464F4B1B6803F0070394
:104530008B4208D2CBB24C4A1370136803F00703C6
:104540008B4240F08B80236813F0020F17D013F0DA
:10455000040F04D0454A936843F4E0539360236802
:1045600013F0080F04D0414A936843F4604393600A
:104570003E4A936823F0F003A1680B4393602368DD
:1045800013F0010F32D06368012B21D09A1E012A4B
:1045900025D9364A126812F0020F61D033498A6871
:1045A00022F0030213438B6000F088FC06462F4B79
:1045B0009B6803F00C036268B3EB820F16D000F027
:1045C0007DFC801B41F288339842F0D9032042E001
:1045D000264A126812F4003FE0D101203BE0234A52
:1045E000126812F0007FD9D1012034E01E4B1B6805
:1045F00003F00703AB4207D9EAB21B4B1A701B68E2
:1046000003F00703AB422DD1236813F0040F06D04B
:10461000164A936823F4E053E1680B4393602368E0
:1046200013F0080F07D0114A936823F460432169FF
:1046300043EAC1039360FFF71FFF0C4B9B68C3F372
:1046400003130B4AD35CD8400A4B18600A4B186816
:10465000FFF784F9002070BD012070470120FAE7C0
:104660000120F8E70120F6E7003C02400038024054
:10467000341D01086C00002068000020014B186800
:10468000704700BF6C00002008B5FFF7F7FF044B30
:104690009B68C3F38223034AD35CD84008BD00BFA4
:1046A00000380240441D010808B5FFF7E7FF044B3E
:1046B0009B68C3F34233034AD35CD84008BD00BFB4
:1046C00000380240441D01080F2303600B4B9A6819
:1046D00002F0030242609A6802F0F00282609A6877
:1046E00002F4E052C2609B68DB0803F4E05303610C
:1046F000034B1B6803F007030B6070470038024050
:10470000003C024000230F2B00F2E48070B582B021
:1047100060E085685E000324B44025EA0405CC68A7
:10472000B4402C438460456825EA02054C68C4F314
:1047300000129A402A4342605AE0DC08083450F8DC
:10474000246003F0070295000F22AA4026EA020E19
:104750000A69AA4042EA0E0240F824205CE00722DF
:1047600000E0002202FA0EF22A4302345A4D45F8C4
:1047700024205A4A94686FEA0C0224EA0C054E6819
:1047800016F4801F01D04CEA0405544CA560E4687F
:1047900002EA04054E6816F4001F01D04CEA040535
:1047A0004E4CE560646802EA04054E6816F4003F6A
:1047B00001D04CEA0405494C6560246822404D68EC
:1047C00015F4803F01D04CEA0402444C22600133CE
:1047D0000F2B7DD801229A400C6804EA020C32EAC1
:1047E0000404F4D14C6804F00304013C012C90D97A
:1047F0004A6802F00302032A09D0C4685D0003225C
:10480000AA4024EA02048A68AA402243C2604A6895
:1048100002F00302022A90D004684FEA430E0322FA
:1048200002FA0EF224EA02044A6802F0030202FAD3
:104830000EF2224302604A6812F4403FC7D00022C1
:104840000192274A546C44F480445464526C02F43C
:1048500080420192019A9C08A51C1F4A52F82550DB
:1048600003F003024FEA820E0F2202FA0EF225EA4B
:1048700002051C4A90423FF474AF02F580629042F8
:104880001AD002F58062904218D002F58062904200
:1048900016D002F58062904214D002F580629042F8
:1048A00012D002F58062904210D002F580629042F0
:1048B0003FF455AF082255E7012253E7022251E7A2
:1048C00003224FE704224DE705224BE7062249E782
:1048D00002B070BD704700BF00380140003C01408D
:1048E00000380240000002400AB1816170470904AB
:1048F0008161704730B405682C6824F480242C60F2
:10490000046863608368402B05D00368996003687E
:10491000DA6030BC704703689A600368D960F8E7D2
:1049200010B40368D9B210390C4AA2FB0142120933
:104930000B4CA25CC2655F2909D923F47F7323F075
:10494000030304338365806D5DF8044B704723F4E3
:104950007F7323F003038365F5E700BFABAAAAAA20
:104960002C1D0108836A826992B9012B0AD0022B9F
:1049700002D00BB100207047C36A13F0807F28D1AA
:1049800000207047C36AB3F1C07F24D00020704775
:10499000B2F5005F09D0022B25D9032B25D1C36ABC
:1049A00013F0807F23D100207047032B03D8DFE86A
:1049B00003F01404140A00207047C36A13F0807FC8
:1049C0000DD100207047C36AB3F1C07F09D0002029
:1049D0007047012070470120704701207047012077
:1049E0007047012070470120704700207047012068
:1049F0007047000070B5044600F060FA002C5BD0F0
:104A00000546022384F83530002384F834302268C8
:104A1000136823F00103136023681A6812F0010F72
:104A20000AD000F04BFA431B052BF5D92023636510
:104A3000032084F8350070BD1A6820481040616872
:104A4000A2680A43E1680A4321690A4361690A438B
:104A5000A1690A43E1690A43216A0A430243616A80
:104A600004291ED01A602668756925F00705636A57
:104A70001D43042B07D1A36A1D43E36A1BB12046E3
:104A8000FFF770FF90B975612046FFF749FFE26DAF
:104A90003F239340836000206065012384F8353014
:104AA000C9E7E16A206B01430A43DBE74023636502
:104AB000012084F83500BEE70120BCE73F8010F0FC
:104AC00038B50446856D90F8340001282BD00120BC
:104AD00084F8340094F83500C0B2012804D00023D3
:104AE00084F83430022038BD022084F835000020DC
:104AF00060652046FFF7FEFEE26D3F239340AB600A
:104B00002268136843F016031360236C23B12268F4
:104B1000136843F0080313602268136843F001032D
:104B200013600020DFE70220DDE770B50446866DE4
:104B300000F0C4F994F83530DBB2022B06D08023A4
:104B40006365002384F83430012070BD0546226877
:104B5000136823F0160313602268536923F080035F
:104B60005361236CE3B12268136823F008031360D8
:104B70002268136823F00103136023681B6813F095
:104B8000010F11D000F09AF9431B052BF5D9202312
:104B90006365032084F83500002384F83430D4E7BB
:104BA000A36C002BDFD1E3E7E26D3F239340B360BA
:104BB000012384F83530002084F83400C5E790F8EC
:104BC0003530DBB2022B03D08023436501207047D0
:104BD000052380F835300268136823F00103136061
:104BE00000207047F0B583B0044600230193724B58
:104BF0001D68724BA3FB0535AD0A876D3E68C26D1B
:104C000008239340334210D003681A6812F0040F4F
:104C10000BD01A6822F004021A60C26D0823934078
:104C2000BB60436D43F001034365E26D0123934094
:104C3000334209D02268526912F0800F04D0BB6061
:104C4000636D43F002036365E26D042393403342D6
:104C500009D02268126812F0020F04D0BB60636DA5
:104C600043F004036365E26D10239340334224D084
:104C70002268126812F0080F1FD0BB6023681A6800
:104C800012F4802F0DD01B6813F4002F04D1236C75
:104C90009BB12046984710E0A36C73B1204698471B
:104CA0000BE01A6812F4807F03D11A6822F0080220
:104CB0001A60236C0BB120469847E26D2023934085
:104CC000334255D02268126812F0100F50D0BB60EA
:104CD00094F83530DBB2052B0ED023681A6812F435
:104CE000802F33D01B6813F4002F2AD1636C002B64
:104CF0003ED0204698473BE02268136823F0160315
:104D000013602268536923F080035361236CA3B1BD
:104D10002268136823F008031360E26D3F23934079
:104D2000BB60012384F83530002384F83430236DD0
:104D3000002B3FD0204698473CE0A36C002BE7D1E6
:104D4000EBE7E36BA3B12046984711E01A6812F431
:104D5000807F09D11A6822F010021A60012384F8BA
:104D60003530002384F83430E36B0BB1204698478C
:104D7000636DFBB1636D13F0010F17D0052384F849
:104D800035302268136823F001031360019B01335F
:104D90000193AB4204D823681B6813F0010FF5D1CF
:104DA000012384F83530002384F83430E36C0BB1F0
:104DB0002046984703B0F0BD6C000020B5814E1B23
:104DC000074AD36823F4E0631B041B0C000200F4C1
:104DD000E060034343F0BF6343F40033D3607047A4
:104DE00000ED00E000B5194BDB68C3F30223C3F10B
:104DF000070CBCF1040F28BF4FF0040C03F1040EA4
:104E0000BEF1060F18D9033B4FF0FF3E0EFA0CFC23
:104E100021EA0C0199400EFA03F322EA0303194335
:104E200000280BDB0901C9B200F1604000F56140C8
:104E300080F800135DF804FB0023E5E700F00F00A5
:104E40000901C9B2024B1954F4E700BF00ED00E0BC
:104E500014ED00E0002807DB00F01F0240090123E9
:104E60009340024A42F82030704700BF00E100E062
:104E700008B50B4B1A6842F400721A601A6842F4C3
:104E800080621A601A6842F480721A600320FFF789
:104E900097FF0F20FEF762FDFEF73EFD002008BDE4
:104EA000003C0240034A1168034B1B780B4413601B
:104EB000704700BF8801002064000020014B186883
:104EC000704700BF88010020034AD2F8883043F4BD
:104ED0007003C2F88830704700ED00E030B5A5B02F
:104EE000354B0193354B0093354B364A36490120FB
:104EF00004F056FA1FA804F0D3F9344B1F93344B37
:104F00002093344B2193344B22931FA804F0D6F9FD
:104F1000F8B102A804F0F0F90BAD02AC0FCC0FC54C
:104F200023682B600BAB0022114610A804F0F6F8A2
:104F300010AB2A4A2A4909A804F03AF904F0B6FE4F
:104F40000246284B09A91EA804F06EF900231D9300
:104F500029E09B212448FBF7A3FADAE7BC21234888
:104F6000FBF79EFA1D9B01331D93214D00224FF448
:104F700000512846FFF7B8FC1E4C002202212046B3
:104F8000FFF7B2FCC82001F0B1FB01224FF4005141
:104F90002846FFF7A9FC012202212046FFF7A4FCC6
:104FA000C82001F0A3FB00221DA91EA804F092F85E
:104FB0000028D3D1D6E700BF758E0008378E0008D1
:104FC000298E0008118E00089C7B0020A98C000807
:104FD000CD8C0008ED8C00082D8D0008BC27010841
:104FE000741D0108801D01084C1D0108941D010855
:104FF000000802400000024008B5044A00210448AD
:1050000001F016FB034B186008BD00BFBC1D010872
:10501000DD4E0008C830002000F1080343604FF067
:10502000FF328260C3600361002303607047002386
:105030000361704743684B609A688A605160996069
:105040000861036801330360704730B40D68B5F13F
:10505000FF3F11D000F108031C465B681A68AA42A2
:10506000FAD963684B6099608C606160086103687D
:105070000133036030BC70470469F2E7036941689B
:1050800082688A60416851605A68824206D0002274
:1050900002611A68013A1A601868704782685A609B
:1050A000F5E710B5044601F0CDFCA26BE36B9A4224
:1050B00004D0002401F0E8FC204610BD0124F9E7EB
:1050C00010B5044601F0BEFCA36B23B9012401F026
:1050D000DBFC204610BD0024F9E770B504461546F8
:1050E000866B026C5AB903681BB100200136A663B7
:1050F00070BD806800F0F0FF0023A360F6E76DB993
:105100004068FBF7CBF8226C636813446360A268C5
:10511000934219D3236863602846E7E7C068FBF72A
:10512000BDF8226C5142E3689B1AE3602268934207
:1051300002D2A3680B44E360022D01D00020D5E722
:1051400026B1013E0020D1E72846CFE70020CDE779
:105150000346026C6AB110B50846D9681144D9609B
:105160009C68A14201D31968D960D968FBF796F809
:1051700010BD704738B5054601F064FC95F8454010
:1051800064B201E0013C64B2002C0ADD6B6A43B1F9
:1051900005F1240000F0DAFE0028F3D000F086FFCD
:1051A000F0E7FF2385F8453001F06EFC01F04AFC82
:1051B00095F8444064B201E0013C64B2002C0ADD81
:1051C0002B6943B105F1100000F0C0FE0028F3D0B8
:1051D00000F06CFFF0E7FF2385F8443001F054FC49
:1051E00038BD38B5E0B10D46044601F02BFC23680C
:1051F000E26B216C01FB0230A0600020A0636360C1
:10520000013A02FB0133E360FF2384F8443084F861
:105210004530FDB9236963B901F036FC012038BD82
:105220004FF0500383F31188BFF36F8FBFF34F8F9D
:10523000FEE704F1100000F089FE0028ECD04FF0EA
:10524000E0234FF08052C3F8042DBFF34F8FBFF31C
:105250006F8FE1E704F11000FFF7DEFE04F1240098
:10526000FFF7DAFED8E738B51D46049C0B4649B96E
:105270002460E063236401212046FFF7B2FF84F835
:105280004C5038BD2260F4E740B94FF0500383F32F
:105290001188BFF36F8FBFF34F8FFEE710B584B057
:1052A0001C46844653B192B189B94FF0500383F341
:1052B0001188BFF36F8FBFF34F8FFEE74FF050039E
:1052C00083F31188BFF36F8FBFF34F8FFEE76AB18F
:1052D00050230393039B502B13D04FF0500383F3C1
:1052E0001188BFF36F8FBFF34F8FFEE70029EFD018
:1052F0004FF0500383F31188BFF36F8FBFF34F8FCD
:10530000FEE7039B012384F8463000949DF8183093
:105310006046FFF7A8FF204604B010BDF0B585B089
:10532000019288B10F461D460446B1B1022D20D12D
:10533000E36B012B1DD04FF0500383F31188BFF3B3
:105340006F8FBFF34F8FFEE74FF0500383F3118849
:10535000BFF36F8FBFF34F8FFEE7036C002BE5D0D9
:105360004FF0500383F31188BFF36F8FBFF34F8F5C
:10537000FEE700F0A1FE064658B9019B002B48D07D
:105380004FF0500383F31188BFF36F8FBFF34F8F3C
:10539000FEE700263DE02A4639462046FFF79DFEFF
:1053A000636A7BB948B14FF0E0234FF08052C3F8F5
:1053B000042DBFF34F8FBFF36F8F01F065FB01200A
:1053C00005B0F0BD04F1240000F0C0FD0028F4D0C9
:1053D0004FF0E0234FF08052C3F8042DBFF34F8FFE
:1053E000BFF36F8FE9E701F04FFB0020E8E702A869
:1053F00000F00EFE012619E0002384F8443021E07D
:10540000002384F8453023E02046FFF7B3FE00F088
:105410007DFC01F017FBA26BE36B9A42BBD3022D1C
:10542000B9D0019B002BDED0002EE0D001F02CFB88
:1054300000F0D2FB01F006FB94F8442052B2B2F126
:10544000FF3FD9D094F8452052B2B2F1FF3FD7D0F8
:1054500001F01AFB01A902A800F0E6FDD8B9204628
:10546000FFF71FFE0028CFD0019904F1100000F0D3
:1054700039FD2046FFF77EFE00F048FC0028C8D129
:105480004FF0E0234FF08052C3F8042DBFF34F8F4D
:10549000BFF36F8FBDE72046FFF76CFE00F036FCD0
:1054A00000208DE72DE9F84390B10F4616461C46C3
:1054B0000546B1B1022C20D1EB6B012B1DD04FF072
:1054C000500383F31188BFF36F8FBFF34F8FFEE755
:1054D0004FF0500383F31188BFF36F8FBFF34F8FEB
:1054E000FEE7036C002BE5D04FF0500383F31188E7
:1054F000BFF36F8FBFF34F8FFEE701F0C9FBEFF3F0
:1055000011894FF0500383F31188BFF36F8FBFF3FE
:105510004F8FAA6BEB6B9A4206D3022C04D000206B
:1055200089F31188BDE8F88395F845804FFA88F82B
:10553000AB6B224639462846FFF7CFFDB8F1FF3F57
:1055400006D008F101035BB285F845300120E7E79A
:105550006B6A0BB90120E3E705F1240000F0F6FCCB
:1055600018B126B101203060DAE70120D8E7012028
:10557000D6E7F0B585B0019290B10F460446C1B1AF
:1055800000F09AFD064600BB019B002B5ED04FF059
:10559000500383F31188BFF36F8FBFF34F8FFEE784
:1055A0004FF0500383F31188BFF36F8FBFF34F8F1A
:1055B000FEE7036C002BE3D04FF0500383F3118818
:1055C000BFF36F8FBFF34F8FFEE700263EE03946F3
:1055D0002046FFF7BDFD013DA563236923B901F016
:1055E00053FA012005B0F0BD04F1100000F0AEFC4C
:1055F0000028F4D04FF0E0234FF08052C3F8042D80
:10560000BFF34F8FBFF36F8FE9E701F03DFA002042
:10561000E8E702A800F0FCFC012621E0002384F862
:10562000443029E0002384F845302BE02046FFF782
:10563000A1FD00F06BFB09E02046FFF79BFD00F0A9
:1056400065FB2046FFF73CFD00283FD101F0FAF949
:10565000A56B002DBBD1019B002BD6D0002ED8D03E
:1056600001F012FA00F0B8FA01F0ECF994F84430C5
:105670005BB2B3F1FF3FD1D094F845305BB2B3F1E8
:10568000FF3FCFD001F000FA01A902A800F0CCFC46
:105690000028D1D12046FFF713FD0028C6D001997C
:1056A00004F1240000F01EFC2046FFF763FD00F02B
:1056B0002DFB0028CAD14FF0E0234FF08052C3F8F1
:1056C000042DBFF34F8FBFF36F8FBFE7002089E733
:1056D0000023072B0CD8074A52F833200AB10133B4
:1056E000F7E7044A42F8331002EBC30358607047EF
:1056F000704700BFCC30002070B504460D461646FA
:1057000001F0A0F994F844305BB2B3F1FF3F0DD043
:1057100094F845305BB2B3F1FF3F0BD001F0B4F920
:10572000A36B5BB12046FFF725FD70BD002384F815
:105730004430EDE7002384F84530EFE73246294650
:1057400004F1240000F0E6FBECE70000084B1B68C6
:105750001B6823B9074B4FF0FF321A607047044BA8
:105760001B68DB68DB685A68024B1A60704700BF31
:1057700010310020B83500202DE9F04780460D4655
:1057800017469946089EDDF824A00A9C9200A521A0
:10579000206BFAF71DFE236B07F18042013A03EB01
:1057A000820727F00707B5B34FF0000CBCF10F0FCD
:1057B0000BD815F80C2004EB0C0383F8342015F8F3
:1057C0000C3013B10CF1010CF0E7002384F84330E6
:1057D000372E00D93726E662E66400252565201DB0
:1057E000FFF725FC04F11800FFF721FC2461C6F146
:1057F0003806A6616462656584F858504A46414699
:10580000384601F0F7F82060BAF1000F01D0CAF86D
:105810000040BDE8F087002384F83430D8E700006A
:1058200038B5002407E004EB840293000E481844C6
:10583000FFF7F2FB0134372CF5D90C4D2846FFF762
:10584000EBFB0B4C2046FFF7E7FB0A48FFF7E4FBB6
:105850000948FFF7E1FB0948FFF7DEFB084B1D6035
:10586000084B1C6038BD00BF183100208C3500206B
:10587000A0350020C4350020F0350020DC350020A4
:10588000103100201431002010B5044601F0DAF880
:10589000224A136801331360214B1B685BB1214B13
:1058A0001B686BB91E4B1B68DA6AE36A9A4207D819
:1058B0001B4B1C6004E01A4B1C601368012B29D0A1
:1058C000194A1368013313606364E06A174B1B685D
:1058D000984201D9154B186000EB8000211D144B34
:1058E00003EB8000FFF7A6FB01F0CEF80D4B1B6821
:1058F0007BB10B4B1B68DA6AE36A9A4209D24FF01C
:10590000E0234FF08052C3F8042DBFF34F8FBFF355
:105910006F8F10BDFFF784FFD2E700BF78350020FE
:105920000C310020D8350020843500208835002037
:105930001831002010B5044690F8593063B1012B9E
:1059400011D0022B0ED04FF0500383F31188BFF318
:105950006F8FBFF34F8FFEE7006B00F0CFFF204645
:1059600000F0CCFF10BD00F0C9FFFBE70F4B1B6838
:10597000D3B110B501F066F80D4BDB68DC68201D73
:10598000FFF77CFB0B4A1368013B1360074A13685F
:10599000013B136001F078F82046FFF7CBFF034B83
:1059A0001B68002BE6D110BD704700BF7C3500207E
:1059B000F03500207835002008B5FFF7D7FF074BFA
:1059C0001B68012BF9D94FF0E0234FF08052C3F848
:1059D000042DBFF34F8FBFF36F8FEEE71831002018
:1059E00070B504460D46174B1E68174B18680430F7
:1059F000FFF744FBB4F1FF3F0DD03444124B1B685A
:105A00005C60A64210D9114B18680F4B196804311D
:105A1000FFF71BFB70BD002DEFD00B4B1968043155
:105A20000B48FFF707FBF5E70A4B1868064B1968A8
:105A30000431FFF70AFB084B1B68A342EAD9064B67
:105A40001C60E7E7043600200C31002014310020F0
:105A5000DC35002010310020B835002030B587B08B
:105A60000B9C7CB10C9DB5B15C250495049D5C2D0F
:105A70001AD04FF0500383F31188BFF36F8FBFF339
:105A80004F8FFEE74FF0500383F31188BFF36F8F02
:105A9000BFF34F8FFEE74FF0500383F31188BFF33E
:105AA0006F8FBFF34F8FFEE7049D0C9D2C63022484
:105AB00085F8594000240394029505AC01940A9C92
:105AC0000094FFF759FE0C98FFF7DEFE059807B02B
:105AD00030BD2DE9F04385B00746884614461E4682
:105AE000900000F08DFE00B381465C2000F088FE3F
:105AF0000546B0B1C0F83090E5B1002385F85930C3
:105B0000039302950D9B01930C9B00933346224611
