:020000040800F2
:1000000000000220C9790008C1340008C334000888
:10001000C5340008C7340008C934000800000000D7
:100020000000000000000000000000005166000811
:10003000CB34000800000000F1660008D56100081C
:10004000197A0008197A0008197A0008197A000844
:10005000197A0008197A0008197A0008197A000834
:10006000197A0008197A0008197A0008197A000824
:10007000197A0008197A0008197A0008197A000814
:10008000CD340008DD340008197A0008197A000818
:10009000197A0008197A0008197A0008197A0008F4
:1000A000197A0008ED340008197A0008197A000856
:1000B000197A0008197A0008197A0008197A0008D4
:1000C000197A0008197A0008197A0008197A0008C4
:1000D000197A0008197A0008FD340008197A000816
:1000E000197A0008197A0008197A0008197A0008A4
:1000F000197A0008197A0008197A0008197A000894
:10010000197A0008197A0008197A0008197A000883
:10011000197A0008197A0008197A0008197A000873
:10012000197A0008197A0008197A0008197A000863
:10013000197A0008197A0008197A0008197A000853
:10014000197A0008197A0008197A0008197A000843
:10015000197A0008197A0008197A0008197A000833
:10016000197A0008197A0008197A0008197A000823
:10017000197A0008197A0008197A000800000000AE
:08018000197A0008197A000841
:1001C000044B05481B1A062B02D9044B03B11847F0
:1001D000704700BF1F0100201C010020000000002C
:1001E00005490648091A891001EBD171491002D05E
:1001F000034B03B1184770471C0100201C0100206D
:100200000000000010B5064C237843B9FFF7D8FF73
:10021000044B13B10448AFF300800123237010BDD9
:1002200020010020000000007406010808B5084BFA
:100230001BB108490848AFF300800848036813B9A8
:10024000BDE80840CCE7064B002BF9D09847F7E70C
:100250000000000024010020740601081C01002099
:100260000000000070B50F4E0F4D761BB61018BF82
:10027000002405D0013455F8043B9847A642F9D133
:100280000A4E0B4D761B10F0F5F9B61018BF00247E
:1002900006D0013455F8043B9847A642F9D170BD09
:1002A00070BD00BF4C1201084C1201085412010825
:1002B0004C120108844641EA000313F003036DD198
:1002C000403A41D351F8043B40F8043B51F8043B19
:1002D00040F8043B51F8043B40F8043B51F8043B20
:1002E00040F8043B51F8043B40F8043B51F8043B10
:1002F00040F8043B51F8043B40F8043B51F8043B00
:1003000040F8043B51F8043B40F8043B51F8043BEF
:1003100040F8043B51F8043B40F8043B51F8043BDF
:1003200040F8043B51F8043B40F8043B51F8043BCF
:1003300040F8043B51F8043B40F8043B51F8043BBF
:1003400040F8043B403ABDD2303211D351F8043B5F
:1003500040F8043B51F8043B40F8043B51F8043B9F
:1003600040F8043B51F8043B40F8043B103AEDD20E
:100370000C3205D351F8043B40F8043B043AF9D25F
:10038000043208D0D2071CBF11F8013B00F8013B32
:1003900001D30B8803806046704700BF082A13D33F
:1003A0008B078DD010F003038AD0C3F10403D21A57
:1003B000DB071CBF11F8013B00F8013B80D331F88B
:1003C000023B20F8023B7BE7043AD9D3013A11F80B
:1003D000013B00F8013BF9D20B7803704B78437076
:1003E0008B7883706046704770B4860746D0541E81
:1003F000002A41D0CAB2034602E014F1FF343BD3D5
:1004000003F8012B9D07F8D1032C2ED9CDB245EA74
:1004100005250F2C45EA054519D903F1100226469A
:10042000103E0F2E42F8105C42F80C5C42F8085C5B
:1004300042F8045C02F11002F2D8A4F1100222F09A
:100440000F0204F00F041032032C13440DD91E4682
:100450002246043A032A46F8045BFAD8221F22F007
:1004600003020432134404F003042CB1C9B21C4447
:1004700003F8011B9C42FBD170BC70471446034635
:10048000C2E700BF0EB410B5044683B018B183694B
:100490000BB900F01FF906A803460190059AA16860
:1004A000204600F023FA03B0BDE8104003B07047C7
:1004B0000FB410B50A4B1C6882B024B1A36913B9FC
:1004C000204600F007F905A803460190049AA168A8
:1004D000204600F00BFA02B0BDE8104004B07047AF
:1004E0000000002000207047014900F039B900BF2A
:1004F0001D1300080020704770B54A1E682505FBD3
:1005000002F50E4605F1740100F054F9044640B1BD
:1005100000210C30666005F168022160A060FFF7E1
:1005200063FF204670BD00BF204B70B51D68AB69EE
:1005300006465BB348356B68AC68013B05D521E0E6
:10054000013B5A1C04F168041CD0B4F90C20002AA9
:10055000F6D100254FF6FF720123E281A381656683
:100560002560A560656025616561A5612946082251
:1005700004F15C00FFF738FF6563A563A564E564DB
:10058000204670BD286828B10546D4E7284600F00B
:100590000FF8CFE704213046FFF7AEFF28600028B0
:1005A000F2D10C2304463360EAE700BF900601084D
:1005B0003D4B3E491A682DE9F04F90424FF0000341
:1005C0008364C364036508BF012383B008BF8361EC
:1005D00081620746FFF7A8FF78603846FFF7A4FF5F
:1005E000B8603846FFF7A0FF7D68F8600024042358
:1005F000AB812C606C60AC606C66EC812C616C61D2
:10060000AC61214605F15C000822FFF7EDFEBE68F3
:10061000DFF89CB0DFF89CA0DFF89C90DFF89C80AE
:10062000C5F824B001230922C5F828A0C5F82C90EC
:10063000C5F830802D622146F381B2813460746048
:10064000B460746634617461B46106F15C000822C0
:100650000193FFF7C9FEFD68366212200222C6F838
:1006600024B0C6F828A0C6F82C90C6F830802146E1
:10067000A881EA812C606C60AC606C662C616C6156
:10068000AC6105F15C000822FFF7AEFE019B2D6214
:10069000C5F824B0C5F828A0C5F82C90C5F830805E
:1006A000BB6103B0BDE8F08F90060108E9040008C3
:1006B000610F0008890F0008C50F0008E50F00084A
:1006C000024B0349186800F04BB800BF90060108C0
:1006D0001D130008836903B96AE77047704700BFBC
:1006E000704700BF704700BF704700BF024B03490F
:1006F000186800F00FB800BF00000020F5040008E3
:10070000024B0349186800F005B800BF0000002044
:10071000E50400082DE9F04110F148071BD0884698
:1007200000267D68BC68013D0FD4A389012B05F12B
:10073000FF3506D9B4F90E300133204601D0C04749
:1007400006436B1C04F16804EFD13F68002FE8D129
:100750003046BDE8F0813E463046BDE8F08100BF3E
:100760002DE9F84310F148071FD0884606464FF0A0
:1007700000097D68BC68013D11D4A389012B05F1F6
:10078000FF3508D9B4F90E3001332146304602D086
:10079000C04749EA00096B1C04F16804EDD13F68C9
:1007A000002FE6D14846BDE8F883B9464846BDE883
:1007B000F88300BF70B5CC1C24F0030408340C2C63
:1007C00038BF0C24002C06463BDBA14239D8274D0C
:1007D000296851B10A68121B04D436E01A68121B4A
:1007E0001AD519464B68002BF8D16968002937D013
:1007F0002146304600F0A2FB431C22D0C31C23F04C
:100800000305A84205D0291A304600F097FB0130B5
:1008100017D02C602B4604E00B2A0DD91A60134424
:100820001C6003F10B0020F007001A1D821A02D091
:100830005142995070BD70BD8B420ED05A684A60CB
:10084000EFE70C233360002070BD0B2A03D84A6801
:100850000B462A60E5E70B46E0E70A460B46F8E759
:10086000304600F06BFB6860C2E700BF3C0100202F
:100870009368013B002B10B4936008DBCCB2136883
:10088000581C1060197020465DF8044B704794693D
:10089000A34202DBCCB20A2CF1D15DF8044B00F08C
:1008A000A5BB00BF93B1F8B514460F460646D51850
:1008B00001E0AC4208D03A4614F8011B3046FFF77D
:1008C000D7FF431CF5D1F8BD0020F8BD00207047CC
:1008D000936810B5144613B95360184610BD00F064
:1008E00061FD0023A360636010BD00BF2DE9F04FE0
:1008F0009DB0894614460393824618B18369002B44
:1009000000F00A818A4B994500F00C81894B99458A
:1009100000F00B81884B994508BFDAF80C90B9F8C4
:100920000C30180740F1EE80D9F81030002B00F0A1
:10093000E98030238DF82A302378804E0021202250
:1009400009918DF829200127002B00F08480252BA8
:10095000254603D117E0252B00F0858015F8013FCF
:10096000002BF8D1B5EB040B75D022465B46494607
:100970005046FFF797FF01306DD0099B2A785B4402
:100980000993002A67D000234FF0FF32013504930A
:10099000079306938DF853301A93059204E0049A56
:1009A00007FA03F31343049329780522304600F035
:1009B000FFFE2C46831B01350028F0D1049BD9068D
:1009C00044BF20228DF8532021781A0744BF2B22E0
:1009D0008DF853202A2969D0A1F13002092A0BD8B9
:1009E000079B14F8011F03EB830302EB4303A1F100
:1009F0003002092AF5D907932E293FD0504D032202
:100A0000284600F0D5FE38B1049B401B402202FA74
:100A100000F003430134049321784A488DF82810EC
:100A20000622013400F0C4FE002849D0464BF3B141
:100A300003AB00934A46454B04A95046AFF30080F0
:100A40008046B8F1FF3F06D0099B434409932378C1
:100A5000002B7FF47CAFB9F80C305B0659D40998B1
:100A60001DB0BDE8F08FB5EB040B8CD07DE7039B88
:100A7000073323F0070308330393E5E761782A2956
:100A800004F1010026D0A1F130020023092A0593C8
:100A90000446B3D814F8011F03EB830302EB4303AE
:100AA000A1F13002092AF5D90593A7E7039A116845
:100AB0000432002903921FDB0791617801349BE720
:100AC00003AB00934A46214B04A9504600F0E6F8D8
:100AD0008046B6E7039B1A680592002A03F10403D7
:100AE0000393B8BF4FF0FF3204F10203AEBFA17809
:100AF000A17805921C4681E7494243F00203079121
:100B00000493DAE74946504600F0E8FA00283FF43B
:100B100010AF4FF0FF30A3E7FFF7DCFD044B994522
:100B20007FF4F4AEDAF80490F9E6DAF80890F6E625
:100B3000D4060108B406010894060108D408010887
:100B4000DC080108E008010800000000A508000812
:100B500010B4044C13460A46014620685DF8044B65
:100B6000FFF7C4BE000000202DE9F0470C46914677
:100B70000A698968DDF820808A42B8BF0A46C9F848
:100B8000002094F8431006461F4611B10132C9F8FF
:100B90000020236899065DD5D9F800200232C9F8F3
:100BA0000020236813F0060F19461DD1E1688A1A48
:100BB000002AD8BF194617DD04F1190A002505E0FF
:100BC000E368D9F800209B1AAB420CDD01235246A2
:100BD00039463046C047013005F10105F0D14FF0EC
:100BE000FF30BDE8F087216894F84330003318BF28
:100BF00001238A060AD5E1185A1C302081F84300E7
:100C0000224494F8451082F84310023304F1430261
:100C100039463046C0470130E1D0236803F006036F
:100C2000042B29D0A36822699342C8BF4FF0000962
:100C300030DD9B1A99441A34002501E04D4529D036
:100C40000123224639463046C047013005F10105EF
:100C5000F4D1C4E713F0060F08D1E168D9F80020F9
:100C60008A1A002AD8BF1946A6DCBDE794F843309B
:100C7000003318BF0123C9E7D9F80010E068A36862
:100C80002269A0EB0109934229EAE979D1DCB9F1A3
:100C9000000FD0D10020BDE8F08700BF2DE9F04360
:100CA0000C46097E85B06E29064617460C98984674
:100CB00004F1430C55D00FD8632900F01B8100F2DA
:100CC000D68000295CD0582940F0E88084F845108F
:100CD0002268DFF860E213E0732900F0FD8000F283
:100CE00089806F2900F0E480702940F0D780226865
:100CF00042F0200222607823DFF83CE284F845309D
:100D00000368150603F1040100F1FF8055064BBF8F
:100D10001B881B6801600160D00744BF42F02002BD
:100D20002260002B40F09580226822F02002226091
:100D30001021002284F843206068A0600028C0F2DF
:100D40008D80226822F004022260002B67D10028E7
:100D500040F08680654608296FD0ACEB050323611F
:100D600011E023681A0600F1D38013F0400F0368E6
:100D7000626903F1040101601B6814BF1A801A60E4
:100D8000002365462361CDF800803B4603AA214637
:100D90003046FFF7E9FE013021D02A462369394663
:100DA0003046C04701301AD02368E06813F0020FC4
:100DB000039B19D0C21A002A16DD04F11909002577
:100DC00004E0E068039BC21AAA420DDD01234A46F3
:100DD00039463046C047013005F10105F1D14FF0E9
:100DE000FF3005B0BDE8F0839842B8BF184605B0A3
:100DF000BDE8F08375295BD078294FD122687AE766
:100E00006168A1602D200029C3F1000384F843002C
:100E100021DB22F00402DFF81CE122600A21654692
:100E2000B3FBF1F201FB123013461EF8002005F867
:100E3000012D002BF4D108298FD12368D9078CD537
:100E4000626823699A4288DC302305F8013C013D41
:100E500083E710216DE7DFF8DCE00A21002BDED10B
:100E60009EF8003084F8423004F1420573E76429AB
:100E700001D0692912D122680368150603F1040123
:100E800052D455064BBFB3F900301B6801600160B6
:100E9000002BB5DBDFF89CE00A214DE7012384F845
:100EA0004210236104F14205002384F843306AE7CD
:100EB00023681A0633D413F0400F036803F10402C9
:100EC00015BF1B881B68026002606F2914BF0A21CE
:100ED0000821DFF860E02CE703686268191D0160F3
:100EE0001D680021284600F063FC00B3401B6060D1
:100EF0002061D9E703681A68191D0123016004F114
:100F0000420584F842202361CEE701601B6803E7B5
:100F100003686269191D01601B681A6030E7036885
:100F20001A1D02601B68D0E701601B68B0E76068AB
:100F3000DEE700BFE8080108FC08010838B5074CE7
:100F4000002305460846236000F0C4FD431C00D082
:100F500038BD2368002BFBD02B6038BDA00A0120D0
:100F600010B50C46B1F90E1000F046FD002803DB69
:100F7000636D0344636510BDA38923F48053A3818B
:100F800010BD00BF002070472DE9F0411646B1F9B1
:100F90000C201F46D3050C46054607D50022022328
:100FA000B1F90E1000F076FBB4F90C20B4F90E1074
:100FB00022F48052A2813B4632462846BDE8F041E9
:100FC00000F076B810B50C46B1F90E1000F062FBD7
:100FD000A389421C0EBF23F4805343F48053606501
:100FE000A38110BDB1F90E1000F0F2B8F8B50D46AE
:100FF0001446064610B18369002B42D0254B9C4213
:1010000044D0254B9C4243D0244B9C4208BFF468FB
:10101000A389A269A2601A0722D5236903B32268B3
:101020006169D31AEDB28B422F4621DA0133A168F0
:10103000501C0139A1602060157062699A4206D087
:10104000A389DB0701D50A2D01D03846F8BD21461A
:10105000304600F063F90028F7D04FF0FF37F4E78F
:101060002146304600F03AF80028F6D12369D6E749
:101070002146304600F052F90028EED122680123C3
:10108000D5E7FFF727FB034B9C42BAD17468BFE753
:10109000B468BDE7D4060108B40601089406010847
:1010A000024B0A4601461868FFF7A0BF0000002067
:1010B00070B50D46084C114606461A4628460023D0
:1010C000236000F015FD431C00D070BD2368002B89
:1010D000FBD0336070BD00BFA00A0120384B70B553
:1010E0001D6806460C4615B1AB69002B42D0354B46
:1010F0009C4245D0344B9C4258D0344B9C4208BF54
:10110000EC68B4F90C2093B219070CD52069A8B18A
:1011100013F001021ED0636900225B42A361A2604A
:10112000F0B1002070BDDD0642D558072AD42069F1
:1011300042F00803A3819BB20028E9D103F4207296
:10114000B2F5007FE4D03046214600F0E7FAA389EB
:101150002069DDE7990758BF6269A2600028E0D1E5
:10116000B4F90C301A06DDD543F04003A3814FF0EB
:10117000FF3070BD2846FFF7ADFA124B9C42B9D143
:101180006C68BEE7616B51B104F14403994204D02D
:10119000304600F0C1FBB4F90C2000236363002348
:1011A0002069636022F024022060C1E7AC68A8E7F0
:1011B00042F04002092333604FF0FF30A28170BD3E
:1011C00000000020D4060108B406010894060108B6
:1011D00038B5074C002305460846236000F052FC52
:1011E000431C00D038BD2368002BFBD02B6038BDDA
:1011F000A00A01208B891A072DE9F0410D4680468F
:1012000033D44A68002A67DDEC6A002C45D00022FE
:10121000D8F80060C8F8002013F4805260D06A6DDE
:101220005F0705D569686B6B521A0BB12B6CD21A2C
:101230000023296A4046A047441C39D0AB892A695B
:101240002A60DB044FF000026A6043D4696BC8F87F
:10125000006011B305F14403994202D0404600F00A
:101260005BFB00206863BDE8F0810E69AEB10C68DD
:101270000E6098070CBF4B690023A41B8B600AE02B
:1012800023463246AF6A296A4046B8470028A4EB95
:101290000004064404DD002CF2DC0020BDE8F081EF
:1012A000AB8943F04003AB814FF0FF30BDE8F081E4
:1012B000D8F800201D2AF3D8174BD340DB4313F096
:1012C0000103EDD1A9892C696B60C9042C60BDD5DF
:1012D000002ABBD16865B9E70A6C002A94DCDCE718
:1012E0000123296A4046A047431C024602D0AB892D
:1012F000EC6A95E7D8F80030002BF8D01D2B01D010
:10130000162B02D1C8F80060C7E7AB8943F0400351
:10131000AB81BDE8F08100BF010040200B6933B311
:1013200010B5044682B008B18369ABB1114B994244
:1013300019D0114B994218D0104B994208BFE1685F
:10134000B1F90C3013B9002002B010BD204602B034
:10135000BDE81040FFF74EBF0191FFF7BBF90199BF
:10136000044B9942E5D16168EAE7A168E8E700200B
:10137000704700BFD4060108B406010894060108AE
:1013800020B1054B01461868FFF7C8BF034B04495D
:101390001868FFF7E5B900BF0000002090060108BB
:1013A0001D1300089368002B73D02DE9F04F8B8933
:1013B00083B00C4619070090164626D5226922B341
:1013C00013F0020035682CD04FF00009B04FC8462A
:1013D000B246B84543464A4628BF3B460098B8F156
:1013E000000F50D0216AA66AB047002858DDDAF80D
:1013F00008301B1A8144A8EB0008CAF80830002BFB
:10140000E7D1002003B0BDE8F08F21460098FFF738
:1014100065FE002840F03381A389356813F002008F
:10142000D2D113F0010945D14F46019637B39A0541
:10143000D4F8088040F183804745C346C0F0AB80B4
:1014400013F4906F40F0AC802068BA465A46494683
:1014500000F0FEF9A2682368A2EB08025B44A260D8
:101460002360019A9368A3EB0A03D144A7EB0A0710
:101470009360002BC5D0A389002FD8D1D5F8009058
:101480006F680835D2E7D5F80090D5F804800835A4
:101490009FE70020704721460098FFF73FFF70B399
:1014A000B4F90C3043F040034FF0FF30A38103B098
:1014B000BDE8F08F814633464E46A8469A464D46D3
:1014C0004EB380B3206823696269B145CB4628BF1B
:1014D000B34698425F4604D9A36813449B4500F382
:1014E000A68093454BDB1346A76A216A00982A46DB
:1014F000B847071ED4DDB9EB0709CCD00120DAF8D4
:101500000830DB1B3D44F61BCAF80830002B3FF4C3
:1015100078AF002ED5D108F1080313E96000984692
:101520000833002EF9D032460A21284600F040F94F
:10153000002800F0A1800130A0EB0509C2E7206877
:101540002369984202D863699F425DD2B84528BF9B
:10155000B8464246494600F07BF9A3682268A3EBEF
:1015600008034244A36022600BB1C24679E72146DA
:101570000098FFF7D3FE002892D1C24671E75A4681
:10158000294600F065F9A2682368A2EB0B025B44D0
:10159000A2602360AFE72068B846BA46BB4655E76D
:1015A00062692068216902EB4208A0EB010A08EB9E
:1015B000D8780AF101004FEA6808384440454246AD
:1015C00084BF804642465B0544D511460098FFF72C
:1015D000F1F88346002855D052462169FEF76AFE8D
:1015E000A38923F4906343F08003A3810BEB0A00EB
:1015F000A8EB0A03C4F810B0C4F814802060A360FC
:10160000B846BA46BB4621E76FF00041B94228BF51
:1016100039464A4691FBF3F10098A66A03FB01F3B1
:10162000216AB047B0F1000A3FF71BAF38E71A460E
:101630002946019300F00CF92268019B00981A4496
:1016400022602146FFF76AFE019B00287FF428AF45
:101650001F4650E7009800F0A7F983460028C5D13F
:10166000009D2169284600F057F9B4F90C300C228E
:1016700023F080032A6015E706F1010922E74FF005
:10168000FF30BFE6009A0C231360B4F90C3009E771
:1016900000FCFF7F70B50D46084C114606461A4601
:1016A00028460023236000F005FA431C00D070BDDB
:1016B0002368002BFBD0336070BD00BFA00A01205F
:1016C00070B50C46B1F90E10002990B015461E46B3
:1016D00013DB01AA00F0A6F900280EDB029A02F43F
:1016E0007042A2F50052B2FA82F252094FF48063BE
:1016F000002032602B6010B070BDA38900221B0651
:10170000326004D5402300202B6010B070BD4FF430
:10171000806300202B6010B070BD00BF8A899207E3
:101720000B4606D501F1470201211A601A61596181
:101730007047F0B583B001AB6A460C460546FFF72B
:10174000BFFF009906462846FFF734F8B4F90C307D
:10175000D0B1019A124F0099AF6243F08003A38188
:101760002060206161611AB93343A38103B0F0BDE9
:101770002846B4F90E1000F069F9B4F90C300028CD
:10178000F2D043F00103EFE79A05EFD404F14702EA
:1017900043F002030121A381226022616161E5E738
:1017A000E904000800000000000000000000000044
:1017B00001F0FF01102A2BDB10F0070F08D010F802
:1017C000013B013A8B422DD010F0070F42B3F6D106
:1017D000F0B441EA012141EA014122F007047FF01F
:1017E00000070023F0E80256083C85EA010586EA76
:1017F000010685FA47F5A3FA87F586FA47F6A5FAB2
:1018000087F68EB9EED1F0BC01F0FF0102F00702BD
:1018100032B110F8013B013A83EA010313B1F8D168
:101820000020704701387047002D06BF3546033849
:10183000073815F0010F07D1013015F4807F02BF82
:10184000013015F4C03F0130F0BC0138704700BFD3
:101850008842F0B50DD98B1898420AD28418002A14
:1018600051D0224613F8014D02F8014D9942F9D1A9
:10187000F0BD0F2A48D941EA00039B0746D100F189
:10188000100401F11003154653F8106C44F8106C65
:1018900053F80C6C44F80C6C53F8086C44F8086C62
:1018A000103D53F8046C44F8046C0F2D03F1100341
:1018B00004F11004E8D8A2F1100323F00F0302F0A2
:1018C0000F0E1033BEF1030F1944034421D91E1F1C
:1018D0000D467446043C55F8047B46F8047F032CFF
:1018E000F8D8AEF1040424F0030404342144234462
:1018F00002F0030262B1013B0A4411F8014B03F804
:10190000014F8A42F9D1F0BD0346F3E70346F2E7FF
:10191000F0BD7246EEE700BF91B151F8043C0439C6
:10192000002BB8BFC9181F4B1A68FAB18A4230B4ED
:101930000AD908680C18A24226D04A60196030BC47
:1019400070478B4203D81A465368002BF9D11468AC
:1019500015198D420DD006D808680C189C4219D074
:101960004B605160EBE70C230360E8E74A601960C5
:10197000704709680C44111999421460DFD10ACBF1
:101980000C4453601460DAE7146852684A602044DB
:101990000860D3E71C685B684B60204408605160B6
:1019A000CDE700BF3C010020F8B51446F9B1C2B143
:1019B00006460D4600F05CF8844201D82846F8BD82
:1019C00021463046FEF7F6FE074670B1224629460C
:1019D000FEF770FC294630463D46FFF79DFF28463E
:1019E000F8BDFFF799FF2546E8E70546E6E711460B
:1019F000BDE8F840FEF7DEBE70B50D46084C114656
:101A000006461A4628460023236000F05BF8431C74
:101A100000D070BD2368002BFBD0336070BD00BFC9
:101A2000A00A012038B50B46074C0546114618465A
:101A30000023236000F02EF8431C00D038BD23683B
:101A4000002BFBD02B6038BDA00A012038B5074C15
:101A5000002305460846236000F024F8431C00D00C
:101A600038BD2368002BFBD02B6038BDA00A0120B5
:101A700051F8040C0028A0F10400BCBF0B58C0189A
:101A8000704700BF024B58221A604FF0FF3070477A
:101A9000A00A0120024B58221A604FF0FF30704715
:101AA000A00A0120024B58221A600020704700BF94
:101AB000A00A0120024B58221A604FF0FF307047F5
:101AC000A00A0120024B58221A604FF0FF307047E5
:101AD000A00A0120044A05491368002B08BF0B46E1
:101AE000184410601846704744010020A80A0120DD
:101AF000024B58221A604FF0FF307047A00A0120B5
:101B00007BB972B90029BEBF00204FF0004106E04A
:101B100008BF00281CBF6FF000414FF0FF3000F0FD
:101B2000C5B9ADF1080C6DE904CE002909DB002B25
:101B30001ADB00F04DF8DDF804E0DDE9022304B023
:101B40007047404261EB4101002B1BDB00F040F885
:101B5000DDF804E0DDE9022304B0404261EB41011D
:101B6000524263EB43037047524263EB430300F07E
:101B70002FF8DDF804E0DDE9022304B0404261EB18
:101B800041017047524263EB430300F021F8DDF856
:101B900004E0DDE9022304B0524263EB43037047E3
:101BA00053B94AB9002908BF00281CBF4FF0FF31C4
:101BB0004FF0FF3000F07AB9ADF1080C6DE904CEBA
:101BC00000F006F8DDF804E0DDE9022304B0704718
:101BD0002DE9F0478C460D460446089E002B51D156
:101BE0008A4217466DD9B2FA82FEBEF1000F0BD0C1
:101BF000CEF1200C01FA0EF520FA0CFC02FA0EF7D9
:101C00004CEA050C00FA0EF44FEA174A250CBCFB0F
:101C1000FAF81FFA87F90AFB18CC45EA0C4508FBCD
:101C200009F3AB420AD9ED1908F1FF3280F02381A4
:101C3000AB4240F22081A8F102083D44ED1AA4B263
:101C4000B5FBFAF00AFB105544EA054400FB09F91C
:101C5000A14509D9E41900F1FF3380F00A81A145BB
:101C600040F2078102383C44A4EB090440EA0840F2
:101C70000021002E61D024FA0EF40023346073603A
:101C8000BDE8F0878B4207D9002E54D0002186E8AA
:101C900021000846BDE8F087B3FA83F1002940F03F
:101CA0008E80AB4202D3824200F2FA80841A65EB46
:101CB00003050120AC46002E3FD086E81010BDE899
:101CC000F08712B90127B7FBF2F7B7FA87FEBEF12A
:101CD000000F34D1EB1B3A0C1FFA87FC0121B3FB38
:101CE000F2F8250C02FB183345EA03450CFB08F318
:101CF000AB4207D9ED1908F1FF3002D2AB4200F236
:101D0000D1808046ED1AA3B2B5FBF2F002FB10556C
:101D100043EA05440CFB00FCA44507D9E41900F193
:101D2000FF3302D2A44500F2B8801846A4EB0C049D
:101D300040EA08409DE731463046BDE8F087CEF1E5
:101D4000200405FA0EF307FA0EF720FA04F83A0C0D
:101D500025FA04F448EA0308B4FBF2F14FEA184507
:101D600002FB11441FFA87FC45EA044501FB0CF312
:101D7000AB4200FA0EF409D9ED1901F1FF3080F001
:101D80008A80AB4240F2878002393D44EB1A1FFA49
:101D900088F5B3FBF2F002FB103345EA034500FB84
:101DA0000CF3AB4207D9ED1900F1FF386FD2AB420B
:101DB0006DD902383D44EB1A40EA01418FE7C1F189
:101DC000200722FA07F88B4005FA01F448EA0303DA
:101DD00020FA07FE4FEA134CFD404EEA040EB5FB15
:101DE000FCF94FEA1E440CFB19551FFA83F844EA2C
:101DF000054509FB08F4AC4202FA01F200FA01FAC7
:101E000008D9ED1809F1FF3043D2AC4241D9A9F10C
:101E100002091D442D1B1FFA8EFEB5FBFCF00CFBC6
:101E200010554EEA054400FB08F8A04507D9E41810
:101E300000F1FF3529D2A04527D902381C4440EAD9
:101E40000940A4EB0804A0FB02894C45C6464D4658
:101E500015D312D056B1BAEB0E0364EB050404FAA5
:101E600007F7CB401F43CC40376074600021BDE8CA
:101E7000F0871846F8E69046E0E6C245EAD2B8EBAD
:101E8000020E69EB03050138E4E72846D7E7404630
:101E900091E78146BEE7014678E702383C4445E7D2
:101EA000084608E7A8F102083D442BE7704700BF49
:101EB000024B0A460146186800F074B80000002082
:101EC000014B1868704700BF00000020024B0A4613
:101ED0000146186800F010B80000002000B5054B5E
:101EE00083B0014601AA186800F006F803B05DF857
:101EF00004FB00BF000000202DE9F0471C4F0E46F8
:101F00009146804600F0D0FF3D68F5B134785CB171
:101F10003D2C18BF344602D117E03D2B15D014F8E4
:101F2000013F002BF9D1A41B286870B1224631462D
:101F300000F014FC28B92868035D3D2B00EB040A6F
:101F400009D055F8040F0028F0D1404600F0AEFF4C
:101F50000020BDE8F0873B68ED1AAD104046C9F897
:101F6000005000F0A3FF0AF10100BDE8F08700BFB8
:101F70006800002000B583B001AAFFF7BDFF03B0E1
:101F80005DF804FB024B01461868FEF713BC00BF66
:101F900000000020024B01461868FFF7BDBC00BFDF
:101FA0000000002038B502FB01F42146FEF702FCD8
:101FB000054618B122460021FEF716FA284638BD1C
:101FC000F8B5144B1C68A36B05461BB100221D61BC
:101FD0005A61F8BD1820FFF7D5FF01220023A06346
:101FE000C0E9042343F20E3303800B2383810522CF
:101FF000034642814AF6CD3741F234264EF26D64F3
:102000004DF6EC61002247808680C48001811D610D
:102010005A61F8BD00000020F8B51F4B1C68A16B89
:1020200091B10A691D484B691D4C00FB02F004FB8D
:102030000300A2FB04230132034443F1000323F015
:102040000040C1E90423F8BD1820FFF79BFF10A34F
:10205000D3E900230146A0630126002743F20E3591
:102060004AF6CD34C0E9046741F234204EF26D6780
:102070004DF6EC660D804C8005250B248880CF80C2
:1020800006480E814D818C81C1E90423F8BD00BF53
:102090002E7F954C2DF45158000000202DF45158FE
:1020A0002D7F954C024B0A4601461868FFF77CBC11
:1020B0000000002008B4F0B5141E9CB005463BDBC0
:1020C0004FF4027302910691ADF8143022AE16D08F
:1020D000013C219A049433464FF6FF7702A90794F6
:1020E0000196ADF8167000F0F3FF421C1ADB029B5C
:1020F00000221A701CB0BDE8F04001B070473346B2
:102100004FF6FF77219A049402A907940196ADF83F
:10211000167000F0DDFF431C07DB1CB0BDE8F0408B
:1021200001B070478B232B60E1E78B232B601CB041
:10213000BDE8F04001B070478B2202604FF0FF30E5
:10214000EBE700BF0CB4F0B5234B0C1E9DB01D682F
:102150003DDB4FF4027302900690ADF8143023AECD
:1021600017D0013C229A049433464FF6FF7702A918
:10217000284607940196ADF8167000F0A9FF421C9E
:102180001BDB029B00221A701DB0BDE8F04002B0BC
:10219000704733464FF6FF77229A049402A92846E7
:1021A00007940196ADF8167000F092FF431C07DB10
:1021B0001DB0BDE8F04002B070478B232B60E0E714
:1021C0008B232B601DB0BDE8F04002B070478B231D
:1021D0002B604FF0FF30EBE700000020C9B2002970
:1021E00041D08207F0B467D00378002B68D09942C1
:1021F00037D0431C04E013F8010B90B381422FD079
:102200009A071C46F7D1256841EA012343EA0343B4
:1022100083EA0506A6F10130A5F1013220EA0600A5
:1022200022EA0502024312F0803F11D1204650F805
:10223000046F83EA0607A7F10135A6F1013225EA0A
:10224000070522EA06022A4312F0803FEFD0044637
:10225000207818B905E014F8010F10B18142FAD1C5
:102260002046F0BC7047830724D00378002BF9D0B8
:10227000431C03E002780133002AF3D09907184683
:10228000F8D11968A1F1013222EA010212F0803F6F
:1022900008D153F8041FA1F1013222EA010212F021
:1022A000803FF6D01A78184642B110F8013F002B53
:1022B000FBD170470346E4E70446A4E7184670479D
:1022C0001846CEE7000000000000000000000000FB
:1022D00000000000000000000000000000000000FE
:1022E000A2EB0300704700BF02780B78012A28BFD9
:1022F0009A42F5D16DE9044540EA0104CDE902674F
:102300006FF0000C4FEA447212B380EA010414F03B
:10231000070F6AD100F0070420F0070004F003055E
:1023200021F007014FEAC505F0E8042314F0040F7B
:10233000F1E804670CFA05F462EA040266EA0406AE
:102340000AD063EA0403624667EA0407664603E0CC
:10235000F0E80423F1E8046782FA4CF582EA060407
:10236000A4FA8CF46CBB83FA4CF583EA0705A5FA52
:102370008CF595B950E9022351E9026782FA4CF5D0
:1023800082EA0604A4FA8CF483FA4CF583EA070582
:10239000A5FA8CF52543DBD09CB92DBAB5FA85F4A6
:1023A00024F0070427FA04F1DDE9026723FA04F3B5
:1023B00003F0FF0001F0FF01FDE80445A0EB010080
:1023C000704724BAB4FA84F424F0070426FA04F11E
:1023D000DDE9026722FA04F202F0FF0001F0FF01DA
:1023E000FDE80445A0EB0100704714F0030F3CD159
:1023F00010F0030428D150F8082B51F8083B82FA5A
:102400004CF582EA0305A5FA8CF55DB950F8042C69
:1024100051F8043C82FA4CF582EA0305A5FA8CF5E2
:10242000002DE8D02DBAB5FA85F424F0070423FA7C
:1024300004F122FA04F202F0FF0001F0FF01FDE8CE
:102440000445A0EB010070474FEAC40420F00300EC
:1024500050F8082B21F0030151F8083B0CFA04F462
:1024600062EA040263EA0403C9E710F003041AD025
:10247000A1EB040120F00300E40750F8042B06D080
:102480000FD28B785FFAA2F4E41A06D12BB1CB7885
:102490005FFAB2F4E41A00D11BB920465DF8104B84
:1024A000704701F1040150F8042BCC0721F003011F
:1024B00051F8043B48D824D222F07F4482FA4CF5EC
:1024C00094EA1325A5FA8CF50AD165B951F8043BB5
:1024D00084EA0204B4EB036F0ED150F8042BEBE74F
:1024E0004FEA132355E035F07F454DD10878FDE8DC
:1024F0000445C0F1000070474FEA126203F0FF0389
:1025000047E002EA1C4482FA4CF594EA1345A5FA26
:102510008CF50AD165B951F8043B84EA0204B4EBA6
:10252000034F0CD150F8042BEBE74FEA134330E094
:1025300015EA1C4528D10B884FEA124229E04FEAE0
:10254000124203EA1C4324E002F0FF0482FA4CF535
:1025500094EA1365A5FA8CF50AD165B951F8043BE4
:1025600084EA0204B4EB032F09D150F8042BEBE703
:102570004FEA13630DE015F0FF0F05D10B684FEA2A
:10258000122223F07F4304E04FF00000FDE80445F1
:10259000704712BA1BBA82FA4CF482EA0304A4FA16
:1025A0008CF5B5FA85F402FA04F203FA04F34FEA63
:1025B0001260FDE80445A0EB1360704780EA010259
:1025C000844612F0030F4FD111F0030F32D14DF8B2
:1025D000044D11F0040F51F8043B0BD0A3F101326C
:1025E0009A4312F0803F04BF4CF8043B51F8043B7F
:1025F00016D100BF51F8044BA3F101329A4312F0F7
:10260000803FA4F101320BD14CF8043BA24312F0FD
:10261000803F04BF51F8043B4CF8044BEAD02346FA
:102620000CF8013B13F0FF0F4FEA3323F8D15DF8AC
:10263000044B704711F0010F06D011F8012B0CF874
:10264000012B002A08BF704711F0020FBFD031F8EC
:10265000022B12F0FF0F16BF2CF8022B8CF8002073
:1026600012F47F4FB3D1704711F8012B0CF8012BF6
:10267000002AF9D1704700BF0000000000000000F0
:1026800090F800F06DE9024520F007016FF0000CB2
:1026900010F0070491F820F040F049804FF000045A
:1026A0006FF00700D1E9002391F840F000F1080035
:1026B00082FA4CF2A4FA8CF283FA4CF3A2FA8CF36D
:1026C0004BBBD1E9022382FA4CF200F10800A4FAD4
:1026D0008CF283FA4CF3A2FA8CF3E3B9D1E9042328
:1026E00082FA4CF200F10800A4FA8CF283FA4CF35F
:1026F000A2FA8CF37BB9D1E9062301F1200182FA19
:102700004CF200F10800A4FA8CF283FA4CF3A2FA1E
:102710008CF3002BC6D0002A04BF04301A4612BA2C
:10272000B2FA82F2FDE8024500EBD2007047D1E92F
:10273000002304F00305C4F100004FEAC50514F0BE
:10274000040F91F840F00CFA05F562EA05021CBF8F
:1027500063EA050362464FF00004A9E7002A41D06E
:1027600040EA010313F00303F0B425D1032A23D96F
:1027700004680D68AC421FD1043A38D0A4F1013589
:1027800025EA040414F0803F2ED1043004310FE018
:1027900050F8043B0E68A3F10134B34224EA030469
:1027A00001F1040126D1043A21D014F0803F1BD15D
:1027B000032A07460D46EBD805780C78AC4202F1A7
:1027C000FF331AD183B114B90EE06BB17AB110F8AE
:1027D000012F11F8014FA24203F1FF33F5D0101B76
:1027E000F0BC7047104670470020F0BC70471046A0
:1027F000F0BC704729463846DEE72A46EFE700BFBF
:102800002DE9F0414FF0010E744600254FF0FF36E0
:102810002B198B4200EB06070DD23F5D10F803C069
:10282000BC452DD21D460124A3EB060E2B198B426D
:1028300000EB0607F1D34FF00108C2F800E0444670
:1028400000254FF0FF372B19994200EB070E0ED9E8
:102850001EF804E010F803C0F44518D91D46012401
:10286000A3EB07082B19994200EB070EF0D80137AC
:10287000701C874224BFC2F800803846BDE8F08152
:102880000CD04FF0010E2E4674467544C0E70BD0B5
:102890004FF001082F4644464544D4E7744512BF23
:1028A00001341D460124B3E7444512BF01341D46DF
:1028B0000124C8E72DE9F04FADF2144D1646054648
:1028C0008B461046194603AA1C46FFF799FF03AB37
:1028D00081460DF20C4243F8044F9342FBD14CB1B8
:1028E000631E721E04A812F8011F40F8213013F174
:1028F000FF33F8D203994A463144304600F0D8FA03
:1029000000286FD109F1FF330093F3188246019339
:1029100023468046544658469A4608EB0A073A1A18
:1029200000212844FEF744FF002856D1002F54D040
:10293000EB1904AA13F8013C52F823304BB124B12F
:10294000039A934201D2AAEB02039844002438462A
:10295000E3E74C4523460AF1FF3E38BF4B4673453B
:1029600013D208EB030216F803C0A85C84452A447E
:1029700006EB030106D02CE011F801CF12F8010F8D
:10298000844526D101337345F6D34C45009980F038
:102990008980009B08EB0302019BA85C1B7898428E
:1029A0002A447FD1019804F1FF3B06E010F801CDE5
:1029B00012F801EDF44503D119464B1E9B45F5D1A4
:1029C00001348C4270D8039C3846A044AAEB04041E
:1029D000A3E7C9F101029044B7E700200DF2144DBE
:1029E000BDE8F08FA4EB09034B4538BF4B460133DC
:1029F00009F1FF38039306EB080358464FF0000A2D
:102A0000CB4699460AEB04073A1A00212844FEF700
:102A1000CFFE0028E1D1002FDFD0EB1904AA13F874
:102A2000013C52F82330A3BB611E8B4515D20AEB43
:102A30000B0216F80B3015F802E09E452A4406EB0F
:102A40000B005B4606D027E010F801CF12F801EF2B
:102A5000F44521D101338B42F6D3B8F1FF3F11D0B9
:102A60000AEB080299F80010AB5C99422A440FD196
:102A70004B4605E013F8010D12F8011D884207D1FD
:102A8000B342F7D105EB0A000DF2144DBDE8F08F0B
:102A9000039B9A443846B5E7CBF1010292449A442D
:102AA0003846AFE749468BE705EB080096E700BFDD
:102AB0000278002A00F001812DE9F04F91F80080A2
:102AC00085B04446B8F1000F16D0864601F1010CDE
:102AD000012703E013F8014B6CB19C46A24214BFDE
:102AE000002707F001071EF8012F6346002AF1D1E5
:102AF0009CF80030FBB917B105B0BDE8F08F0E4669
:102B0000054641460130ACEB0604FFF767FB07467C
:102B100088B1012CF0D02819874294BFC11B012134
:102B20001F2C8B460BD9234632463846FFF7C2FE90
:102B300005B0BDE8F08F002005B0BDE8F08F03AA16
:102B400021463046FFF75CFE039980460246314439
:102B5000304600F0ADF9002857D108F1FF3300935B
:102B6000F3188146054601935846B2466619321A53
:102B700000213844FEF71CFE0028DCD1002EDAD0FC
:102B8000C845434638BF4B469C4212D95A191AF8D9
:102B90000310B85C81423A440AEB030E06D02CE0E5
:102BA0001EF8010F12F8011F884226D101339C4202
:102BB000F6D1C845009940F28380009BEA18019B3A
:102BC000B85C1B7898423A447AD1019809F1FF3BEE
:102BD00006E010F801CD12F801EDF44503D11946D5
:102BE0004B1E5B45F5D109F10109894557D8039B77
:102BF00030461D44A4EB0309B8E7C8F101021544AF
:102C00001D444FF000093046B0E7A4EB08034345EC
:102C100038BF4346013308F1FF39039306EB09033C
:102C200058460025BB469A4667193A1A002158446F
:102C3000FEF7BEFD00287FF47EAF002F3FF47BAF90
:102C4000444515D908EB050216F808301BF80200B8
:102C500098425A4406EB0801434606D023E011F897
:102C600001EF12F8010F86451DD101339C42F6D1C8
:102C7000B9F1FF3F12D005EB09029AF800301BF8BA
:102C8000021099425A4414D1534605E013F8010D3D
:102C900012F8011D88420CD1B342F7D15F46781972
:102CA00005B0BDE8F08FC8F1010215441D44384657
:102CB000BAE7039B38461D44B6E70B7813B9704753
:102CC000414690E7002070472DE9F04F494C82467D
:102CD000D4F800C0084600E02046044614F8015B22
:102CE0000CEB0506777817F00807F5D12D2D58D095
:102CF0002B2D04BF2578841C5BB1102B55D04FF0D1
:102D0000FF38B8FBF3F803FB08FB6FEA0B0B99469F
:102D100007E0302D5AD00A23DFF8DC8099464FF0C7
:102D2000050B4FF0000E70460EE0303DAB421BDD50
:102D3000BEF1000F26DB404524D821D009FB00500E
:102D40004FF0010E14F8015B0CEB0506767816F0D7
:102D5000040FEAD116F0030606D0012E14BF572641
:102D60003726AD1BAB42E3DCBEF1000F0FDB07B132
:102D7000404252B1BEF1000F0FD11160BDE8F08F9B
:102D80005D45DBDD4FF0FF3EDCE7BDE8F08F222341
:102D9000CAF800304FF0FF3052B3611E1160BDE839
:102DA000F08F25780127841CA6E7302D1AD12078D2
:102DB00000F0DF00582815D14FF0100965784B4618
:102DC0004FF00F0B02346FF07048AAE7237803F03E
:102DD000DF03582BF0D0082399464FF0070B6FF014
:102DE00060489EE74FF00F0B6FF07048994698E7E8
:102DF000BDE8F08F640000209999991910B4044C33
:102E000013460A46014620685DF8044BFFF75CBF95
:102E10000000002070B5141E9AB005462EDB1A463D
:102E20004FF4027300910491ADF80C3011D0013CC5
:102E30004FF6FF761E9B029469460594ADF80E602E
:102E400000F046F9421C12DB009B00221A701AB0F7
:102E500070BD1E9B02944FF6FF7669460594ADF84F
:102E60000E6000F035F9431C04DB1AB070BD8B23F3
:102E70002B60E9E78B232B601AB070BD8B230360B6
:102E80004FF0FF30F1E700BF10B582B0054C009362
:102E9000246813460A4601462046FFF7BBFF02B0EE
:102EA00010BD00BF00000020704700BF704700BF8A
:102EB000032A70B422D940EA01039B0711D003789A
:102EC0000C78A3421DD10A44013105E010F8013FFE
:102ED00011F8014BA34214D19142F7D1002070BCEC
:102EE00070470D680668AE420C46034601F10401C6
:102EF00000F1040008D1043A032AF2D8002ADED1F6
:102F0000ECE7181B70BC704721461846D7E700BF96
:102F10002DE9F0478E689E420C461D46174628D87C
:102F20008046888910F4906F32D04E692368096911
:102F300006EB4606A3EB010906EBD6766B1C761072
:102F40004B44B342324684BF1E463246430522D527
:102F500011464046FDF72EFC824680B34A46216961
:102F6000FDF7A8F9A38923F4906343F08003A381BC
:102F700016E008681E462A463946FEF769FCA26834
:102F80002368961B2B44A66023600020BDE8F087D1
:102F900008683546EFE74046FEF706FD824650B129
:102FA000A6EB09030AEB09006661C4F810A02060D3
:102FB000A3602E46DFE721694046FEF7ADFC0C23F7
:102FC000C8F80030A38943F04003A3814FF0FF30DD
:102FD000BDE8F0872DE9F04F936883B09046002B51
:102FE00070D082460C4617688D68086842E0A38955
:102FF00013F4906F2ED06569216905EB4505A0EBB0
:10300000010B05EBD5750BF101006D103044A842A2
:103010002A4684BF05462A465B0538D511465046E8
:10302000FDF7C8FB00283CD05A4621690190FDF706
:1030300041F9A289019B22F4906242F08002A281B0
:10304000A5EB0B0203EB0B00656123612060A2601E
:103050003546B3465A464946FEF7FAFBD8F80830DB
:10306000A2682068551B58449E1BA5602060C8F8C4
:1030700008603EB37E683B460837002EFAD0AE4269
:10308000D3F80090AB46B2D23546B346E2E750469D
:10309000FEF78AFC03460028D2D121695046FEF78C
:1030A0003BFC0C23CAF80030A389002243F0400304
:1030B0004FF0FF30A381C8F80820C8F8042003B0FF
:1030C000BDE8F08F0020C8F8040003B0BDE8F08F21
:1030D0002DE9F04F14468A899DB015068946039361
:1030E000824603D50B69002B00F0EB8030238DF86E
:1030F0002A3023787C4E0022202109928DF8291055
:103100000127002B00F08480252B254603D117E0F2
:10311000252B00F0878015F8013F002BF8D1B5EB87
:10312000040B75D022465B4649465046FFF7F0FE39
:1031300001306DD0099B2A785B440993002A67D03F
:1031400000234FF0FF3201350493079306938DF867
:1031500053301A93059204E0049A07FA03F31343D9
:103160000493297805223046FEF722FB2C46831B68
:1031700001350028F0D1049BD90644BF20228DF8E8
:10318000532021781A0744BF2B228DF853202A2977
:103190006BD0A1F13002092A0BD8079B14F8011F4C
:1031A00003EB830302EB4303A1F13002092AF5D9B3
:1031B00007932E2941D04D4D03222846FEF7F8FAF9
:1031C00038B1049B401B402202FA00F00343013453
:1031D0000493217846488DF8281006220134FEF722
:1031E000E7FA00284BD0434B03B303AB00934A46A6
:1031F000414B04A95046AFF300808046B8F1FF3F31
:1032000006D0099B434409932378002B7FF47CAFBD
:10321000B9F80C305B0654BF09984FF0FF301DB071
:10322000BDE8F08FB5EB040B8AD07BE7039B073337
:1032300023F0070308330393E3E761782A2904F1B5
:10324000010026D0A1F130020023092A059304468B
:10325000B1D814F8011F03EB830302EB4303A1F180
:103260003002092AF5D90593A5E7039A11680432BB
:10327000002903921FDB07916178013499E703ABC2
:1032800000934A461C4B04A95046FDF707FD8046B3
:10329000B4E7039B1A680592002A03F10403039321
:1032A000B8BF4FF0FF3204F10203AEBFA178A1789E
:1032B00005921C467FE7494243F0020307910493BD
:1032C000DAE74021FDF776FAC9F80000C9F81000E6
:1032D00018B14023C9F8143008E70C23CAF80030AD
:1032E0004FF0FF309BE700BFD4080108DC0801085D
:1032F000E008010800000000112F000808B502686E
:10330000034B9A4200D008BD01F0C0FBFBE700BFB1
:103310000000014072B6FEE700B595B030220021F2
:1033200008A8FDF761F8002303930493059306931F
:10333000079301931F4A116C41F080511164126C84
:1033400002F080520192019A02931B4A116841F4E3
:1033500080411160126802F480420292029A0222B5
:10336000089201210B9110210C910E920F930823CA
:103370001093A823119312920423139308A800F02A
:103380007DFC98B90F230393022304930023059334
:103390004FF4A05306934FF480530793052103A8DD
:1033A00000F0BAFE20B915B05DF804FBFFF7B2FFDC
:1033B000FFF7B0FF003802400070004008B501F090
:1033C0004BFBFFF7A9FF00F00DF803F0ABFA03F099
:1033D000CBFA04F047F802F009FF01F001FC02F01B
:1033E00019FFFEE72DE9F0418AB000240594069408
:1033F00007940894099401942D4B1A6B42F004022F
:103400001A631A6B02F004020192019A02941A6B79
:1034100042F080021A631A6B02F080020292029A52
:1034200003941A6B42F001021A631A6B02F0010254
:103430000392039A04941A6B42F008021A631B6BFE
:1034400003F008030493049BDFF8708022464FF4D6
:103450000051404601F044F8164F224602213846FA
:1034600001F03EF8144E22462021304601F038F893
:103470004FF400530593012506950794089405A978
:10348000404600F03DFF02230593069507940894FB
:1034900005A9384600F034FF2023059306950794CC
:1034A000089405A9304600F02BFF0AB0BDE8F08172
:1034B0000038024000000240000C024000080240B8
:1034C000FEE7FEE7FEE7FEE7FEE7704708B50248C5
:1034D00001F082F908BD00BF5409012008B5024877
:1034E00001F07AF908BD00BFB409012008B502480F
:1034F00000F05CF908BD00BF88D9002008B502487B
:1035000003F068FD08BD00BF140A012000B583B0B8
:10351000002200920D4B596C41F480415964596C62
:1035200001F48041009100990192196C41F08051A1
:1035300019641B6C03F080530193019B0F216FF002
:10354000010001F049FA03B05DF804FB00380240C5
:1035500030B589B00546002401941E4B5A6C42F0E8
:1035600001025A645B6C03F001030193019B02A901
:1035700003A800F0A7FE00F095FE43001648A0FB4C
:1035800003239B0C013B1548154A026040F2E732C9
:10359000C260436004618460846100F02BFA0446D9
:1035A00010B1204609B030BD0C4800F0B7F8044611
:1035B0000028F6D1192001F041FA0F2D01D901247C
:1035C000EFE700222946192001F006FA054B1D609D
:1035D000E7E700BF0038024083DE1B4388D90020A4
:1035E000000001407000002030B4036A23F00103A2
:1035F0000362036A4468826922F073020D682A43F9
:1036000023F002038D682B43114DA84211D005F51C
:103610008065A8420DD00E4DA84211D005F58065F9
:10362000A8420DD0446082614A684263036230BCA4
:10363000704723F00803CD682B4323F00403EAE727
:1036400024F440744D692C438D692C43EAE700BF94
:103650000000014030B4036A23F480730362036AFC
:103660004468C26922F073020D682A4323F4007390
:103670008D6843EA0523134DA84211D005F58065F6
:10368000A8420DD00F4DA84212D005F58065A84282
:103690000ED04460C2614A68C263036230BC7047A6
:1036A00023F40063CD6843EA052323F48063E9E74C
:1036B00024F440544D6944EA05148D6944EA051424
:1036C000E7E700BF0000014030B4036A23F48053F1
:1036D0000362036A4468C26922F4E6420D6842EA62
:1036E000052223F400538D6843EA0533094DA842AF
:1036F0000AD005F58065A84206D04460C2614A68D8
:103700000264036230BC704724F480444D6944EA8B
:103710008514F2E7000001407047000090F83D304A
:10372000DBB2012B01D001207047022380F83D302D
:103730000268D36843F00103D3600368184A9342D8
:1037400020D0B3F1804F1DD0A2F57C42934219D016
:1037500002F58062934215D002F58062934211D047
:1037600002F5784293420DD002F57052934209D08F
:10377000A2F59432934205D01A6842F001021A6011
:10378000002070479A6802F00702062A05D01A68DE
:1037900042F001021A60002070470020704700BF0D
:1037A00000000140704770477047704710B50446ED
:1037B00003681A6912F0020F11D0DA6812F0020FD2
:1037C0000DD06FF002021A610123037703689B6931
:1037D00013F0030F70D0FFF7E6FF00232377236871
:1037E0001A6912F0040F12D0DA6812F0040F0ED02A
:1037F0006FF004021A610223237723689B6913F494
:10380000407F5FD02046FFF7CEFF00232377236859
:103810001A6912F0080F12D0DA6812F0080F0ED0F1
:103820006FF008021A61042323772368DB6913F021
:10383000030F4ED02046FFF7B6FF002323772368FF
:103840001A6912F0100F12D0DA6812F0100F0ED0B1
:103850006FF010021A61082323772368DB6913F4E1
:10386000407F3DD02046FFF79EFF0023237723684B
:103870001A6912F0010F03D0DA6812F0010F36D185
:1038800023681A6912F0800F03D0DA6812F0800FF3
:1038900034D123681A6912F0400F03D0DA6812F0AD
:1038A000400F32D123681A6912F0200F03D0DA6872
:1038B00012F0200F30D110BDFFF774FF2046FFF744
:1038C00073FF8AE72046FFF76DFF2046FFF76CFF86
:1038D0009BE72046FFF766FF2046FFF765FFACE752
:1038E0002046FFF75FFF2046FFF75EFFBDE76FF062
:1038F00001021A612046FFF701FDC1E76FF0800267
:103900001A61204600F0B9F9C3E76FF040021A616E
:103910002046FFF74AFFC5E76FF020021A612046F4
:1039200000F0AAF9C7E700000368314A904212D0BC
:10393000B0F1804F0FD0A2F57C4290420BD002F53F
:103940008062904207D002F58062904203D002F577
:103950007842904203D123F070034A681343244A0B
:1039600090422AD0B0F1804F27D0A2F57C429042FD
:1039700023D002F5806290421FD002F5806290420F
:103980001BD002F57842904217D002F57052904257
:1039900013D002F5806290420FD002F5806290420F
:1039A0000BD0A2F59832904207D002F58062904287
:1039B00003D002F58062904203D123F44073CA68B9
:1039C000134323F080034A69134303608B68C36287
:1039D0000B688362064B984206D003F580639842D9
:1039E00002D00123436170470B690363F9E700BF0D
:1039F0000000014038B310B5044690F83D30EBB1FB
:103A0000022384F83D30211D2068FFF78DFF01233C
:103A100084F8463084F83E3084F83F3084F84030F3
:103A200084F8413084F8423084F8433084F84430DC
:103A300084F8453084F83D30002010BD80F83C30DB
:103A4000FFF76AFEDCE70120704738B310B5044683
:103A500090F83D30EBB1022384F83D30211D206801
:103A6000FFF762FF012384F8463084F83E3084F883
:103A70003F3084F8403084F8413084F8423084F894
:103A8000433084F8443084F8453084F83D300020D9
:103A900010BD80F83C3003F0A1FCDCE7012070474A
:103AA00030B4036A23F010030362036A4468826936
:103AB00022F4E6420D6842EA052223F020038D68D5
:103AC00043EA0513124DA84211D005F58065A842BE
:103AD0000DD00F4DA84212D005F58065A8420ED03A
:103AE000446082614A688263036230BC704723F09D
:103AF0008003CD6843EA051323F04003E9E724F48B
:103B000040644D6944EA85048D6944EA8504E7E729
:103B10000000014038B590F83C30012B66D00D46CE
:103B20000446012380F83C300C2A5DD8DFE802F01F
:103B3000075C5C5C1E5C5C5C335C5C5C4700006842
:103B4000FFF752FD2268936943F0080393612268EE
:103B5000936923F0040393612268936929690B43F5
:103B600093610020002384F83C3038BD0068FFF7E3
:103B700097FF2268936943F4006393612268936915
:103B800023F48063936122689369296943EA0123DE
:103B900093610020E6E70068FFF75CFD2268D369C7
:103BA00043F00803D3612268D36923F00403D3618F
:103BB0002268D36929690B43D3610020D2E70068EA
:103BC000FFF782FD2268D36943F40063D361226862
:103BD000D36923F48063D3612268D369296943EAF6
:103BE0000123D3610020BDE70120BBE7022038BDDF
:103BF00090F83C30012B3BD030B4012380F83C30AE
:103C0000022380F83D3004686368A26823F07003E3
:103C10000D682B4363600368164CA3421AD0B3F1BE
:103C2000804F17D0A4F57C44A34213D004F58064E0
:103C3000A3420FD004F58064A3420BD004F578446E
:103C4000A34207D004F57054A34203D0A4F59434E2
:103C5000A34204D122F0800249680A439A600123FA
:103C600080F83D30002380F83C30184630BC704767
:103C7000022070470000014070477047002800F0A4
:103C8000E98170B582B00446036813F0010F3BD0A0
:103C9000A74B9B6803F00C03042B2CD0A44B9B6810
:103CA00003F00C03082B21D06368B3F5803F4FD09D
:103CB000B3F5A02F52D09E4B1A6822F480321A60BE
:103CC0001A6822F480221A606368002B50D000F03A
:103CD000E9FE0546964B1B6813F4003F14D100F033
:103CE000E1FE401B6428F5D90320B8E1904B5B68E6
:103CF00013F4800FD8D08E4B1B6813F4003F03D011
:103D00006368002B00F0A881236813F0020F55D0E0
:103D1000874B9B6813F00C0F3ED0854B9B6803F0DC
:103D20000C03082B33D0E368002B68D00122814BB1
:103D30001A6000F0B7FE05467D4B1B6813F0020FBA
:103D400054D100F0AFFE401B0228F5D9032086E1D4
:103D5000774A136843F480331360B5E7744B1A68ED
:103D600042F480221A601A6842F480321A60ABE78B
:103D700000F098FE05466E4B1B6813F4003FC3D05D
:103D800000F090FE401B6428F5D9032067E1684BE2
:103D90005B6813F4800FC6D1654B1B6813F0020FEC
:103DA00004D0E368012B01D0012058E1604A136878
:103DB00023F0F803216943EAC1031360236813F079
:103DC000080F40D0636963B301225B4B1A6000F0B7
:103DD00069FE0546564B5B6F13F0020F33D100F0BE
:103DE00061FE401B0228F5D9032038E1504A1368D0
:103DF00023F0F803216943EAC1031360DEE70022E0
:103E00004C4B1A6000F04EFE0546494B1B6813F000
:103E1000020FD3D000F046FE401B0228F5D9032044
:103E20001DE10022444B1A6000F03CFE0546404B69
:103E30005B6F13F0020F06D000F034FE401B022827
:103E4000F5D903200BE1236813F0040F79D0384B28
:103E50001B6C13F0805F33D100230193344B1A6C39
:103E600042F080521A641B6C03F080530193019B53
:103E70000125324B1B6813F4807F23D0A368012BEC
:103E800034D0052B38D02A4B1A6F22F001021A6762
:103E90001A6F22F004021A67A368002B36D000F0D4
:103EA00001FE0646224B1B6F13F0020F48D100F0B3
:103EB000F9FD801B41F288339842F3D90320CEE00C
:103EC0000025D6E71D4A136843F48073136000F0A1
:103ED000E9FD0646194B1B6813F4807FCED100F034
:103EE000E1FD801B0228F5D90320B8E0104A136FCA
:103EF00043F001031367CFE70D4B1A6F42F0040242
:103F00001A671A6F42F001021A67C5E700F0CAFD8E
:103F10000646074B1B6F13F0020F11D000F0C2FDD5
:103F2000801B41F288339842F3D9032097E000BF09
:103F30000038024000004742800E474200700040B7
:103F4000EDB9A369002B00F08980484A926802F01D
:103F50000C02082A51D0022B17D00022444B1A60C1
:103F600000F0A0FD0446414B1B6813F0007F42D0D7
:103F700000F098FD001B0228F5D903206FE03B4AB2
:103F8000136C23F080531364DBE70022384B1A6074
:103F900000F088FD0546354B1B6813F0007F06D006
:103FA00000F080FD401B0228F5D9032057E0E369AB
:103FB000226A1343626A43EA8213A26A5208013AF0
:103FC00043EA0243E26A43EA0263284A5360012259
:103FD000274B1A6000F066FD0446244B1B6813F063
:103FE000007F06D100F05EFD001B0228F5D90320FA
:103FF00035E0002033E0002031E0012B31D01B4BB5
:104000005B6803F48001E269914201D0012026E05F
:1040100003F03F02216A8A4201D001201FE0616A59
:1040200047F6C0721A40B2EB811F01D0012016E0A2
:1040300003F44031A26A5208013AB1EB024F01D0B9
:1040400001200CE003F07063E26AB3EB026F0AD068
:10405000012004E001207047012000E0002002B0B0
:1040600070BD0120FBE70020F9E700BF00380240E7
:1040700060004742F8B5254B9B6803F00C03042B06
:1040800041D0082B01D02248F8BD204B5A6802F0DD
:104090003F025B6813F4800F12D01C4B5968C1F3C8
:1040A000881100231B48A1FB0001FDF779FD174B88
:1040B0005B68C3F3014301335B00B0FBF3F0F8BD71
:1040C000124B5B68C3F388131E4600275C01002572
:1040D000E41A65EB0705A90141EA9461A001001B00
:1040E00061EB0501CB0043EA5073C400A01943EB18
:1040F00007018B0243EA90538402204619460023AD
:10410000FDF74EFDD3E70348F8BD00BF003802407D
:104110000024F40040787D01002800F09E8070B5F6
:104120000446504B1B6803F007038B4209D2CBB205
:104130004C4A1370136803F00703994201D0012021
:1041400070BD236813F0020F17D013F0040F04D0D2
:10415000454A936843F4E0539360236813F0080FD3
:1041600004D0414A936843F4604393603E4A9368A5
:1041700023F0F003A068034393600D46236813F017
:10418000010F32D06368012B21D09A1E012A25D954
:10419000354A126812F0020F61D033498A6822F062
:1041A000030213438B6000F07DFC06462E4B9B6898
:1041B00003F00C036268B3EB820F16D000F072FCC0
:1041C000801B41F288339842F0D9032070BD264A03
:1041D000126812F4003FE0D1012070BD224A12683B
:1041E00012F0007FD9D1012070BD1E4B1B6803F077
:1041F00007039D4209D2EAB21A4B1A701B6803F0FA
:1042000007039D4201D0012070BD236813F0040F05
:1042100006D0154A936823F4E053E1680B4393609A
:10422000236813F0080F07D00F4A936823F4604304
:10423000216943EAC1039360FFF71CFF0A4B9B68A7
:10424000C3F30313094AD35CD840094B1860094BE8
:104250001868FFF77DF9002070BD0120704701202C
:1042600070BD00BF003C0240003802400C0801084D
:104270007400002070000020014B1868704700BFD8
:104280007400002008B5FFF7F7FF044B9B68C3F3E9
:104290008223034AD35CD84008BD00BF00380240E7
:1042A0001C08010808B5FFF7E7FF044B9B68C3F340
:1042B0004233034AD35CD84008BD00BF00380240F7
:1042C0001C0801080F2303600B4B9A6802F00302DD
:1042D00042609A6802F0F00282609A6802F4E0524A
:1042E000C2609B68DB0803F4E0530361034B1B6867
:1042F00003F007030B60704700380240003C0240A7
:1043000000230F2B00F2E080F0B583B062E08568F7
:104310004FEA430E032707FA0EF725EA0705CE6892
:1043200006FA0EF635438560456825EA02024D68B7
:10433000C5F300159D402A43426057E0DD0808356B
:1043400050F8252003F00706B6000F27B74022EAF1
:1043500007020F6907FA06F6324340F8252059E0B4
:10436000072600E0002606FA0EF635430232574EC5
:1043700046F82250564A9568E24305EA02064F681D
:1043800017F4801F01D044EA0506514DAE60ED6878
:1043900002EA05064F6817F4001F01D044EA05063B
:1043A0004B4DEE606D6802EA05064F6817F4003F5A
:1043B00001D044EA0506464D6E602D682A404E68DD
:1043C00016F4803F01D044EA0502414C22600133DB
:1043D0000F2B77D801229A400C681440A242F6D1E4
:1043E0004D6805F00305013D012D90D94A6802F0A2
:1043F0000302032A09D0C2685F000326BE4022EAF6
:1044000006028D68BD402A43C2604A6802F003027A
:10441000022A93D002685F000326BE4022EA060209
:104420004D6805F00305BD402A4302604A6812F456
:10443000403FCCD000220192264A556C45F480457D
:104440005564526C02F480420192019A9A08961CBB
:104450001E4D55F8265003F003064FEA860E0F2630
:1044600006FA0EF625EA06051B4FB8423FF47AAF6E
:104470001A4EB0421AD006F58066B04218D006F542
:104480008066B04216D006F58066B04214D006F5BC
:104490008066B04212D006F58066B04210D006F5B4
:1044A0008066B0423FF45CAF08265CE701265AE71D
:1044B000022658E7032656E7042654E7052652E766
:1044C000062650E703B0F0BD704700BF003801403A
:1044D000003C01400038024000000240000402405D
:1044E00012B90904816170478161704730B4056871
:1044F0002C6824F480242C60046863608368402B5B
:1045000005D0036899600368DA6030BC70470368BF
:104510009A600368D960F8E70268D3B2103B0B4990
:10452000A1FB03131B090A49C95CC165032B06D80B
:1045300022F47F7222F003028265806D704722F4BC
:104540007F7222F0030204328265F6E7ABAAAAAAC0
:1045500004080108836A826992B9012B0AD01BB151
:10456000022B01D000207047C36A13F0807F2CD14A
:1045700000207047C36AB3F1C07F28D00020704785
:10458000B2F5005F05D0022B29D9032B15D00020EE
:104590007047032B03D8DFE803F01C041C0A00203B
:1045A0007047C36A13F0807F15D100207047C36A3B
:1045B000B3F1C07F11D000207047C36A13F0807F31
:1045C00001D0012070470020704701207047012072
:1045D000704701207047012070470120704701207B
:1045E0007047000070B5044600F05CFA002C5DD006
:1045F0000546022384F83530002384F834302268DD
:10460000136823F00103136023681A6812F0010F86
:104610000AD000F047FA401B0528F5D9202363652E
:10462000032084F8350070BD1A6821491140626882
:10463000A0680243E06802432069024360690243C4
:10464000A0690243E0690243206A02430A43616AA7
:10465000042916D01A602668756925F00705636A73
:104660001D43042B12D075612046FFF755FFE26D04
:104670003F239340836000206065012384F8353038
:1046800070BDE16A206B01430A43E3E7A36A1D435F
:10469000E36A002BE7D02046FFF75CFF0028E2D05A
:1046A00040236365012084F8350070BD012070BD92
:1046B0003F8010F038B5856D90F83440012C2CD037
:1046C000012480F8344090F83540E4B2012C04D045
:1046D000002380F83430022038BD0446022084F8DC
:1046E0003500002060652046FFF700FFE26D3F23A4
:1046F0009340AB602268136843F016031360236C89
:1047000023B12268136843F008031360226813681A
:1047100043F001031360002038BD022038BD70B59E
:104720000446866D00F0BEF994F83530DBB2022BFA
:1047300006D080236365002384F83430012070BDE7
:1047400005462268136823F0160313602268536934
:1047500023F080035361236CE3B12268136823F0D4
:10476000080313602268136823F0010313602368B1
:104770001B6813F0010F11D000F094F9401B0528BD
:10478000F5D920236365032084F83500002384F8DD
:10479000343070BDA36C002BDFD1E3E7E26D3F2323
:1047A0009340B360012384F83530002084F834004E
:1047B00070BD90F83530DBB2022B03D08023436507
:1047C00001207047052380F835300268136823F014
:1047D0000103136000207047F0B583B00446002346
:1047E0000193724B1D68724BA3FB0535AD0A876DB3
:1047F0003E68C26D082393401E4210D003681A68B9
:1048000012F0040F0BD01A6822F004021A60C26D75
:1048100008239340BB60436D43F001034365E26DA1
:10482000012393401E4209D02268526912F0800F82
:1048300004D0BB60636D43F002036365E26D042343
:1048400093401E4209D02268126812F0020F04D071
:10485000BB60636D43F004036365E26D1023934016
:104860001E4224D02268126812F0080F1FD0BB60CD
:1048700023681A6812F4802F0DD01B6813F4002FE0
:1048800004D1236C9BB12046984710E0A36C73B110
:10489000204698470BE01A6812F4807F03D11A680B
:1048A00022F008021A60236C0BB120469847E26D93
:1048B000202393401E4255D02268126812F0100F38
:1048C00050D0BB6094F83530DBB2052B0ED0236896
:1048D0001A6812F4802F33D01B6813F4002F2AD1EA
:1048E000636C002B3ED0204698473BE0226813685B
:1048F00023F0160313602268536923F08003536189
:10490000236CA3B12268136823F008031360E26DDF
:104910003F239340BB60012384F83530002384F8A3
:104920003430236D002B3FD0204698473CE0A36CE9
:10493000002BE7D1EBE7E36BA3B12046984711E0EA
:104940001A6812F4807F09D11A6822F010021A60E6
:10495000012384F83530002384F83430E36B0BB145
:1049600020469847636DFBB1636D13F0010F17D0BC
:10497000052384F835302268136823F0010313609F
:10498000019B013301939D4204D323681B6813F0FC
:10499000010FF5D1012384F83530002384F8343039
:1049A000E36C0BB12046984703B0F0BD74000020C3
:1049B000B5814E1B074AD36823F4E0631B041B0C2C
:1049C000000200F4E060184340F0BF6040F40030A3
:1049D000D060704700ED00E030B4164BDB68C3F3E5
:1049E0000223C3F10704042C28BF04241D1D062D37
:1049F00017D9033B012505FA04F4013C21409940F5
:104A000005FA03F3013B1340194300280BDB0901AE
:104A1000C9B200F1604000F5614080F8001330BC7D
:104A200070470023E6E700F00F000901C9B2024B0E
:104A30001954F4E700ED00E014ED00E0002808DB75
:104A4000420900F01F00012303FA00F0014B43F874
:104A50002200704700E100E008B50B4B1A6842F4F1
:104A600000721A601A6842F480621A601A6842F48E
:104A700080721A600320FFF79DFF0F20FEF768FD8C
:104A8000FEF744FD002008BD003C0240034A1168C7
:104A9000034B1B780B441360704700BFD0D9002034
:104AA0006C000020014B1868704700BFD0D900206F
:104AB000034AD2F8883043F47003C2F88830704754
:104AC00000ED00E030B5A5B0354B0193354B0093B8
:104AD000354B364A3649012003F0CEF91FA803F0C2
:104AE0004DF9344B1F93344B2093344B2193344B6B
:104AF00022931FA803F050F9F8B102A803F06AF955
:104B00000BAD02AC0FCC0FC523682B600BAB0022A2
:104B1000114610A803F070F810AB2A4A2A4909A8D8
:104B200003F0B4F803F02EFE284B024609A91EA894
:104B300003F0E8F800231D9325E09B212448FBF7B0
:104B4000B7FCDAE71D9B01331D93224D00224FF481
:104B500000512846FFF7C4FC1F4C002202212046CA
:104B6000FFF7BEFCC82001F0CFFB01224FF400513B
:104B70002846FFF7B5FC012202212046FFF7B0FCD2
:104B8000C82001F0C1FB00221DA91EA803F010F8E7
:104B90000028D7D0BC211148FBF78AFCD2E700BF20
:104BA000557900081779000809790008F17800089C
:104BB000140A012099770008B9770008D97700080E
:104BC00019780008C40D01084C08010858080108AC
:104BD0002408010800080240000002406C08010897
:104BE00008B5044A0021044801F030FB034B18606B
:104BF00008BD00BF88080108C54A0008D4D90020B4
:104C000000F1080343604FF0FF328260C36003612C
:104C100000230360704700230361704743684B60C3
:104C20009A688A609A6851609960086103680133E4
:104C30000360704730B40D68B5F1FF3F02D000F15A
:104C4000080202E0026904E01A4653681C68A542A3
:104C5000FAD253684B6099608A60516008610368BA
:104C60000133036030BC704703694268816891601A
:104C70008268416851605A68904206D00022026101
:104C80001A68013A1A601868704782685A60F5E736
:104C900010B5044601F0EEFCA26BE36B9A4204D01F
:104CA000002401F009FD204610BD0124F9E710B5EC
:104CB000044601F0DFFCA36B23B1002401F0FCFCEF
:104CC000204610BD0124F9E770B504461646856BF1
:104CD000026C4AB9036853BB806801F001F80023F5
:104CE000A3600135A56370BD6EB94068FBF7E2FAB9
:104CF000226C636813446360A268934219D32368EB
:104D000063600020EDE7C068FBF7D4FA236C5B42D8
:104D1000E2681A44E26021688A4202D2A26813441F
:104D2000E360022E07D145B1013D0020D9E7002004
:104D3000D7E70020D5E70020D3E70020D1E7026CB9
:104D400072B110B50346C4681444C46080688442DC
:104D500001D31868D8600846D968FBF7ABFA10BDD4
:104D6000704738B5054601F085FC95F8454064B2BA
:104D700001E0013C64B2002C0ADD6B6A43B105F12D
:104D8000240000F0E9FE0028F3D000F093FFF0E7E4
:104D9000FF2385F8453001F08FFC01F06BFC95F89E
:104DA000444064B201E0013C64B2002C0ADD2B698E
:104DB00043B105F1100000F0CFFE0028F3D000F061
:104DC00079FFF0E7FF2385F8443001F075FC38BD2A
:104DD00038B530B304460D4601F04CFC2168E26B57
:104DE000236C03FB0210A0600020A0636160013A05
:104DF00002FB0313E360FF2384F8443084F845305A
:104E0000C5B92369F3B104F1100000F0A5FEC8B1E3
:104E10004FF080520D4B1A60BFF34F8FBFF36F8F6F
:104E200010E04FF0500383F31188BFF36F8FBFF38F
:104E30004F8FFEE704F11000FFF7E2FE04F12400BB
:104E4000FFF7DEFE01F038FC012038BD04ED00E084
:104E500038B51D46049C0B4649B92460E0632364C1
:104E600001212046FFF7B4FF84F84C5038BD226082
:104E7000F4E740B94FF0500383F31188BFF36F8F0D
:104E8000BFF34F8FFEE710B584B0044663B1A2B103
:104E9000A9B10120A8B94FF0500383F31188BFF3E3
:104EA0006F8FBFF34F8FFEE74FF0500383F31188EE
:104EB000BFF36F8FBFF34F8FFEE70120EAE70020BB
:104EC000E8E70AB901B1002040B94FF0500383F37D
:104ED0001188BFF36F8FBFF34F8FFEE75020039011
:104EE0000398502808D04FF0500383F31188BFF384
:104EF0006F8FBFF34F8FFEE720461C46039B0123B5
:104F000084F8463000949DF81830FFF7A1FF204642
:104F100004B010BDF0B585B0019260B1044699B1FE
:104F20000125BDB94FF0500383F31188BFF36F8F94
:104F3000BFF34F8FFEE74FF0500383F31188BFF3A9
:104F40006F8FBFF34F8FFEE7026C0AB90125E8E7C8
:104F50000025E6E7022B09D06DB94FF0500383F32B
:104F60001188BFF36F8FBFF34F8FFEE7E26B012A0B
:104F7000F2D00025F0E71E460F4600F0A1FE10B962
:104F8000019B03B1002545B94FF0500383F311880D
:104F9000BFF36F8FBFF34F8FFEE700252CE0324643
:104FA00039462046FFF790FE636A8BB104F1240076
:104FB00000F0D2FD38B14FF08052374B1A60BFF38A
:104FC0004F8FBFF36F8F01F077FB012005B0F0BD6D
:104FD0000028F8D04FF080522F4B1A60BFF34F8F4C
:104FE000BFF36F8FEFE701F067FB0020EEE720468D
:104FF000FFF7B7FE00F088FC01F03CFBA26BE36B0F
:105000009A42CCD3022ECAD0019B002BEBD01DB903
:1050100002A800F003FE012501F04EFB00F0DAFBD0
:1050200001F028FB94F844305BB2B3F1FF3F02D1AA
:10503000002384F8443094F845305BB2B3F1FF3F6D
:1050400002D1002384F8453001F036FB01A902A803
:1050500000F0F0FDC8B92046FFF71AFE0028C6D0C0
:10506000019904F1100000F043FD2046FFF779FE9E
:1050700000F04AFC0028BFD14FF08052064B1A6066
:10508000BFF34F8FBFF36F8FB6E72046FFF769FE80
:1050900000F03AFC002099E704ED00E02DE9F84328
:1050A00060B1044699B10120B8B94FF0500383F3C1
:1050B0001188BFF36F8FBFF34F8FFEE74FF05003A0
:1050C00083F31188BFF36F8FBFF34F8FFEE7006C40
:1050D00008B90120E8E70020E6E7022B09D068B90B
:1050E0004FF0500383F31188BFF36F8FBFF34F8FDF
:1050F000FEE7E56B012DF2D00020F0E71F46904659
:10510000894601F0E1FBEFF311864FF0500383F382
:105110001188BFF36F8FBFF34F8FA26BE36B9A427F
:1051200001D3022F22D194F845506DB2A36B3A46B9
:1051300049462046FFF7C8FDB5F1FF3F10D1636A2D
:10514000B3B104F1240000F007FD98B1B8F1000FED
:1051500012D00120C8F8000086F31188BDE8F8835A
:105160006B1C5BB284F845300120F5E70020F3E7C3
:105170000120F1E70120EFE70120EDE7F0B585B070
:10518000019260B1044699B10125BDB94FF05003B9
:1051900083F31188BFF36F8FBFF34F8FFEE74FF09C
:1051A000500383F31188BFF36F8FBFF34F8FFEE778
:1051B000036C0BB90125E8E70025E6E70E4600F091
:1051C0007FFD10B9019B03B1002545B94FF0500395
:1051D00083F31188BFF36F8FBFF34F8FFEE7002774
:1051E0002FE031462046FFF7AAFD013DA563236964
:1051F00063B104F1100000F0AFFC38B14FF0805201
:10520000344B1A60BFF34F8FBFF36F8F01F054FA26
:10521000012005B0F0BD01F04FFA0020F9E702A827
:1052200000F0FCFC012716E0002384F844301EE067
:10523000002384F8453020E02046FFF792FD00F07F
:1052400063FB01F017FAA56B002DCAD1019B002B5F
:10525000E1D0002FE3D001F02FFA00F0BBFA01F00B
:1052600009FA94F844305BB2B3F1FF3FDCD094F814
:1052700045305BB2B3F1FF3FDAD001F01DFA01A96E
:1052800002A800F0D7FCC8B92046FFF710FD00289F
:10529000D2D0019904F1240000F02AFC2046FFF747
:1052A00060FD00F031FB0028CBD14FF08052094B5C
:1052B0001A60BFF34F8FBFF36F8FC2E72046FFF72F
:1052C00050FD00F021FB2046FFF7F1FC0028B8D08C
:1052D00000209EE704ED00E00023072B0CD8074ACE
:1052E00052F833200AB10133F7E7044A42F8331089
:1052F00002EBC30358607047704700BF14090120D8
:1053000070B504460D46164601F0B4F994F84430E1
:105310005BB2B3F1FF3F0DD094F845305BB2B3F10F
:10532000FF3F0BD001F0C8F9A36B5BB12046FFF73C
:1053300018FD70BD002384F84430EDE7002384F8A5
:105340004530EFE73246294604F1240000F0E8FB3F
:10535000ECE70000084B1B681B683BB1064B1B6861
:10536000DB68DB685A68054B1A6070474FF0FF3204
:10537000024B1A60704700BF50010020F405002066
:105380002DE9F04781460D4617469A46089EDDF8FE
:1053900024800A9C9200A521206BFBF725F8236B43
:1053A00007F18042013A03EB820727F0070785B334
:1053B00000230F2B07D8E95CE21882F83410EA5C6E
:1053C0000AB10133F5E7002384F84330372E00D9C2
:1053D0003726E662E66400252565201DFFF71BFCE5
:1053E00004F11800FFF717FC2461C6F13806A66126
:1053F0006462656584F8585052464946384601F063
:105400000DF92060B8F1000F01D0C8F80040BDE8E8
:10541000F087002384F83430D8E7000038B5002442
:1054200007E004EB840293000E481844FFF7E8FB02
:105430000134372CF5D90C4D2846FFF7E1FB0B4C16
:105440002046FFF7DDFB0A48FFF7DAFB0948FFF7C4
:10545000D7FB0948FFF7D4FB084B1D60084B1C60C5
:1054600038BD00BF58010020CC050020E005002019
:10547000000600202C060020180600205001002005
:105480005401002010B5044601F0F4F8214A1368D5
:1054900001331360204B1B68002B32D01F4B1B685D
:1054A0003BB91D4B1B68DA6AE36A9A4201D81A4B72
:1054B0001C601B4A1368013313606364E36A194A72
:1054C0001268934201D9174A136003EB83039A00D1
:1054D000211D15481044FFF7A1FB01F0EDF80F4B1B
:1054E0001B686BB10C4B1B68DA6AE36A9A4207D2FD
:1054F0004FF080520D4B1A60BFF34F8FBFF36F8F89
:1055000010BD054B1C601368012BD2D1FFF786FF3D
:10551000CFE700BFB80500204C0100201406002092
:10552000C4050020C80500205801002004ED00E05B
:1055300010B5044690F8593063B1012B11D0022BFD
:1055400012D04FF0500383F31188BFF36F8FBFF376
:105550004F8FFEE7006B00F0E5FF204600F0E2FF12
:1055600010BD00F0DFFF10BD10BD00000F4B1B6829
:10557000D3B110B501F07EF80D4BDB68DC68201D5F
:10558000FFF772FB0B4A1368013B1360074A13686D
:10559000013B136001F090F82046FFF7C9FF034B71
:1055A0001B68002BE6D110BD704700BFBC05002072
:1055B0002C060020B805002008B5FFF7D7FF064BE2
:1055C0001B68012BF9D94FF08052044B1A60BFF3CE
:1055D0004F8FBFF36F8FF0E75801002004ED00E01C
:1055E00070B504460E46174B1D68174B18680430FB
:1055F000FFF73AFBB4F1FF3F13D02C44124B1B686A
:105600005C60A54216D8114B18680F4B196804311D
:10561000FFF710FB0E4B1B689C4201D20C4B1C6029
:1056200070BD002EE9D0084B196804310948FFF716
:10563000F5FA70BD084B1868034B19680431FFF781
:10564000F9FA70BD400600204C01002050010020F6
:10565000F4050020180600205401002070B586B023
:105660000B9D0C9C75B1B4B15C260496049E5C2E17
:105670001AD04FF0500383F31188BFF36F8FBFF33D
:105680004F8FFEE74FF0500383F31188BFF36F8F06
:10569000BFF34F8FFEE74FF0500383F31188BFF342
:1056A0006F8FBFF34F8FFEE7049E2563022584F8BA
:1056B000595000250395029405AD01950A9D00956A
:1056C000FFF75EFE2046FFF7DDFE059806B070BDD1
:1056D0002DE9F04385B006460F46154698469000E2
:1056E00000F096FE10B381465C2000F091FE044667
:1056F000C0B1C0F83090DCB1002384F85930039376
:1057000002940D9B01930C9B009343462A46394615
:105710003046FFF735FE2046FFF7B4FE012005B006
:10572000BDE8F083484600F0FDFEE4E70024E2E730
:105730004FF0FF30F3E7000010B588B00024059467
:10574000069407AA06A905A800F0ECFD059B0293A4
:10575000069B019300942346079A19491948FFF7BD
:105760007DFF48B10120012808D0012809D0B0F1FF
:10577000FF3F1BD008B010BD0020F4E700F064FB31
:10578000F3E74FF0500383F31188BFF36F8FBFF33C
:105790004F8F4FF0FF320C4B1A6001220B4B1A60F7
:1057A00000220B4B1A6001F007F8E3E74FF05003BB
:1057B00083F31188BFF36F8FBFF34F8FFEE700BFF6
:1057C000B8080108B9550008F405002014060020A7
:1057D00040060020024A136801331360704700BF7F
:1057E000C0050020014B1868704700BF400600202C
:1057F000F8B53A4B1B68002B69D1394B1D68013550
:105800001D60C5B9374B1B681B6843B14FF050038F
:1058100083F31188BFF36F8FBFF34F8FFEE7314AD9
:105820001168314B186810601960304A13680133F1
:105830001360FFF78FFD2E4B1B689D423DD2002465
:105840002C4B1B68DB6A03EB83039A002A4B9B58A3
:10585000012B00D90124294B1B68002B3CD00124CB
:105860003AE001241F4B1B681B6843B31D4B1B68A8
:10587000DB68DE6873689D4226D3371D3846FFF724
:10588000F3F9B36A1BB106F11800FFF7EDF9F36AFB
:105890001B4A1268934201D9194A136003EB830330
:1058A0009A00394614481044FFF7B8F9F26A114BD0
:1058B0001B68DB6A9A42D4D2D4E70024D2E74FF0C7
:1058C000FF320B4B1A60BBE7094A1360B8E70D4A79
:1058D00013680133136000242046F8BDC005002082
:1058E000400600205001002054010020F80500204F
:1058F000F40500204C01002058010020440600203F
:10590000C8050020FC05002038B5354B1B6843B99D
:105910004FF0500383F31188BFF36F8FBFF34F8FA6
:10592000FEE700F0A7FE2E4B1A68013A1A601B68CA
:10593000002B50D12B4B1B6823B9002400F0BCFE78
:10594000204638BD0024284B1B681BB3264BDB6860
:10595000DC6804F11800FFF787F9251D2846FFF7DA
:1059600083F9E36A214A1268934201D91F4A1360FE
:1059700003EB83039A0029461D481044FFF74EF9B4
:10598000E26A1C4B1B68DB6A9A42DCD301221A4B89
:105990001A60D8E70CB1FFF7DDFC184B1C6874B92E
:1059A000154B1B68CBB14FF08052154B1A60BFF3FB
:1059B0004F8FBFF36F8F0124C0E7013C07D0FFF783
:1059C00017FF0028F9D001220B4B1A60F5E70022DF
:1059D0000A4B1A60E4E70024B0E70024AEE700BFFA
:1059E000C0050020B805002000060020C8050020E2
:1059F000580100204C01002044060020FC05002036
:105A000004ED00E010B5A8B10446104B1B6843B18B
:105A10004FF0500383F31188BFF36F8FBFF34F8FA5
:105A2000FEE7FFF7D7FE00212046FFF7D9FDFFF77D
:105A30006BFF00E0002038B94FF08052044B1A6031
:105A4000BFF34F8FBFF36F8F10BD00BFC0050020A5
:105A500004ED00E0214B1B686BB90022204B1A605B
:105A6000204B1B6803EB83018A001F498A587AB9CF
:105A70002BB1013BF6E70122194B1A6070474FF03A
:105A8000500383F31188BFF36F8FBFF34F8FFEE78F
:105A900010B408469A00D418A10001444C68646808
:105AA0004C601A4491000831084484420DD003EB45
:105AB000830291000C4A0A445268D1680B4A116073
:105AC000084A13605DF8044B7047606803EB83027B
:105AD0009100054A0A445060E9E700BFC005002074
:105AE00044060020C8050020580100204C01002079
:105AF00040B94FF0500383F31188BFF36F8FBFF3AA
:105B00004F8FFEE710B50C46044B19681831FFF7AC
