:020000040800F2
:1000000000000220A15C0008550B0008570B0008F7
:10001000590B00085B0B00085D0B00080000000096
:10002000000000000000000000000000313D00085A
:100030005F0B000800000000D13D0008D538000823
:10004000F15C0008F15C0008F15C0008F15C00085C
:10005000F15C0008F15C0008F15C0008F15C00084C
:10006000F15C0008F15C0008F15C0008F15C00083C
:10007000F15C0008F15C0008F15C0008F15C00082C
:10008000F15C0008F15C0008F15C0008F15C00081C
:10009000F15C0008F15C0008F15C0008F15C00080C
:1000A000F15C0008610B0008F15C0008F15C0008DD
:1000B000F15C0008F15C0008F15C0008F15C0008EC
:1000C000F15C0008F15C0008F15C0008F15C0008DC
:1000D000F15C0008710B0008810B0008F15C00085E
:1000E000F15C0008F15C0008F15C0008F15C0008BC
:1000F000F15C0008F15C0008F15C0008F15C0008AC
:10010000F15C0008F15C0008F15C0008F15C00089B
:10011000910B0008F15C0008F15C0008F15C00083C
:10012000F15C0008F15C0008A10B0008F15C00081C
:10013000F15C0008F15C0008F15C0008F15C00086B
:10014000F15C0008F15C0008F15C0008F15C00085B
:10015000F15C0008F15C0008B10B0008F15C0008DC
:10016000F15C0008F15C0008F15C0008F15C00083B
:10017000F15C0008F15C0008F15C00080000000080
:08018000F15C0008F15C0008CD
:1001900010B5054C237833B9044B13B10448AFF3C1
:1001A00000800123237010BD6001002000000000CA
:1001B0008042010808B5034B1BB103490348AFF364
:1001C000008008BD0000000064010020804201089A
:1001D00010F8012B11F8013B012A28BF9A42F7D0F1
:1001E000D01A7047034613F8012B002AFBD1181AC6
:1001F000013870470000000000000000000000000F
:1002000001F0FF01102A2BDB10F0070F08D010F8C7
:10021000013B013A8B422DD010F0070F42B3F6D1CB
:10022000F0B441EA012141EA014122F007047FF0E4
:1002300000070023F0E80256083C85EA010586EA3B
:10024000010685FA47F5A3FA87F586FA47F6A5FA77
:1002500087F68EB9EED1F0BC01F0FF0102F0070283
:1002600032B110F8013B013A83EA010313B1F8D12E
:100270000020704701387047002D06BF354603380F
:10028000073815F0010F07D1013015F4807F02BF48
:10029000013015F4C03F0130F0BC0138704700BF99
:1002A00081F0004102E000BF83F0004330B54FEA27
:1002B00041044FEA430594EA050F08BF90EA020F94
:1002C0001FBF54EA000C55EA020C7FEA645C7FEA27
:1002D000655C00F0E2804FEA5454D4EB5555B8BF4A
:1002E0006D420CDD2C4480EA020281EA030382EABB
:1002F000000083EA010180EA020281EA0303362D4D
:1003000088BF30BD11F0004F4FEA01314FF4801C1F
:100310004CEA113102D0404261EB410113F0004F31
:100320004FEA03334CEA133302D0524263EB4303E8
:1003300094EA050F00F0A780A4F10104D5F1200E86
:100340000DDB02FA0EFC22FA05F2801841F10001E1
:1003500003FA0EF2801843FA05F359410EE0A5F1B5
:1003600020050EF1200E012A03FA0EFC28BF4CF0E6
:10037000020C43FA05F3C01851EBE37101F000459C
:1003800007D54FF0000EDCF1000C7EEB00006EEBA9
:100390000101B1F5801F1BD3B1F5001F0CD3490833
:1003A0005FEA30004FEA3C0C04F101044FEA44528A
:1003B00012F5800F80F09A80BCF1004F08BF5FEA11
:1003C000500C50F1000041EB045141EA050130BDF1
:1003D0005FEA4C0C404141EB0101013C28BFB1F503
:1003E000801FE9D291F0000F04BF01460020B1FA4E
:1003F00081F308BF2033A3F10B03B3F120020CDA21
:100400000C3208DD02F1140CC2F10C0201FA0CF0FE
:1004100021FA02F10CE002F11402D8BFC2F1200C63
:1004200001FA02F120FA0CFCDCBF41EA0C01904019
:10043000E41AA2BF01EB0451294330BD6FEA040462
:100440001F3C1CDA0C340EDC04F11404C4F120024D
:1004500020FA04F001FA02F340EA030021FA04F35F
:1004600045EA030130BDC4F10C04C4F1200220FAB6
:1004700002F001FA04F340EA0300294630BD21FAF4
:1004800004F0294630BD94F0000F83F4801306BFBA
:1004900081F480110134013D4EE77FEA645C18BFAE
:1004A0007FEA655C29D094EA050F08BF90EA020F45
:1004B00005D054EA000C04BF1946104630BD91EA3D
:1004C000030F1EBF0021002030BD5FEA545C05D140
:1004D0004000494128BF41F0004130BD14F580047F
:1004E0003CBF01F5801130BD01F0004545F0FE41F3
:1004F00041F470014FF0000030BD7FEA645C1ABF28
:10050000194610467FEA655C1CBF0B46024650EA5E
:10051000013406BF52EA033591EA030F41F400218A
:1005200030BD00BF90F0000F04BF0021704730B510
:100530004FF4806404F132044FF000054FF00001E5
:1005400050E700BF90F0000F04BF0021704730B5A6
:100550004FF4806404F1320410F0004548BF40427B
:100560004FF000013EE700BF42004FEAE2014FEAD0
:1005700031014FEA02701FBF12F07F4393F07F4FAB
:1005800081F06051704732F07F4208BF704793F0AE
:100590007F4F04BF41F40021704730B54FF46074C1
:1005A00001F0004521F000411CE700BF50EA0102C4
:1005B00008BF704730B54FF000050AE050EA01026D
:1005C00008BF704730B511F0004502D5404261EBDD
:1005D00041014FF4806404F132045FEA915C3FF41E
:1005E000D8AE4FF003025FEADC0C18BF03325FEABB
:1005F000DC0C18BF033202EBDC02C2F1200300FA6C
:1006000003FC20FA02F001FA03FE40EA0E0021FA90
:1006100002F11444BDE600BF7BB972B90029BEBF28
:1006200000204FF0004106E008BF00281CBF6FF01B
:1006300000414FF0FF3000F0B9B9ADF1080C6DE9A1
:1006400004CE002909DB002B1ADB00F04DF8DDF8A1
:1006500004E0DDE9022304B07047404261EB410150
:10066000002B1BDB00F040F8DDF804E0DDE902239D
:1006700004B0404261EB4101524263EB43037047D7
:10068000524263EB430300F02FF8DDF804E0DDE9AC
:10069000022304B0404261EB41017047524263EBD8
:1006A000430300F021F8DDF804E0DDE9022304B0A3
:1006B000524263EB4303704753B94AB9002908BF5C
:1006C00000281CBF4FF0FF314FF0FF3000F06EB933
:1006D000ADF1080C6DE904CE00F006F8DDF804E099
:1006E000DDE9022304B070472DE9F047089D044678
:1006F0008C46002B40F083808A42174647D9B2FAD5
:1007000082F242B1C2F1200024FA00F091409740F9
:1007100040EA010C94404FEA1748230CBCFBF8F662
:100720001FFA87FE08FB16C143EA014306FB0EF1E0
:10073000994209D9FB1806F1FF3080F019819942DE
:1007400040F21681023E3B445B1AA4B2B3FBF8F0C0
:1007500008FB103344EA034400FB0EFEA64509D90A
:100760003C1900F1FF3380F00581A64540F202817B
:1007700002383C4440EA0640A4EB0E0400261DB1BA
:10078000D4400023C5E900433146BDE8F08702B9F3
:10079000FFDEB2FA82F2002A50D1CB1B4FEA174E8D
:1007A0001FFA87F80126B3FBFEFC210C0EFB1C335D
:1007B00041EA034108FB0CF38B4207D979180CF18D
:1007C000FF3002D28B4200F2E9808446C91AA3B2FC
:1007D000B1FBFEF00EFB101143EA014408FB00F8E8
:1007E000A04507D93C1900F1FF3302D2A04500F221
:1007F000D9801846A4EB080440EA0C40BFE78B42BE
:1008000009D9002D00F0B1800026C5E9000130466D
:100810003146BDE8F087B3FA83F6002E4AD18B4209
:1008200002D3824200F2B880841A61EB03010120F6
:100830008C46002DA8D0C5E9004CA5E7C2F12003E5
:1008400020FA03F6974001FA02F04FEA174ED9401A
:100850003043030CB1FBFEF61FFA87F80EFB1611AE
:1008600043EA014306FB08F1994204FA02F409D96C
:10087000FB1806F1FF3C80F08D80994240F28A809F
:10088000023E3B445B1A81B2B3FBFEF00EFB103319
:1008900041EA034100FB08F38B4207D9791800F1C4
:1008A000FF3C73D28B4271D902383944CB1A40EAEB
:1008B000064678E7C6F1200C03FA06F422FA0CF398
:1008C0001C4320FA0CF701FA06F34FEA144E21FA02
:1008D0000CF11F433B0CB1FBFEF91FFA84F80EFB31
:1008E000191143EA014109FB08FA8A4502FA06F2A6
:1008F00000FA06F308D9611809F1FF3048D28A4599
:1009000046D9A9F102092144A1EB0A01BFB2B1FB0A
:10091000FEF00EFB101147EA014700FB08F8B8454E
:1009200007D9E71900F1FF312ED2B8452CD902388A
:10093000274440EA0940A7EB0807A0FB02894F457E
:10094000C64649461AD317D05DB1B3EB0E0267EB2A
:10095000010707FA0CFCF2404CEA0202F740C5E935
:10096000002700263146BDE8F0872E4628460BE7D3
:100970000646E9E61846FDE64345E5D2B8EB020E29
:1009800069EB04010138DFE70846D2E760468DE7EE
:100990008146B9E7664675E730464AE7ACF1020C96
:1009A000394413E702383C4424E700BF704700BFD6
:1009B00008B50268034B9A4200D008BD01F0B6FBAF
:1009C000FBE700BF0000014072B6FEE700B595B03E
:1009D0003022002108A805F0C5F9002303930493F1
:1009E00005930693079301931F4A116C41F08051C0
:1009F0001164126C02F080520192019A02931B4A18
:100A0000116841F480411160126802F48042029240
:100A1000029A0222089201210B9110210C910E9250
:100A20000F9308231093A823119312920423139376
:100A300008A800F077FC98B90F23039302230493CE
:100A4000002305934FF4A05306934FF4805307936C
:100A5000052103A800F0B2FE20B915B05DF804FB33
:100A6000FFF7B2FFFFF7B0FF003802400070004010
:100A700008B501F041FBFFF7A9FF00F011F803F002
:100A8000C1FA03F015FB04F03BFA03F0F7FA03F0A8
:100A9000DBFA02F02DFF01F045FC02F03BFFFEE720
:100AA000F0B58BB00024059406940794089409943B
:100AB0000194254B1A6B42F004021A631A6B02F080
:100AC00004020192019A02941A6B42F080021A63A6
:100AD0001A6B02F080020292029A03941A6B42F09F
:100AE00001021A631A6B02F001020392039A049442
:100AF0001A6B42F008021A631B6B03F0080304939D
:100B0000049B124F22464FF40051384601F034F84E
:100B10000F4D22460221284601F02EF84FF40053D3
:100B20000593012606960794089405A9384600F017
:100B300039FF0223059306960794089405A92846D1
:100B400000F030FF0BB0F0BD00380240000802405A
:100B500000000240FEE7FEE7FEE7FEE7FEE7704723
:100B600008B5024800F078F908BD00BFD0D90020D0
:100B700008B5024803F03CFF08BD00BFEC1A012095
:100B800008B5024803F034FF08BD00BF9C1B0120DC
:100B900008B5024803F02CFF08BD00BF581B012018
:100BA00008B5024801F066F908BD00BF8C1A0120A3
:100BB00008B5024801F05EF908BD00BF2C1A0120FB
:100BC00000B583B0002200920D4B596C41F4804176
:100BD0005964596C01F48041009100990192196C9B
:100BE00041F0805119641B6C03F080530193019B09
:100BF0000F216FF0010001F03DFA03B05DF804FB36
:100C00000038024030B589B00546002401941E4BDF
:100C10005A6C42F001025A645B6C03F001030193C9
:100C2000019B02A903A800F09FFE00F08DFE430087
:100C30001648A0FB03239B0C013B1548154A026094
:100C400040F2E732C260436004618460846100F076
:100C500025FA044610B1204609B030BD0C4800F01A
:100C6000B3F804460028F6D1192001F037FA0F2D09
:100C700001D90124EFE700222946192001F0FAF9F1
:100C8000054B1D60E7E700BF0038024083DE1B43D1
:100C9000D0D90020000001400400002030B4036AD5
:100CA00023F001030362056A4268846924F0730437
:100CB0000B681C4325F002058B682B43104DA8429E
:100CC00003D005F58065A84205D123F00803CD685F
:100CD0002B4323F004030A4DA84203D005F5806599
:100CE000A84205D122F440724D6915438A692A430E
:100CF000426084614A684263036230BC704700BF4F
:100D00000000014030B4036A23F480730362036A75
:100D10004268C46924F073040D682C4323F4007303
:100D20008D6843EA0523124DA84203D005F580657E
:100D3000A84206D123F40063CD6843EA052323F4D7
:100D400080630B4DA84203D005F58065A84207D10A
:100D500022F440524D6942EA05128D6942EA0512B9
:100D60004260C4614A68C263036230BC704700BF1E
:100D70000000014030B4036A23F480530362036A25
:100D80004468C26922F4E6420D6842EA052223F46F
:100D900000538D6843EA0533094DA84203D005F599
:100DA0008065A84204D124F480444D6944EA851446
:100DB0004460C2614A680264036230BC704700BF8D
:100DC000000001407047000090F83D30DBB2012B7D
:100DD00037D1022380F83D300268D36843F0010325
:100DE000D3600368194A934220D0B3F1804F1DD0DD
:100DF000A2F57C42934219D002F58062934215D04D
:100E000002F58062934211D002F5784293420DD0F0
:100E100002F57052934209D0A2F59432934205D064
:100E20001A6842F001021A60002070479A6802F0C6
:100E30000702062A07D01A6842F001021A60002051
:100E40007047012070470020704700BF000001403C
:100E5000704770477047704710B5044603681A69B9
:100E600012F0020F11D0DA6812F0020F0DD06FF0FD
:100E700002021A610123037703689B6913F0030FD1
:100E800070D0FFF7E6FF0023237723681A6912F07A
:100E9000040F12D0DA6812F0040F0ED06FF00402C3
:100EA0001A610223237723689B6913F4407F5FD084
:100EB0002046FFF7CEFF0023237723681A6912F03C
:100EC000080F12D0DA6812F0080F0ED06FF0080287
:100ED0001A61042323772368DB6913F0030F4ED0D4
:100EE0002046FFF7B6FF0023237723681A6912F024
:100EF000100F12D0DA6812F0100F0ED06FF010023F
:100F00001A61082323772368DB6913F4407F3DD0FF
:100F10002046FFF79EFF0023237723681A6912F00B
:100F2000010F03D0DA6812F0010F36D123681A6975
:100F300012F0800F03D0DA6812F0800F34D12368EA
:100F40001A6912F0400F03D0DA6812F0400F32D164
:100F500023681A6912F0200F03D0DA6812F0200F0C
:100F600030D110BDFFF774FF2046FFF773FF8AE70B
:100F70002046FFF76DFF2046FFF76CFF9BE72046FA
:100F8000FFF766FF2046FFF765FFACE72046FFF757
:100F90005FFF2046FFF75EFFBDE76FF001021A61B9
:100FA0002046FFF705FDC1E76FF080021A61204679
:100FB00000F0B7F9C3E76FF040021A612046FFF76F
:100FC0004AFFC5E76FF020021A61204600F0A8F939
:100FD000C7E700000368304A904212D0B0F1804F5A
:100FE0000FD0A2F57C4290420BD002F58062904275
:100FF00007D002F58062904203D002F57842904219
:1010000003D123F070034A681343234A90422AD045
:10101000B0F1804F27D0A2F57C42904223D002F558
:10102000806290421FD002F5806290421BD002F590
:101030007842904217D002F57052904213D002F5D8
:10104000806290420FD002F5806290420BD0A2F5F0
:101050009832904207D002F58062904203D002F5A8
:101060008062904203D123F44073CA68134323F093
:1010700080034A69134303608B68C3620B68836211
:10108000054B984203D003F58063984201D10B6968
:1010900003630123436170470000014040B310B572
:1010A000044690F83D30F3B1022384F83D302146E8
:1010B00051F8040BFFF78EFF012384F8463084F8C3
:1010C0003E3084F83F3084F8403084F8413084F872
:1010D000423084F8433084F8443084F8453084F852
:1010E0003D30002010BD80F83C30FFF76BFEDBE7A1
:1010F0000120704740B310B5044690F83D30F3B17D
:10110000022384F83D30214651F8040BFFF762FFBB
:10111000012384F8463084F83E3084F83F3084F868
:10112000403084F8413084F8423084F8433084F809
:10113000443084F8453084F83D30002010BD80F8FC
:101140003C3003F097FEDBE70120704730B4036AC0
:1011500023F010030362036A4468826922F4E642C2
:101160000D6842EA052223F020038D6843EA051347
:10117000114DA84203D005F58065A84206D123F0A1
:101180008003CD6843EA051323F040030A4DA842CB
:1011900003D005F58065A84207D124F440644D6969
:1011A00044EA85048D6944EA8504446082614A68A2
:1011B0008263036230BC70470000014038B590F88C
:1011C0003C30012B66D004460D46012380F83C30AC
:1011D0000C2A5AD8DFE802F0075959591B595959B6
:1011E0003059595944000068FFF758FD2268936947
:1011F00043F0080393612268936923F00403936129
:101200002268936929690B43936100203EE00068DE
:10121000FFF79CFF2268936943F40063936122689F
:10122000936923F48063936122689369296943EA8F
:1012300001239361002029E00068FFF763FD226825
:10124000D36943F00803D3612268D36923F0040310
:10125000D3612268D36929690B43D361002015E06B
:101260000068FFF787FD2268D36943F40063D36108
:101270002268D36923F48063D3612268D369296922
:1012800043EA0123D361002000E00120002384F819
:101290003C3038BD0220FCE790F83C30012B3BD0BD
:1012A00030B4012380F83C30022380F83D300368DD
:1012B0005C689D6824F070040A6822435A600368E1
:1012C000164A93421AD0B3F1804F17D0A2F57C4250
:1012D000934213D002F5806293420FD002F58062F0
:1012E00093420BD002F57842934207D002F5705238
:1012F000934203D0A2F59432934204D125F08005A5
:101300004A6815439D60012380F83D30002380F832
:101310003C30184630BC7047022070470000014046
:1013200070477047002800F0DF8170B582B0044636
:10133000036813F0010F3BD0A64B9B6803F00C032E
:10134000042B2CD0A34B9B6803F00C03082B21D05B
:101350006368B3F5803F4FD0B3F5A02F52D09D4BBB
:101360001A6822F480321A601A6822F480221A6005
:101370006368002B50D000F0E5FE0546954B1B68D6
:1013800013F4003F14D100F0DDFE401B6428F5D9B2
:101390000320B0E18F4B5B6813F4800FD8D08D4BE6
:1013A0001B6813F4003F03D06368002B00F09E819C
:1013B000236813F0020F54D0864B9B6813F00C0F78
:1013C0003ED0844B9B6803F00C03082B33D0E368BA
:1013D000002B67D0804B01221A6000F0B3FE054657
:1013E0007C4B1B6813F0020F53D100F0ABFE401B87
:1013F0000228F5D903207EE1764A136843F480334E
:101400001360B5E7734B1A6842F480221A601A68B9
:1014100042F480321A60ABE700F094FE05466D4B53
:101420001B6813F4003FC3D000F08CFE401B6428FF
:10143000F5D903205FE1674B5B6813F4800FC6D1D9
:10144000644B1B6813F0020F03D0E368012B40F0DC
:101450004F81604A136823F0F803216943EAC1030E
:101460001360236813F0080F40D0636963B35B4BCC
:1014700001221A6000F066FE0546564B5B6F13F0C2
:10148000020F33D100F05EFE401B0228F5D9032085
:1014900031E1504A136823F0F803216943EAC1039C
:1014A0001360DEE74C4B00221A6000F04BFE05464D
:1014B000484B1B6813F0020FD3D000F043FE401BD3
:1014C0000228F5D9032016E1444B00221A6000F0EF
:1014D00039FE05463F4B5B6F13F0020F06D000F05C
:1014E00031FE401B0228F5D9032004E1236813F0E4
:1014F000040F78D0374B1B6C13F0805F0DD10023A5
:101500000193344B1A6C42F080521A641B6C03F046
:1015100080530193019B012500E00025304B1B689F
:1015200013F4807F21D0A368012B32D0052B36D055
:10153000284B1A6F22F001021A671A6F22F0040278
:101540001A67A368002B34D000F0FCFD0646214B3F
:101550001B6F13F0020F45D100F0F4FD801B41F228
:1015600088339842F3D90320C5E01D4A136843F439
:101570008073136000F0E6FD0646194B1B6813F4F8
:10158000807FD0D100F0DEFD801B0228F5D903203A
:10159000B1E0104A136F43F001031367D1E70D4B1D
:1015A0001A6F42F004021A671A6F42F001021A67BA
:1015B000C7E700F0C7FD0646064B1B6F13F0020F8E
:1015C00010D000F0BFFD801B41F288339842F3D960
:1015D000032090E00038024000004742800E47425E
:1015E00000700040EDB9A369002B00F08380494AE8
:1015F000926802F00C02082A51D0022B17D0464BF9
:1016000000221A6000F09EFD0446424B1B6813F056
:10161000007F42D000F096FD001B0228F5D9032080
:1016200069E03C4A136C23F080531364DBE73A4BC8
:1016300000221A6000F086FD0546364B1B6813F049
:10164000007F06D000F07EFD401B0228F5D9032064
:1016500051E0E369226A1343626A43EA8213A26A91
:101660005208013A43EA0243E26A43EA0263294A22
:101670005360294B01221A6000F064FD0446254B9B
:101680001B6813F0007F06D100F05CFD001B0228F0
:10169000F5D903202FE000202DE000202BE0012BC6
:1016A0002BD01C4B5B6803F48001E269914226D188
:1016B00003F03F02216A8A4223D1616A47F6C07271
:1016C0001A40B2EB811F1ED103F44031A26A5208C6
:1016D000013AB1EB024F18D103F07063E26AB3EB49
:1016E000026F14D1002006E001207047012002E0C3
:1016F000012000E0002002B070BD0120FBE70120C6
:10170000F9E70120F7E70120F5E70120F3E70120E1
:10171000F1E700BF0038024060004742F8B5244BB3
:101720009B6803F00C03042B3DD0082B3DD1204BCC
:101730005A6802F03F025B6813F4800F12D01C4B12
:101740005968C1F3881100231A48A1FB0001FEF774
:10175000B3FF174B5B68C3F3014301335B00B0FB7E
:10176000F3F023E0124B5B68C3F388135C010025A0
:10177000E41A65F10005AE0146EA9466A701381B3C
:1017800066EB0501CC0044EA5074C500E81844F14A
:1017900000018B0243EA905384022046194600233D
:1017A000FEF78AFFD5E7034800E00348F8BD00BF15
:1017B0000038024040787D010024F400002800F049
:1017C0009B8070B50D4604464F4B1B6803F0070322
:1017D0008B4208D2CBB24C4A1370136803F0070354
:1017E0008B4240F08B80236813F0020F17D013F068
:1017F000040F04D0454A936843F4E0539360236890
:1018000013F0080F04D0414A936843F46043936097
:101810003E4A936823F0F003A1680B43936023686A
:1018200013F0010F32D06368012B21D09A1E012AD8
:1018300025D9364A126812F0020F61D033498A68FE
:1018400022F0030213438B6000F07CFC06462F4B12
:101850009B6803F00C036268B3EB820F16D000F0B4
:1018600071FC801B41F288339842F0D9032042E09A
:10187000264A126812F4003FE0D101203BE0234ADF
:10188000126812F0007FD9D1012034E01E4B1B6892
:1018900003F00703AB4207D9EAB21B4B1A701B686F
:1018A00003F00703AB422DD1236813F0040F06D0D9
:1018B000164A936823F4E053E1680B43936023686E
:1018C00013F0080F07D0114A936823F4604321698D
:1018D00043EAC1039360FFF721FF0C4B9B68C3F3FE
:1018E00003130B4AD35CD8400A4B18600A4B1868A4
:1018F000FFF788F9002070BD012070470120FAE74A
:101900000120F8E70120F6E7003C024000380240E1
:10191000C84201080800002004000020014B18689C
:10192000704700BF0800002008B5FFF7F7FF044B21
:101930009B68C3F38223034AD35CD84008BD00BF31
:1019400000380240D842010808B5FFF7E7FF044B12
:101950009B68C3F34233034AD35CD84008BD00BF41
:1019600000380240D84201080F2303600B4B9A68ED
:1019700002F0030242609A6802F0F00282609A6804
:1019800002F4E052C2609B68DB0803F4E053036199
:10199000034B1B6803F007030B60704700380240DD
:1019A000003C024000230F2B00F2DD80F0B482B037
:1019B0005DE086685F000324BC4026EA0406CC682C
:1019C000BC4034438460466826EA02064C68C4F38F
:1019D00000129A403243426057E0DC08083450F865
:1019E000247003F0070296000F22B24027EA020794
:1019F0000A69B2403A4340F824205AE0072200E046
:101A00000022B2403A430234574E46F82420574A47
:101A10009468EA4324EA05064F6817F4801F01D052
:101A200045EA0406514CA660E46802EA04064F68E1
:101A300017F4001F01D045EA04064C4CE6606468C8
:101A400002EA04064F6817F4003F01D045EA040695
:101A5000464C6660246822404E6816F4803F01D0F0
:101A600045EA0402414C226001330F2B78D8012251
:101A70009A400C6804EA020532EA0404F4D14C6886
:101A800004F00304013C012C93D94A6802F00302DC
:101A9000032A09D0C4685E000322B24024EA02048B
:101AA0008A68B2402243C2604A6802F00302022AF6
:101AB00093D004685E000322B24024EA02044A681C
:101AC00002F00302B240224302604A6812F4403F2F
:101AD000CAD000220192264A546C44F480445464D3
:101AE000526C02F480420192019A9C08A61C1E4A84
:101AF00052F8267003F0030296000F22B24027EA44
:101B000002071C4A90423FF47BAF02F5806290428C
:101B10001AD002F58062904218D002F5806290429D
:101B200016D002F58062904214D002F58062904295
:101B300012D002F58062904210D002F5806290428D
:101B40003FF45CAF08225CE701225AE7022258E723
:101B5000032256E7042254E7052252E7062250E703
:101B600002B0F0BC7047704700380140003C0140B3
:101B700000380240000002400AB181617047090448
:101B80008161704730B405682C6824F480242C608F
:101B9000046863608368402B05D00368996003681C
:101BA000DA6030BC704703689A600368D960F8E770
:101BB00010B40368D9B210390C4AA2FB01421209D1
:101BC0000B4CA25CC2655F2909D923F47F7323F013
:101BD000030304338365806D5DF8044B704723F481
:101BE0007F7323F003038365F5E700BFABAAAAAABE
:101BF000C0420108836A826992B9012B0AD0022B84
:101C000002D00BB100207047C36A13F0807F28D147
:101C100000207047C36AB3F1C07F24D00020704712
:101C2000B2F5005F09D0022B25D9032B25D1C36A59
:101C300013F0807F23D100207047032B03D8DFE807
:101C400003F01404140A00207047C36A13F0807F65
:101C50000DD100207047C36AB3F1C07F09D00020C6
:101C60007047012070470120704701207047012014
:101C70007047012070470120704700207047012005
:101C80007047000070B5044600F05CFA002C5BD091
:101C90000546022384F83530002384F83430226866
:101CA000136823F00103136023681A6812F0010F10
:101CB0000AD000F047FA431B052BF5D920236365B2
:101CC000032084F8350070BD1A6820481040616810
:101CD000A2680A43E1680A4321690A4361690A4329
:101CE000A1690A43E1690A43216A0A430243616A1E
:101CF00004291ED01A602668756925F00705636AF5
:101D00001D43042B07D1A36A1D43E36A1BB1204680
:101D1000FFF770FF90B975612046FFF749FFE26D4C
:101D20003F239340836000206065012384F83530B1
:101D3000C9E7E16A206B01430A43DBE7402363659F
:101D4000012084F83500BEE70120BCE73F8010F099
:101D500038B50446856D90F8340001282BD0012059
:101D600084F8340094F83500C0B2012804D0002370
:101D700084F83430022038BD022084F83500002079
:101D800060652046FFF7FEFEE26D3F239340AB60A7
:101D90002268136843F016031360236C23B1226892
:101DA000136843F0080313602268136843F00103CB
:101DB00013600020DFE70220DDE770B50446866D82
:101DC00000F0C0F994F83530DBB2022B06D0802346
:101DD0006365002384F83430012070BD0546226815
:101DE000136823F0160313602268536923F08003FD
:101DF0005361236CE3B12268136823F00803136076
:101E00002268136823F00103136023681B6813F032
:101E1000010F11D000F096F9431B052BF5D92023B3
:101E20006365032084F83500002384F83430D4E758
:101E3000A36C002BDFD1E3E7E26D3F239340B36057
:101E4000012384F83530002084F83400C5E790F889
:101E50003530DBB2022B03D080234365012070476D
:101E6000052380F835300268136823F001031360FE
:101E700000207047F0B583B0044600230193724BF5
:101E80001D68724BA3FB0535AD0A876D3E68C26DB8
:101E900008239340334210D003681A6812F0040FED
:101EA0000BD01A6822F004021A60C26D0823934016
:101EB000BB60436D43F001034365E26D0123934032
:101EC000334209D02268526912F0800F04D0BB60FF
:101ED000636D43F002036365E26D04239340334274
:101EE00009D02268126812F0020F04D0BB60636D43
:101EF00043F004036365E26D10239340334224D022
:101F00002268126812F0080F1FD0BB6023681A689D
:101F100012F4802F0DD01B6813F4002F04D1236C12
:101F20009BB12046984710E0A36C73B120469847B8
:101F30000BE01A6812F4807F03D11A6822F00802BD
:101F40001A60236C0BB120469847E26D2023934022
:101F5000334255D02268126812F0100F50D0BB6087
:101F600094F83530DBB2052B0ED023681A6812F4D2
:101F7000802F33D01B6813F4002F2AD1636C002B01
:101F80003ED0204698473BE02268136823F01603B2
:101F900013602268536923F080035361236CA3B15B
:101FA0002268136823F008031360E26D3F23934017
:101FB000BB60012384F83530002384F83430236D6E
:101FC000002B3FD0204698473CE0A36C002BE7D184
:101FD000EBE7E36BA3B12046984711E01A6812F4CF
:101FE000807F09D11A6822F010021A60012384F858
:101FF0003530002384F83430E36B0BB1204698472A
:10200000636DFBB1636D13F0010F17D0052384F8E6
:1020100035302268136823F001031360019B0133FC
:102020000193AB4204D823681B6813F0010FF5D16C
:10203000012384F83530002384F83430E36C0BB18D
:102040002046984703B0F0BD08000020B5814E1B24
:10205000074AD36823F4E0631B041B0C000200F45E
:10206000E060034343F0BF6343F40033D360704741
:1020700000ED00E030B4174BDB68C3F30223C3F17B
:102080000704042C28BF04241D1D062D18D9033B6A
:102090004FF0FF3505FA04F421EA0401994005FAEE
:1020A00003F322EA0303194300280BDB0901C9B239
:1020B00000F1604000F5614080F8001330BC7047CB
:1020C0000023E5E700F00F000901C9B2024B1954E3
:1020D000F4E700BF00ED00E014ED00E0002807DBAE
:1020E00000F01F02400901239340024A42F82030C9
:1020F000704700BF00E100E008B50B4B1A6842F4DE
:1021000000721A601A6842F480621A601A6842F417
:1021100080721A600320FFF79BFF0F20FEF772FD0D
:10212000FEF74EFD002008BD003C0240034A116846
:10213000034B1B780B441360704700BF18DA002074
:1021400000000020014B1868704700BF18DA00201B
:1021500038B50446FFF7F6FF0546B4F1FF3F02D05D
:10216000044B1B781C44FFF7EDFF401BA042FAD341
:1021700038BD00BF00000020034AD2F8883043F485
:102180007003C2F88830704700ED00E068B108B510
:10219000064A1368591C116005490B600022054866
:1021A00005F022FD044B186008BD7047D4DA00200A
:1021B000B0DA0020E8190120BCDA0020000000009D
:1021C00080B58EB0404B0193404B0093404B414A49
:1021D0004149012006F018FD09A806F047FC3F4BD5
:1021E00009933F4B0A933F4B0B933F4B0C9309A82A
:1021F00006F04AFC00285DD03C4E02A806F062FCC6
:10220000354602AC0FCC0FC523682B60384C3346E3
:1022100000221146204606F037FB364F2346364A49
:102220003649384606F07AFB354D334605222146BD
:10223000284606F069F807F013FA0246314B394692
:10224000314806F0A7FB314E314B00931CA3D3E974
:1022500000232146304606F0D1FB3146284606F0E1
:10226000C3F817A3D3E90023254806F0D3FA294A77
:10227000136801331360284D00224FF400512846A3
:10228000FFF77AFC254C002202212046FFF774FC60
:10229000C82001F0B9FB01224FF400512846FFF796
:1022A0006BFC012202212046FFF766FCC82001F0EA
:1022B000ABFBD6E7AC211A4803F05CFD9CE700BFFE
:1022C00000E1F50500000000295C0008EB5B000858
:1022D000DD5B0008C55B0008EC1A0120595A0008B4
:1022E0007D5A00089D5A0008DD5A0008C0DA002017
:1022F000B4190120B4DA0020484601080843010857
:1023000020DA002014430108E8190120ACDA00208B
:102310008D210008B0DA00200008024000000240D1
:10232000E042010808B5044A0021044801F00EFB10
:10233000034B186008BD00BF34430108C1210008E9
:10234000A8DA002000F1080343604FF0FF328260FA
:10235000C36003610023036070470023036170477B
:1023600043684B609A688A605160996008610368AD
:1023700001330360704730B40D68B5F1FF3F11D0F1
:1023800000F108031C465B681A68AA42FAD9636820
:102390004B6099608C606160086103680133036081
:1023A00030BC70470469F2E70369416882688A605B
:1023B000416851605A68824206D0002202611A6860
:1023C000013A1A601868704782685A60F5E710B5DC
:1023D000044601F0BFFCA26BE36B9A4204D00024D8
:1023E00001F0DAFC204610BD0124F9E710B50446DF
:1023F00001F0B0FCA36B23B9012401F0CDFC204611
:1024000010BD0024F9E770B504461546866B026CD2
:102410005AB903681BB100200136A66370BD8068FD
:1024200000F0E6FF0023A360F6E76DB9406803F013
:102430008BFC226C636813446360A268934219D3D7
:10244000236863602846E7E7C06803F07DFC226CE0
:102450005142E3689B1AE3602268934202D2A36868
:102460000B44E360022D01D00020D5E726B1013EE8
:102470000020D1E72846CFE70020CDE70346026CD5
:102480006AB110B50846D9681144D9609C68A14268
:1024900001D31968D960D96803F056FC10BD7047A4
:1024A00038B5054601F056FC95F8454064B203E0A6
:1024B00000F088FF013C64B2002C08DD6B6A33B188
:1024C00005F1240000F0CEFE0028F3D0F0E7FF2352
:1024D00085F8453001F060FC01F03CFC95F8444083
:1024E00064B203E000F06EFF013C64B2002C08DD32
:1024F0002B6933B105F1100000F0B4FE0028F3D0D1
:10250000F0E7FF2385F8443001F046FC38BD0000B9
:1025100038B5E0B10D46044601F01CFC2168E26BC1
:10252000236C03FB0210A0600020A0636160013AED
:1025300002FB0313E360FF2384F8443084F8453042
:10254000EDB9236963B901F027FC012038BD4FF0D4
:10255000500383F31188BFF36F8FBFF34F8FFEE7F4
:1025600004F1100000F07EFE0028ECD0084B4FF084
:1025700080521A60BFF34F8FBFF36F8FE3E704F110
:102580001000FFF7DFFE04F12400FFF7DBFEDAE7BF
:1025900004ED00E038B51D46049C0B4649B92460A3
:1025A000E063236401212046FFF7B2FF84F84C501A
:1025B00038BD2260F4E740B94FF0500383F311882F
:1025C000BFF36F8FBFF34F8FFEE730B585B01C466A
:1025D000054653B192B189B94FF0500383F3118886
:1025E000BFF36F8FBFF34F8FFEE74FF0500383F3BE
:1025F0001188BFF36F8FBFF34F8FFEE76AB150238F
:102600000393039B502B13D04FF0500383F3118897
:10261000BFF36F8FBFF34F8FFEE70029EFD04FF06E
:10262000500383F31188BFF36F8FBFF34F8FFEE723
:10263000039B012384F8463000949DF820302846FF
:10264000FFF7A8FF204605B030BD0000F0B585B00B
:10265000019288B10E461D460446B1B1022D20D12B
:10266000E36B012B1DD04FF0500383F31188BFF3B0
:102670006F8FBFF34F8FFEE74FF0500383F3118846
:10268000BFF36F8FBFF34F8FFEE7036C002BE5D0D6
:102690004FF0500383F31188BFF36F8FBFF34F8F59
:1026A000FEE700F095FE074658B9019B002B44D089
:1026B0004FF0500383F31188BFF36F8FBFF34F8F39
:1026C000FEE7002739E02A4631462046FFF79BFE09
:1026D000626A6AB938B13C4B4FF080521A60BFF35E
:1026E0004F8FBFF36F8F01F057FB012005B0F0BD96
:1026F00004F1240000F0B6FD0028F4D0324B4FF076
:1027000080521A60BFF34F8FBFF36F8FEBE701F07A
:1027100043FB0020EAE702A800F006FE012719E0CB
:10272000002384F8443021E0002384F8453023E07E
:102730002046FFF7B5FE00F073FC01F00BFBA26B27
:10274000E36B9A42BFD3022DBDD0019B002BDED09C
:10275000002FE0D001F020FB00F0C6FB01F0FAFAF8
:1027600094F844305BB2B3F1FF3FD9D094F84530D0
:102770005BB2B3F1FF3FD7D001F00EFB01A902A875
:1027800000F0DEFDC8B92046FFF721FE0028CFD0BB
:10279000019904F1100000F031FD2046FFF780FEA2
:1027A00000F03EFC0028C8D1074B4FF080521A6061
:1027B000BFF34F8FBFF36F8FBFE72046FFF770FE69
:1027C00000F02EFC002091E704ED00E02DE9F84335
:1027D00090B1894690461F460446B1B1022F20D1E0
:1027E000E36B012B1DD04FF0500383F31188BFF32F
:1027F0006F8FBFF34F8FFEE74FF0500383F31188C5
:10280000BFF36F8FBFF34F8FFEE7036C002BE5D054
:102810004FF0500383F31188BFF36F8FBFF34F8FD7
:10282000FEE701F0C1FBEFF311864FF0500383F395
:102830001188BFF36F8FBFF34F8FA26BE36B9A4288
:1028400006D3022F04D0002086F31188BDE8F88358
:1028500094F845506DB2A36B3A4649462046FFF7BF
:10286000D2FDB5F1FF3F05D06B1C5BB284F845305B
:102870000120E9E7636A0BB90120E5E704F12400D0
:1028800000F0F0FC30B1B8F1000F05D00120C8F81D
:102890000000D9E70120D7E70120D5E7F0B585B0E2
:1028A000019290B10E460446C1B100F091FD074679
:1028B00000BB019B002B5CD04FF0500383F31188C9
:1028C000BFF36F8FBFF34F8FFEE74FF0500383F3DB
:1028D0001188BFF36F8FBFF34F8FFEE7036C002BA0
:1028E000E3D04FF0500383F31188BFF36F8FBFF332
:1028F0004F8FFEE700273CE031462046FFF7BEFD44
:10290000013DA563236923B901F046FA012005B012
:10291000F0BD04F1100000F0A5FC0028F4D0354B08
:102920004FF080521A60BFF34F8FBFF36F8FEBE70A
:1029300001F032FA0020EAE702A800F0F5FC0127D6
:1029400021E0002384F8443029E0002384F8453056
:102950002BE02046FFF7A4FD00F062FB09E02046D3
:10296000FFF79EFD00F05CFB2046FFF73FFD0028CF
:102970003DD101F0EFF9A56B002DBDD1019B002BDE
:10298000D6D0002FD8D001F007FA00F0ADFA01F050
:10299000E1F994F844305BB2B3F1FF3FD1D094F841
:1029A00045305BB2B3F1FF3FCFD001F0F5F901A99B
:1029B00002A800F0C5FC0028D1D12046FFF716FD83
:1029C0000028C6D0019904F1240000F017FC20462D
:1029D000FFF766FD00F024FB0028CAD1054B4FF03D
:1029E00080521A60BFF34F8FBFF36F8FC1E7002093
:1029F0008DE700BF04ED00E0002300E00133072B6A
:102A00000BD8064A52F83320002AF7D1034A42F87D
:102A1000331002EBC303586070477047EC19012074
:102A200070B504460D46164601F094F994F844300A
:102A30005BB2B3F1FF3F0DD094F845305BB2B3F118
:102A4000FF3F0BD001F0A8F9A36B5BB12046FFF765
:102A500027FD70BD002384F84430EDE7002384F89F
:102A60004530EFE73246294604F1240000F0DEFB52
:102A7000ECE70000084B1B681B6823B9074B4FF0BD
:102A8000FF321A607047044B1B68DB68DB685A68CA
:102A9000024B1A60704700BF80010020240600200E
:102AA0002DE9F04780460D4617469946089EDDF809
:102AB00024A00A9C9200A521206B03F053F9236BFC
:102AC00007F18042013A03EB820727F0070785B33D
:102AD00000220F2A07D8A95CA31883F83410AB5C36
:102AE0000BB10132F5E7002384F84330372E00D9CB
:102AF0003726E662E66400252565201DFFF72DFCDC
:102B000004F11800FFF729FC2461C6F13806A6611C
:102B10006462656584F858504A464146384601F07B
:102B2000F1F82060BAF1000F01D0CAF80040BDE80A
:102B3000F087002384F83430D8E7000038B500244B
:102B4000372C08D804EB840293000E481844FFF792
:102B5000F9FB0134F4E70C4D2846FFF7F3FB0B4C6F
:102B60002046FFF7EFFB0A48FFF7ECFB0948FFF7A9
:102B7000E9FB0948FFF7E6FB084B1D60084B1C60AA
:102B800038BD00BF88010020FC0500201006002091
:102B9000300600205C06002048060020800100204E
:102BA0008401002010B5044601F0D4F8214A1368CE
:102BB00001331360204B1B685BB1204B1B686BB962
:102BC0001D4B1B68DA6AE36A9A4207D81A4B1C60ED
:102BD00004E0194B1C601368012B27D0184A1368B6
:102BE000013313606364E06A164B1B68984201D995
:102BF000144B186000EB8000211D134B03EB800089
:102C0000FFF7AEFB01F0C8F80C4B1B686BB10A4B29
:102C10001B68DA6AE36A9A4207D20C4B4FF0805283
:102C20001A60BFF34F8FBFF36F8F10BDFFF786FFA2
:102C3000D4E700BFE80500207C0100204406002006
:102C4000F4050020F80500208801002004ED00E0D4
:102C500010B5044690F8593063B1012B11D0022B06
:102C60000ED04FF0500383F31188BFF36F8FBFF383
:102C70004F8FFEE7006B00F0C9FF204600F0C6FF53
:102C800010BD00F0C3FFFBE70F4B1B68D3B110B5BD
:102C900001F060F80D4BDB68DC68201DFFF784FB5A
:102CA0000B4A1368013B1360074A1368013B13602A
:102CB00001F072F82046FFF7CBFF034B1B68002B97
:102CC000E6D110BD704700BFEC0500205C06002077
:102CD000E805002008B5FFF7D7FF064B1B68012B5E
:102CE000F9D9054B4FF080521A60BFF34F8FBFF3F5
:102CF0006F8FF0E78801002004ED00E070B5044616
:102D00000D46174B1E68174B18680430FFF74CFB35
:102D1000B4F1FF3F0DD03444124B1B685C60A642F7
:102D200010D9114B18680F4B19680431FFF723FBBA
:102D300070BD002DEFD00B4B196804310B48FFF725
:102D40000FFBF5E70A4B1868064B19680431FFF7CB
:102D500012FB084B1B68A342EAD9064B1C60E7E74D
:102D6000700600207C01002084010020480600201D
:102D7000800100202406002070B586B00B9D0C9CBD
:102D800075B1B4B15C260496049E5C2E1AD04FF047
:102D9000500383F31188BFF36F8FBFF34F8FFEE7AC
:102DA0004FF0500383F31188BFF36F8FBFF34F8F42
:102DB000FEE74FF0500383F31188BFF36F8FBFF32B
:102DC0004F8FFEE7049E2563022584F859500025A5
:102DD0000395029405AD01950A9D0095FFF760FEED
:102DE0002046FFF7DFFE059806B070BD2DE9F043E1
:102DF00085B00746884614461E46900000F088FEBF
:102E000000B381465C2000F083FE0546B0B1C0F8F7
:102E10003090E5B1002385F85930039302950D9B5E
:102E200001930C9B00933346224641463846FFF7F8
:102E300037FE2846FFF7B6FE012005E0484600F0C1
:102E4000E5FEE6E74FF0FF3005B0BDE8F0834FF058
:102E5000FF30F9E710B588B000240594069407AA5E
:102E600006A905A800F0DEFD059B0293069B0193D1
:102E700000942346079A17491748FFF77DFF48B18A
:102E800000F06AFB0346012B06D0B3F1FF3F18D0D8
:102E900008B010BD0023F6E74FF0500383F311880C
:102EA000BFF36F8FBFF34F8F0C4B4FF0FF321A60A1
:102EB0000B4B01221A600B4B00221A6000F0ECFF52
:102EC000E6E74FF0500383F31188BFF36F8FBFF332
:102ED0004F8FFEE758430108D52C00082406002038
:102EE0004406002070060020024A13680133136074
:102EF000704700BFF0050020014B1868704700BF05
:102F000070060020F8B53B4B1B68002B6AD13A4B8A
:102F10001D6801351D60C5B9384B1B681B6843B17E
:102F20004FF0500383F31188BFF36F8FBFF34F8FC0
:102F3000FEE7324A1168324B186810601960314A56
:102F4000136801331360FFF795FD2F4B1B68AB42ED
:102F500011D900242D4B1B68DB6A03EB83039A0015
:102F60002B4B9B58012B00D901242A4B1B68002BAB
:102F70003DD001243BE0002416E0234B4FF0FF320C
:102F80001A60E7E7204A1360E4E703EB83039A0043
:102F900039461F481044FFF7E3F9F26A1B4B1B68E0
:102FA000DB6A9A4200D30124144B1B681B68002B78
:102FB000E3D0124B1B68DB68DE6873689D42E1D387
:102FC000371D3846FFF7F0F9B36A1BB106F1180058
:102FD000FFF7EAF9F36A104A12689342D5D90E4A0C
:102FE0001360D2E70D4A13680133136000242046B2
:102FF000F8BD00BFF0050020700600208001002011
:103000008401002028060020240600207C010020E6
:103010008801002074060020F80500202C060020FE
:1030200038B5344B1B6843B94FF0500383F3118814
:10303000BFF36F8FBFF34F8FFEE700F08BFE2D4B7A
:103040001A68013A1A601B68002B4DD12A4B1B6885
:103050000BB9002449E00024284B1B681BB3274B05
:10306000DB68DC6804F11800FFF79EF9251D28468F
:10307000FFF79AF9E06A224B1B68984201D9204B6E
:10308000186000EB800029461E4B03EB8000FFF721
:1030900067F9E26A1C4B1B68DB6A9A42DCD31B4B64
:1030A00001221A60D8E70CB1FFF7E4FC184B1C684A
:1030B00074B9164B1C68C4B1164B4FF080521A609D
:1030C000BFF34F8FBFF36F8F01240EE0013C07D099
:1030D000FFF718FF0028F9D00C4B01221A60F5E722
:1030E0000B4B00221A60E4E7002400F055FE204656
:1030F00038BD00BFF0050020E805002030060020A4
:10310000F8050020880100207C01002074060020C2
:103110002C06002004ED00E010B5A8B104460F4BCA
:103120001B6843B14FF0500383F31188BFF36F8FD7
:10313000BFF34F8FFEE7FFF7D7FE00212046FFF7D2
:10314000DDFDFFF76DFF38B9054B4FF080521A6077
:10315000BFF34F8FBFF36F8F10BD00BFF00500208E
:1031600004ED00E0204B1B681BB1204B01221A60CC
:1031700070471E4B00221A601D4B1B6803EB830136
:103180008A001C498A585AB90BB1013BF6E74FF047
:10319000500383F31188BFF36F8FBFF34F8FFEE7A8
:1031A00010B403EB830082000A445068406850600A
:1031B00003EB8304A20014460832114488420DD068
:1031C00003EB830291000B4A0A445268D1680A4A11
:1031D0001160074A13605DF8044B70474068054A68
:1031E00022445060ECE700BFF00500207406002088
:1031F000F8050020880100207C01002058B110B59E
:103200000C46094B19681831FFF7B5F80121204623
:10321000FFF774FD10BD4FF0500383F31188BFF327
:103220006F8FBFF34F8FFEE77C01002038B570B180
:103230000C4615460A4B19681831FFF791F80DB185
:103240004FF0FF3429462046FFF758FD38BD4FF0B8
:10325000500383F31188BFF36F8FBFF34F8FFEE7E7
:103260007C01002038B5C368DC6824B304F118057C
:103270002846FFF799F8184B1B682BBB251D2846DD
:10328000FFF792F8E06A154B1B68984201D9134B7F
:10329000186000EB80002946114B03EB8000FFF71C
:1032A0005FF8E26A0F4B1B68DB6A9A4211D9012072
:1032B0000D4B18600EE04FF0500383F31188BFF3FD
:1032C0006F8FBFF34F8FFEE729460848FFF748F896
:1032D000E7E7002038BD00BFF0050020F80500201A
:1032E000880100207C0100207406002030060020A8
:1032F00060B110B5044600F02DFD094B1B6823603A
:10330000084B1B68636000F047FD10BD4FF0500391
:1033100083F31188BFF36F8FBFF34F8FFEE700BFBA
:103320002806002070060020034B1B680360034B37
:103330001B684360704700BF28060020700600200D
:10334000F8B5C8B10C460546F9B100F003FD1B4BBA
:1033500019686B68C81A2268B2F1FF3F26D02F683F
:10336000174E3668B74201D08B4224D9824215D815
:103370000023236001241AE04FF0500383F31188E7
:10338000BFF36F8FBFF34F8FFEE74FF0500383F310
:103390001188BFF36F8FBFF34F8FFEE75B1A1344A3
:1033A00023602846FFF7C0FF002400E0002400F05F
:1033B000F3FC2046F8BD0124F9E700BF70060020A9
:1033C00028060020014B01221A6070477406002075
:1033D000054B1B6833B1054B1B680BB100207047D0
:1033E000022070470120704744060020F0050020AD
:1033F00000283BD038B504461E4B1B68834208D0DA
:103400004FF0500383F31188BFF36F8FBFF34F8FDB
:10341000FEE7036D43B94FF0500383F31188BFF308
:103420006F8FBFF34F8FFEE7013B0365C16AC26C2C
:1034300091421DD00BB1002038BD051D2846FEF776
:10344000B3FFE06CE062C0F13803A3610A4B1B6874
:10345000984201D9084B186000EB80002946074BC1
:1034600003EB8000FEF77CFF0120E5E700207047BA
:103470000020E1E77C010020F80500208801002001
:10348000064B1A6813682BB90123036023B9D3686C
:10349000186870470023F8E700207047780600207E
:1034A00008B54160006191420CD8D21A83699A42F2
:1034B00001D3012008BD011D094B1868FEF75BFF11
:1034C0000020F7E79A4201D2994206D2011D054B2E
:1034D0001868FEF750FF0020ECE70120EAE700BF84
:1034E0007C0600207806002030B583B000F032FC66
:1034F000114B1B681BB100F04FFC03B030BD0F4DEA
:103500002846FEF71FFF0E4C2046FEF71BFF0D4B13
:103510001D600D4B1C60002300930C4B0C4A1021C6
:103520000A20FFF748F8044B18600028E3D0094947
:10353000FFF762FADFE700BF9C07002020070020AA
:1035400034070020780600207C0600204C0700206D
:10355000800600206043010810B588B0FFF7C4FF63
:10356000124B1B68CBB100240594069407AA06A948
:1035700005A800F063FA059B0293069B01930223C2
:1035800000932346079A0A490A48FFF7F5FB0A4ABF
:10359000106010B1012008B010BD4FF0500383F34C
:1035A0001188BFF36F8FBFF34F8FFEE79C0700209A
:1035B00068430108BD380008A0070020C0B110B55D
:1035C00084B014461A4603461648006838B3009182
:1035D0000194029305291CDCFFF7FAFE022810D0A3
:1035E00000231A4669460F480068FFF72FF814E0D9
:1035F0004FF0500383F31188BFF36F8FBFF34F8FEA
:10360000FEE70023069A694606480068FFF71EF8A1
:1036100003E000236946FFF7D9F804B010BD00208D
:10362000FBE700BF9C07002070B582B01B4B1B68F6
:103630001A6862B3DB681E68DC68251D2846FEF741
:10364000B3FE236A2046984794F8283013F0040FFD
:10365000ECD0A36933449E4207D2636024612946BB
:103660000E4B1868FEF787FEE0E7002100910B463D
:1036700032462046FFF7A2FF0028D7D14FF0500373
:1036800083F31188BFF36F8FBFF34F8FFEE7044AB8
:10369000106802490860136002B070BD780600200F
:1036A0007C06002038B50546FFF726FC0446074B8C
:1036B0001B68834205D800232B60044B1C60204606
:1036C00038BDFFF7B1FF01232B60F6E74807002064
:1036D00070B582B005460E46174B1B68DB68DC6888
:1036E000201DFEF761FE94F8283013F0040F08D176
:1036F00023F0010384F82830236A2046984702B05B
:1037000070BDA1692B46324629442046FFF7C8FE0A
:103710000028F1D0002100910B462A462046FFF7F1
:103720004DFF0028E8D14FF0500383F31188BFF319
:103730006F8FBFF34F8FFEE77806002070B582B021
:1037400006460C46FFF7D0FB01A8FFF7ABFF019B35
:1037500023BB05460CB9B04217D224B1114A1268F6
:103760001268CAB901242246711B0F4B1868FFF773
:1037700057F9FFF755FC98B90C4B4FF080521A607F
:10378000BFF34F8FBFF36F8F0AE0FFF749FC294665
:103790003046FFF79DFF03E01C46E4E7FFF740FCDF
:1037A00002B070BD7C0600209C07002004ED00E004
:1037B00010B588B006E007990698059B9847049BCA
:1037C000002B0BDA002204A93B4B1868FFF766F8C0
:1037D00000286FD0049B002BF1DAECE7069C6369AC
:1037E00013B1201DFEF7E0FD03A8FFF75BFF049B6C
:1037F000092BE7D8DFE803F005050530375005054C
:10380000303794F8283043F0010384F82830059BC2
:10381000A169024619442046FFF742FE0028D1D094
:10382000236A2046984794F8283013F0040FC9D033
:10383000A269002100910B46059802442046FFF73B
:10384000BDFE0028BED14FF0500383F31188BFF3B3
:103850006F8FBFF34F8FFEE794F8283023F00103FA
:1038600084F82830AEE794F8283043F0010384F858
:1038700028300599A16131B1034602460144204632
:10388000FFF70EFE9EE74FF0500383F31188BFF35E
:103890006F8FBFF34F8FFEE794F8283013F0020FBD
:1038A00004D023F0010384F828308BE7204600F091
:1038B000ADF987E708B010BD9C07002000B583B0C4
:1038C00001A8FFF7DDFD0199FFF738FFFFF770FF53
:1038D000F6E7000008B5054B1B68FFF779FD0128E6
:1038E00000D108BD00F0A6FAFBE700BF10E000E041
:1038F000EFF305832BB9064B186828B901221A602B
:1039000070476FF0050070474FF0FF30704700BF01
:10391000000A0020EFF3058373B90A4B1B68012BE3
:103920000DD110B50024084BDC77064B02221A603B
:10393000FFF790FA204610BD6FF0050070474FF07A
:10394000FF307047000A002000ED00E0F0B587B0BE
:1039500000240594EFF3058474BB68B322B31568A3
:10396000936903B918235C1E372C49D8546814F0A6
:10397000010F47D156696EB14FEA960C94682CB18D
:10398000D7685B2F02D9176907B1C6B92CB14FF0C0
:10399000FF340EE04FF0800CF0E7D4688CB9146966
:1039A00094B14FF0FF3404E01546002418234FF083
:1039B000800C012C0AD0ACB1059807B0F0BD0124F1
:1039C000F7E74FF0FF34F4E70024F2E71469926858
:1039D0000292019400930B4662462946FFF7CCF908
:1039E0000590E9E705AA019200930B461FFA8CF2B5
:1039F0002946FFF7FBF90128DED000230593DBE71A
:103A00000020DAE70020D8E708B5EFF3058333B9E3
:103A100008B9002008BDFFF77FFB0020FAE76FF030
:103A20000500F7E7034B0360034B0B608023136033
:103A3000704700BFA4090020A4070020034B0360C7
:103A4000034B0B604FF4807313607047040E00202B
:103A5000040A0020124A12F0070F1ED0D11D21F0D7
:103A60000701C1F5705313440A460E480260002155
:103A700041601344083B23F007030B48036059607F
:103A80001960991A51601360084B1960084B19604E
:103A9000084B4FF000421A6070474FF47053E4E750
:103AA000640E0020784A0020600E00206C4A00203E
:103AB000684A0020644A002010B4134B1A461B6861
:103AC0008342FBD35168541884420AD04168441899
:103AD000A3420BD00360904200D010605DF8044B0D
:103AE00070474068014451601046EFE7074C246876
:103AF000A34206D05B681944416013681B680360E9
:103B0000E9E70460E7E700BF784A0020600E002084
:103B100070B50446FFF7E8F9364B1B68A3B1364B86
:103B20001B681C424ED134B1083414F0070F02D088
:103B300024F007040834002C46D0304B1B68A34205
:103B400051D32F4B1D6804E0FFF784FFE7E72B46B6
:103B500015466A68A24202D22A68002AF7D1254A8D
:103B60001268AA4241D01E6808362A681A606B683B
:103B70001B1B102B10D9281910F0070F08D04FF07D
:103B8000500383F31188BFF36F8FBFF34F8FFEE7AE
:103B900043606C60FFF790FF6A6818490B689B1AD6
:103BA0000B60184909688B4201D216490B60124B11
:103BB0001B6813436B6000232B60134A13680133A7
:103BC000136002E0002600E00026FFF729FA16F055
:103BD000070F0CD04FF0500383F31188BFF36F8FA2
:103BE000BFF34F8FFEE70026EFE70026EDE73046F4
:103BF00070BD00BF600E0020644A0020684A0020AB
:103C0000784A00206C4A0020704A0020002834D0F6
:103C100038B50446A0F1080550F8043C174A12686C
:103C2000134208D14FF0500383F31188BFF36F8F15
:103C3000BFF34F8FFEE750F8081C41B14FF050031F
:103C400083F31188BFF36F8FBFF34F8FFEE723EA33
:103C5000020340F8043CFFF747F954F8041C084AF3
:103C600013680B4413602846FFF726FF054A1368C4
:103C700001331360FFF7D4F938BD7047644A002060
:103C8000684A0020744A002082B0002301930D4B43
:103C90001B68B3F1FF3F08D04FF0500383F3118846
:103CA000BFF36F8FBFF34F8FFEE74FF0500383F3E7
:103CB0001188BFF36F8FBFF34F8F019B002BFCD098
:103CC00002B070470C00002008480068006880F3CC
:103CD00008884FF0000080F3148862B661B6BFF325
:103CE0004F8FBFF36F8F00DF00BF000008ED00E0D3
:103CF000DFF80C00016841F47001016070470000BA
:103D000088ED00E04FF0807340F8043C21F00101A1
:103D100040F8081C054B40F80C3C40F8202C6FF094
:103D2000020340F8243C4438704700BF893C000837
:103D3000074B19680868B0E8F04F80F30988BFF3B3
:103D40006F8F4FF0000080F311887047AFF3008051
:103D50007C0100204FF0500383F31188BFF36F8F75
:103D6000BFF34F8F0A4A136801331360012B00D051
:103D70007047084B1B6813F0FF0FF9D04FF050034A
:103D800083F31188BFF36F8FBFF34F8FFEE700BF40
:103D90000C00002004ED00E0094B1B6843B94FF014
:103DA000500383F31188BFF36F8FBFF34F8FFEE78C
:103DB000013B034A13600BB983F31188704700BFBE
:103DC0000C000020000000000000000000000000C7
:103DD000EFF30980BFF36F8F154B1A681EF0100FB9
:103DE00008BF20ED108A20E9F04F10602DE909008E
:103DF0004FF0500080F31188BFF34F8FBFF36F8FE8
:103E0000FFF7B0F94FF0000080F3118809BC196882
:103E10000868B0E8F04F1EF0100F08BFB0EC108A31
:103E200080F30988BFF36F8F704700BFAFF3008046
:103E30007C01002008B54FF0500383F31188BFF3D5
:103E40006F8FBFF34F8FFFF75DF818B1034B4FF043
:103E500080521A60002383F3118808BD04ED00E04E
:103E6000084A0023136008490B60084B1B68084987
:103E7000A1FB03139B09013B06490B600723136059
:103E8000704700BF10E000E018E000E008000020EC
:103E9000D34D621014E000E03A4B1A683A4B9A4254
:103EA00029D0384B1A68394B9A422DD010B582B0C0
:103EB000374B1A78D2B20192FF221A701B78DBB20C
:103EC0008DF803309DF8033003F05003314A13702E
:103ED000314B07221A609DF8033013F0800F1CD07D
:103EE0002D4A1368013B13609DF803305B00DBB281
:103EF0008DF80330EFE74FF0500383F31188BFF3E1
:103F00006F8FBFF34F8FFEE74FF0500383F311889D
:103F1000BFF36F8FBFF34F8FFEE71F4B1B68032B61
:103F200008D04FF0500383F31188BFF36F8FBFF3B6
:103F30004F8FFEE71B0203F4E063174A1360019BF7
:103F4000DBB2134A1370154B1A6842F470021A6000
:103F50001A6842F070421A60FFF782FF0024104B8B
:103F60001C60FFF7C5FE0F4A136843F0404313601F
:103F7000FFF7AAFEFFF7F6F8FFF786FE204602B02D
:103F800010BD00BF00ED00E071C20F4170C20F41D3
:103F900000E400E0804A0020844A002020ED00E098
:103FA0000C00002034EF00E0EFF305830F2B0FD956
:103FB000104A9B5CDBB2104A12789A4208D94FF043
:103FC000500383F31188BFF36F8FBFF34F8FFEE76A
:103FD0000A4B1B6803F4E063094A1268934208D94C
:103FE0004FF0500383F31188BFF36F8FBFF34F8FF0
:103FF000FEE77047F0E300E0804A00200CED00E0AF
:10400000844A002010B582B0002401940D4B1A6B35
:1040100042F480021A631B6B03F480030193019B3B
:10402000224605213A20FEF725F83A20FEF756F8F9
:10403000224605214620FEF71DF84620FEF74EF8E1
:1040400002B010BD0038024008B50A480A4B0360B0
:104050004FF41653436000238360C36003610C2256
:1040600042618361C36100F0B5FA00B908BDFCF795
:10407000ABFCFBE7581B0120004C004008B50A4888
:104080000A4B03604FF4E133436000238360C36055
:1040900003610C2242618361C36100F09BFA00B9A5
:1040A00008BDFCF791FCFBE7EC1A01200010014071
:1040B00008B50A480A4B03604FF4165343600023C7
:1040C0008360C36003610C2242618361C36100F0BD
:1040D00081FA00B908BDFCF777FCFBE79C1B0120C7
:1040E00000440040F0B58DB0002307930893099376
:1040F0000A930B930368704A934209D004466F4AAF
:10410000934246D06E4A934200F0AA800DB0F0BDB3
:10411000002400946B4B1A6C42F400221A641A6C4F
:1041200002F400220092009A01941A6B42F00102FC
:104130001A631A6B02F001020192019A02941A6B3F
:1041400042F004021A631B6B03F004030293029B08
:104150000123079302270897099403260A96082546
:104160000B9507A95848FDF71DFC4FF40063079312
:10417000089709940A960B9507A95448FDF712FC75
:10418000224605213420FDF775FF3420FDF7A6FFF8
:10419000BCE7002503954B4B5A6C42F010025A6461
:1041A0005A6C02F010020392039A04951A6B42F0C3
:1041B00001021A631B6B03F001030493049B4FF489
:1041C000C063079302230893099503230A930723E7
:1041D0000B9307A93C48FDF7E5FB3D483D4B0360C9
:1041E0004FF0006343608560C5604FF480630361F6
:1041F000456185614FF48073C3614FF440330362BE
:104200004562FDF73FFD28BB314BA3639C633248F9
:10421000324B03604FF00063436040238360002310
:10422000C3604FF48062026143618361C3614FF4F4
:10423000403202624362FDF725FD70B9264B63638D
:104240009C63002205212520FDF714FF2520FDF7A2
:1042500045FF5BE7FCF7B8FBD6E7FCF7B5FBEDE7FE
:1042600000240594174B1A6C42F400321A641A6C3D
:1042700002F400320592059A06941A6B42F0080285
:104280001A631B6B03F008030693069B60230793D6
:1042900002230893099403230A9307230B9307A986
:1042A0000F48FDF77FFB224605212620FDF7E2FEA1
:1042B0002620FDF713FF29E7004C004000100140C5
:1042C0000044004000380240000002400008024064
:1042D0008C1A0120406402402C1A0120B86402406C
:1042E000000C024070B504460368184A934203D09C
:1042F00002F54C42934213D1154B1B88154AD256F6
:104300000A2A0ED001339BB2114A1380272B16D8EC
:104310000F4B1B8801220F491944204600F01DFD58
:1043200070BD0C4E0025F554304601F06DF9282281
:104330002946304601F016FD054B1D80E8E70021B7
:1043400011802822034801F00DFDE1E70044004000
:10435000884A0020301B0120026802F10C0353E858
:10436000003F23F0C0030C3242E800310029F3D1B2
:10437000202380F83D307047026802F10C0353E8B7
:10438000003F23F490730C3242E800310029F3D14E
:10439000026802F1140353E8003F23F001031432D2
:1043A00042E800310029F3D1036B012B05D0202313
:1043B00080F83E30002303637047026802F10C036B
:1043C00053E8003F23F010030C3242E8003100298B
:1043D000F3D1ECE790F83D30DBB2212B01D0022085
:1043E00070478368B3F5805F17D0036A5A1C026276
:1043F0001A7803685A60C38C9BB2013B9BB2C3849A
:104400004BB90268D36823F08003D3600268D36895
:1044100043F04003D360002070470369002BE4D1D0
:10442000036A1B880268C3F308035360036A0233FC
:104430000362E0E770B504460268136923F4405351
:10444000C1680B43136183680269134342691343D4
:10445000C2691A430168CB6823F4164323F00C03A6
:104460001343CB600268536923F4407381690B43A3
:1044700053610368344A934206D002F58062934246
:1044800002D0FDF751FA01E0FDF75EFAE369B3F5FA
:10449000004F2AD00026051846EB06012D1846EBE2
:1044A0000101CB0043EA5573EA00154619466368DB
:1044B0009A009B0F281846EB0101FCF7FDF8234DED
:1044C000A5FB00325109642303FB11031B013233A6
:1044D000A5FB03235B0903F0F00202EB011203F0DA
:1044E0000F03216813448B6070BD0026051846EB4E
:1044F00006012D1846EB0101CB0043EA5573EA0093
:104500001546194662683346921846EB030328188D
:1045100046EB0101FCF7D0F80C4DA5FB0032510928
:10452000642303FB1103DB003233A5FB03235B0988
:104530005A0002F4F87202EB011203F0070321683B
:1045400013448B60D0E700BF001001401F85EB5182
:104550002DE9F84305460F4616469946DDF82080BA
:104560002C68246837EA04030CBF01240024B442F9
:104570002DD1B8F1FF3FF3D0B8F1000F05D0FDF712
:10458000E1FDA0EB09004045EAD92A6802F10C03DD
:1045900053E8003F23F4D0730C3242E80031002985
:1045A000F3D12A6802F1140353E8003F23F001031A
:1045B000143242E800310029F3D1202385F83D3040
:1045C00085F83E30002385F83C30032000E00020D1
:1045D000BDE8F88358B310B5044690F83D300BB3EE
:1045E000242384F83D302268D36823F40053D36039
:1045F0002046FFF71FFF2268136923F490431361DD
:104600002268536923F02A0353612268D36843F474
:104610000053D36000202064202384F83D3084F8C8
:104620003E3010BD80F83C30FFF75CFDD8E701203C
:1046300070472DE9F04182B01E4690F83D30DBB264
:10464000202B54D104460D469046002953D0002A11
:1046500053D090F83C30012B51D0012380F83C30EE
:1046600000230364212380F83D30FDF76BFD0746EE
:10467000A4F82480A4F82680A368B3F5805F05D051
:104680004FF00008002384F83C3012E0236913B196
:104690004FF00008F6E7A8460025F3E738F8023B9C
:1046A0002268C3F308035360E28C92B2013A92B2DB
:1046B000E284E38C9BB273B100963B4600228021DA
:1046C0002046FFF745FFE0B9002DE7D015F8012B94
:1046D00023685A60E8E700963B46002240212046C6
:1046E000FFF736FF78B9202384F83D3000E0022040
:1046F00002B0BDE8F0810120FAE70120F8E70220CE
:10470000F6E70320F4E70320F2E7000038B590F85D
:104710003D30DBB2202B38D10446002937D0002AA7
:1047200037D090F83C30012B35D0012380F83C3055
:1047300001628284C28400250564212380F83D3013
:10474000436B1648D863636B15481864636B154850
:10475000D864636B1D6520681346021D606BFDF70E
:10476000F7FA23686FF040021A6084F83C50226820
:1047700002F1140353E8003F43F08003143242E88F
:1047800000310029F3D1002000E0022038BD0120D3
:10479000FCE70120FAE70220F8E700BF2F480008F5
:1047A00097480008A548000810B5044603685A69F0
:1047B00090F83D30DBB2212B0AD023685A6902F011
:1047C000400294F83E30DBB2222B19D0002010BDFD
:1047D00002F08002002AF0D0226802F1140353E8AC
:1047E000003F23F08003143242E800310029F3D166
:1047F000606B08B1FDF7E1FA2046FFF7ADFDDCE79D
:10480000002AE3D0226802F1140353E8003F23F0AA
:104810004003143242E800310029F3D1A06B08B103
:10482000FDF7CBFA2046FFF7A7FDCFE7704708B5A5
:104830000346806B1B681B6813F4807F1AD100232A
:10484000C384026802F1140353E8003F23F080039D
:10485000143242E800310029F3D1026802F10C035E
:1048600053E8003F43F040030C3242E80031002996
:10487000F3D108BDFFF7DAFFFBE708B50168CA68A6
:1048800022F04002CA60202280F83D20FFF7CEFFD0
:10489000002008BD704708B5806BFFF7FBFF08BD1F
:1048A0007047704710B5846B23685A6994F83D309F
:1048B000DBB2212B10D023685A6902F0400294F831
:1048C0003E30DBB2222B11D0236C43F01003236463
:1048D0002046FFF7E6FF10BD02F08002002AEAD072
:1048E0000023E3842046FFF737FDE4E7002AEBD0FE
:1048F0000023E3852046FFF73FFDE5E708B5806B21
:104900000023C385C384FFF7CCFF08BD704790F830
:104910003E30DBB2222B67D18368B3F5805F4DD088
:10492000826AB3F5805F04D0002B54D10369002B59
:1049300051D103685B681370836A01338362C38D4E
:104940009BB2013B9BB2C385002B4FD100B583B016
:104950000268D36823F02003D3600268D36823F48D
:104960008073D3600268536923F0010353612023ED
:1049700080F83E30036B012B33D1002303630268C0
:1049800002F10C0353E8003F23F010030C3242E81D
:1049900000310029F3D103681A6812F0100F06D015
:1049A000002201921A6801925B680193019B818D3C
:1049B000FFF7ACFF002003B05DF804FB0269002A9A
:1049C000AED1826A03685B68C3F308031380836A0D
:1049D00002338362B3E703685B6803F07F031370FD
:1049E000AAE7FFF77FFCE5E7022070470020704749
:1049F00030B583B0044602681368D068516913F07B
:104A00000F0505D113F0200F02D010F0200F19D19F
:104A10002DB111F0010119D110F4907F16D1216B45
:104A200001297DD013F0800F03D010F0800F40F0EB
:104A3000158113F0400F03D010F0400F40F01281A9
:104A400003B030BD2046FFF762FFF9E713F0010F16
:104A500006D010F4807F03D0226C42F00102226461
:104A600013F0040F04D019B1226C42F00202226448
:104A700013F0020F04D019B1226C42F00402226438
:104A800013F0080F07D010F0200F00D119B1226CDD
:104A900042F008022264226C002AD1D013F0200FC9
:104AA00002D010F0200F29D123685B6903F0400386
:104AB000226C12F0080F00D163B32046FFF75CFCB4
:104AC00023685B6913F0400F20D0226802F11403C1
:104AD00053E8003F23F04003143242E8003100293C
:104AE000F3D1A36B73B1614A1A65A06BFDF7AFF9FF
:104AF0000028A5D0A06B036D9847A1E72046FFF7DB
:104B000006FFD1E72046FFF7CCFE99E72046FFF7E6
:104B1000C8FE95E72046FFF7C4FE002323648FE715
:104B200013F0100F3FF47EAF10F0100F3FF47AAF88
:104B3000002301931368019353680193019B536908
:104B400013F0400F50D0A26B13685B689BB2002B30
:104B50003FF476AFA18D99427FF672AFE385D369BA
:104B6000B3F5807F37D0226802F10C0353E8003F91
:104B700023F480730C3242E800310029F3D122681B
:104B800002F1140353E8003F23F00103143242E81A
:104B900000310029F3D1226802F1140353E8003FE9
:104BA00023F04003143242E800310029F3D12023DE
:104BB00084F83E3000232363226802F10C0353E89B
:104BC000003F23F010030C3242E800310029F3D1FA
:104BD000A06BFDF7F2F8A18DE38D9BB2C91A89B2E3
:104BE0002046FFF793FE2BE7A18DE38D9BB2C91AF8
:104BF00089B2E38D9BB2002B3FF422AF00293FF432
:104C00001FAF226802F10C0353E8003F23F49073B6
:104C10000C3242E800300028F3D1226802F114037C
:104C200053E8003F23F00103143242E8003000282B
:104C3000F3D1202384F83E3000232363226802F15D
:104C40000C0353E8003F23F010030C3242E800301D
:104C50000028F3D12046FFF759FEF1E62046FFF782
:104C6000B9FBEDE62046FFF708FEE9E6FD4800083F
:104C700008B5806B036B012B02D0FFF711FE08BD56
:104C8000818D4908FFF742FEF9E708B50346806BBE
:104C90001B681B6813F4807F2BD10023C385026837
:104CA00002F10C0353E8003F23F480730C3242E816
:104CB00000310029F3D1026802F1140353E8003FE8
:104CC00023F00103143242E800310029F3D10268D5
:104CD00002F1140353E8003F23F04003143242E88A
:104CE00000310029F3D1202380F83E30036B012BE3
:104CF00005D0036B012B0FD0FFF7F4FA08BD026853
:104D000002F10C0353E8003F23F010030C3242E899
:104D100000310029F3D1ECE7818DFFF7F7FDEDE7D6
:104D200081628285C28500230364222280F83E20AE
:104D300080F83C30036923B10268D36843F4807380
:104D4000D3600268536943F0010353610268D3687A
:104D500043F02003D3600020704708B590F83E3040
:104D6000DBB2202B0DD171B17AB190F83C30012B20
:104D70000DD0012380F83C3000230363FFF7D0FF00
:104D800000E0022008BD0120FCE70120FAE7022034
:104D9000F8E7000030B583B004461346816282858F
:104DA00000250564222280F83E20826B2048D063D3
:104DB000A26B20481064A26B1F48D064A26B1565DB
:104DC00020680A46011DA06BFCF7C2FF019523680D
:104DD0001A6801925B680193019B84F83C50236937
:104DE0005BB1226802F10C0353E8003F43F4807387
:104DF0000C3242E800310029F3D1226802F1140399
:104E000053E8003F43F00103143242E80031002927
:104E1000F3D1226802F1140353E8003F43F040034A
:104E2000143242E800310029F3D1002003B030BD34
:104E30008B4C0008714C0008A548000808B590F894
:104E40003E30DBB2202B0DD171B17AB190F83C30FD
:104E5000012B0DD0012380F83C3000230363FFF7C2
:104E600099FF00E0022008BD0120FCE70120FAE7DD
:104E70000220F8E70268094B9A4200D0704782B0DE
:104E800000230193064B1A6C42F004021A641B6C57
:104E900003F004030193019B02B070470008004037
:104EA0000038024000B587B00023019302930393BA
:104EB0000493059302680F4B9A4202D007B05DF845
:104EC00004FB002300930C4A116B41F008011163AD
:104ED000126B02F008020092009A4FF48052019285
:104EE0000222029203930493059201A90348FCF75E
:104EF00059FDE3E70008004000380240000C024082
:104F000000B58BB000230893099301930293039398
:104F100004930593069307931748184A0260436069
:104F200083604FF6FF72C26003618361FCF7E2F8B1
:104F3000C0B900230893099308A90F48FCF7ACF9FE
:104F400098B960230193002202920392059201A96D
:104F50000948FCF733F958B90748FFF7A3FF0BB02E
:104F60005DF804FBFBF730FDE3E7FBF72DFDE8E719
:104F7000FBF72AFDF0E700BFE01B0120000800401E
:104F80000120704708B500F0B5FE162303604FF00E
:104F9000FF3008BD08B54FF0FF31FFF7F3FFFEE724
:104FA00070B50C4616460025B54207DAAFF300800F
:104FB000214601F8010B01350C46F5E7304670BD7E
:104FC00070B50C4616460025B54205DA14F8010BFB
:104FD000AFF300800135F7E7304670BD08B50346F2
:104FE0000D4A12685AB10C4A106803440B4A1178F2
:104FF0000B4A521A934206D8074A136008BD064A64
:1050000008491160EFE700BE00F074FE0C23036056
:105010004FF0FF30F2E700BF904A0020000400008C
:1050200000000220801C01204FF0FF3070474FF439
:1050300000534B60002070470120704700207047EC
:1050400000B59BB000F0B6FB0378012B07D0022B14
:105050001CD0032B01D0144A02E0144A00E0144A89
:10506000144901A800F014FF01A8FBF7BBF84FF4A6
:105070007A7382B201A91048FFF7DBFA00F09AFBBD
:105080000378042B04D01BB05DF804FB0B4AE7E760
:1050900001A8FBF7A7F84FF47A7382B201A9084878
:1050A000FFF7C7FAEFE700BF7C4301088043010820
:1050B000704301088C4301089C1B012078430108C0
:1050C000EC1A012030B58FB000F10A0434492046B3
:1050D000FBF77EF8E8B133492046FBF779F8002862
:1050E00031D031492046FBF773F8002838D02F49DA
:1050F0002046FBF76DF800283ED1042000F0E0FACE
:1051000001AC2B4D0FCD0FC495E8070003C42280DE
:1051100008E0012000F0D4FA01AC264D0FCD0FC4F9
:105120002B68236001A8FBF75DF84FF47A7382B215
:1051300001A92148FFF77DFA00F03CFB0378042B1E
:1051400023D00FB030BD022000F0BAFA01AC1B4DE5
:105150000FCD0FC42B6824F8023B1B0C2370E1E732
:10516000032000F0ADFA01AC154D0FCD0FC495E84A
:10517000030084E80300D5E701AC124D0FCD0FC446
:1051800095E80F0084E80F00CCE701A8FBF72AF8A8
:105190004FF47A7382B201A90B48FFF74AFAD0E7BD
:1051A0007043010878430108D44301087C43010897
:1051B000F8430108AC4301089C1B0120C0430108CF
:1051C000E043010814440108EC1A0120F0B5BFB017
:1051D0000DF12F0229490C3000F07AFE012838D158
:1051E0009DF82F304C2B30D000F0E4FA00F1200471
:1051F0002668A768E068237E9DF82F500893FBF788
:10520000B3F9CDE906013846FBF7AEF9CDE9040163
:10521000636802933046FBF7A7F9CDE900012A46FF
:1052200017490CA800F034FE0CA8FAF7DBFF4FF486
:105230007A7382B20CA91348FFF7FBF900F0BAFAAF
:105240000378042B0ED03FB0F0BD00F0B3FA041D7C
:10525000CEE70CAC0C4D0FCD0FC40FCD0FC42B6897
:105260002380E1E70CA8FAF7BDFF4FF47A7382B20E
:105270000CA90648FFF7DDF9E5E700BF3444010853
:10528000384401089C1B01208C440108EC1A0120C1
:1052900030B5C5B00DF1330303930DAB02930EABE4
:1052A00001930FAB009310AB0DF1470225490C3071
:1052B00000F00EFE062818D012AC234D0FCD0FC4FF
:1052C0000FCD0FC42B68238012A8FAF78BFF4FF481
:1052D0007A7382B212A91D48FFF7ABF900F06AFA9F
:1052E0000378042B22D045B030BD002309930B93E3
:1052F000109B05930F9B06930E9B07930D9B0893A2
:105300009DF833300A9308AB0FCB8DE80F0005AB47
:105310000ECB9DF8470000F0FDF99DF833309DF865
:1053200047200B4912A800F0B3FDCDE712A8FAF709
:1053300059FF4FF47A7382B212A90648FFF779F940
:10534000D1E700BFB0440108E44401089C1B0120E0
:10535000C4440108EC1A012030B59DB001AB0DF139
:105360000B021D490C3000F0B3FD02281BD003AC2A
:105370001A4D0FCD0FC40FCD0FC495E8030044F8AC
:10538000040B218003A8FAF72DFF4FF47A7382B241
:1053900003A91348FFF74DF900F00CFA0378042B2A
:1053A0000ED01DB030BD01999DF80B0000F0E4F95E
:1053B000019B9DF80B200B4903A800F069FDE1E774
:1053C00003A8FAF70FFF4FF47A7382B203A90648D5
:1053D000FFF72FF9E5E700BF08450108344501084C
:1053E0009C1B012010450108EC1A012030B5A1B02A
:1053F00001AB0DF11B0240490E3000F069FD02289F
:1054000055D13E4901A8FAF7E3FE002831D03C49C6
:1054100001A8FAF7DDFE00283CD03A4901A8FAF7C6
:10542000D7FE002838D0384901A8FAF7D1FE08B9CC
:1054300003211FE001AA354907A800F029FD07A8AC
:10544000FAF7D0FE4FF47A7382B207A93048FFF71B
:10545000F0F800F0AFF90378042B3FD107A8FAF772
:10546000C1FE4FF47A7382B207A92A48FFF7E1F828
:1054700034E000219DF81B004C2801D052280DD1AA
:1054800000F02AF901AB9DF81B20234907A800F082
:10549000FFFC14E00121EDE70221EBE707AC1F4D13
:1054A0000FCD0FC40FCD0FC42B68238007E007ACCE
:1054B0001B4D0FCD0FC495E80F0084E80F0007A81F
:1054C000FAF790FE4FF47A7382B207A91048FFF7FB
:1054D000B0F800F06FF90378042B01D021B030BD93
:1054E00007A8FAF77FFE4FF47A7382B207A909483A
:1054F000FFF79FF8F2E700BF5C450108644501082B
:105500006C450108744501087C4501088445010883
:105510009C1B0120EC1A0120A04501088C440108C5
:10552000CC45010830B58FB000F0B4F801AC144D93
:105530000FCD0FC40FCD0FC495E8030044F8040B42
:1055400024F8021B090C217001A8FAF74BFE4FF456
:105550007A7382B201A90B48FFF76BF800F02AF9C1
:105560000378042B01D00FB030BD01A8FAF73AFE42
:105570004FF47A7382B201A90348FFF75AF8F2E7B1
:10558000EC4501089C1B0120EC1A012000B58FB0EE
:1055900001AC184D0FCD0FC495E8070003C422805D
:1055A00001A8FAF71FFE4FF0FF3382B201A912489B
:1055B000FFF73FF800F0FEF80378042B0FD06420CB
:1055C000FCF7C6FDBFF34F8F0C49CA6802F4E062D6
:1055D0000B4B1343CB60BFF34F8F00BFFDE701A818
:1055E000FAF700FE4FF47A7382B201A90548FFF77B
:1055F00020F8E4E7144601089C1B012000ED00E0C0
:105600000400FA05EC1A012070B58EB0064600259C
:105610001C4B53F8354094B12046FAF7E3FD02469F
:105620002146304600F0C5FC08B10135F0E7154BC6
:1056300003EBC5056B68304698470EB070BD01ACF2
:10564000114D0FCD0FC495E8070003C4227001A8C7
:10565000FAF7C8FD4FF47A7382B201A90B48FEF73E
:10566000E8FF00F0A7F80378042BE6D101A8FAF7C9
:10567000B9FD4FF47A7382B201A90548FEF7D9FF4C
:10568000DBE700BF14000020304601089C1B01200E
:10569000EC1A0120094900230A4602F8043B4B603A
:1056A00053609360D3601361536193610B624B62EB
:1056B0008B62CB620B634B638B637047281C0120AA
:1056C00008B50146024B1870024800F053FB08BDB4
:1056D000281C0120C446010808B54C2805D05228D2
:1056E00009D0084800F0CCFB08BD074B19770748E4
:1056F00000F040FBF8E7044B83F83810044800F052
:1057000039FBF1E728470108281C0120E046010881
:105710000447010884B038B505AC84E80E004C2875
:1057200008D0522812D00F4800F0AAFBBDE838403C
:1057300004B070470C4C05AD0FCD0FC495E80700C1
:1057400084E80700094800F09BFBEFE7084C05AD33
:105750000FCD0FC495E8070084E80700054800F066
:105760008FFBE3E7284701082C1C0120484701086C
:10577000481C01206847010808B54C2805D052286C
:1057800009D0084800F07CFB08BD074B5961074869
:1057900000F0F0FAF8E7044B1963054800F0EAFA64
:1057A000F2E700BF28470108281C012088470108AC
:1057B000A447010800487047281C0120124A12F033
:1057C000070F1ED0D11D21F00701C1F570531344FE
:1057D0000A460E480260002141601344083B23F052
:1057E00007030B48036059601960991A51601360F0
:1057F000084B1960084B1960084B4FF000421A60C3
:1058000070474FF47053E4E7984A0020A4860020C4
:10581000944A0020A08600209C86002098860020C4
:1058200010B4134B1A461B688342FBD351685418BB
:1058300084420AD041684418A3420BD003609042CE
:1058400000D010605DF8044B70474068014451601F
:105850001046EFE7074C2468A34206D05B68194462
:10586000416013681B680360E9E70460E7E700BF75
:10587000A4860020944A002070B50446FDF734FB4E
:10588000344B1B68A3B1344B1B681C424AD134B162
:10589000083414F0070F02D024F007040834002C59
:1058A00042D02E4B1B68A3424DD32D4B1D6804E004
:1058B000FFF784FFE7E72B4615466A68A24202D24B
:1058C0002A68002AF7D1234A1268AA423DD01E68EE
:1058D00008362A681A606B681B1B102B10D9281910
:1058E00010F0070F08D04FF0500383F31188BFF377
:1058F0006F8FBFF34F8FFEE743606C60FFF790FF41
:105900006A6816490B689B1A0B60164909688B4236
:1059100001D214490B60104B1B6813436B600023CA
:105920002B6002E0002600E00026FDF779FB16F070
:10593000070F0CD04FF0500383F31188BFF36F8F24
:10594000BFF34F8FFEE70026EFE70026EDE7304676
:1059500070BD00BF944A0020988600209C860020DD
:10596000A4860020A086002080B338B50446A0F1AC
:10597000080550F8043C164A1268134208D14FF04B
:10598000500383F31188BFF36F8FBFF34F8FFEE790
:1059900050F8081C41B14FF0500383F31188BFF356
:1059A0006F8FBFF34F8FFEE723EA020340F8043CFA
:1059B000FDF79AFA54F8041C064A13680B44136066
:1059C0002846FFF72DFFFDF72BFB38BD704700BFC2
:1059D000988600209C86002050F8043C024A1068FB
:1059E00023EA0000704700BF9886002070B5054686
:1059F0000C46FDF779FA2046FFF73EFF064678B1E0
:105A000075B12846FFF7E8FF0838844200D3044602
:105A100022462946304600F097F92846FFF7A4FFB2
:105A2000FDF7FEFA304670BD38B505460C46FDF769
:105A30005BFA05FB04F42046FFF71EFF054603460C
:105A4000621E24B1002103F8011B1446F8E7FDF79C
:105A5000E7FA284638BD000008B5034605490A683C
:105A600002440A6004490A6813440B60FFF704FF0C
:105A700008BD00BFAC860020B086002058B110B52C
:105A80000446FFF7A9FF044A13681B1A1360204657
:105A9000FFF76AFF10BD7047B086002038B50C468E
:105AA0000C4A13680B4413600B4A13680B441360D1
:105AB00058B10546FFF790FF074A13681B1A136099
:105AC00021462846FFF792FF38BD0846FFF7D4FE6F
:105AD000FAE700BFAC860020B086002010B501FBBD
