:020000040800F2
:10000000000002209D730008750F0008770F00089C
:10001000790F00087B0F00087D0F0008000000002A
:10002000000000000000000000000000C1450008C2
:100030007F0F000800000000614600084B410008E7
:10004000ED730008ED730008ED730008ED73000810
:10005000ED730008ED730008ED730008ED73000800
:10006000ED730008ED730008ED730008ED730008F0
:10007000ED730008ED730008ED730008ED730008E0
:10008000810F0008910F0008ED730008ED73000860
:10009000ED730008ED730008ED730008ED730008C0
:1000A000ED730008A10F0008ED730008ED73000860
:1000B000ED730008ED730008ED730008ED730008A0
:1000C000ED730008ED730008ED730008ED73000890
:1000D000ED730008B10F0008C10F0008ED730008B0
:1000E000ED730008ED730008ED730008ED73000870
:1000F000ED730008D10F0008ED730008ED730008E0
:10010000ED730008ED730008ED730008ED7300084F
:10011000ED730008ED730008ED730008ED7300083F
:10012000ED730008ED730008E10F0008ED7300089F
:10013000ED730008ED730008ED730008ED7300081F
:10014000ED730008ED730008ED730008ED7300080F
:10015000ED730008ED730008F10F0008ED7300085F
:10016000ED730008ED730008ED730008ED730008EF
:10017000ED730008ED730008ED7300080000000047
:08018000ED730008ED730008A7
:1001900001F0FF01102A2BDB10F0070F08D010F838
:1001A000013B013A8B422DD010F0070F42B3F6D13C
:1001B000F0B441EA012141EA014122F007047FF055
:1001C00000070023F0E80256083C85EA010586EAAC
:1001D000010685FA47F5A3FA87F586FA47F6A5FAE8
:1001E00087F68EB9EED1F0BC01F0FF0102F00702F4
:1001F00032B110F8013B013A83EA010313B1F8D19F
:100200000020704701387047002D06BF354603387F
:10021000073815F0010F07D1013015F4807F02BFB8
:10022000013015F4C03F0130F0BC0138704700BF09
:1002300081F0004102E000BF83F0004330B54FEA97
:1002400041044FEA430594EA050F08BF90EA020F04
:100250001FBF54EA000C55EA020C7FEA645C7FEA97
:10026000655C00F0E2804FEA5454D4EB5555B8BFBA
:100270006D420CDD2C4480EA020281EA030382EA2B
:10028000000083EA010180EA020281EA0303362DBD
:1002900088BF30BD11F0004F4FEA01314FF4801C90
:1002A0004CEA113102D0404261EB410113F0004FA2
:1002B0004FEA03334CEA133302D0524263EB430359
:1002C00094EA050F00F0A780A4F10104D5F1200EF7
:1002D0000DDB02FA0EFC22FA05F2801841F1000152
:1002E00003FA0EF2801843FA05F359410EE0A5F126
:1002F00020050EF1200E012A03FA0EFC28BF4CF057
:10030000020C43FA05F3C01851EBE37101F000450C
:1003100007D54FF0000EDCF1000C7EEB00006EEB19
:100320000101B1F5801F1BD3B1F5001F0CD34908A3
:100330005FEA30004FEA3C0C04F101044FEA4452FA
:1003400012F5800F80F09A80BCF1004F08BF5FEA81
:10035000500C50F1000041EB045141EA050130BD61
:100360005FEA4C0C404141EB0101013C28BFB1F573
:10037000801FE9D291F0000F04BF01460020B1FABE
:1003800081F308BF2033A3F10B03B3F120020CDA91
:100390000C3208DD02F1140CC2F10C0201FA0CF06F
:1003A00021FA02F10CE002F11402D8BFC2F1200CD4
:1003B00001FA02F120FA0CFCDCBF41EA0C0190408A
:1003C000E41AA2BF01EB0451294330BD6FEA0404D3
:1003D0001F3C1CDA0C340EDC04F11404C4F12002BE
:1003E00020FA04F001FA02F340EA030021FA04F3D0
:1003F00045EA030130BDC4F10C04C4F1200220FA27
:1004000002F001FA04F340EA0300294630BD21FA64
:1004100004F0294630BD94F0000F83F4801306BF2A
:1004200081F480110134013D4EE77FEA645C18BF1E
:100430007FEA655C29D094EA050F08BF90EA020FB5
:1004400005D054EA000C04BF1946104630BD91EAAD
:10045000030F1EBF0021002030BD5FEA545C05D1B0
:100460004000494128BF41F0004130BD14F58004EF
:100470003CBF01F5801130BD01F0004545F0FE4163
:1004800041F470014FF0000030BD7FEA645C1ABF98
:10049000194610467FEA655C1CBF0B46024650EACF
:1004A000013406BF52EA033591EA030F41F40021FB
:1004B00030BD00BF90F0000F04BF0021704730B581
:1004C0004FF4806404F132044FF000054FF0000156
:1004D00050E700BF90F0000F04BF0021704730B517
:1004E0004FF4806404F1320410F0004548BF4042EC
:1004F0004FF000013EE700BF42004FEAE2014FEA41
:1005000031014FEA02701FBF12F07F4393F07F4F1B
:1005100081F06051704732F07F4208BF704793F01E
:100520007F4F04BF41F40021704730B54FF4607431
:1005300001F0004521F000411CE700BF50EA010234
:1005400008BF704730B54FF000050AE050EA0102DD
:1005500008BF704730B511F0004502D5404261EB4D
:1005600041014FF4806404F132045FEA915C3FF48E
:10057000D8AE4FF003025FEADC0C18BF03325FEA2B
:10058000DC0C18BF033202EBDC02C2F1200300FADC
:1005900003FC20FA02F001FA03FE40EA0E0021FA01
:1005A00002F11444BDE600BF70B54FF0FF0C4CF4EF
:1005B000E06C1CEA11541DBF1CEA135594EA0C0FA1
:1005C00095EA0C0F00F0DEF82C4481EA030621EADC
:1005D0004C5123EA4C5350EA013518BF52EA033517
:1005E00041F4801143F4801338D0A0FB02CE4FF0C9
:1005F0000005E1FB02E506F00042E0FB03E54FF0F9
:100600000006E1FB03569CF0000F18BF4EF0010EF0
:10061000A4F1FF04B6F5007F64F5407404D25FEAEC
:100620004E0E6D4146EB060642EAC62141EA55519F
:100630004FEAC52040EA5E504FEACE2EB4F1FD0CE1
:1006400088BFBCF5E06F1ED8BEF1004F08BF5FEA5F
:10065000500E50F1000041EB045170BD06F0004611
:1006600046EA010140EA020081EA0301B4EB5C04BE
:10067000C2BFD4EB0C0541EA045170BD41F48011B6
:100680004FF0000E013C00F3AB8014F1360FDEBFDB
:10069000002001F0004170BDC4F10004203C35DAB7
:1006A0000C341BDC04F11404C4F1200500FA05F33A
:1006B00020FA04F001FA05F240EA020001F00042DB
:1006C00021F0004110EBD37021FA04F642EB060151
:1006D0005EEA430E08BF20EAD37070BDC4F10C047B
:1006E000C4F1200500FA04F320FA05F001FA04F23F
:1006F00040EA020001F0004110EBD37041F100012B
:100700005EEA430E08BF20EAD37070BDC4F1200535
:1007100000FA05F24EEA020E20FA04F301FA05F29D
:1007200043EA020321FA04F001F0004121FA04F245
:1007300020EA020000EBD3705EEA430E08BF20EA15
:10074000D37070BD94F0000F0FD101F0004640004F
:1007500041EB010111F4801F08BF013CF7D041EAD1
:10076000060195F0000F18BF704703F000465200D5
:1007700043EB030313F4801F08BF013DF7D043EAA6
:100780000603704794EA0C0F0CEA135518BF95EA5C
:100790000C0F0CD050EA410618BF52EA4306D1D1E3
:1007A00081EA030101F000414FF0000070BD50EA02
:1007B000410606BF1046194652EA430619D094EA8C
:1007C0000C0F02D150EA013613D195EA0C0F05D176
:1007D00052EA03361CBF104619460AD181EA0301CA
:1007E00001F0004141F0FE4141F470014FF0000082
:1007F00070BD41F0FE4141F4780170BD70B54FF01D
:10080000FF0C4CF4E06C1CEA11541DBF1CEA13559C
:1008100094EA0C0F95EA0C0F00F0A7F8A4EB05047E
:1008200081EA030E52EA03354FEA013100F0888075
:100830004FEA03334FF0805545EA131343EA12633E
:100840004FEA022245EA111545EA10654FEA0026F3
:100850000EF000419D4208BF964244F1FD0404F5AC
:10086000407402D25B084FEA3202B61A65EB030508
:100870005B084FEA32024FF480104FF4002CB6EBC5
:10088000020E75EB030E22BFB61A754640EA0C0045
:100890005B084FEA3202B6EB020E75EB030E22BF85
:1008A000B61A754640EA5C005B084FEA3202B6EBC6
:1008B000020E75EB030E22BFB61A754640EA9C0085
:1008C0005B084FEA3202B6EB020E75EB030E22BF55
:1008D000B61A754640EADC0055EA060E18D04FEA13
:1008E000051545EA16754FEA06164FEAC30343EAB3
:1008F00052734FEAC2025FEA1C1CC0D111F4801F80
:100900000BD141EA00014FF000004FF0004CB6E778
:1009100011F4801F04BF01430020B4F1FD0C88BF17
:10092000BCF5E06F3FF6AFAEB5EB030C04BFB6EB22
:10093000020C5FEA500C50F1000041EB045170BD15
:100940000EF0004E4EEA113114EB5C04C2BFD4EB42
:100950000C0541EA045170BD41F480114FF0000EC6
:10096000013C90E645EA060E8DE60CEA135594EA42
:100970000C0F08BF95EA0C0F3FF43BAF94EA0C0F45
:100980000AD150EA01347FF434AF95EA0C0F7FF4BA
:1009900025AF104619462CE795EA0C0F06D152EA0E
:1009A00003353FF4FDAE1046194622E750EA4106F2
:1009B00018BF52EA43067FF4C5AE50EA41047FF403
:1009C0000DAF52EA43057FF4EBAE12E74FF0FF3C68
:1009D00006E000BF4FF0010C02E000BF4FF0010C39
:1009E0004DF804CD4FEA410C7FEA6C5C4FEA430CB2
:1009F00018BF7FEA6C5C1BD001B050EA410C0CBF01
:100A000052EA430C91EA030F02BF90EA020F002062
:100A1000704710F1000F91EA030F58BF994208BFC9
:100A200090422CBFD8176FEAE37040F00100704786
:100A30004FEA410C7FEA6C5C02D150EA013C07D1DD
:100A40004FEA430C7FEA6C5CD6D152EA033CD3D028
:100A50005DF8040B704700BF8446104662468C4622
:100A60001946634600E000BF01B5FFF7B7FF002855
:100A700048BF10F1000F01BD4DF808EDFFF7F4FF7E
:100A80000CBF012000205DF808FB00BF4DF808ED09
:100A9000FFF7EAFF34BF012000205DF808FB00BF2C
:100AA0004DF808EDFFF7E0FF94BF012000205DF84E
:100AB00008FB00BF4DF808EDFFF7CEFF94BF012003
:100AC00000205DF808FB00BF4DF808EDFFF7C4FFFC
:100AD00034BF012000205DF808FB00BF4FEA410C45
:100AE0007FEA6C5C02D150EA013C0AD14FEA430C28
:100AF0007FEA6C5C02D152EA033C02D14FF0000065
:100B000070474FF0010070474FEA410212F50012A2
:100B100015D211D56FF47873B3EB625212D94FEA44
:100B2000C12343F0004343EA505311F0004F23FA2E
:100B300002F018BF404270474FF00000704750EA83
:100B4000013005D111F0004008BF6FF00040704740
:100B50004FF00000704700BF4A0011D212F500129A
:100B600011D20DD56FF47873B3EB62520ED44FEA05
:100B7000C12343F0004343EA505323FA02F0704785
:100B80004FF00000704750EA013002D14FF0FF30C3
:100B900070474FF0000070477BB972B90029BEBFA3
:100BA00000204FF0004106E008BF00281CBF6FF096
:100BB00000414FF0FF3000F057B8ADF1080C6DE97F
:100BC00004CE002909DB002B1ADB14F0CDFADDF886
:100BD00004E0DDE9022304B07047404261EB4101CB
:100BE000002B1BDB14F0C0FADDF804E0DDE9022382
:100BF00004B0404261EB4101524263EB4303704752
:100C0000524263EB430314F0AFFADDF804E0DDE990
:100C1000022304B0404261EB41017047524263EB52
:100C2000430314F0A1FADDF804E0DDE9022304B087
:100C3000524263EB4303704753B94AB9002908BFD6
:100C400000281CBF4FF0FF314FF0FF3000F00CB810
:100C5000ADF1080C6DE904CE14F086FADDF804E07D
:100C6000DDE9022304B07047704700BF10F8012B84
:100C700011F8013B012A28BF9A42F7D0D01A7047D9
:100C8000034613F8012B002AFBD1181A01387047CC
:100C90000348044B834202D0034B03B1184770470B
:100CA0004001002040010020000000000548064BE4
:100CB0001B1AD90F01EBA301491002D0034B03B15A
:100CC000184770474001002040010020000000004C
:100CD00010B5064C237843B9FFF7DAFF044B13B184
:100CE0000448AFF300800123237010BD40010020B1
:100CF000000000001C5C010808B5054B1BB105494C
:100D00000548AFF30080BDE80840FFF7CFBF00BF44
:100D100000000000440100201C5C010808B50268C6
:100D2000034B9A4200D008BD01F098FDFBE700BFDD
:100D30000000014072B6FEE700B595B030220021F8
:100D400008A807F0F1F80023039304930593069392
:100D5000079301931F4A116C41F080511164126C8A
:100D600002F080520192019A02931B4A116841F4E9
:100D700080411160126802F480420292029A0222BB
:100D8000089201210B9110210C910E920F930823D0
:100D90001093A823119312920423139308A800F030
:100DA00033FE98B90F230393022304930023059382
:100DB0004FF4A05306934FF480530793052103A8E3
:100DC00001F072F820B915B05DF804FBFFF7B2FF2F
:100DD000FFF7B0FF003802400070004000B583B05C
:100DE00001F022FDFFF7A8FF00F02EF803F04EFD02
:100DF00003F0D6FD04F074FE03F0B8FD04F084FFA8
:100E000004F0D6FF05F070F804F0F0FF05F0A8FA42
:100E100004F008FE04F0DCFE03F074FD03F08CFD2A
:100E200003F0DAFD04F01EFD01220DF10701054873
:100E300004F08BFC03F096F901F09EFE03F0A4F998
:100E4000FEE700BFC8EB00202DE9F0438DB0002481
:100E50000794089409940A940B940194404B1A6BDC
:100E600042F010021A631A6B02F010020192019A0A
:100E700002941A6B42F004021A631A6B02F0040225
:100E80000292029A03941A6B42F080021A631A6B60
:100E900002F080020392039A04941A6B42F001025A
:100EA0001A631A6B02F001020492049A05941A6BF9
:100EB00042F002021A631A6B02F002020592059ACE
:100EC00006941A6B42F008021A631B6B03F00803C6
:100ED0000693069BDFF89490224642F20F014846A3
:100EE00001F0CCF9DFF8888022460221404601F06B
:100EF000C5F91C4F22464FF20701384601F0BEF9F2
:100F0000194E22462021304601F0B8F942F20F0373
:100F100007930125089509940A9407A9484601F00A
:100F2000B7F802230793089509940A9407A9404645
:100F300001F0AEF84FF207030793089509940A945D
:100F400007A9384601F0A4F82023079308950994CF
:100F50000A9407A9304601F09BF80DB0BDE8F08374
:100F60000038024000040240000C02400008024029
:100F700000000240FEE7FEE7FEE7FEE7FEE77047FF
:100F800008B5024801F0FEFA08BD00BF20EA0020C3
:100F900008B5024801F0F6FA08BD00BFC0E900201C
:100FA00008B5024800F0AAF908BD00BF5C010020A6
:100FB00008B5024804F016FA08BD00BFC8EB0020CF
:100FC00008B5024804F00EFA08BD00BF84EB00200B
:100FD00008B5024800F092F908BD00BF94EC00206B
:100FE00008B5024801F0CEFA08BD00BFE0EA0020D3
:100FF00008B5024801F0C6FA08BD00BF80EA00202B
:1010000000B583B0002200920D4B596C41F4804131
:101010005964596C01F48041009100990192196C56
:1010200041F0805119641B6C03F080530193019BC4
:101030000F216FF0010001F0D9FB03B05DF804FB54
:101040000038024030B589B00546002401941E4B9B
:101050005A6C42F001025A645B6C03F00103019385
:10106000019B02A903A800F0F5FF00F0E3FF430095
:10107000164AA2FB03239B0C013B1548154A02604C
:1010800040F2E732C260436004618460846100F032
:1010900057FA044610B1204609B030BD0C4800F0A4
:1010A000E5F804460028F6D1192001F0AFFB0F2D1A
:1010B00001D90124EFE700222946192001F096FB0F
:1010C000054B1D60E7E700BF0038024083DE1B438D
:1010D0005C010020000001400400002030B4036ADD
:1010E00023F001030362036A4268846924F0730CED
:1010F0000C6844EA0C0423F0020C8B6843EA0C03EE
:10110000114DA84203D005F58065A84205D123F012
:101110000803CD682B4323F004030B4DA84203D0F2
:1011200005F58065A84207D122F440724D6945EA71
:10113000020C8A6942EA0C02426084614A68426396
:10114000036230BC704700BF0000014030B4036A46
:1011500023F480730362036A4268C46924F0730C49
:101160000C6844EA0C0523F400738C6843EA0423FA
:10117000114CA04203D004F58064A04206D123F4B0
:101180000063CC6843EA042323F480630A4CA04242
:1011900003D004F58064A04207D122F440524C6988
:1011A00042EA04128C6942EA04124260C5614A684C
:1011B000C263036230BC70470000014030B4036A70
:1011C00023F480530362036A4468C26922F4E6424E
:1011D0000D6842EA052223F400538D6843EA053383
:1011E000094DA84203D005F58065A84204D124F436
:1011F00080444D6944EA85144460C2614A680264CF
:10120000036230BC704700BF0000014010B4036AA5
:10121000046A24F001040462846924F0F00C4CEAAE
:10122000021223F00A030B43826103625DF8044B50
:10123000704710B4036A23F0100303628469036AE1
:1012400024F4704C4CEA023223F0A00343EA011369
:10125000826103625DF8044B7047836823F070037A
:101260000B4343F0070383607047000090F83D3064
:10127000DBB2012B37D1022380F83D300268D368FE
:1012800043F00103D3600368194A934220D0B3F1BD
:10129000804F1DD0A2F57C42934219D002F58062A6
:1012A000934215D002F58062934211D002F5784244
:1012B00093420DD002F57052934209D0A2F59432B8
:1012C000934205D01A6842F001021A60002070476C
:1012D0009A6802F00702062A07D01A6842F0010253
:1012E0001A6000207047012070470020704700BF3F
:1012F00000000140704770477047704710B50446C2
:1013000003681A6912F0020F11D0DA6812F0020FA6
:101310000DD06FF002021A610123037703689B6905
:1013200013F0030F70D0FFF7E6FF00232377236845
:101330001A6912F0040F12D0DA6812F0040F0ED0FE
:101340006FF004021A610223237723689B6913F468
:10135000407F5FD02046FFF7CEFF0023237723682E
:101360001A6912F0080F12D0DA6812F0080F0ED0C6
:101370006FF008021A61042323772368DB6913F0F6
:10138000030F4ED02046FFF7B6FF002323772368D4
:101390001A6912F0100F12D0DA6812F0100F0ED086
:1013A0006FF010021A61082323772368DB6913F4B6
:1013B000407F3DD02046FFF79EFF00232377236820
:1013C0001A6912F0010F03D0DA6812F0010F36D15A
:1013D00023681A6912F0800F03D0DA6812F0800FC8
:1013E00034D123681A6912F0400F03D0DA6812F082
:1013F000400F32D123681A6912F0200F03D0DA6847
:1014000012F0200F30D110BDFFF774FF2046FFF718
:1014100073FF8AE72046FFF76DFF2046FFF76CFF5A
:101420009BE72046FFF766FF2046FFF765FFACE726
:101430002046FFF75FFF2046FFF75EFFBDE76FF036
:1014400001021A612046FFF769FCC1E76FF08002D4
:101450001A61204600F0D7FAC3E76FF040021A6124
:101460002046FFF74AFFC5E76FF020021A612046C9
:1014700000F0C8FAC7E700000368304A904212D073
:10148000B0F1804F0FD0A2F57C4290420BD002F514
:101490008062904207D002F58062904203D002F54C
:1014A0007842904203D123F070034A681343234AE1
:1014B00090422AD0B0F1804F27D0A2F57C429042D2
:1014C00023D002F5806290421FD002F580629042E4
:1014D0001BD002F57842904217D002F5705290422C
:1014E00013D002F5806290420FD002F580629042E4
:1014F0000BD0A2F59832904207D002F5806290425C
:1015000003D002F58062904203D123F44073CA688D
:10151000134323F080034A69134303608B68C3625B
:101520000B688362054B984203D003F580639842B1
:1015300001D10B690363012343617047000001403F
:1015400040B310B5044690F83D30F3B1022384F85F
:101550003D30214651F8040BFFF78EFF012384F83C
:10156000463084F83E3084F83F3084F8403084F8C8
:10157000413084F8423084F8433084F8443084F8B1
:10158000453084F83D30002010BD80F83C3004F038
:10159000ADF9DBE70120704740B310B5044690F881
:1015A0003D30F3B1022384F83D30214651F8040B5D
:1015B000FFF762FF012384F8463084F83E3084F858
:1015C0003F3084F8403084F8413084F8423084F869
:1015D000433084F8443084F8453084F83D300020AE
:1015E00010BD80F83C3004F057F9DBE7012070476C
:1015F00030B4036A23F010030362036A446882690B
:1016000022F4E6420D6842EA052223F020038D68A9
:1016100043EA0513114DA84203D005F58065A842A1
:1016200006D123F08003CD6843EA051323F040037D
:101630000A4DA84203D005F58065A84207D124F4DD
:1016400040644D6944EA85048D6944EA8504446038
:1016500082614A688263036230BC704700000140C7
:1016600038B590F83C30012B66D004460D46012376
:1016700080F83C300C2A5AD8DFE802F00759595953
:101680001B5959593059595944000068FFF726FD34
:101690002268936943F0080393612268936923F0F9
:1016A000040393612268936929690B4393610020C5
:1016B0003EE00068FFF79CFF2268936943F40063F3
:1016C00093612268936923F480639361226893692C
:1016D000296943EA01239361002029E00068FFF7AC
:1016E00035FD2268D36943F00803D3612268D369CA
:1016F00023F00403D3612268D36929690B43D361C2
:10170000002015E00068FFF759FD2268D36943F413
:101710000063D3612268D36923F48063D3612268B4
:10172000D369296943EA0123D361002000E0012045
:10173000002384F83C3038BD0220FCE710B48468F4
:1017400024F47F4C42EA03220A4342EA0C028260FC
:101750005DF8044B704790F83C30012B78D010B501
:101760000446012380F83C30022380F83D300268B3
:10177000936823F47F4323F0770393600B68602B17
:101780004CD023D8402B54D011D8202B03D00AD8CA
:101790000BB1102B05D119462068FFF75EFD002024
:1017A00028E0012026E0302BF5D0012022E0502B4C
:1017B0000AD1CA6849680068FFF728FD50212068EF
:1017C000FFF74BFD002015E0012013E0B3F5805F2B
:1017D0003AD0B3F5005F14D0702B37D1CB684A688C
:1017E00089680068FFF7AAFF2268936843F07703CF
:1017F00093600020012384F83D30002384F83C30BE
:1018000010BDCB684A6889680068FFF797FF2268B7
:10181000936843F4804393600020EBE7CA6849680B
:101820000068FFF706FD60212068FFF716FD002025
:10183000E0E7CA6849680068FFF7E8FC40212068D3
:10184000FFF70BFD0020D5E70020D3E70120D1E70B
:101850000220704701F01F014FF0010C0CFA01FC4F
:10186000036A23EA0C030362036A8A401343036298
:101870007047000010B504460846002942D194F88C
:101880003E30DBB2013B18BF0123002B6ED1002894
:1018900051D1022384F83E30012201462068FFF72F
:1018A000D9FF2368334A934203D002F58062934202
:1018B00003D15A6C42F400425A6423682D4A934281
:1018C00049D0B3F1804F46D0A2F57C42934242D03A
:1018D00002F5806293423ED002F5806293423AD094
:1018E00002F57842934236D002F57052934232D0DC
:1018F000A2F5943293422ED01A6842F001021A6087
:10190000002032E0042908D008290DD094F8413095
:10191000DBB2013B18BF0123B7E794F83F30DBB2DD
:10192000013B18BF0123B0E794F84030DBB2013B24
:1019300018BF0123A9E7042805D0082807D00223EF
:1019400084F84130A8E7022384F83F30A4E702235B
:1019500084F84030A0E79A6802F00702062A07D010
:101960001A6842F001021A60002010BD0120FCE755
:101970000020FAE70000014090F83C20012A3DD009
:1019800010B40346012280F83C20022280F83D205A
:1019900002685068946820F0700C086840EA0C00F7
:1019A00050601A68164882421AD0B2F1804F17D0A0
:1019B000A0F57C40824213D000F5806082420FD0B7
:1019C00000F5806082420BD000F57840824207D05B
:1019D00000F57050824203D0A0F59430824204D1C9
:1019E00024F08004496821439160012283F83D205E
:1019F000002083F83C005DF8044B704702207047DC
:101A00000000014070477047002800F0E08170B589
:101A100082B00446036813F0010F3BD09F4B9B68D4
:101A200003F00C03042B2CD09C4B9B6803F00C039D
:101A3000082B21D06368B3F5803F4FD0B3F5A02FBA
:101A400052D0964B1A6822F480321A601A6822F437
:101A500080221A606368002B50D000F00BFF05460F
:101A60008E4B1B6813F4003F14D100F003FF401BA2
:101A70006428F5D90320B1E1884B5B6813F4800F2B
:101A8000D8D0864B1B6813F4003F03D06368002B4B
:101A900000F09F81236813F0020F54D07F4B9B68A6
:101AA00013F00C0F3ED07D4B9B6803F00C03082B0A
:101AB00033D0E368002B68D0794B01221A6000F024
:101AC000D9FE0546754B1B6813F0020F54D100F088
:101AD000D1FE401B0228F5D903207FE16F4A13682D
:101AE00043F480331360B5E76C4B1A6842F48022EC
:101AF0001A601A6842F480321A60ABE700F0BAFE4E
:101B00000546664B1B6813F4003FC3D000F0B2FEDD
:101B1000401B6428F5D9032060E1604B5B6813F437
:101B2000800FC6D15D4B1B6813F0020F03D0E36832
:101B3000012B40F05081594A136823F0F8032169C2
:101B400043EAC1031360236813F0080F42D06369AE
:101B50006BB3534B0122C3F8802E00F08BFE054679
:101B60004E4B5B6F13F0020F34D100F083FE401B2D
:101B70000228F5D9032031E1484A136823F0F8031D
:101B8000216943EAC1031360DDE7454B00221A6077
:101B900000F070FE0546414B1B6813F0020FD2D0D7
:101BA00000F068FE401B0228F5D9032016E13C4BEB
:101BB0000022C3F8802E00F05DFE0546374B5B6FB8
:101BC00013F0020F06D000F055FE401B0228F5D995
:101BD000032003E1236813F0040F77D02F4B1B6C15
:101BE00013F0805F33D1002301932C4B1A6C42F029
:101BF00080521A641B6C03F080530193019B0125F2
:101C0000284B1B6813F4807F23D0A368012B34D0AA
:101C1000052B38D0214B1A6F22F001021A671A6F78
:101C200022F004021A67A368002B3DD000F022FEC8
:101C300006461A4B1B6F13F0020F46D100F01AFE36
:101C4000801B41F288339842F3D90320C6E0002577
:101C5000D6E7144A136843F48073136000F00AFE59
:101C60000646104B1B6813F4807FCED100F002FEB5
:101C7000801B0228F5D90320B0E0084A136F43F017
:101C800001031367CFE7054B1A6F42F004021A678E
:101C90001A6F42F001021A67C5E700BF0038024020
:101CA000000047420070004000F0E4FD0646524B41
:101CB0001B6F13F0020F08D000F0DCFD801B41F217
:101CC00088339842F3D9032088E0EDB9A369002B4B
:101CD00000F08380484A926802F00C02082A51D032
:101CE000022B17D0454B00221A6600F0C3FD0446B4
:101CF000414B1B6813F0007F42D000F0BBFD001B7E
:101D00000228F5D9032069E03B4A136C23F0805385
:101D10001364DBE7394B00221A6600F0ABFD054681
:101D2000354B1B6813F0007F06D000F0A3FD401B6D
:101D30000228F5D9032051E0E369226A1343626A5D
:101D400043EA8213A26A5208013A43EA0243E26A72
:101D500043EA0263284A5360284B01221A6600F0C6
:101D600089FD0446244B1B6813F0007F06D100F068
:101D700081FD001B0228F5D903202FE000202DE073
:101D800000202BE0012B2BD01B4B5B6803F4800160
:101D9000E269914226D103F03F02216A8A4223D1AF
:101DA000616A47F6C0721A40B2EB811F1ED103F47C
:101DB0004031A26A5208013AB1EB024F18D103F048
:101DC0007063E26AB3EB026F14D1002006E00120D9
:101DD0007047012002E0012000E0002002B070BD49
:101DE0000120FBE70120F9E70120F7E70120F5E7F3
:101DF0000120F3E70120F1E70038024000004742EC
:101E000008B5264B9B6803F00C03042B41D0082B2C
:101E100041D1224B5A6802F03F025B6813F4800FF5
:101E200012D01E4B5968C1F388111D480023A1FB35
:101E30000001FEF701FF194B5B68C3F30143013357
:101E40005B00B0FBF3F008BD144B5868C0F388107A
:101E50004FEA401CBCEB000C6EEB0E0E4FEA8E13EB
:101E600043EA9C634FEA8C11B1EB0C0163EB0E0368
:101E7000DB0043EA5173C90011EB000C43F100038E
:101E8000990200234FEA8C2041EA9C51FEF7D4FED0
:101E9000D1E70348D7E70348D5E700BF0038024041
:101EA00040787D010024F400002800F09B8070B58C
:101EB0000D4604464F4B1B6803F007038B4208D2C4
:101EC000CBB24C4A1370136803F007038B4240F007
:101ED0008B80236813F0020F17D013F0040F04D087
:101EE000454A936843F4E0539360236813F0080F66
:101EF00004D0414A936843F4604393603E4A936838
:101F000023F0F003A1680B439360236813F0010FE3
:101F100032D06368012B21D09A1E012A25D9364A76
:101F2000126812F0020F61D033498A6822F003026E
:101F300013438B6000F09EFC06462F4B9B6803F01A
:101F40000C036268B3EB820F16D000F093FC801B89
:101F500041F288339842F0D9032042E0264A1268C1
:101F600012F4003FE0D101203BE0234A126812F056
:101F7000007FD9D1012034E01E4B1B6803F007031A
:101F8000AB4207D9EAB21B4B1A701B6803F0070378
:101F9000AB422DD1236813F0040F06D0164A936884
:101FA00023F4E053E1680B439360236813F0080FB8
:101FB00007D0114A936823F46043216943EAC103BF
:101FC0009360FFF71DFF0C4B9B68C3F303130B4A91
:101FD000D35CD8400A4B18600A4B1868FFF732F8F8
:101FE000002070BD012070470120FAE70120F8E7CA
:101FF0000120F6E7003C024000380240685C01081E
:102000000800002004000020014B1868704700BF42
:102010000800002008B5FFF7F7FF044B9B68C3F3E7
:102020008223034AD35CD84008BD00BF0038024079
:10203000605C010808B5FFF7E7FF044B9B68C3F33A
:102040004233034AD35CD84008BD00BF0038024089
:10205000605C01080F2303600B4B9A6802F00302D7
:1020600042609A6802F0F00282609A6802F4E052DC
:10207000C2609B68DB0803F4E0530361034B1B68F9
:1020800003F007030B60704700380240003C024039
:1020900000230F2B00F2E98070B582B065E08568FF
:1020A0004FEA430E032404FA0EF425EA0405CC6833
:1020B00004FA0EF42C438460446824EA02044A685B
:1020C000C2F300129A40224342605CE0DC0808340C
:1020D00050F8242003F00705AD004FF00F0E0EFA64
:1020E00005FE22EA0E0E0A69AA4042EA0E0240F8F4
:1020F00024205CE0072200E0002202FA0EF22A43CC
:1021000002345A4D45F82420594A94686FEA0C026B
:1021100024EA0C054E6816F4801F01D04CEA040531
:10212000534CA560E46802EA04054E6816F4001FEB
:1021300001D04CEA04054E4CE560646802EA0405EF
:102140004E6816F4003F01D04CEA0405484C656027
:10215000246822404D6815F4803F01D04CEA040207
:10216000434C226001330F2B7DD801229A400C682A
:1021700004EA020C32EA0404F4D14C6804F00304CB
:10218000013C012C8BD94A6802F00302032A09D0D2
:10219000C4685D000322AA4024EA02048A68AA40B7
:1021A0002243C2604A6802F00302022A8ED0046809
:1021B0004FEA430E032202FA0EF224EA02044A68AE
:1021C00002F0030202FA0EF2224302604A6812F49D
:1021D000403FC7D000220192264A546C44F4804408
:1021E0005464526C02F480420192019A9C08A51C2E
:1021F0001E4A52F8255003F0030E4FEA8E0E0F22AE
:1022000002FA0EF225EA02051B4A90423FF474AF2F
:1022100002F5806290421AD002F58062904218D096
:1022200002F58062904216D002F58062904214D08E
:1022300002F58062904212D002F58062904210D086
:1022400002F5806290423FF455AF082255E7012223
:1022500053E7022251E703224FE704224DE705220C
:102260004BE7062249E702B070BD704700380140D5
:10227000003C014000380240000002400AB1816188
:102280007047090481617047436901EA030221EA4A
:10229000030141EA02418161704730B405682C684E
:1022A00024F480242C60046863608368402B05D08C
:1022B000036899600368DA6030BC704703689A600D
:1022C0000368D960F8E7000010B40368D9B2103988
:1022D0000A4AA2FB01421209094CA25CC2655F29AD
:1022E00007D96FF3090304338365806D5DF8044BF0
:1022F00070476FF309038365F7E700BFABAAAAAA8B
:10230000585C0108836A826992B9012B0AD0022BBA
:1023100002D00BB100207047C36A13F0807F28D130
:1023200000207047C36AB3F1C07F24D000207047FB
:10233000B2F5005F09D0022B25D9032B25D1C36A42
:1023400013F0807F23D100207047032B03D8DFE8F0
:1023500003F01404140A00207047C36A13F0807F4E
:102360000DD100207047C36AB3F1C07F09D00020AF
:1023700070470120704701207047012070470120FD
:1023800070470120704701207047002070470120EE
:102390007047000070B5044600F06CFA002C5BD06A
:1023A0000546022384F83530002384F8343022684F
:1023B000136823F00103136023681A6812F0010FF9
:1023C0000AD000F057FA431B052BF5D9202363658B
:1023D000032084F8350070BD1A68204911406268F6
:1023E000A0680243E0680243206902436069024337
:1023F000A0690243E0690243206A02430A43616A1A
:1024000004291ED01A602668756925F00705636ADD
:102410001D43042B07D1A36A1D43E36A1BB1204669
:10242000FFF770FF90B975612046FFF74DFFE26D31
:102430003F239340836000206065012384F835309A
:10244000C9E7E16A206B01430A43DBE74023636588
:10245000012084F83500BEE70120BCE73F8010F082
:1024600038B50446856D90F8340001282BD0012042
:1024700084F8340094F83500C0B2012804D0002359
:1024800084F83430022038BD022084F83500002062
:1024900060652046FFF701FFE26D3F239340AB608C
:1024A0002268136843F016031360236C23B122687B
:1024B000136843F0080313602268136843F00103B4
:1024C00013600020DFE70220DDE770B50446866D6B
:1024D00000F0D0F994F83530DBB2022B06D080231F
:1024E0006365002384F83430012070BD05462268FE
:1024F000136823F0160313602268536923F08003E6
:102500005361236CE3B12268136823F0080313605E
:102510002268136823F00103136023681B6813F01B
:10252000010F11D000F0A6F9431B052BF5D920238C
:102530006365032084F83500002384F83430D4E741
:10254000A36C002BDFD1E3E7E26D3F239340B36040
:10255000012384F83530002084F83400C5E790F872
:102560003530DBB2022B03D0802343650120704756
:10257000052380F835300268136823F001031360E7
:1025800000207047F0B583B0044600230193724BDE
:102590001D68724BA3FB0535AD0A876D3E68C26DA1
:1025A00008239340334210D003681A6812F0040FD6
:1025B0000BD01A6822F004021A60C26D08239340FF
:1025C000BB60436D43F001034365E26D012393401B
:1025D000334209D02268526912F0800F04D0BB60E8
:1025E000636D43F002036365E26D0423934033425D
:1025F00009D02268126812F0020F04D0BB60636D2C
:1026000043F004036365E26D10239340334224D00A
:102610002268126812F0080F1FD0BB6023681A6886
:1026200012F4802F0DD01B6813F4002F04D1236CFB
:102630009BB12046984710E0A36C73B120469847A1
:102640000BE01A6812F4807F03D11A6822F00802A6
:102650001A60236C0BB120469847E26D202393400B
:10266000334255D02268126812F0100F50D0BB6070
:1026700094F83530DBB2052B0ED023681A6812F4BB
:10268000802F33D01B6813F4002F2AD1636C002BEA
:102690003ED0204698473BE02268136823F016039B
:1026A00013602268536923F080035361236CA3B144
:1026B0002268136823F008031360E26D3F23934000
:1026C000BB60012384F83530002384F83430236D57
:1026D000002B3FD0204698473CE0A36C002BE7D16D
:1026E000EBE7E36BA3B12046984711E01A6812F4B8
:1026F000807F09D11A6822F010021A60012384F841
:102700003530002384F83430E36B0BB12046984712
:10271000636DFBB1636D13F0010F17D0052384F8CF
:1027200035302268136823F001031360019B0133E5
:102730000193AB4204D823681B6813F0010FF5D155
:10274000012384F83530002384F83430E36C0BB176
:102750002046984703B0F0BD08000020B5814E1B0D
:10276000002808DB0901C9B200F1604000F56140B2
:1027700080F80013704700F00F000901C9B2014B47
:102780001954704714ED00E000B500F00700C0F1E7
:10279000070CBCF1040F28BF4FF0040C031D062BDF
:1027A0000FD9C31E4FF0FF3E0EFA0CF021EA0001D4
:1027B00099400EFA03FE22EA0E0241EA02005DF899
:1027C00004FB0023EEE70000074AD36823F4E0632C
:1027D0001B041B0C000200F4E060034343F0BF63E2
:1027E00043F40033D360704700ED00E010B50446B9
:1027F000054BD868C0F30220FFF7C6FF014620460C
:10280000FFF7AEFF10BD00BF00ED00E0002807DBC2
:1028100000F01F02400901239340024A42F8203091
:10282000704700BF00E100E008B50B4B1A6842F4A6
:1028300000721A601A6842F480621A601A6842F4E0
:1028400080721A600320FFF7BFFF0F20FEF7FAFB2C
:10285000FEF7D6FB002008BD003C0240034A116889
:10286000034B1B780B441360704700BFA40100208A
:1028700000000020014B1868704700BFA401002031
:10288000034AD2F8883043F47003C2F888307047A6
:1028900000ED00E0000000002DE9F04190B0544B45
:1028A0000193544B0093544B544A5549012007F06F
:1028B000C7F90BA807F0F6F8524B0B93524B0C9349
:1028C000524B0D93524B0E930BA807F0F9F80028CA
:1028D0005AD0504F02A807F011F9BE460DF1080C6E
:1028E000BCE80F00AEE80F00DCF80030CEF8003096
:1028F000494E3B4600221146304606F0DDFF474D6B
:102900003346474A4749284607F020F807F0C4FEF7
:102910000246454B2946454807F054F80024444BED
:102920001C6007F0B9FE0246424B29460AA807F090
:1029300049F807F0B1FE02463F4B29463F4807F0F1
:1029400041F807F0A9FE0246DFF81C813C4B2946FE
:10295000404607F06BF83B4D3B4605223146284682
:1029600006F0E2FC0094384B384A4146284606F00F
:102970004BFD00942346364A3649284606F044FD6E
:102980000994354B1C6019E0D321344804F054FD00
:102990009FE74FF4A671324804F04EFD15E040F277
:1029A0005711304804F048FD4FF47A7001F066FC8E
:1029B0000DA3D3E90023234806F046FF00221C495B
:1029C0001A4806F023F90028E3D1194A13680133A5
:1029D0001360099B09330993002209A90AA806F08C
:1029E00015F90028DBD1DFE700CA9A3B00000000A0
:1029F00025730008E7720008D9720008C172000848
:102A000084EB00205D7100087D7100089D71000855
:102A1000DD71000820A0002034A0002018A00020B4
:102A2000FC5D0108A05C0108AC5C01086CA0002002
:102A300068A00020C05C0108CC5C010830EF0020D9
:102A4000E05C0108909F00204D2B0008889F00202B
:102A5000689F0020849F00202CEF0020785C0108F4
:102A6000F05C01080C5D01088C9F00200000000054
:102A700008B5314C00212046FEF7FCFE042120461B
:102A8000FEF7F8FE08212046FEF7F4FE0C21204652
:102A9000FEF7F0FE294B64225A634FF4C8729A6322
:102AA0004FF41672DA634FF448721A649FED183BC4
:102AB0009FED192B9FED1A1B9FED1B0B204803F078
:102AC0007FFF4FF4FA6001F0D9FB1E4B93ED000B32
:102AD000022003F07DFE1A4C9FED0D3B9FED0E2B67
:102AE0009FED0F1B9FED100B204603F069FF164B67
:102AF0001868FDF7EFFC9FED0E0B41EC120BB0EEEA
:102B0000401AF0EE601A204604F03EF9D9E700BF03
:102B10000000000000005E400000000000C05D40BA
:102B200000000000000075400000000000006D4043
:102B3000000000000000000024ED0020000800401C
:102B4000B001002060020020A801002010B504465A
:102B50000268064B1A604FF400510548FFF794FBDA
:102B600000222146034806F051F810BD2CEF00204A
:102B70000008024030EF002008B5074A002107484E
:102B800001F01EFB064B1860064A0021064801F0C2
:102B900017FB064B186008BD3C6401089928000823
:102BA000649F002018640108712A0008A4310020E5
:102BB00000F1080343604FF0FF328260C36003619D
:102BC00000230360704700230361704743684B6034
:102BD0009A688A60516099600861036801330360F4
:102BE000704730B40D68B5F1FF3F11D000F1080314
:102BF0001C465B681A68AA42FAD963684B60996000
:102C00008C606160086103680133036030BC704709
:102C10000469F2E70369416882688A60416851602B
:102C20005A68824206D0002202611A68013A1A608C
:102C30001868704782685A60F5E710B5044601F0DD
:102C4000D1FCA26BE36B9A4204D0002401F0ECFCAF
:102C5000204610BD0124F9E710B5044601F0C2FC7E
:102C6000A36B23B9012401F0DFFC204610BD002432
:102C7000F9E770B504461546866B026C5AB90368CD
:102C80001BB100200136A66370BD806800F0ECFF28
:102C90000023A360F6E76DB9406804F0EDFF6368B8
:102CA000226C13446360A268934219D32368636063
:102CB0002846E7E7C06804F0DFFFE368226C514272
:102CC0009B1AE3602268934202D2A3680B44E3603C
:102CD000022D01D00020D5E726B1013E0020D1E72A
:102CE0002846CFE70020CDE70346026C6AB110B555
:102CF0000846D9681144D9609C68A14201D319687B
:102D0000D960D96804F0B8FF10BD704738B50546E2
:102D100001F068FC95F8454064B201E0013C64B202
:102D2000002C0ADD6B6A43B105F1240000F0D6FEE9
:102D30000028F3D000F082FFF0E7FF2385F845304C
:102D400001F072FC01F04EFC95F8444064B201E0E1
:102D5000013C64B2002C0ADD2B6943B105F110007F
:102D600000F0BCFE0028F3D000F068FFF0E7FF237E
:102D700085F8443001F058FC38BD38B5E0B10D4657
:102D8000044601F02FFC2368E26B216C01FB02304A
:102D9000A0600020A0636360013A02FB0133E3609E
:102DA000FF2384F8443084F84530FDB9236963B9C2
:102DB00001F03AFC012038BD4FF0500383F3118835
:102DC000BFF36F8FBFF34F8FFEE704F1100000F0E9
:102DD00085FE0028ECD04FF0E0234FF08052C3F87E
:102DE000042DBFF34F8FBFF36F8FE1E704F11000A5
:102DF000FFF7DEFE04F12400FFF7DAFED8E738B56E
:102E00001D46049C0B4649B92460E06323640121FC
:102E10002046FFF7B2FF84F84C5038BD2260F4E73B
:102E200040B94FF0500383F31188BFF36F8FBFF3A6
:102E30004F8FFEE710B584B01C46844653B192B163
:102E400089B94FF0500383F31188BFF36F8FBFF33D
:102E50004F8FFEE74FF0500383F31188BFF36F8F5E
:102E6000BFF34F8FFEE76AB150230393039B502BB0
:102E700013D04FF0500383F31188BFF36F8FBFF36C
:102E80004F8FFEE70029EFD04FF0500383F31188F6
:102E9000BFF36F8FBFF34F8FFEE7039B012384F8CF
:102EA000463000949DF818306046FFF7A8FF204692
:102EB00004B010BDF0B585B0019288B10F461D4633
:102EC0000446B1B1022D20D1E36B012B1DD04FF090
:102ED000500383F31188BFF36F8FBFF34F8FFEE76B
:102EE0004FF0500383F31188BFF36F8FBFF34F8F01
:102EF000FEE7036C002BE5D04FF0500383F31188FD
:102F0000BFF36F8FBFF34F8FFEE700F09DFE0646C5
:102F100058B9019B002B48D04FF0500383F3118820
:102F2000BFF36F8FBFF34F8FFEE700263DE02A46C9
:102F300039462046FFF79DFE636A7BB948B14FF0E2
:102F4000E0234FF08052C3F8042DBFF34F8FBFF33F
:102F50006F8F01F069FB012005B0F0BD04F1240082
:102F600000F0BCFD0028F4D04FF0E0234FF0805279
:102F7000C3F8042DBFF34F8FBFF36F8FE9E701F064
:102F800053FB0020E8E702A800F00AFE012619E042
:102F9000002384F8443021E0002384F8453023E006
:102FA0002046FFF7B3FE00F077FC01F01BFBA26B9D
:102FB000E36B9A42BBD3022DB9D0019B002BDED02C
:102FC000002EE0D001F030FB00F0CCFB01F00AFB5A
:102FD00094F8442052B2B2F1FF3FD9D094F8452082
:102FE00052B2B2F1FF3FD7D001F01EFB01A902A8F7
:102FF00000F0E2FDD8B92046FFF71FFE0028CFD031
:10300000019904F1100000F035FD2046FFF77EFE27
:1030100000F042FC0028C8D14FF0E0234FF080526E
:10302000C3F8042DBFF34F8FBFF36F8FBDE720466A
:10303000FFF76CFE00F030FC00208DE72DE9F8432F
:1030400090B10F4616461C460546B1B1022C20D160
:10305000EB6B012B1DD04FF0500383F31188BFF3AE
:103060006F8FBFF34F8FFEE74FF0500383F311884C
:10307000BFF36F8FBFF34F8FFEE7036C002BE5D0DC
:103080004FF0500383F31188BFF36F8FBFF34F8F5F
:10309000FEE701F0CDFBEFF311884FF0500383F30F
:1030A0001188BFF36F8FBFF34F8FAA6BEB6B9A4200
:1030B00006D3022C04D0002088F31188BDE8F883E1
:1030C00095F845904FFA89F9AB6B22463946284668
:1030D000FFF7CFFDB9F1FF3F06D009F101035BB265
:1030E00085F845300120E7E76B6A0BB90120E3E77B
:1030F00005F1240000F0F2FC18B126B10120306087
:10310000DAE70120D8E70120D6E7F0B585B00192D3
:1031100090B10F460446C1B100F096FD064600BBD3
:10312000019B002B5ED04FF0500383F31188BFF357
:103130006F8FBFF34F8FFEE74FF0500383F311887B
:10314000BFF36F8FBFF34F8FFEE7036C002BE3D00D
:103150004FF0500383F31188BFF36F8FBFF34F8F8E
:10316000FEE700263EE039462046FFF7BDFD013D63
:10317000A563236923B901F057FA012005B0F0BD1A
:1031800004F1100000F0AAFC0028F4D04FF0E02376
:103190004FF08052C3F8042DBFF34F8FBFF36F8FF2
:1031A000E9E701F041FA0020E8E702A800F0F8FCA6
:1031B000012621E0002384F8443029E0002384F82C
:1031C00045302BE02046FFF7A1FD00F065FB09E04C
:1031D0002046FFF79BFD00F05FFB2046FFF73CFD1C
:1031E00000283FD101F0FEF9A56B002DBBD1019B5A
:1031F000002BD6D0002ED8D001F016FA00F0B2FA8B
:1032000001F0F0F994F844305BB2B3F1FF3FD1D054
:1032100094F845305BB2B3F1FF3FCFD001F004FA30
:1032200001A902A800F0C8FC0028D1D12046FFF770
:1032300013FD0028C6D0019904F1240000F01AFC07
:103240002046FFF763FD00F027FB0028CAD14FF0AE
:10325000E0234FF08052C3F8042DBFF34F8FBFF32C
:103260006F8FBFE7002089E70023072B0CD8074AA0
:1032700052F833200AB10133F7E7044A42F8331019
:1032800002EBC30250607047704700BF70A000207F
:1032900070B504460D46164601F0A4F994F8443082
:1032A0005BB2B3F1FF3F0DD094F845305BB2B3F1A0
:1032B000FF3F0BD001F0B8F9A36B5BB12046FFF7DD
:1032C00025FD70BD002384F84430EDE7002384F829
:1032D0004530EFE73246294604F1240000F0E2FBD6
:1032E000ECE70000084B1B681B6823B9074B4FF045
:1032F000FF321A607047044B1B68DB68DB685A6852
:10330000024B1A60704700BF20A10020B8A0002027
:103310002DE9F04780460D4617469946089EDDF890
:1033200024A00A9C9200A521206B04F0FDFD236BD4
:1033300007F18042013A03EB820727F00707A5B3A4
:103340004FF0000CBCF10F0F09D815F80C3004EB4E
:103350000C0282F8343013B10CF1010CF2E70023B7
:1033600084F84330372E00D93726E662E66400251C
:103370002565201DFFF727FC04F11800FFF723FC4B
:103380002461C6F13806A6616462656584F8585008
:103390004A464146384601F0F9F82060BAF1000F7C
:1033A00001D0CAF80040BDE8F087002384F834302B
:1033B000D8E7000038B5002407E004EB840293004E
:1033C0000E481844FFF7F4FB0134372CF5D90C4DA7
:1033D0002846FFF7EDFB0B4C2046FFF7E9FB0A48B8
:1033E000FFF7E6FB0948FFF7E3FB0948FFF7E0FBBF
:1033F000084B1D60084B1C6038BD00BF4CA100206D
:1034000038A1002024A1002008A10020F4A0002061
:10341000DCA0002020A100201CA1002010B5044643
:1034200001F0E0F8224A136801331360214B1B6856
:103430005BB1214B1B686BB91E4B1B68DA6AE36AF0
:103440009A4207D81B4B1C6004E01A4B1C6013689F
:10345000012B29D0194A1368013313606364E06AB1
:10346000174B1B68984201D9154B186000EB800080
:10347000211D144B03EB8000FFF7A8FB01F0D4F8EB
:103480000D4B1B687BB10B4B1B68DA6AE36A9A42EF
:1034900009D24FF0E0234FF08052C3F8042DBFF360
:1034A0004F8FBFF36F8F10BDFFF784FFD2E700BFD0
:1034B000D8A00020ACA50020CCA00020BCA00020FB
:1034C000D0A000204CA1002010B5044690F859303F
:1034D00063B1012B11D0022B0ED04FF0500383F3B8
:1034E0001188BFF36F8FBFF34F8FFEE7006B00F0C3
:1034F000D1FF204600F0CEFF10BD00F0CBFFFBE770
:103500000F4B1B68D3B110B501F06CF80D4BDB68A5
:10351000DC68201DFFF77EFB0B4A1368013B13603C
:10352000074A1368013B136001F07EF82046FFF75D
:10353000CBFF034B1B68002BE6D110BD704700BFCB
:10354000F0A00020F4A00020D8A0002008B5FFF7CC
:10355000D7FF074B1B68012BF9D94FF0E0234FF041
:103560008052C3F8042DBFF34F8FBFF36F8FEEE788
:103570004CA1002070B504460D46174B1E68174B32
:1035800018680430FFF746FBB4F1FF3F0DD0344418
:10359000124B1B685C60A64210D9114B18680F4B88
:1035A00019680431FFF71DFB70BD002DEFD00B4BE8
:1035B000196804310B48FFF709FBF5E70A4B186857
:1035C000064B19680431FFF70CFB084B1B68A3423C
:1035D000EAD9064B1C60E7E7D4A00020ACA5002088
:1035E0001CA10020DCA0002020A10020B8A0002009
:1035F00030B587B00B9C7CB10C9DB5B15C250495B2
:10360000049D5C2D1AD04FF0500383F31188BFF353
:103610006F8FBFF34F8FFEE74FF0500383F3118896
:10362000BFF36F8FBFF34F8FFEE74FF0500383F36D
:103630001188BFF36F8FBFF34F8FFEE7049D0C9D82
:103640002C63022485F8594000240394029505ACAC
:1036500001940A9C0094FFF75BFE0C98FFF7DEFED6
:10366000059807B030BD2DE9F04385B00746884680
:1036700014461E46900000F08BFE08B381465C2085
:1036800000F086FE0546A8B1C0F83090002380F80F
:103690005930039302900D9B01930C9B009333468A
:1036A000224641463846FFF733FE2846FFF7B6FE6E
:1036B000012007E0484600F0EDFE4FF0FF3001E04A
:1036C0004FF0FF3005B0BDE8F083000010B588B0C2
:1036D00000240594069407AA06A905A800F0DCFDBD
:1036E000059B0293069B019300942346079A174972
:1036F0001748FFF77DFF174B1860C0B100F068FB5B
:10370000012815D14FF0500383F31188BFF36F8F59
:10371000BFF34F8F104B4FF0FF321A600F4B012257
:103720001A600F4B00221A6000F0F6FF03E0002041
:10373000B0F1FF3F01D008B010BD4FF0500383F34C
:103740001188BFF36F8FBFF34F8FFEE74C5D010809
:103750004D350008B4A00020B8A00020CCA0002067
:10376000D4A00020024A136801331360704700BFE1
:10377000B0A00020014B1868704700BFD4A0002003
:10378000F8B53A4B1B68002B69D1394B1D680135E0
:103790001D60C5B9374B1B681B6843B14FF0500320
:1037A00083F31188BFF36F8FBFF34F8FFEE7314A6A
:1037B0001168314B186810601960304A1368013382
:1037C0001360FFF78FFD2E4B1B68AB423DD90027DE
:1037D0002C4B1B68DB6A03EB83039A002A4B9B5834
:1037E000012B00D90127294B1B68002B3CD0012756
:1037F0003AE001271F4B1B681B6843B31D4B1B6836
:10380000DB68DC6863689D4226D3261D3046FFF7DF
:1038100001FAA36A1BB104F11800FFF7FBF9E36A90
:103820001B4A1268934201D9194A136003EB8303C0
:103830009A00314614481044FFF7C8F9E26A114B68
:103840001B68DB6A9A42D4D2D4E70027D2E70C4B3C
:103850004FF0FF321A60BBE7094A1360B8E70D4A20
:1038600013680133136000273846F8BDB0A000206C
:10387000D4A0002020A100201CA10020C0A0002076
:10388000B8A00020ACA500204CA10020C4A00020BE
:10389000D0A00020C8A0002038B5354B1B6843B924
:1038A0004FF0500383F31188BFF36F8FBFF34F8F37
:1038B000FEE700F097FE2E4B1A68013A1A601B686B
:1038C000002B4FD12B4B1B680BB900244BE000247D
:1038D000294B1B681BB3284BDB68DC6804F118001C
:1038E000FFF798F9251D2846FFF794F9E06A234B66
:1038F0001B68984201D9214B186000EB80002946D3
:103900001F4B03EB8000FFF761F9E26A1D4B1B6858
:10391000DB6A9A42DCD31C4B01221A60D8E70CB157
:10392000FFF7E0FC194B1C6884B9174B1C68D4B135
:103930004FF0E0234FF08052C3F8042DBFF34F8FB8
:10394000BFF36F8F01240EE0013C07D0FFF718FF93
:103950000028F9D00C4B01221A60F5E70B4B00222E
:103960001A60E2E7002400F05FFE204638BD00BF89
:10397000B0A00020D8A0002008A10020D0A00020E6
:103980004CA10020ACA50020C4A00020C8A00020AD
:1039900010B5A8B10446104B1B6843B14FF050035B
:1039A00083F31188BFF36F8FBFF34F8FFEE7FFF7ED
:1039B000D9FE00212046FFF7DDFDFFF76DFF48B976
:1039C0004FF0E0234FF08052C3F8042DBFF34F8F28
:1039D000BFF36F8F10BD00BFB0A00020204B1B684D
:1039E0001BB1204B01221A6070471E4B00221A6047
:1039F0001D4B1B6803EB83018A001C498A585AB986
:103A00000BB1013BF6E74FF0500383F31188BFF38E
:103A10006F8FBFF34F8FFEE7084603EB83018A00E9
:103A2000024451684968516003EB830C4FEA8C02F1
:103A30000832024491420BD003EB830291000B4AFF
:103A40000A445268D1680A4A1160074A13607047F5
:103A5000486862469100054A0A445060ECE700BF9E
:103A6000B0A00020C4A00020D0A000204CA10020C5
:103A7000ACA5002058B110B50C46094A11681831A0
:103A8000FFF7AFF801212046FFF774FD10BD4FF09E
:103A9000500383F31188BFF36F8FBFF34F8FFEE79F
:103AA000ACA5002038B570B10D4614460A4A11681D
:103AB0001831FFF78BF80CB14FF0FF35214628463F
:103AC000FFF758FD38BD4FF0500383F31188BFF363
:103AD0006F8FBFF34F8FFEE7ACA5002038B5C368EA
:103AE000DC6824B304F118052846FFF793F8184B57
:103AF0001B682BBB251D2846FFF78CF8E06A154B89
:103B00001B68984201D9134B186000EB80002946CE
:103B1000114B03EB8000FFF759F8E26A0F4B1B686B
:103B2000DB6A9A4211D901200D4B186038BD4FF065
:103B3000500383F31188BFF36F8FBFF34F8FFEE7FE
:103B400029460848FFF742F8E7E70020EEE700BF04
:103B5000B0A00020D0A000204CA10020ACA50020E7
:103B6000C4A0002008A1002060B110B5044600F0F8
:103B700039FD094B1B682360084B1B68636000F02C
:103B800053FD10BD4FF0500383F31188BFF36F8FC7
:103B9000BFF34F8FFEE700BFC0A00020D4A00020DD
:103BA000034B1B680360034B1B684360704700BFF7
:103BB000C0A00020D4A00020F8B5C8B10C4605462E
:103BC000F9B100F00FFD1B4B19686B68C81A226829
:103BD000B2F1FF3F26D0184E36682F68B74201D0A9
:103BE0008B4224D9824215D80023236001241AE095
:103BF0004FF0500383F31188BFF36F8FBFF34F8FE4
:103C0000FEE74FF0500383F31188BFF36F8FBFF3CC
:103C10004F8FFEE75B1A134423602846FFF7C0FF6F
:103C2000002400E0002400F0FFFC2046F8BD012441
:103C3000F9E700BFD4A00020C0A00020014B012262
:103C40001A607047C4A00020054B1B6833B1054BB8
:103C50001B680BB10020704702207047012070479D
:103C6000CCA00020B0A0002000283BD038B50446EE
:103C70001E4B1B68834208D04FF0500383F311881A
:103C8000BFF36F8FBFF34F8FFEE7036D43B94FF064
:103C9000500383F31188BFF36F8FBFF34F8FFEE79D
:103CA000013B0365C16AC26C91421DD00BB100207B
:103CB00038BD051D2846FEF7ADFFE06CE062C0F19F
:103CC0003803A3610A4B1B68984201D9084B18605E
:103CD00000EB80002946074B03EB8000FEF776FFE0
:103CE0000120E5E7002070470020E1E7ACA50020B7
:103CF000D0A000204CA10020064B1A6813682BB9F5
:103D00000123036023B9D368186870470023F8E7DC
:103D100000207047B0A6002008B5416000619142C4
:103D20000CD8D21A83699A4201D3012008BD011D23
:103D3000094B1868FEF755FF0020F7E79A4201D2B9
:103D4000994206D2011D054B1868FEF74AFF002074
:103D5000ECE70120EAE700BFACA60020B0A60020F7
:103D600030B583B000F03EFC114B1B681BB100F076
:103D70005BFC03B030BD0F4D2846FEF719FF0E4C1B
:103D80002046FEF715FF0D4B1D600D4B1C600023F8
:103D900000930C4B0C4A10210A20FFF741F8044B0A
:103DA00018600028E3D00949FFF75EFADFE700BF9B
:103DB000A8A60020C8A60020B4A60020B0A6002017
:103DC000ACA60020B0A5002000A60020545D01088C
:103DD00010B588B0FFF7C4FF124B1B68CBB10024AD
:103DE0000594069407AA06A905A800F061FA059BA8
:103DF0000293069B0193022300932346079A0A49E4
:103E00000A48FFF7F5FB0A4B186010B1012008B013
:103E100010BD4FF0500383F31188BFF36F8FBFF3D2
:103E20004F8FFEE7A8A600205C5D01083541000821
:103E3000A4A60020B8B19C4603461848006858B3B1
:103E400000B585B000910192029305291CDCFFF7B3
:103E5000FBFE022810D000231A4669460F4800686E
:103E6000FFF728F815E04FF0500383F31188BFF3F4
:103E70006F8FBFF34F8FFEE70023069A694607480E
:103E80000068FFF717F804E0002362466946FFF771
:103E9000D5F805B05DF804FB00207047A8A6002007
:103EA00070B582B01B4B1B681A6862B3DB681E6872
:103EB000DC68251D2846FEF7ADFE236A204698479C
:103EC00094F8283013F0040FECD0A36933449E42D9
:103ED00007D26360246129460E4B1868FEF781FE05
:103EE000E0E7002100910B4632462046FFF7A2FF93
:103EF0000028D7D14FF0500383F31188BFF36F8FA1
:103F0000BFF34F8FFEE7044A106802490860136050
:103F100002B070BDB0A60020ACA6002038B50546A2
:103F2000FFF728FC0446074B1B68834205D8002393
:103F30002B60044B1C60204638BDFFF7B1FF012306
:103F40002B60F6E7A0A6002070B582B006460D46AD
:103F500017490968C968CC68201DFEF75BFE94F814
:103F600028C01CF0040F08D12CF0010C84F828C0E4
:103F7000236A2046984702B070BDA16933462A469D
:103F800031442046FFF7C8FE0028F1D000210091FF
:103F90000B4632462046FFF74DFF0028E8D14FF090
:103FA000500383F31188BFF36F8FBFF34F8FFEE78A
:103FB000B0A6002070B582B006460C46FFF7D2FBD3
:103FC00001A8FFF7ABFF019B33BB0546E4B9B04244
:103FD00013D22246711B124B1868FFF759F9FFF7ED
:103FE0005BFCD8B94FF0E0234FF08052C3F8042DAA
:103FF000BFF34F8FBFF36F8F10E0FFF74DFC2946E3
:104000003046FFF7A1FF09E0064A126812680AB9B4
:104010000124DEE71C46DCE7FFF73EFC02B070BD82
:10402000A8A60020ACA6002010B588B002E0049B32
:10403000002B0FDA002204A93D4B1868FFF765F842
:10404000002873D0049B002BF1DA07990698059B92
:104050009847ECE7069C636913B1201DFEF7DAFD73
:1040600003A8FFF75BFF049B092BE3D8DFE803F00D
:104070000505053037500505303794F8283043F0F2
:10408000010384F82830059BA169024619442046A3
:10409000FFF742FE0028CDD0236A2046984794F8C7
:1040A000283013F0040FC5D0A269002100910B46FF
:1040B000059802442046FFF7BDFE0028BAD14FF014
:1040C000500383F31188BFF36F8FBFF34F8FFEE769
:1040D00094F8283023F0010384F82830AAE794F8F4
:1040E000283043F0010384F828300599A16131B1EB
:1040F0000346024601442046FFF70EFE9AE74FF0C2
:10410000500383F31188BFF36F8FBFF34F8FFEE728
:1041100094F8283013F0020F04D023F0010384F840
:10412000283087E7204600F0B5F983E708B010BDD6
:10413000A8A6002000B583B001A8FFF7DDFD019916
:10414000FFF738FFFFF770FFF6E708B54FF0E02301
:104150001B69FFF779FD012800D108BD00F0B2FA14
:10416000FBE70000EFF305832BB9064B186828B96D
:1041700001221A6070476FF0050070474FF0FF3062
:10418000704700BF94AD0020EFF3058373B90A4B6D
:104190001B68012B0DD110B50024084BDC77064BB2
:1041A00002221A60FFF792FA204610BD6FF0050058
:1041B00070474FF0FF30704794AD002000ED00E0F5
:1041C000F0B587B000240594EFF3058474BB68B3A1
:1041D00022B31568936903B918235C1E372C49D89C
:1041E000546814F0010F47D156696EB14FEA960C2E
:1041F00094682CB1D7685B2F02D9176907B1C6B98B
:104200002CB14FF0FF340EE04FF0800CF0E7D46893
:104210008CB9146994B14FF0FF3404E015460024C2
:1042200018234FF0800C012C0AD0ACB1059807B0D0
:10423000F0BD0124F7E74FF0FF34F4E70024F2E784
:10424000146992680292019400930B4662462946D3
:10425000FFF7CEF90590E9E705AA019200930B4616
:104260001FFA8CF22946FFF7FEF90128DED0002361
:104270000593DBE70020DAE70020D8E708B5EFF385
:10428000058333B908B9002008BDFFF781FB002082
:10429000FAE76FF00500F7E7034B0360034B0B6091
:1042A00080231360704700BF38AD002038AB00207A
:1042B000034B0360034B0B604FF480731360704734
:1042C000DCAA0020DCA60020124A12F0070F1ED044
:1042D000D11D21F00701C1F5705313440A460E4861
:1042E0000260002141601344083B23F007030B48A0
:1042F000036059601960991A51601360084B196086
:10430000084B1960084B4FF000421A6070474FF499
:104310007053E4E7B8AD0020B0AD0020ACAD002094
:10432000A4AD0020A8AD002098AD0020164B1A4681
:104330001B688342FBD3516802EB010C844509D012
:10434000416800EB010C634509D00360904219D02D
:10435000106070474068014451601046F0E710B4A7
:104360000A4C2468A3420BD05B681944416013686F
:104370001B680360904200D010605DF8044B7047EA
:104380000460F7E7704700BFB0AD0020ACAD00207F
:1043900038B50446FFF7E6F9384B1B68B3B1384B24
:1043A0001B681C4250D1002C50D004F1080214F0BC
:1043B000070F02D022F007020832002A55D0314BF5
:1043C0001B68934253D330490C6804E0FFF77CFF2D
:1043D000E5E721461C466368934202D22368002B1E
:1043E000F7D1264B1B68A34243D00D6808352368DC
:1043F0000B6063689B1A102B10D9A01810F0070FE0
:1044000008D04FF0500383F31188BFF36F8FBFF3D1
:104410004F8FFEE743606260FFF788FF62681949CB
:104420000B689B1A0B60194909688B4201D2174926
:104430000B60134B1B681343636000232360144A13
:1044400013680133136002E0002500E00025FFF748
:1044500023FA15F0070F0ED04FF0500383F31188A5
:10446000BFF36F8FBFF34F8FFEE70025EFE7002507
:10447000EDE70025EBE7284638BD00BFACAD0020D6
:1044800098AD0020A8AD0020B0AD0020A4AD002064
:10449000A0AD0020002834D038B50446A0F10805AE
:1044A00050F8043C174A1268134208D14FF05003E9
:1044B00083F31188BFF36F8FBFF34F8FFEE750F880
:1044C000081C41B14FF0500383F31188BFF36F8F85
:1044D000BFF34F8FFEE723EA020340F8043CFFF7E7
:1044E00041F954F8041C084A13680B441360284629
:1044F000FFF71CFF054A136801331360FFF7CCF97F
:1045000038BD704798AD0020A8AD00209CAD0020BC
:1045100082B0002301930D4B1B68B3F1FF3F08D01D
:104520004FF0500383F31188BFF36F8FBFF34F8FAA
:10453000FEE74FF0500383F31188BFF36F8FBFF393
:104540004F8F019B002BFCD002B070470C00002065
:1045500008480068006880F308884FF0000080F386
:10456000148862B661B6BFF34F8FBFF36F8F00DF61
:1045700000BF000008ED00E0DFF80C00016841F426
:10458000700101607047000088ED00E04FF080731B
:1045900040F8043C21F0010140F8081C054B40F8AC
:1045A0000C3C40F8202C6FF0020340F8243C4438C7
:1045B000704700BF11450008000000000000000027
:1045C000074B19680868B0E8F04F80F30988BFF31B
:1045D0006F8F4FF0000080F311887047AFF30080B9
:1045E000ACA500204FF0500383F31188BFF36F8F09
:1045F000BFF34F8F0B4A136801331360012B00D0B8
:1046000070474FF0E023D3F8043D13F0FF0FF7D0CD
:104610004FF0500383F31188BFF36F8FBFF34F8FB9
:10462000FEE700BF0C000020094B1B6843B94FF0A8
:10463000500383F31188BFF36F8FBFF34F8FFEE7F3
:10464000013B034A13600BB983F31188704700BF25
:104650000C0000200000000000000000000000002E
:10466000EFF30980BFF36F8F154B1A681EF0100F20
:1046700008BF20ED108A20E9F04F10602DE90900F5
:104680004FF0500080F31188BFF34F8FBFF36F8F4F
:10469000FFF7A4F94FF0000080F3118809BC1968F6
:1046A0000868B0E8F04F1EF0100F08BFB0EC108A99
:1046B00080F30988BFF36F8F704700BFAFF30080AE
:1046C000ACA5002008B54FF0500383F31188BFF369
:1046D0006F8FBFF34F8FFFF753F828B14FF0E023F0
:1046E0004FF08052C3F8042D002383F3118808BDD6
:1046F0004FF0E022002313619361054B1B680549CD
:10470000A1FB03139B09013B53610723136170470E
:1047100008000020D34D62104FF0E023D3F8002DA5
:104720003D4B9A421CD04FF0E023D3F8002D3B4B79
:104730009A421ED030B583B0394B1A78D2B201926A
:10474000FF221A701B78DBB28DF803309DF803301E
:1047500003F05003334A1370334B07221A601BE0F7
:104760004FF0500383F31188BFF36F8FBFF34F8F68
:10477000FEE74FF0500383F31188BFF36F8FBFF351
:104780004F8FFEE7284A1368013B13609DF8033002
:104790005B00DBB28DF803309DF8033013F0800F1F
:1047A000F0D1214B1B68032B08D04FF0500383F34B
:1047B0001188BFF36F8FBFF34F8FFEE71B021A4ABA
:1047C000136003F4E0631360019BDBB2144A1370BF
:1047D0004FF0E024D4F8203D43F47003C4F8203DAA
:1047E000D4F8203D43F07043C4F8203DFFF780FF2C
:1047F00000250E4B1D60FFF7BFFED4F8343F43F099
:104800004043C4F8343FFFF7A3FEFFF7E7F8FFF794
:104810007FFE284603B030BD71C20F4170C20F4108
:1048200000E400E0BCE90020B8E900200C00002012
:10483000EFF305830F2B0FD9114A9B5CDBB2114AB2
:1048400012789A4208D94FF0500383F31188BFF3CE
:104850006F8FBFF34F8FFEE74FF0E023D3F80C3D8F
:1048600003F4E063084A1268934208D94FF05003FA
:1048700083F31188BFF36F8FBFF34F8FFEE770474D
:10488000F0E300E0BCE90020B8E9002010B582B0F8
:10489000002400941A4B1A6B42F400121A631A6B2C
:1048A00002F400120092009A01941A6B42F4800202
:1048B0001A631B6B03F480030193019B22460521BD
:1048C0001020FDF793FF1020FDF7A0FF22460521E1
:1048D0001120FDF78BFF1120FDF798FF22460521DF
:1048E0003A20FDF783FF3A20FDF790FF224605218D
:1048F0004620FDF77BFF4620FDF788FF02B010BD84
:104900000038024008B50A480A4B03604FF4E1330F
:10491000436000238360C36003610C2242618361B2
:10492000C36100F051FB00B908BDFCF703FAFBE7D7
:1049300050EC0020004C004008B50A480A4B0360C8
:104940004FF4E133436000238360C36003610C22B2
:1049500042618361C36100F037FB00B908BDFCF719
:10496000E9F9FBE70CEC00200050004008B50A48CC
:104970000A4B03604FF4E133436000238360C3605C
:1049800003610C2242618361C36100F01DFB00B929
:1049900008BDFCF7CFF9FBE7C8EB00200010014091
:1049A00008B50A480A4B03600A4B43600023836042
:1049B000C36003610C2242618361C36100F004FBA8
:1049C00000B908BDFCF7B6F9FBE700BF84EB002097
:1049D0000044004060E3160008B50A480A4B036033
:1049E0004FF4E133436000238360C36003610C2212
:1049F00042618361C36100F0E7FA00B908BDFCF7CA
:104A000099F9FBE740EB002000480040F0B593B077
:104A100000230D930E930F93109311930368754A1F
:104A2000934210D00446744A934244D0734A93424E
:104A300079D0734A934200F0F780724A934200F0B3
:104A4000588113B0F0BD002401946F4B1A6C42F4EE
:104A500000221A641A6C02F400220192019A029454
:104A60001A6B42F001021A631A6B02F00102029201
:104A7000029A03941A6B42F004021A631B6B03F050
:104A800004030393039B01230D9302270E97032630
:104A90001096082511950DA95C48FDF7F9FA4FF419
:104AA00000630D930E970F94109611950DA9584819
:104AB000FDF7EEFAC5E700240494534B1A6C42F458
:104AC00080121A641A6C02F480120492049A0594FB
:104AD0001A6B42F004021A631A6B02F00402059288
:104AE000059A06941A6B42F008021A631B6B03F0D6
:104AF00008030693069B4FF480530D9302270E97ED
:104B000003261096082511950DA94148FDF7C0FA16
:104B100004230D930E970F94109611950DA93D48FF
:104B2000FDF7B6FA8DE700250795374B5A6C42F032
:104B300010025A645A6C02F010020792079A089504
:104B40001A6B42F001021A631B6B03F00103089316
:104B5000089B4FF4C0630D9302230E93032310931D
:104B6000072311930DA92948FDF792FA2A482B4BE8
:104B700003604FF0006343608560C5604FF480635D
:104B80000361456185614FF48073C3614FF4403325
:104B900003624562FDF7FEFB28BB1F4BA3639C63CA
:104BA0001F48204B03604FF0006343604023836045
:104BB0000023C3604FF48062026143618361C3617B
:104BC0004FF4403202624362FDF7E4FB70B9144BCC
:104BD00063639C63002205212520FDF707FE252045
:104BE000FDF714FE2DE7FCF7A5F8D6E7FCF7A2F8D1
:104BF000EDE700BF004C00400050004000100140B5
:104C000000440040004800400038024000000240DC
:104C100000080240000C0240E0EA0020406402402C
:104C200080EA0020B864024000250995434B1A6CC5
:104C300042F400321A641A6C02F400320992099AA2
:104C40000A951A6B42F001021A631B6B03F0010311
:104C50000A930A9B0C230D9302230E9303231093B4
:104C6000072311930DA93648FDF712FA3548364B44
:104C700003604FF0006343608560C5604FF480635C
:104C80000361456185614FF48073C3614FF4403324
:104C900003624562FDF77EFB28BB2A4BA3639C633E
:104CA0002A482B4B03604FF000634360402383602E
:104CB0000023C3604FF48062026143618361C3617A
:104CC0004FF4403202624362FDF764FB70B91F4B40
:104CD00063639C63002205212620FDF787FD2620C3
:104CE000FDF794FDADE6FCF725F8D6E7FCF722F8D2
:104CF000EDE700210B91114B1A6C42F480221A64EB
:104D00001A6C02F480220B920B9A0C911A6B42F0EF
:104D100008021A631B6B03F008030C930C9B4FF4FF
:104D200040730D9302230E930323109307231193D3
:104D30000DA90848FDF7ACF983E600BF0038024032
:104D40000000024020EA002088600240C0E9002004
:104D5000A0600240000C0240026802F10C0353E81C
:104D6000003F23F0C0030C3242E800310029F3D1A8
:104D7000202380F83D307047026802F10C0353E8AD
:104D8000003F23F490730C3242E800310029F3D144
:104D9000026802F1140353E8003F23F001031432C8
:104DA00042E800310029F3D1036B012B05D0202309
:104DB00080F83E30002303637047026802F10C0361
:104DC00053E8003F23F010030C3242E80031002981
:104DD000F3D1ECE790F83D30DBB2212B01D002207B
:104DE00070478368B3F5805F17D0036A5A1C02626C
:104DF0001A7803685A60C38C9BB2013B9BB2C38490
:104E00004BB90268D36823F08003D3600268D3688B
:104E100043F04003D360002070470369002BE4D1C6
:104E2000036A1B880268C3F308035360036A0233F2
:104E30000362E0E710B504460268136923F44053A7
:104E4000C1680B431361836802691A4343691A43BB
:104E5000C3691A430168CB6823F4164323F00C039B
:104E60001343CB600268536923F4407381690B4399
:104E700053610368314A934206D002F5806293423F
:104E800002D0FDF7C7F801E0FDF7D4F8E369B3F508
:104E9000004F29D00021031849411B1841F100019E
:104EA000C90041EA5371DB00181863684FEA8302B6
:104EB0004FEA937341F10001FBF7BEFE204AA2FBCB
:104EC00000314909642303FB11031B013233A2FBA8
:104ED00003235B0903F0F00202EB011203F00F035E
:104EE000216813448B6010BD0023021843EB0301BB
:104EF000121841F10001C90041EA5271D2001018A4
:104F000041F10001626892185B41FBF795FE0C4A83
:104F1000A2FB00314909642303FB1103DB00323398
:104F2000A2FB03235B095A0002F4F87202EB0112A0
:104F300003F00703216813448B60D4E7001001409D
:104F40001F85EB512DE9F84305460F461646994655
:104F5000DDF820802B681C6837EA04040CBF0124AC
:104F60000024B4422DD1B8F1FF3FF3D0B8F1000FC7
:104F700005D0FDF77FFCA0EB09004045EAD92A687F
:104F800002F10C0353E8003F23F4D0730C3242E8E3
:104F900000310029F3D12A6802F1140353E8003FDD
:104FA00023F00103143242E800310029F3D1202319
:104FB00085F83D3085F83E30002385F83C300320ED
:104FC00000E00020BDE8F88358B310B5044690F81F
:104FD0003D300BB3242384F83D302268D36823F49A
:104FE0000053D3602046FFF725FF2268136923F49E
:104FF000904313612268536923F02A0353612268A6
:10500000D36843F40053D36000202064202384F845
:105010003D3084F83E3010BD80F83C30FFF7F6FCA0
:10502000D8E7012070472DE9F04182B01E4690F884
:105030003D30DBB2202B54D104460D46904600296A
:1050400053D0002A53D090F83C30012B51D001238B
:1050500080F83C3000230364212380F83D30FDF7C5
:1050600009FC0746A4F82480A4F82680A368B3F5B9
:10507000805F05D04FF00008002384F83C3012E038
:10508000236913B14FF00008F6E7A8460025F3E7BF
:1050900038F8023B2268C3F308035360E28C92B2F3
:1050A000013A92B2E284E38C9BB273B100963B4624
:1050B000002280212046FFF745FFE0B9002DE7D010
:1050C00015F8012B23685A60E8E700963B4600225A
:1050D00040212046FFF736FF78B9202384F83D3081
:1050E00000E0022002B0BDE8F0810120FAE70120D3
:1050F000F8E70220F6E70320F4E70320F2E70000D8
:1051000038B5134690F83D20D2B2202A37D1044654
:10511000002936D0002B36D090F83C20012A34D01C
:10512000012280F83C2001628384C3840025056449
:10513000212280F83D20426B1548D063626B1548F0
:105140001064626B1448D064626B15652268043287
:10515000606BFDF785F923686FF040021A6084F8F0
:105160003C50226802F1140353E8003F43F08003EF
:10517000143242E800310029F3D1002000E002207F
:1051800038BD0120FCE70120FAE70220F8E700BF64
:10519000235200088B5200089952000810B50446AB
:1051A00003685A6990F83D30DBB2212B0AD023689E
:1051B0005A6902F0400294F83E30DBB2222B19D03B
:1051C000002010BD02F08002002AF0D0226802F117
:1051D000140353E8003F23F08003143242E8003107
:1051E0000029F3D1606B08B1FDF76FF92046FFF796
:1051F000B3FDDCE7002AE3D0226802F1140353E890
:10520000003F23F04003143242E800310029F3D17B
:10521000A06B08B1FDF759F92046FFF7ADFDCFE7C8
:10522000704708B50346806B1B681B6813F4807FCA
:105230001AD10023C384026802F1140353E8003F2B
:1052400023F08003143242E800310029F3D10268D0
:1052500002F10C0353E8003F43F040030C3242E8F4
:1052600000310029F3D108BDFFF7DAFFFBE708B5ED
:105270000168CA6822F04002CA60202280F83D20FE
:10528000FFF7CEFF002008BD704708B5806BFFF721
:10529000FBFF08BD7047704710B5846B23685A69DF
:1052A00094F83D30DBB2212B10D023685A6902F00C
:1052B000400294F83E30DBB2222B11D0236C43F035
:1052C000100323642046FFF7E6FF10BD02F08002C2
:1052D000002AEAD00023E3842046FFF73DFDE4E7FF
:1052E000002AEBD00023E3852046FFF745FDE5E7E4
:1052F00008B5806B0023C385C384FFF7CCFF08BDCE
:10530000704790F83E30DBB2222B67D18368B3F54B
:10531000805F4DD0826AB3F5805F04D0002B54D1FA
:105320000369002B51D103685B681370836A0133F2
:105330008362C38D9BB2013B9BB2C385002B4FD1CF
:1053400000B583B00268D36823F02003D3600268FD
:10535000D36823F48073D3600268536923F0010398
:105360005361202380F83E30036B012B33D100239F
:105370000363026802F10C0353E8003F23F01003BB
:105380000C3242E800310029F3D103681A6812F0A8
:10539000100F06D0002201921A6801925B680193F7
:1053A000019B818DFFF7ACFF002003B05DF804FB8B
:1053B0000269002AAED1826A03685B68C3F30803FE
:1053C0001380836A02338362B3E703685B6803F088
:1053D0007F031370AAE701F0B7FAE5E702207047F0
:1053E0000020704710B582B0044602681368D06888
:1053F000516913F00F0F09D113F0200F0CD010F0EA
:10540000200F09D02046FFF77CFF16E011F00101C4
:1054100015D110F4907F12D1216B012979D013F0AE
:10542000800F03D010F0800F40F0108113F0400F78
:1054300003D010F0400F40F00D8102B010BD13F00A
:10544000010F06D010F4807F03D0226C42F00102DD
:10545000226413F0040F04D019B1226C42F002024E
:10546000226413F0020F04D019B1226C42F004023E
:10547000226413F0080F07D010F0200F00D119B1EB
:10548000226C42F008022264226C002AD5D013F06C
:10549000200F02D010F0200F29D123685B6903F0A0
:1054A0004003226C12F0080F00D163B32046FFF7CF
:1054B00063FC23685B6913F0400F20D0226802F17F
:1054C000140353E8003F23F04003143242E8003154
:1054D0000029F3D1A36B73B1604A1A65A06BFDF785
:1054E0003EF80028A9D0A06B036D9847A5E7204699
:1054F000FFF707FFD1E72046FFF7CDFE9DE72046E7
:10550000FFF7C9FE99E72046FFF7C5FE0023236495
:1055100093E713F0100F82D010F0100F3FF47FAF1D
:10552000002301931368019353680193019B53690E
:1055300013F0400F50D0A26B13685B689BB2002B36
:105540003FF47BAFA18D99427FF677AFE385D369B6
:10555000B3F5807F37D0226802F10C0353E8003F97
:1055600023F480730C3242E800310029F3D1226821
:1055700002F1140353E8003F23F00103143242E820
:1055800000310029F3D1226802F1140353E8003FEF
:1055900023F04003143242E800310029F3D12023E4
:1055A00084F83E3000232363226802F10C0353E8A1
:1055B000003F23F010030C3242E800310029F3D100
:1055C000A06BFCF782FFA18DE38D9BB2C91A89B253
:1055D0002046FFF795FE30E7A18DE38D9BB2C91AF7
:1055E00089B2E38D9BB2002B3FF427AF00293FF433
:1055F00024AF226802F10C0353E8003F23F49073B8
:105600000C3242E800300028F3D1226802F1140382
:1056100053E8003F23F00103143242E80030002831
:10562000F3D1202384F83E3000232363226802F163
:105630000C0353E8003F23F010030C3242E8003023
:105640000028F3D12046FFF75BFEF6E62046FFF781
:10565000C1FBF2E62046FFF70AFEEEE6F152000833
:1056600008B5806B036B012B02D0FFF713FE08BD5A
:10567000818D4908FFF744FEF9E708B50346806BC2
:105680001B681B6813F4807F2BD10023C38502683D
:1056900002F10C0353E8003F23F480730C3242E81C
:1056A00000310029F3D1026802F1140353E8003FEE
:1056B00023F00103143242E800310029F3D10268DB
:1056C00002F1140353E8003F23F04003143242E890
:1056D00000310029F3D1202380F83E30036B012BE9
:1056E00005D0036B012B0FD001F02EF908BD026825
:1056F00002F10C0353E8003F23F010030C3242E8A0
:1057000000310029F3D1ECE7818DFFF7F9FDEDE7DA
:1057100081628285C28500230364222280F83E20B4
:1057200080F83C30036923B10268D36843F4807386
:10573000D3600268536943F0010353610268D36880
:1057400043F02003D3600020704708B590F83E3046
:10575000DBB2202B0DD171B17AB190F83C30012B26
:105760000DD0012380F83C3000230363FFF7D0FF06
:1057700000E0022008BD0120FCE70120FAE702203A
:10578000F8E7000030B583B0044613468162828595
:1057900000250564222280F83E20826B2048D063D9
:1057A000A26B20481064A26B1F48D064A26B1565E1
:1057B00020680A46011DA06BFCF752FE0195236884
:1057C0001A6801925B680193019B84F83C5023693D
:1057D0005BB1226802F10C0353E8003F43F480738D
:1057E0000C3242E800310029F3D1226802F114039F
:1057F00053E8003F43F00103143242E8003100292E
:10580000F3D1226802F1140353E8003F43F0400350
:10581000143242E800310029F3D1002003B030BD3A
:105820007B560008615600089952000808B590F8A8
:105830003E30DBB2202B0DD171B17AB190F83C3003
:10584000012B0DD0012380F83C3000230363FFF7C8
:1058500099FF00E0022008BD0120FCE70120FAE7E3
:105860000220F8E708B50A480A4B036000234360AA
:1058700083604FF6FF72C26003618361FBF760FED5
:1058800018B90348FBF7F2FC08BDFBF753FAF8E739
:1058900094EC00200020004082B00368104A93423C
:1058A00004D0104A93420ED002B0704700230093F8
:1058B0000D4B1A6C42F002021A641B6C03F00203D7
:1058C0000093009BF0E700230193074B5A6C42F4CE
:1058D00080325A645B6C03F480330193019BE3E7ED
:1058E00000040040004001400038024000B583B091
:1058F0000368154A934205D0144A93420FD003B06F
:105900005DF804FB00230093114B1A6C42F0040273
:105910001A641B6C03F004030093009BEFE7002262
:1059200001920B4B196C41F4807119641B6C03F4E8
:1059300080730193019B05212D20FCF757FF2D203B
:10594000FCF764FFDBE700BF0008004000200040D8
:105950000038024000B589B00023039304930593F7
:10596000069307930368284A934208D0274A934234
:105970001CD0274A934230D009B05DF804FB0023C5
:105980000093244B1A6B42F004021A631B6B03F062
:1059900004030093009B4FF470730393022304935A
:1059A000079303A91C48FCF773FBE5E70023019369
:1059B000184B1A6B42F008021A631B6B03F00803C2
:1059C0000193019B4FF470430393022304930793C5
:1059D00003A91248FCF75CFBCEE7002302930D4BB2
:1059E0001A6B42F010021A631B6B03F01003029350
:1059F000029B60230393022304930323079303A9C9
:105A00000748FCF745FBB7E70004004000080040EA
:105A1000004001400038024000080240000C0240F3
:105A20000010024000B58BB0002308930993019346
:105A30000293039304930593069307932648274AFA
:105A40000260A722426083604FF47A72C2600361F1
:105A500080238361FBF7A0FD60BB002308930993BB
:105A600008A91D48FBF788FF38BB6023019300227B
:105A7000029202230393059201A91748FBF7F0FD58
:105A8000F0B904220DEB02011348FBF7E9FDD0B990
:105A9000082201A91048FBF7E3FDB8B90C2201A9BF
:105AA0000D48FBF7DDFDA0B90B48FFF753FF0BB026
:105AB0005DF804FBFBF73EF9CFE7FBF73BF9D4E7D2
:105AC000FBF738F9DDE7FBF735F9E1E7FBF732F9EA
:105AD000E4E7FBF72FF9E7E76CED00200004004056
