:020000040800F2
:1000000000000220BD610008F9050008FB0500089A
:10001000FD050008FF0500080106000800000000BB
:10002000000000000000000000000000013D00088A
:100030000306000800000000A13D000893380008F6
:100040000D6200080D6200080D6200080D620008D4
:100050000D6200080D6200080D6200080D620008C4
:100060000D6200080D6200080D6200080D620008B4
:100070000D6200080D6200080D6200080D620008A4
:1000800005060008150600080D6200080D6200084C
:100090000D6200080D6200080D6200080D62000884
:1000A0000D620008250600080D6200080D620008B8
:1000B0000D6200080D6200080D6200080D62000864
:1000C0000D6200080D6200080D6200080D62000854
:1000D0000D62000835060008450600080D6200089C
:1000E0000D6200080D6200080D6200080D62000834
:1000F0000D620008910600080D6200080D620008FC
:100100000D6200080D6200080D6200080D62000813
:100110000D6200080D6200080D6200080D62000803
:100120000D6200080D620008A10600080D620008BB
:100130000D6200080D6200080D6200080D620008E3
:100140000D6200080D6200080D6200080D620008D3
:100150000D6200080D620008B10600080D6200087B
:100160000D6200080D6200080D6200080D620008B3
:100170000D6200080D6200080D620008000000001A
:080180000D6200080D62000889
:1001900001F0FF01102A2BDB10F0070F08D010F838
:1001A000013B013A8B422DD010F0070F42B3F6D13C
:1001B000F0B441EA012141EA014122F007047FF055
:1001C00000070023F0E80256083C85EA010586EAAC
:1001D000010685FA47F5A3FA87F586FA47F6A5FAE8
:1001E00087F68EB9EED1F0BC01F0FF0102F00702F4
:1001F00032B110F8013B013A83EA010313B1F8D19F
:100200000020704701387047002D06BF354603387F
:10021000073815F0010F07D1013015F4807F02BFB8
:10022000013015F4C03F0130F0BC0138704700BF09
:100230007BB972B90029BEBF00204FF0004106E033
:1002400008BF00281CBF6FF000414FF0FF3000F0E6
:1002500057B8ADF1080C6DE904CE002909DB002B7D
:100260001ADB13F0D9FADDF804E0DDE9022304B06B
:100270007047404261EB4101002B1BDB13F0CCFACD
:10028000DDF804E0DDE9022304B0404261EB410106
:10029000524263EB43037047524263EB430313F054
:1002A000BBFADDF804E0DDE9022304B0404261EB73
:1002B00041017047524263EB430313F0ADFADDF89E
:1002C00004E0DDE9022304B0524263EB43037047CC
:1002D00053B94AB9002908BF00281CBF4FF0FF31AD
:1002E0004FF0FF3000F00CB8ADF1080C6DE904CE12
:1002F00013F092FADDF804E0DDE9022304B0704760
:10030000704700BF10F8012B11F8013B012A28BFEC
:100310009A42F7D0D01A7047034613F8012B002AEF
:10032000FBD1181A013870470348044B834202D0AE
:10033000034B03B118477047100100201001002043
:10034000000000000548064B1B1AD90F01EBA30162
:10035000491002D0034B03B1184770471001002029
:10036000100100200000000010B5064C237843B9AE
:10037000FFF7DAFF044B13B10448AFF30080012309
:10038000237010BD1001002000000000CC420108C5
:1003900008B5054B1BB105490548AFF30080BDE822
:1003A0000840FFF7CFBF00BF00000000140100208D
:1003B000CC42010808B50268034B9A4200D008BD40
:1003C00001F0F2FDFBE700BF0000014072B6FEE75E
:1003D00000B595B03022002108A806F0B5FC002336
:1003E0000393049305930693079301931F4A116C9B
:1003F00041F080511164126C02F080520192019A16
:1004000002931B4A116841F480411160126802F4A2
:1004100080420292029A0222089201210B9110213D
:100420000C910E920F9308231093A823119312920C
:100430000423139308A800F08DFE98B90F230393AB
:1004400002230493002305934FF4A05306934FF423
:1004500080530793052103A801F0CCF820B915B00B
:100460005DF804FBFFF7B2FFFFF7B0FF0038024072
:100470000070004008B501F07DFDFFF7A9FF00F016
:1004800025F803F0A3FD03F02BFE04F0E3FD03F0D9
:100490000DFE04F0F3FE04F045FF04F0DFFF04F06E
:1004A0005FFF05F017FA04F077FD04F04BFE03F050
:1004B000C9FD03F0E1FD03F02FFE04F08DFC03F015
:1004C000F5F901F08DFE03F003FAFEE72DE9F043A4
:1004D0008DB000240794089409940A940B94019415
:1004E000404B1A6B42F010021A631A6B02F01002B2
:1004F0000192019A02941A6B42F004021A631A6B79
:1005000002F004020292029A03941A6B42F08002F3
:100510001A631A6B02F080020392039A04941A6B16
:1005200042F001021A631A6B02F001020492049A6B
:1005300005941A6B42F002021A631A6B02F002026F
:100540000592059A06941A6B42F008021A631B6B17
:1005500003F008030693069BDFF89490224642F2CC
:100560000F01484601F030FADFF888802246022168
:10057000404601F029FA1C4F22464FF20701384647
:1005800001F022FA194E22462021304601F01CFAD1
:1005900042F20F0307930125089509940A9407A9CD
:1005A000484601F01BF902230793089509940A9421
:1005B00007A9404601F012F94FF207030793089587
:1005C00009940A9407A9384601F008F920230793F3
:1005D000089509940A9407A9304601F0FFF80DB078
:1005E000BDE8F0830038024000040240000C0240E5
:1005F0000008024000000240FEE7FEE7FEE7FEE7DB
:10060000FEE7704708B5024801F062FB08BD00BF75
:1006100038E9002008B5024801F05AFB08BD00BFC8
:10062000D8E8002008B5024800F0C8F908BD00BFAE
:100630003001002008B5024804F0C8F908BD00BF29
:10064000E0EA002008B5104B1B681A6812F0200F72
:1006500006D05B68DBB20D4A12784AB9242B03D06E
:10066000094804F0B3F908BD084B01221A70F7E7F6
:10067000064A1278D2B2012AF2D1242BF0D1034BD0
:1006800000221A70ECE700BF9CEA00202C01002039
:1006900008B5024800F092F908BD00BFACEB00209D
:1006A00008B5024801F014FB08BD00BFF8E90020BE
:1006B00008B5024801F00CFB08BD00BF98E9002016
:1006C00000B583B0002200920D4B596C41F480417B
:1006D0005964596C01F48041009100990192196CA0
:1006E00041F0805119641B6C03F080530193019B0E
:1006F0000F216FF0010001F01FFC03B05DF804FB57
:100700000038024030B589B00546002401941E4BE4
:100710005A6C42F001025A645B6C03F001030193CE
:10072000019B02A903A801F03BF801F029F843005E
:10073000164AA2FB03239B0C013B1548154A026095
:1007400040F2E732C260436004618460846100F07B
:1007500057FA044610B1204609B030BD0C4800F0ED
:10076000E5F804460028F6D1192001F0F5FB0F2D1D
:1007700001D90124EFE700222946192001F0DCFB12
:10078000054B1D60E7E700BF0038024083DE1B43D6
:1007900030010020000001400400002030B4036A52
:1007A00023F001030362036A4268846924F0730C36
:1007B0000C6844EA0C0423F0020C8B6843EA0C0337
:1007C000114DA84203D005F58065A84205D123F05C
:1007D0000803CD682B4323F004030B4DA84203D03C
:1007E00005F58065A84207D122F440724D6945EABB
:1007F000020C8A6942EA0C02426084614A684263E0
:10080000036230BC704700BF0000014030B4036A8F
:1008100023F480730362036A4268C46924F0730C92
:100820000C6844EA0C0523F400738C6843EA042343
:10083000114CA04203D004F58064A04206D123F4F9
:100840000063CC6843EA042323F480630A4CA0428B
:1008500003D004F58064A04207D122F440524C69D1
:1008600042EA04128C6942EA04124260C5614A6895
:10087000C263036230BC70470000014030B4036AB9
:1008800023F480530362036A4468C26922F4E64297
:100890000D6842EA052223F400538D6843EA0533CC
:1008A000094DA84203D005F58065A84204D124F47F
:1008B00080444D6944EA85144460C2614A68026418
:1008C000036230BC704700BF0000014010B4036AEF
:1008D000046A24F001040462846924F0F00C4CEAF8
:1008E000021223F00A030B43826103625DF8044B9A
:1008F000704710B4036A23F0100303628469036A2B
:1009000024F4704C4CEA023223F0A00343EA0113B2
:10091000826103625DF8044B7047836823F07003C3
:100920000B4343F0070383607047000090F83D30AD
:10093000DBB2012B37D1022380F83D300268D36847
:1009400043F00103D3600368194A934220D0B3F106
:10095000804F1DD0A2F57C42934219D002F58062EF
:10096000934215D002F58062934211D002F578428D
:1009700093420DD002F57052934209D0A2F5943201
:10098000934205D01A6842F001021A6000207047B5
:100990009A6802F00702062A07D01A6842F001029C
:1009A0001A6000207047012070470020704700BF88
:1009B00000000140704770477047704710B504460B
:1009C00003681A6912F0020F11D0DA6812F0020FF0
:1009D0000DD06FF002021A610123037703689B694F
:1009E00013F0030F70D0FFF7E6FF0023237723688F
:1009F0001A6912F0040F12D0DA6812F0040F0ED048
:100A00006FF004021A610223237723689B6913F4B1
:100A1000407F5FD02046FFF7CEFF00232377236877
:100A20001A6912F0080F12D0DA6812F0080F0ED00F
:100A30006FF008021A61042323772368DB6913F03F
:100A4000030F4ED02046FFF7B6FF0023237723681D
:100A50001A6912F0100F12D0DA6812F0100F0ED0CF
:100A60006FF010021A61082323772368DB6913F4FF
:100A7000407F3DD02046FFF79EFF00232377236869
:100A80001A6912F0010F03D0DA6812F0010F36D1A3
:100A900023681A6912F0800F03D0DA6812F0800F11
:100AA00034D123681A6912F0400F03D0DA6812F0CB
:100AB000400F32D123681A6912F0200F03D0DA6890
:100AC00012F0200F30D110BDFFF774FF2046FFF762
:100AD00073FF8AE72046FFF76DFF2046FFF76CFFA4
:100AE0009BE72046FFF766FF2046FFF765FFACE770
:100AF0002046FFF75FFF2046FFF75EFFBDE76FF080
:100B000001021A612046FFF755FCC1E76FF0800231
:100B10001A61204600F01DFBC3E76FF040021A6126
:100B20002046FFF74AFFC5E76FF020021A61204612
:100B300000F00EFBC7E700000368304A904212D075
:100B4000B0F1804F0FD0A2F57C4290420BD002F55D
:100B50008062904207D002F58062904203D002F595
:100B60007842904203D123F070034A681343234A2A
:100B700090422AD0B0F1804F27D0A2F57C4290421B
:100B800023D002F5806290421FD002F5806290422D
:100B90001BD002F57842904217D002F57052904275
:100BA00013D002F5806290420FD002F5806290422D
:100BB0000BD0A2F59832904207D002F580629042A5
:100BC00003D002F58062904203D123F44073CA68D7
:100BD000134323F080034A69134303608B68C362A5
:100BE0000B688362054B984203D003F580639842FB
:100BF00001D10B6903630123436170470000014089
:100C000040B310B5044690F83D30F3B1022384F8A8
:100C10003D30214651F8040BFFF78EFF012384F885
:100C2000463084F83E3084F83F3084F8403084F811
:100C3000413084F8423084F8433084F8443084F8FA
:100C4000453084F83D30002010BD80F83C3004F081
:100C500007F9DBE70120704740B310B5044690F870
:100C60003D30F3B1022384F83D30214651F8040BA6
:100C7000FFF762FF012384F8463084F83E3084F8A1
:100C80003F3084F8403084F8413084F8423084F8B2
:100C9000433084F8443084F8453084F83D300020F7
:100CA00010BD80F83C3004F0B1F8DBE7012070475C
:100CB00030B4036A23F010030362036A4468826954
:100CC00022F4E6420D6842EA052223F020038D68F3
:100CD00043EA0513114DA84203D005F58065A842EB
:100CE00006D123F08003CD6843EA051323F04003C7
:100CF0000A4DA84203D005F58065A84207D124F427
:100D000040644D6944EA85048D6944EA8504446081
:100D100082614A688263036230BC70470000014010
:100D200038B590F83C30012B66D004460D460123BF
:100D300080F83C300C2A5AD8DFE802F0075959599C
:100D40001B5959593059595944000068FFF726FD7D
:100D50002268936943F0080393612268936923F042
:100D6000040393612268936929690B43936100200E
:100D70003EE00068FFF79CFF2268936943F400633C
:100D800093612268936923F4806393612268936975
:100D9000296943EA01239361002029E00068FFF7F5
:100DA00035FD2268D36943F00803D3612268D36913
:100DB00023F00403D3612268D36929690B43D3610B
:100DC000002015E00068FFF759FD2268D36943F45D
:100DD0000063D3612268D36923F48063D3612268FE
:100DE000D369296943EA0123D361002000E001208F
:100DF000002384F83C3038BD0220FCE710B484683E
:100E000024F47F4C42EA03220A4342EA0C02826045
:100E10005DF8044B704790F83C30012B78D010B54A
:100E20000446012380F83C30022380F83D300268FC
:100E3000936823F47F4323F0770393600B68602B60
:100E40004CD023D8402B54D011D8202B03D00AD813
:100E50000BB1102B05D119462068FFF75EFD00206D
:100E600028E0012026E0302BF5D0012022E0502B95
:100E70000AD1CA6849680068FFF728FD5021206838
:100E8000FFF74BFD002015E0012013E0B3F5805F74
:100E90003AD0B3F5005F14D0702B37D1CB684A68D5
:100EA00089680068FFF7AAFF2268936843F0770318
:100EB00093600020012384F83D30002384F83C3007
:100EC00010BDCB684A6889680068FFF797FF226801
:100ED000936843F4804393600020EBE7CA68496855
:100EE0000068FFF706FD60212068FFF716FD00206F
:100EF000E0E7CA6849680068FFF7E8FC402120681D
:100F0000FFF70BFD0020D5E70020D3E70120D1E754
:100F10000220704701F01F014FF0010C0CFA01FC98
:100F2000036A23EA0C030362036A8A4013430362E1
:100F30007047000010B504460846002942D194F8D5
:100F40003E30DBB2013B18BF0123002B6ED10028DD
:100F500051D1022384F83E30012201462068FFF778
:100F6000D9FF2368334A934203D002F5806293424B
:100F700003D15A6C42F400425A6423682D4A9342CA
:100F800049D0B3F1804F46D0A2F57C42934242D083
:100F900002F5806293423ED002F5806293423AD0DD
:100FA00002F57842934236D002F57052934232D025
:100FB000A2F5943293422ED01A6842F001021A60D0
:100FC000002032E0042908D008290DD094F84130DF
:100FD000DBB2013B18BF0123B7E794F83F30DBB227
:100FE000013B18BF0123B0E794F84030DBB2013B6E
:100FF00018BF0123A9E7042805D0082807D0022339
:1010000084F84130A8E7022384F83F30A4E70223A4
:1010100084F84030A0E79A6802F00702062A07D059
:101020001A6842F001021A60002010BD0120FCE79E
:101030000020FAE70000014038B504460D460022C2
:101040000068FFF767FF23681D4A934218D002F536
:101050008062934214D02368196A41F2111211423E
:1010600008D1196A40F24442114203D11A6822F0B1
:1010700001021A609DB9012384F83E30002038BD7A
:10108000196A41F211121142E5D1196A40F2444243
:101090001142E0D15A6C22F400425A64DBE7042D7D
:1010A00005D0082D07D0012384F84130E6E701235D
:1010B00084F83F30E2E7012384F84030DEE700BFE8
:1010C0000000014090F83C20012A3DD010B40346B6
:1010D000012280F83C20022280F83D2002685068FE
:1010E000946820F0700C086840EA0C0050601A68A0
:1010F000164882421AD0B2F1804F17D0A0F57C403A
:10110000824213D000F5806082420FD000F58060EB
:1011100082420BD000F57840824207D000F5705033
:10112000824203D0A0F59430824204D124F080049E
:10113000496821439160012283F83D20002083F813
:101140003C005DF8044B70470220704700000140EE
:1011500070477047002800F0E08170B582B0044607
:10116000036813F0010F3BD09F4B9B6803F00C0307
:10117000042B2CD09C4B9B6803F00C03082B21D034
:101180006368B3F5803F4FD0B3F5A02F52D0964B94
:101190001A6822F480321A601A6822F480221A60D7
:1011A0006368002B50D000F00BFF05468E4B1B6888
:1011B00013F4003F14D100F003FF401B6428F5D95D
:1011C0000320B1E1884B5B6813F4800FD8D0864BC5
:1011D0001B6813F4003F03D06368002B00F09F816D
:1011E000236813F0020F54D07F4B9B6813F00C0F51
:1011F0003ED07D4B9B6803F00C03082B33D0E36893
:10120000002B68D0794B01221A6000F0D9FE054608
:10121000754B1B6813F0020F54D100F0D1FE401B38
:101220000228F5D903207FE16F4A136843F4803325
:101230001360B5E76C4B1A6842F480221A601A6892
:1012400042F480321A60ABE700F0BAFE0546664B06
:101250001B6813F4003FC3D000F0B2FE401B6428AB
:10126000F5D9032060E1604B5B6813F4800FC6D1B1
:101270005D4B1B6813F0020F03D0E368012B40F0B5
:101280005081594A136823F0F803216943EAC103E6
:101290001360236813F0080F42D063696BB3534B9C
:1012A0000122C3F8802E00F08BFE05464E4B5B6F8B
:1012B00013F0020F34D100F083FE401B0228F5D951
:1012C000032031E1484A136823F0F803216943EA17
:1012D000C1031360DDE7454B00221A6000F070FE89
:1012E0000546414B1B6813F0020FD2D000F068FE98
:1012F000401B0228F5D9032016E13C4B0022C3F81D
:10130000802E00F05DFE0546374B5B6F13F0020F39
:1013100006D000F055FE401B0228F5D9032003E15A
:10132000236813F0040F77D02F4B1B6C13F0805FF2
:1013300033D1002301932C4B1A6C42F080521A6473
:101340001B6C03F080530193019B0125284B1B6804
:1013500013F4807F23D0A368012B34D0052B38D021
:10136000214B1A6F22F001021A671A6F22F0040251
:101370001A67A368002B3DD000F022FE06461A4BE8
:101380001B6F13F0020F46D100F01AFE801B41F2D2
:1013900088339842F3D90320C6E00025D6E7144AE3
:1013A000136843F48073136000F00AFE0646104B86
:1013B0001B6813F4807FCED100F002FE801B022850
:1013C000F5D90320B0E0084A136F43F00103136717
:1013D000CFE7054B1A6F42F004021A671A6F42F00A
:1013E00001021A67C5E700BF00380240000047420B
:1013F0000070004000F0E4FD0646524B1B6F13F0F6
:10140000020F08D000F0DCFD801B41F288339842C7
:10141000F3D9032088E0EDB9A369002B00F08380A5
:10142000484A926802F00C02082A51D0022B17D0C9
:10143000454B00221A6600F0C3FD0446414B1B6871
:1014400013F0007F42D000F0BBFD001B0228F5D94D
:10145000032069E03B4A136C23F080531364DBE7FD
:10146000394B00221A6600F0ABFD0546354B1B6870
:1014700013F0007F06D000F0A3FD401B0228F5D931
:10148000032051E0E369226A1343626A43EA82134C
:10149000A26A5208013A43EA0243E26A43EA02635B
:1014A000284A5360284B01221A6600F089FD044641
:1014B000244B1B6813F0007F06D100F081FD001B58
:1014C0000228F5D903202FE000202DE000202BE09A
:1014D000012B2BD01B4B5B6803F48001E269914226
:1014E00026D103F03F02216A8A4223D1616A47F67E
:1014F000C0721A40B2EB811F1ED103F44031A26AC0
:101500005208013AB1EB024F18D103F07063E26A5E
:10151000B3EB026F14D1002006E0012070470120D8
:1015200002E0012000E0002002B070BD0120FBE7D6
:101530000120F9E70120F7E70120F5E70120F3E7B3
:101540000120F1E7003802400000474208B5264B71
:101550009B6803F00C03042B41D0082B41D1224B94
:101560005A6802F03F025B6813F4800F12D01E4BE2
:101570005968C1F388111D480023A1FB0001FEF743
:10158000A7FE194B5B68C3F3014301335B00B0FB5B
:10159000F3F008BD144B5868C0F388104FEA401CA4
:1015A000BCEB000C6EEB0E0E4FEA8E1343EA9C630D
:1015B0004FEA8C11B1EB0C0163EB0E03DB0043EA45
:1015C0005173C90011EB000C43F100039902002391
:1015D0004FEA8C2041EA9C51FEF77AFED1E703489E
:1015E000D7E70348D5E700BF0038024040787D01C7
:1015F0000024F400002800F09B8070B50D460446DE
:101600004F4B1B6803F007038B4208D2CBB24C4A06
:101610001370136803F007038B4240F08B8023683C
:1016200013F0020F17D013F0040F04D0454A93684B
:1016300043F4E0539360236813F0080F04D0414A49
:10164000936843F4604393603E4A936823F0F00349
:10165000A1680B439360236813F0010F32D06368D5
:10166000012B21D09A1E012A25D9364A126812F080
:10167000020F61D033498A6822F0030213438B6062
:1016800000F09EFC06462F4B9B6803F00C0362683B
:10169000B3EB820F16D000F093FC801B41F288332D
:1016A0009842F0D9032042E0264A126812F4003F23
:1016B000E0D101203BE0234A126812F0007FD9D12B
:1016C000012034E01E4B1B6803F00703AB4207D92F
:1016D000EAB21B4B1A701B6803F00703AB422DD113
:1016E000236813F0040F06D0164A936823F4E053DE
:1016F000E1680B439360236813F0080F07D0114A89
:10170000936823F46043216943EAC1039360FFF7C0
:101710001DFF0C4B9B68C3F303130B4AD35CD840EB
:101720000A4B18600A4B1868FEF7ECFF002070BDEA
:10173000012070470120FAE70120F8E70120F6E7D1
:10174000003C024000380240184301080800002015
:1017500004000020014B1868704700BF08000020FB
:1017600008B5FFF7F7FF044B9B68C3F38223034AD6
:10177000D35CD84008BD00BF0038024010430108C8
:1017800008B5FFF7E7FF044B9B68C3F34233034AF6
:10179000D35CD84008BD00BF0038024010430108A8
:1017A0000F2303600B4B9A6802F0030242609A68B1
:1017B00002F0F00282609A6802F4E052C2609B6814
:1017C000DB0803F4E0530361034B1B6803F00703DA
:1017D0000B60704700380240003C024000230F2B92
:1017E00000F2E98070B582B065E085684FEA430E8B
:1017F000032404FA0EF425EA0405CC6804FA0EF476
:101800002C438460446824EA02044A68C2F300124C
:101810009A40224342605CE0DC08083450F82420FF
:1018200003F00705AD004FF00F0E0EFA05FE22EA99
:101830000E0E0A69AA4042EA0E0240F824205CE03B
:10184000072200E0002202FA0EF22A4302345A4D27
:1018500045F82420594A94686FEA0C0224EA0C05E2
:101860004E6816F4801F01D04CEA0405534CA56065
:10187000E46802EA04054E6816F4001F01D04CEA41
:1018800004054E4CE560646802EA04054E6816F4EF
:10189000003F01D04CEA0405484C656024682240B2
:1018A0004D6815F4803F01D04CEA0402434C22609D
:1018B00001330F2B7DD801229A400C6804EA020CF8
:1018C00032EA0404F4D14C6804F00304013C012C16
:1018D0008BD94A6802F00302032A09D0C4685D006C
:1018E0000322AA4024EA02048A68AA402243C26072
:1018F0004A6802F00302022A8ED004684FEA430EBF
:10190000032202FA0EF224EA02044A6802F00302F9
:1019100002FA0EF2224302604A6812F4403FC7D036
:1019200000220192264A546C44F480445464526C60
:1019300002F480420192019A9C08A51C1E4A52F8AA
:10194000255003F0030E4FEA8E0E0F2202FA0EF21C
:1019500025EA02051B4A90423FF474AF02F580620B
:1019600090421AD002F58062904218D002F580624F
:10197000904216D002F58062904214D002F5806247
:10198000904212D002F58062904210D002F580623F
:1019900090423FF455AF082255E7012253E7022257
:1019A00051E703224FE704224DE705224BE70622C9
:1019B00049E702B070BD704700380140003C01406B
:1019C00000380240000002400AB1816170470904FA
:1019D00081617047436901EA030221EA030141EA98
:1019E00002418161704730B405682C6824F480247A
:1019F0002C60046863608368402B05D0036899609D
:101A00000368DA6030BC704703689A600368D96085
:101A1000F8E7000010B40368D9B210390A4AA2FBF3
:101A200001421209094CA25CC2655F2907D96FF314
:101A3000090304338365806D5DF8044B70476FF3D1
:101A400009038365F7E700BFABAAAAAA0843010808
:101A5000836A826992B9012B0AD0022B02D00BB1A2
:101A600000207047C36A13F0807F28D100207047A0
:101A7000C36AB3F1C07F24D000207047B2F5005F85
:101A800009D0022B25D9032B25D1C36A13F0807FFF
:101A900023D100207047032B03D8DFE803F01404A0
:101AA000140A00207047C36A13F0807F0DD1002014
:101AB0007047C36AB3F1C07F09D00020704701208E
:101AC00070470120704701207047012070470120B6
:101AD00070470120704700207047012070470000C8
:101AE00070B5044600F06CFA002C5BD0054602236A
:101AF00084F83530002384F834302268136823F0EA
:101B00000103136023681A6812F0010F0AD000F075
:101B100057FA431B052BF5D920236365032084F86E
:101B2000350070BD1A68204911406268A068024300
:101B3000E06802432069024360690243A0690243EE
:101B4000E0690243206A02430A43616A04291ED005
:101B50001A602668756925F00705636A1D43042B22
:101B600007D1A36A1D43E36A1BB12046FFF770FF4C
:101B700090B975612046FFF74DFFE26D3F2393401A
:101B8000836000206065012384F83530C9E7E16A8D
:101B9000206B01430A43DBE740236365012084F89F
:101BA0003500BEE70120BCE73F8010F038B50446A1
:101BB000856D90F8340001282BD0012084F8340082
:101BC00094F83500C0B2012804D0002384F83430E2
:101BD000022038BD022084F83500002060652046D0
:101BE000FFF701FFE26D3F239340AB60226813686B
:101BF00043F016031360236C23B12268136843F08B
:101C0000080313602268136843F001031360002087
:101C1000DFE70220DDE770B50446866D00F0D0F9FD
:101C200094F83530DBB2022B06D0802363650023A5
:101C300084F83430012070BD05462268136823F013
:101C4000160313602268536923F080035361236CE9
:101C5000E3B12268136823F0080313602268136855
:101C600023F00103136023681B6813F0010F11D0E8
:101C700000F0A6F9431B052BF5D92023636503204B
:101C800084F83500002384F83430D4E7A36C002BAB
:101C9000DFD1E3E7E26D3F239340B360012384F893
:101CA0003530002084F83400C5E790F83530DBB2D9
:101CB000022B03D08023436501207047052380F861
:101CC00035300268136823F0010313600020704769
:101CD000F0B583B0044600230193724B1D68724B2C
:101CE000A3FB0535AD0A876D3E68C26D082393409E
:101CF000334210D003681A6812F0040F0BD01A6830
:101D000022F004021A60C26D08239340BB60436D49
:101D100043F001034365E26D01239340334209D050
:101D20002268526912F0800F04D0BB60636D43F0EB
:101D300002036365E26D04239340334209D02268B5
:101D4000126812F0020F04D0BB60636D43F004030D
:101D50006365E26D10239340334224D022681268F9
:101D600012F0080F1FD0BB6023681A6812F4802F8E
:101D70000DD01B6813F4002F04D1236C9BB12046B7
:101D8000984710E0A36C73B1204698470BE01A689F
:101D900012F4807F03D11A6822F008021A60236CC3
:101DA0000BB120469847E26D20239340334255D033
:101DB0002268126812F0100F50D0BB6094F83530D2
:101DC000DBB2052B0ED023681A6812F4802F33D0B3
:101DD0001B6813F4002F2AD1636C002B3ED02046E1
:101DE00098473BE02268136823F0160313602268CB
:101DF000536923F080035361236CA3B122681368F5
:101E000023F008031360E26D3F239340BB6001237E
:101E100084F83530002384F83430236D002B3FD014
:101E2000204698473CE0A36C002BE7D1EBE7E36B3F
:101E3000A3B12046984711E01A6812F4807F09D1B7
:101E40001A6822F010021A60012384F8353000234A
:101E500084F83430E36B0BB120469847636DFBB1D7
:101E6000636D13F0010F17D0052384F83530226815
:101E7000136823F001031360019B01330193AB420C
:101E800004D823681B6813F0010FF5D1012384F8EF
:101E90003530002384F83430E36C0BB1204698478A
:101EA00003B0F0BD08000020B5814E1B002808DB00
:101EB0000901C9B200F1604000F5614080F80013EB
:101EC000704700F00F000901C9B2014B1954704767
:101ED00014ED00E000B500F00700C0F1070CBCF104
:101EE000040F28BF4FF0040C031D062B0FD9C31E8F
:101EF0004FF0FF3E0EFA0CF021EA000199400EFA75
:101F000003FE22EA0E0241EA02005DF804FB002310
:101F1000EEE70000074AD36823F4E0631B041B0CC0
:101F2000000200F4E060034343F0BF6343F4003376
:101F3000D360704700ED00E010B50446054BD8684B
:101F4000C0F30220FFF7C6FF01462046FFF7AEFFB1
:101F500010BD00BF00ED00E0002807DB00F01F020D
:101F6000400901239340024A42F82030704700BFE5
:101F700000E100E008B50B4B1A6842F400721A60E9
:101F80001A6842F480621A601A6842F480721A6019
:101F90000320FFF7BFFF0F20FEF7B4FBFEF790FB17
:101FA000002008BD003C0240034A1168034B1B7827
:101FB0000B441360704700BF780100200000002030
:101FC000014B1868704700BF78010020034AD2F81F
:101FD000883043F47003C2F88830704700ED00E0A9
:101FE0002DE9F04190B0544B0193544B0093544B66
:101FF000544A5549012006F07BF90BA806F0AAF8CF
:10200000524B0B93524B0C93524B0D93524B0E93DE
:102010000BA806F0ADF800285AD0504F02A806F0E1
:10202000C5F8BE460DF1080CBCE80F00AEE80F0085
:10203000DCF80030CEF80030494E3B460022114615
:10204000304605F091FF474D3346474A47492846F9
:1020500005F0D4FF06F078FE0246454B2946454878
:1020600006F008F80024444B1C6006F06DFE0246A2
:10207000424B29460AA805F0FDFF06F065FE024620
:102080003F4B29463F4805F0F5FF06F05DFE02464E
:10209000DFF81C813C4B2946404606F01FF83B4DBB
:1020A0003B4605223146284605F096FC0094384B05
:1020B000384A4146284605F0FFFC00942346364A3C
:1020C0003649284605F0F8FC0994354B1C6019E0A8
:1020D000C721344804F0C0F89FE74FF4A07132489C
:1020E00004F0BAF815E040F24B11304804F0B4F8AF
:1020F0004FF47A7001F066FC0DA3D3E90023234866
:1021000005F0FAFE00221C491A4805F0D7F800280D
:10211000E3D1194A136801331360099B093309930A
:10212000002209A90AA805F0C9F80028DBD1DFE7D9
:1021300000CA9A3B000000004561000807610008E2
:10214000F9600008E16000089CEA00207D5F00085B
:102150009D5F0008BD5F0008FD5F0008389F0020FC
:102160004C9F0020309F0020B447010850430108D5
:102170005C430108849F0020809F00207043010879
:102180007C43010848EE002090430108A89E0020EF
:10219000B52100089C9E00207C9E0020989E002077
:1021A00044EE002028430108A0430108BC43010875
:1021B000A09E002010B504460268064B1A604FF43A
:1021C00000510548FFF706FC00222146034805F0B0
:1021D00075F810BD44EE00200008024048EE0020D3
:1021E00008B5074A0021074801F08EFB064B18602E
:1021F000064A0021064801F087FB064B186008BD1F
:10220000184A0108E11F0008789E0020F4490108DF
:1022100085220008B830002038B543F2C82300FBFF
:1022200003F3154AA2FB03235B095B00134CB4FBC9
:10223000F3F4013C124D3C212846FEF7FDFE00233D
:102240006B60EC602846FEF707FD88B90C4C002156
:102250002046FEF76FFE04212046FEF76BFE0821A4
:102260002046FEF767FE0C212046FEF763FE38BDD0
:10227000FEF7ACF8EAE700BF1F85EB5100BD010592
:102280003CEC002010B51A4C00212046FEF752FE0F
:1022900004212046FEF74EFE08212046FEF74AFEA6
:1022A0000C212046FEF746FE124B64225A634FF47F
:1022B000C8729A634FF41672DA634FF448721A6464
:1022C00013E02046FFF7A8FF642001F07BFB0134F8
:1022D000322CF6DD322406E02046FFF79DFF642015
:1022E00001F070FB013C002CF6DC0024F0E700BF9D
:1022F0003CEC00200008004000F1080343604FF070
:10230000FF328260C36003610023036070470023D3
:102310000361704743684B609A688A6051609960B6
:102320000861036801330360704730B40D68B5F18C
:10233000FF3F11D000F108031C465B681A68AA42EF
:10234000FAD963684B6099608C60616008610368CA
:102350000133036030BC70470469F2E703694168E8
:1023600082688A60416851605A68824206D00022C1
:1023700002611A68013A1A601868704782685A60E8
:10238000F5E710B5044601F0CDFCA26BE36B9A4271
:1023900004D0002401F0E8FC204610BD0124F9E738
:1023A00010B5044601F0BEFCA36B23B9012401F073
:1023B000DBFC204610BD0024F9E770B50446154645
:1023C000866B026C5AB903681BB100200136A66304
:1023D00070BD806800F0ECFF0023A360F6E76DB9E4
:1023E000406804F059FB6368226C13446360A26880
:1023F000934219D3236863602846E7E7C06804F076
:102400004BFBE368226C51429B1AE36022689342C3
:1024100002D2A3680B44E360022D01D00020D5E76F
:1024200026B1013E0020D1E72846CFE70020CDE7C6
:102430000346026C6AB110B50846D9681144D960E8
:102440009C68A14201D31968D960D96804F024FBC3
:1024500010BD704738B5054601F064FC95F845405D
:1024600064B201E0013C64B2002C0ADD6B6A43B146
:1024700005F1240000F0D6FE0028F3D000F082FF22
:10248000F0E7FF2385F8453001F06EFC01F04AFCCF
:1024900095F8444064B201E0013C64B2002C0ADDCE
:1024A0002B6943B105F1100000F0BCFE0028F3D009
:1024B00000F068FFF0E7FF2385F8443001F054FC9A
:1024C00038BD38B5E0B10D46044601F02BFC236859
:1024D000E26B216C01FB0230A0600020A06363600E
:1024E000013A02FB0133E360FF2384F8443084F8AF
:1024F0004530FDB9236963B901F036FC012038BDD0
:102500004FF0500383F31188BFF36F8FBFF34F8FEA
:10251000FEE704F1100000F085FE0028ECD04FF03B
:10252000E0234FF08052C3F8042DBFF34F8FBFF369
:102530006F8FE1E704F11000FFF7DEFE04F12400E5
:10254000FFF7DAFED8E738B51D46049C0B4649B9BB
:102550002460E063236401212046FFF7B2FF84F882
:102560004C5038BD2260F4E740B94FF0500383F37C
:102570001188BFF36F8FBFF34F8FFEE710B584B0A4
:102580001C46844653B192B189B94FF0500383F38E
:102590001188BFF36F8FBFF34F8FFEE74FF05003EB
:1025A00083F31188BFF36F8FBFF34F8FFEE76AB1DC
:1025B00050230393039B502B13D04FF0500383F30E
:1025C0001188BFF36F8FBFF34F8FFEE70029EFD065
:1025D0004FF0500383F31188BFF36F8FBFF34F8F1A
:1025E000FEE7039B012384F8463000949DF81830E1
:1025F0006046FFF7A8FF204604B010BDF0B585B0D7
:10260000019288B10F461D460446B1B1022D20D17A
:10261000E36B012B1DD04FF0500383F31188BFF300
:102620006F8FBFF34F8FFEE74FF0500383F3118896
:10263000BFF36F8FBFF34F8FFEE7036C002BE5D026
:102640004FF0500383F31188BFF36F8FBFF34F8FA9
:10265000FEE700F09DFE064658B9019B002B48D0CE
:102660004FF0500383F31188BFF36F8FBFF34F8F89
:10267000FEE700263DE02A4639462046FFF79DFE4C
:10268000636A7BB948B14FF0E0234FF08052C3F842
:10269000042DBFF34F8FBFF36F8F01F065FB012057
:1026A00005B0F0BD04F1240000F0BCFD0028F4D01A
:1026B0004FF0E0234FF08052C3F8042DBFF34F8F4B
:1026C000BFF36F8FE9E701F04FFB0020E8E702A8B6
:1026D00000F00AFE012619E0002384F8443021E0CE
:1026E000002384F8453023E02046FFF7B3FE00F0D6
:1026F00077FC01F017FBA26BE36B9A42BBD3022D70
:10270000B9D0019B002BDED0002EE0D001F02CFBD5
:1027100000F0CCFB01F006FB94F8442052B2B2F179
:10272000FF3FD9D094F8452052B2B2F1FF3FD7D045
:1027300001F01AFB01A902A800F0E2FDD8B9204679
:10274000FFF71FFE0028CFD0019904F1100000F020
:1027500035FD2046FFF77EFE00F042FC0028C8D180
:102760004FF0E0234FF08052C3F8042DBFF34F8F9A
:10277000BFF36F8FBDE72046FFF76CFE00F030FC23
:1027800000208DE72DE9F84390B10F4616461C4610
:102790000546B1B1022C20D1EB6B012B1DD04FF0BF
:1027A000500383F31188BFF36F8FBFF34F8FFEE7A2
:1027B0004FF0500383F31188BFF36F8FBFF34F8F38
:1027C000FEE7036C002BE5D04FF0500383F3118834
:1027D000BFF36F8FBFF34F8FFEE701F0C9FBEFF33D
:1027E00011884FF0500383F31188BFF36F8FBFF34D
:1027F0004F8FAA6BEB6B9A4206D3022C04D00020B9
:1028000088F31188BDE8F88395F845904FFA89F967
:10281000AB6B224639462846FFF7CFFDB9F1FF3FA3
:1028200006D009F101035BB285F845300120E7E7E6
:102830006B6A0BB90120E3E705F1240000F0F2FC1C
:1028400018B126B101203060DAE70120D8E7012075
:10285000D6E7F0B585B0019290B10F460446C1B1FC
:1028600000F096FD064600BB019B002B5ED04FF0AA
:10287000500383F31188BFF36F8FBFF34F8FFEE7D1
:102880004FF0500383F31188BFF36F8FBFF34F8F67
:10289000FEE7036C002BE3D04FF0500383F3118865
:1028A000BFF36F8FBFF34F8FFEE700263EE0394640
:1028B0002046FFF7BDFD013DA563236923B901F063
:1028C00053FA012005B0F0BD04F1100000F0AAFC9D
:1028D0000028F4D04FF0E0234FF08052C3F8042DCD
:1028E000BFF34F8FBFF36F8FE9E701F03DFA002090
:1028F000E8E702A800F0F8FC012621E0002384F8B4
:10290000443029E0002384F845302BE02046FFF7CF
:10291000A1FD00F065FB09E02046FFF79BFD00F0FC
:102920005FFB2046FFF73CFD00283FD101F0FAF99C
:10293000A56B002DBBD1019B002BD6D0002ED8D08B
:1029400001F012FA00F0B2FA01F0ECF994F8443018
:102950005BB2B3F1FF3FD1D094F845305BB2B3F135
:10296000FF3FCFD001F000FA01A902A800F0C8FC97
:102970000028D1D12046FFF713FD0028C6D00199C9
:1029800004F1240000F01AFC2046FFF763FD00F07C
:1029900027FB0028CAD14FF0E0234FF08052C3F844
:1029A000042DBFF34F8FBFF36F8FBFE7002089E780
:1029B0000023072B0CD8074A52F833200AB1013301
:1029C000F7E7044A42F8331002EBC3025060704745
:1029D000704700BF889F002070B504460D4616461C
:1029E00001F0A0F994F844305BB2B3F1FF3F0DD091
:1029F00094F845305BB2B3F1FF3F0BD001F0B4F96E
:102A0000A36B5BB12046FFF725FD70BD002384F862
:102A10004430EDE7002384F84530EFE7324629469D
:102A200004F1240000F0E2FBECE70000084B1B6817
:102A30001B6823B9074B4FF0FF321A607047044BF5
:102A40001B68DB68DB685A68024B1A60704700BF7E
:102A500038A00020D09F00202DE9F04780460D4689
:102A600017469946089EDDF824A00A9C9200A521ED
:102A7000206B04F069F9236B07F18042013A03EB04
:102A8000820727F00707A5B34FF0000CBCF10F0F2A
:102A900009D815F80C3004EB0C0282F8343013B16D
:102AA0000CF1010CF2E7002384F84330372E00D9F3
:102AB0003726E662E66400252565201DFFF727FC22
:102AC00004F11800FFF723FC2461C6F13806A66163
:102AD0006462656584F858504A464146384601F0BC
:102AE000F9F82060BAF1000F01D0CAF80040BDE843
:102AF000F087002384F83430D8E7000038B500248C
:102B000007E004EB840293000E481844FFF7F4FB3F
:102B10000134372CF5D90C4D2846FFF7EDFB0B4C53
:102B20002046FFF7E9FB0A48FFF7E6FB0948FFF7F5
:102B3000E3FB0948FFF7E0FB084B1D60084B1C60F6
:102B400038BD00BF64A0002050A000203CA00020A1
:102B500020A000200CA00020F49F002038A000201E
:102B600034A0002010B5044601F0DCF8224A1368B6
:102B700001331360214B1B685BB1214B1B686BB9A0
:102B80001E4B1B68DA6AE36A9A4207D81B4B1C602B
:102B900004E01A4B1C601368012B29D0194A1368F2
:102BA000013313606364E06A174B1B68984201D9D4
:102BB000154B186000EB8000211D144B03EB8000C7
:102BC000FFF7A8FB01F0D0F80D4B1B687BB10B4B56
:102BD0001B68DA6AE36A9A4209D24FF0E0234FF0A9
:102BE0008052C3F8042DBFF34F8FBFF36F8F10BD1A
:102BF000FFF784FFD2E700BFF09F0020C4A40020AD
:102C0000E49F0020D49F0020E89F002064A00020C3
:102C100010B5044690F8593063B1012B11D0022B46
:102C20000ED04FF0500383F31188BFF36F8FBFF3C3
:102C30004F8FFEE7006B00F0D1FF204600F0CEFF83
:102C400010BD00F0CBFFFBE70F4B1B68D3B110B5F5
:102C500001F068F80D4BDB68DC68201DFFF77EFB98
:102C60000B4A1368013B1360074A1368013B13606A
:102C700001F07AF82046FFF7CBFF034B1B68002BCF
:102C8000E6D110BD704700BF08A000200CA00020B6
:102C9000F09F002008B5FFF7D7FF074B1B68012BFB
:102CA000F9D94FF0E0234FF08052C3F8042DBFF361
:102CB0004F8FBFF36F8FEEE764A0002070B504461E
:102CC0000D46174B1E68174B18680430FFF746FB7C
:102CD000B4F1FF3F0DD03444124B1B685C60A64238
:102CE00010D9114B18680F4B19680431FFF71DFB01
:102CF00070BD002DEFD00B4B196804310B48FFF766
:102D000009FBF5E70A4B1868064B19680431FFF711
:102D10000CFB084B1B68A342EAD9064B1C60E7E793
:102D2000EC9F0020C4A4002034A00020F49F0020C9
:102D300038A00020D09F002030B587B00B9C7CB11C
:102D40000C9DB5B15C250495049D5C2D1AD04FF007
:102D5000500383F31188BFF36F8FBFF34F8FFEE7EC
:102D60004FF0500383F31188BFF36F8FBFF34F8F82
:102D7000FEE74FF0500383F31188BFF36F8FBFF36B
:102D80004F8FFEE7049D0C9D2C63022485F859406B
:102D900000240394029505AC01940A9C0094FFF76B
:102DA0005BFE0C98FFF7DEFE059807B030BD2DE9FD
:102DB000F04385B00746884614461E46900000F052
:102DC0008BFE08B381465C2000F086FE0546A8B164
:102DD000C0F83090002380F85930039302900D9B87
:102DE00001930C9B00933346224641463846FFF739
:102DF00033FE2846FFF7B6FE012007E0484600F004
:102E0000EDFE4FF0FF3001E04FF0FF3005B0BDE8C0
:102E1000F083000010B588B000240594069407AA3A
:102E200006A905A800F0DCFD059B0293069B019313
:102E300000942346079A17491748FFF77DFF174B61
:102E40001860C0B100F068FB012815D14FF05003A5
:102E500083F31188BFF36F8FBFF34F8F104B4FF089
:102E6000FF321A600F4B01221A600F4B00221A60CA
:102E700000F0F2FF03E00020B0F1FF3F01D008B006
:102E800010BD4FF0500383F31188BFF36F8FBFF372
:102E90004F8FFEE7FC430108952C0008CC9F0020D3
:102EA000D09F0020E49F0020EC9F0020024A13687E
:102EB00001331360704700BFC89F0020014B1868A2
:102EC000704700BFEC9F0020F8B53A4B1B68002B01
:102ED00069D1394B1D6801351D60C5B9374B1B6879
:102EE0001B6843B14FF0500383F31188BFF36F8F1A
:102EF000BFF34F8FFEE7314A1168314B18681060FD
:102F00001960304A136801331360FFF78FFD2E4BB1
:102F10001B68AB423DD900272C4B1B68DB6A03EBD7
:102F200083039A002A4B9B58012B00D90127294B78
:102F30001B68002B3CD001273AE001271F4B1B6880
:102F40001B6843B31D4B1B68DB68DC6863689D42EC
:102F500026D3261D3046FFF701FAA36A1BB104F100
:102F60001800FFF7FBF9E36A1B4A1268934201D984
:102F7000194A136003EB83039A0031461448104446
:102F8000FFF7C8F9E26A114B1B68DB6A9A42D4D298
:102F9000D4E70027D2E70C4B4FF0FF321A60BBE7B3
:102FA000094A1360B8E70D4A13680133136000271C
:102FB0003846F8BDC89F0020EC9F002038A00020B4
:102FC00034A00020D89F0020D09F0020C4A400205F
:102FD00064A00020DC9F0020E89F0020E09F0020EC
:102FE00038B5354B1B6843B94FF0500383F3118854
:102FF000BFF36F8FBFF34F8FFEE700F093FE2E4BB2
:103000001A68013A1A601B68002B4FD12B4B1B68C2
:103010000BB900244BE00024294B1B681BB3284B41
:10302000DB68DC6804F11800FFF798F9251D2846D5
:10303000FFF794F9E06A234B1B68984201D9214BB2
:10304000186000EB800029461F4B03EB8000FFF760
:1030500061F9E26A1D4B1B68DB6A9A42DCD31C4BA8
:1030600001221A60D8E70CB1FFF7E0FC194B1C688D
:1030700084B9174B1C68D4B14FF0E0234FF0805255
:10308000C3F8042DBFF34F8FBFF36F8F01240EE001
:10309000013C07D0FFF718FF0028F9D00C4B0122A4
:1030A0001A60F5E70B4B00221A60E2E7002400F0FB
:1030B0005BFE204638BD00BFC89F0020F09F002067
:1030C00020A00020E89F002064A00020C4A40020CD
:1030D000DC9F0020E09F002010B5A8B10446104BF3
:1030E0001B6843B14FF0500383F31188BFF36F8F18
:1030F000BFF34F8FFEE7FFF7D9FE00212046FFF711
:10310000DDFDFFF76DFF48B94FF0E0234FF080522F
:10311000C3F8042DBFF34F8FBFF36F8F10BD00BFF7
:10312000C89F0020204B1B681BB1204B01221A6056
:1031300070471E4B00221A601D4B1B6803EB830176
:103140008A001C498A585AB90BB1013BF6E74FF087
:10315000500383F31188BFF36F8FBFF34F8FFEE7E8
:10316000084603EB83018A000244516849685160B4
:1031700003EB830C4FEA8C020832024491420BD0DD
:1031800003EB830291000B4A0A445268D1680A4A51
:103190001160074A13607047486862469100054A0B
:1031A0000A445060ECE700BFC89F0020DC9F00206D
:1031B000E89F002064A00020C4A4002058B110B5EE
:1031C0000C46094A11681831FFF7AFF80121204673
:1031D000FFF774FD10BD4FF0500383F31188BFF368
:1031E0006F8FBFF34F8FFEE7C4A4002038B570B1D6
:1031F0000D4614460A4A11681831FFF78BF80CB1D6
:103200004FF0FF3521462846FFF758FD38BD4FF0F7
:10321000500383F31188BFF36F8FBFF34F8FFEE727
:10322000C4A4002038B5C368DC6824B304F11805D1
:103230002846FFF793F8184B1B682BBB251D284623
:10324000FFF78CF8E06A154B1B68984201D9134BC5
:10325000186000EB80002946114B03EB8000FFF75C
:1032600059F8E26A0F4B1B68DB6A9A4211D90120B8
:103270000D4B186038BD4FF0500383F31188BFF336
:103280006F8FBFF34F8FFEE729460848FFF742F8DC
:10329000E7E70020EEE700BFC89F0020E89F00207E
:1032A00064A00020C4A40020DC9F002020A00020F7
:1032B00060B110B5044600F035FD094B1B68236072
:1032C000084B1B68636000F04FFD10BD4FF05003CA
:1032D00083F31188BFF36F8FBFF34F8FFEE700BFFB
:1032E000D89F0020EC9F0020034B1B680360034B1A
:1032F0001B684360704700BFD89F0020EC9F0020F0
:10330000F8B5C8B10C460546F9B100F00BFD1B4BF2
:1033100019686B68C81A2268B2F1FF3F26D0184EB0
:1033200036682F68B74201D08B4224D9824215D823
:103330000023236001241AE04FF0500383F3118827
:10334000BFF36F8FBFF34F8FFEE74FF0500383F350
:103350001188BFF36F8FBFF34F8FFEE75B1A1344E3
:1033600023602846FFF7C0FF002400E0002400F09F
:10337000FBFC2046F8BD0124F9E700BFEC9F0020CC
:10338000D89F0020014B01221A607047DC9F00206B
:10339000054B1B6833B1054B1B680BB10020704710
:1033A0000220704701207047E49F0020C89F002042
:1033B00000283BD038B504461E4B1B68834208D01A
:1033C0004FF0500383F31188BFF36F8FBFF34F8F1C
:1033D000FEE7036D43B94FF0500383F31188BFF349
:1033E0006F8FBFF34F8FFEE7013B0365C16AC26C6D
:1033F00091421DD00BB1002038BD051D2846FEF7B7
:10340000ADFFE06CE062C0F13803A3610A4B1B68BA
:10341000984201D9084B186000EB80002946074B01
:1034200003EB8000FEF776FF0120E5E70020704700
:103430000020E1E7C4A40020E89F002064A0002051
:10344000064B1A6813682BB90123036023B9D368AC
:10345000186870470023F8E700207047C8A50020CF
:1034600008B54160006191420CD8D21A83699A4232
:1034700001D3012008BD011D094B1868FEF755FF57
:103480000020F7E79A4201D2994206D2011D054B6E
:103490001868FEF74AFF0020ECE70120EAE700BFCA
:1034A000C4A50020C8A5002030B583B000F03AFCC8
:1034B000114B1B681BB100F057FC03B030BD0F4D22
:1034C0002846FEF719FF0E4C2046FEF715FF0D4B60
:1034D0001D600D4B1C60002300930C4B0C4A102107
:1034E0000A20FFF741F8044B18600028E3D009498F
:1034F000FFF75EFADFE700BFC0A50020E0A50020CF
:10350000CCA50020C8A50020C4A50020C8A4002088
:1035100018A500200444010810B588B0FFF7C4FFC7
:10352000124B1B68CBB100240594069407AA06A988
:1035300005A800F061FA059B0293069B0193022304
:1035400000932346079A0A490A48FFF7F5FB0A4BFE
:10355000186010B1012008B010BD4FF0500383F384
:103560001188BFF36F8FBFF34F8FFEE7C0A5002018
:103570000C4401087D380008BCA50020B8B19C4669
:1035800003461848006858B300B585B00091019211
:10359000029305291CDCFFF7FBFE022810D0002354
:1035A0001A4669460F480068FFF728F815E04FF003
:1035B000500383F31188BFF36F8FBFF34F8FFEE784
:1035C0000023069A694607480068FFF717F804E0E9
:1035D000002362466946FFF7D5F805B05DF804FBA5
:1035E00000207047C0A5002070B582B01B4B1B683F
:1035F0001A6862B3DB681E68DC68251D2846FEF782
:10360000ADFE236A2046984794F8283013F0040F43
:10361000ECD0A36933449E4207D2636024612946FB
:103620000E4B1868FEF781FEE0E7002100910B4683
:1036300032462046FFF7A2FF0028D7D14FF05003B3
:1036400083F31188BFF36F8FBFF34F8FFEE7044AF8
:10365000106802490860136002B070BDC8A5002060
:10366000C4A5002038B50546FFF728FC0446074BE3
:103670001B68834205D800232B60044B1C60204646
:1036800038BDFFF7B1FF01232B60F6E7B8A5002096
:1036900070B582B006460D4617490968C968CC68FE
:1036A000201DFEF75BFE94F828C01CF0040F08D123
:1036B0002CF0010C84F828C0236A2046984702B0F9
:1036C00070BDA16933462A4631442046FFF7C8FE43
:1036D0000028F1D0002100910B4632462046FFF72A
:1036E0004DFF0028E8D14FF0500383F31188BFF35A
:1036F0006F8FBFF34F8FFEE7C8A5002070B582B073
:1037000006460C46FFF7D2FB01A8FFF7ABFF019B73
:1037100033BB0546E4B9B04213D22246711B124BAB
:103720001868FFF759F9FFF75BFCD8B94FF0E023B1
:103730004FF08052C3F8042DBFF34F8FBFF36F8F4C
:1037400010E0FFF74DFC29463046FFF7A1FF09E0E6
:10375000064A126812680AB90124DEE71C46DCE753
:10376000FFF73EFC02B070BDC0A50020C4A500203C
:1037700010B588B002E0049B002B0FDA002204A9E8
:103780003D4B1868FFF765F8002873D0049B002BA9
:10379000F1DA07990698059B9847ECE7069C636960
:1037A00013B1201DFEF7DAFD03A8FFF75BFF049BB2
:1037B000092BE3D8DFE803F0050505303750050590
:1037C000303794F8283043F0010384F82830059B03
:1037D000A169024619442046FFF742FE0028CDD0D9
:1037E000236A2046984794F8283013F0040FC5D078
:1037F000A269002100910B46059802442046FFF77C
:10380000BDFE0028BAD14FF0500383F31188BFF3F7
:103810006F8FBFF34F8FFEE794F8283023F001033A
:1038200084F82830AAE794F8283043F0010384F89C
:1038300028300599A16131B1034602460144204672
:10384000FFF70EFE9AE74FF0500383F31188BFF3A2
:103850006F8FBFF34F8FFEE794F8283013F0020FFD
:1038600004D023F0010384F8283087E7204600F0D5
:10387000B5F983E708B010BDC0A5002000B583B03E
:1038800001A8FFF7DDFD0199FFF738FFFFF770FF93
:10389000F6E708B54FF0E0231B69FFF779FD012833
:1038A00000D108BD00F0AEFAFBE70000EFF305839E
:1038B0002BB9064B186828B901221A6070476FF0BF
:1038C000050070474FF0FF30704700BFACAC0020E0
:1038D000EFF3058373B90A4B1B68012B0DD110B5AB
:1038E0000024084BDC77064B02221A60FFF792FA9D
:1038F000204610BD6FF0050070474FF0FF30704755
:10390000ACAC002000ED00E0F0B587B000240594D9
:10391000EFF3058474BB68B322B31568936903B9E8
:1039200018235C1E372C49D8546814F0010F47D176
:1039300056696EB14FEA960C94682CB1D7685B2F2C
:1039400002D9176907B1C6B92CB14FF0FF340EE0A8
:103950004FF0800CF0E7D4688CB9146994B14FF043
:10396000FF3404E01546002418234FF0800C012C8E
:103970000AD0ACB1059807B0F0BD0124F7E74FF0CD
:10398000FF34F4E70024F2E714699268029201948C
:1039900000930B4662462946FFF7CEF90590E9E70A
:1039A00005AA019200930B461FFA8CF22946FFF7F5
:1039B000FEF90128DED000230593DBE70020DAE7DB
:1039C0000020D8E708B5EFF3058333B908B9002024
:1039D00008BDFFF781FB0020FAE76FF00500F7E76D
:1039E000034B0360034B0B6080231360704700BFE1
:1039F00050AC002050AA0020034B0360034B0B6027
:103A00004FF4807313607047F4A90020F4A50020E0
:103A1000124A12F0070F1ED0D11D21F00701C1F587
:103A2000705313440A460E4802600021416013445B
:103A3000083B23F007030B48036059601960991A8B
:103A400051601360084B1960084B1960084B4FF028
:103A500000421A6070474FF47053E4E7D0AC002086
:103A6000C8AC0020C4AC0020BCAC0020C0AC00201E
:103A7000B0AC0020164B1A461B688342FBD351683A
:103A800002EB010C844509D0416800EB010C634551
:103A900009D00360904219D010607047406801441B
:103AA00051601046F0E710B40A4C2468A3420BD0D2
:103AB0005B681944416013681B680360904200D042
:103AC00010605DF8044B70470460F7E7704700BF73
:103AD000C8AC0020C4AC002038B50446FFF7E6F9B6
:103AE000384B1B68B3B1384B1B681C4250D1002CBB
:103AF00050D004F1080214F0070F02D022F00702A0
:103B00000832002A55D0314B1B68934253D33049B9
:103B10000C6804E0FFF77CFFE5E721461C4663687C
:103B2000934202D22368002BF7D1264B1B68A34295
:103B300043D00D68083523680B6063689B1A102B0F
:103B400010D9A01810F0070F08D04FF0500383F3DE
:103B50001188BFF36F8FBFF34F8FFEE74360626042
:103B6000FFF788FF626819490B689B1A0B601949B7
:103B700009688B4201D217490B60134B1B68134332
:103B8000636000232360144A13680133136002E06A
:103B9000002500E00025FFF723FA15F0070F0ED0EF
:103BA0004FF0500383F31188BFF36F8FBFF34F8F34
:103BB000FEE70025EFE70025EDE70025EBE72846C7
:103BC00038BD00BFC4AC0020B0AC0020C0AC0020A9
:103BD000C8AC0020BCAC0020B8AC0020002834D019
:103BE00038B50446A0F1080550F8043C174A12689D
:103BF000134208D14FF0500383F31188BFF36F8F46
:103C0000BFF34F8FFEE750F8081C41B14FF050034F
:103C100083F31188BFF36F8FBFF34F8FFEE723EA63
:103C2000020340F8043CFFF741F954F8041C084A29
:103C300013680B4413602846FFF71CFF054A1368FE
:103C400001331360FFF7CCF938BD7047B0AC0020EA
:103C5000C0AC0020B4AC002082B0002301930D4B17
:103C60001B68B3F1FF3F08D04FF0500383F3118876
:103C7000BFF36F8FBFF34F8FFEE74FF0500383F317
:103C80001188BFF36F8FBFF34F8F019B002BFCD0C8
:103C900002B070470C00002008480068006880F3FC
:103CA00008884FF0000080F3148862B661B6BFF355
:103CB0004F8FBFF36F8F00DF00BF000008ED00E003
:103CC000DFF80C00016841F47001016070470000EA
:103CD00088ED00E04FF0807340F8043C21F00101D2
:103CE00040F8081C054B40F80C3C40F8202C6FF0C5
:103CF000020340F8243C4438704700BF593C000898
:103D0000074B19680868B0E8F04F80F30988BFF3E3
:103D10006F8F4FF0000080F311887047AFF3008081
:103D2000C4A400204FF0500383F31188BFF36F8FBA
:103D3000BFF34F8F0B4A136801331360012B00D080
:103D400070474FF0E023D3F8043D13F0FF0FF7D096
:103D50004FF0500383F31188BFF36F8FBFF34F8F82
:103D6000FEE700BF0C000020094B1B6843B94FF071
:103D7000500383F31188BFF36F8FBFF34F8FFEE7BC
:103D8000013B034A13600BB983F31188704700BFEE
:103D90000C000020000000000000000000000000F7
:103DA000EFF30980BFF36F8F154B1A681EF0100FE9
:103DB00008BF20ED108A20E9F04F10602DE90900BE
:103DC0004FF0500080F31188BFF34F8FBFF36F8F18
:103DD000FFF7A8F94FF0000080F3118809BC1968BB
:103DE0000868B0E8F04F1EF0100F08BFB0EC108A62
:103DF00080F30988BFF36F8F704700BFAFF3008077
:103E0000C4A4002008B54FF0500383F31188BFF31A
:103E10006F8FBFF34F8FFFF757F828B14FF0E023B4
:103E20004FF08052C3F8042D002383F3118808BD9E
:103E30004FF0E022002313619361054B1B68054995
:103E4000A1FB03139B09013B5361072313617047D7
:103E500008000020D34D62104FF0E023D3F8002D6E
:103E60003D4B9A421CD04FF0E023D3F8002D3B4B42
:103E70009A421ED030B583B0394B1A78D2B2019233
:103E8000FF221A701B78DBB28DF803309DF80330E7
:103E900003F05003334A1370334B07221A601BE0C0
:103EA0004FF0500383F31188BFF36F8FBFF34F8F31
:103EB000FEE74FF0500383F31188BFF36F8FBFF31A
:103EC0004F8FFEE7284A1368013B13609DF80330CB
:103ED0005B00DBB28DF803309DF8033013F0800FE8
:103EE000F0D1214B1B68032B08D04FF0500383F314
:103EF0001188BFF36F8FBFF34F8FFEE71B021A4A83
:103F0000136003F4E0631360019BDBB2144A137087
:103F10004FF0E024D4F8203D43F47003C4F8203D72
:103F2000D4F8203D43F07043C4F8203DFFF780FFF4
:103F300000250E4B1D60FFF7C3FED4F8343F43F05D
:103F40004043C4F8343FFFF7A7FEFFF7EBF8FFF755
:103F500083FE284603B030BD71C20F4170C20F41CD
:103F600000E400E0D4E80020D0E800200C000020AD
:103F7000EFF305830F2B0FD9114A9B5CDBB2114A7B
:103F800012789A4208D94FF0500383F31188BFF397
:103F90006F8FBFF34F8FFEE74FF0E023D3F80C3D58
:103FA00003F4E063084A1268934208D94FF05003C3
:103FB00083F31188BFF36F8FBFF34F8FFEE7704716
:103FC000F0E300E0D4E80020D0E8002010B582B093
:103FD000002400941A4B1A6B42F400121A631A6BF5
:103FE00002F400120092009A01941A6B42F48002CB
:103FF0001A631B6B03F480030193019B2246052186
:104000001020FDF799FF1020FDF7A6FF224605219D
:104010001120FDF791FF1120FDF79EFF224605219B
:104020003A20FDF789FF3A20FDF796FF2246052149
:104030004620FDF781FF4620FDF78EFF02B010BD40
:104040000038024008B50A480A4B03604FF4E133D8
:10405000436000238360C36003610C22426183617B
:10406000C36100F00FFB00B908BDFCF7AFF9FBE737
:1040700068EB0020004C004008B50A480A4B03607A
:104080004FF4E133436000238360C36003610C227B
:1040900042618361C36100F0F5FA00B908BDFCF725
:1040A00095F9FBE724EB00200050004008B50A48D2
:1040B0000A4B03604FF4E133436000238360C36025
:1040C00003610C2242618361C36100F0DBFA00B935
:1040D00008BDFCF77BF9FBE7E0EA00200010014097
:1040E00008B50A480A4B03600A4B4360002383600B
:1040F000C36003610C2242618361C36100F0C2FAB4
:1041000000B908BDFCF762F9FBE700BF9CEA00209C
:104110000044004060E3160008B50A480A4B0360FB
:104120004FF4E133436000238360C36003610C22DA
:1041300042618361C36100F0A5FA00B908BDFCF7D4
:1041400045F9FBE758EA002000480040F0B593B07D
:1041500000230D930E930F93109311930368754AE8
:10416000934210D00446744A934244D0734A934217
:1041700079D0734A934200F0F780724A934200F07C
:10418000588113B0F0BD002401946F4B1A6C42F4B7
:1041900000221A641A6C02F400220192019A02941D
:1041A0001A6B42F001021A631A6B02F001020292CA
:1041B000029A03941A6B42F004021A631B6B03F019
:1041C00004030393039B01230D9302270E970326F9
:1041D0001096082511950DA95C48FDF7FFFA4FF4DC
:1041E00000630D930E970F94109611950DA95848E2
:1041F000FDF7F4FAC5E700240494534B1A6C42F41B
:1042000080121A641A6C02F480120492049A0594C3
:104210001A6B42F004021A631A6B02F00402059250
:10422000059A06941A6B42F008021A631B6B03F09E
:1042300008030693069B4FF480530D9302270E97B5
:1042400003261096082511950DA94148FDF7C6FAD9
:1042500004230D930E970F94109611950DA93D48C8
:10426000FDF7BCFA8DE700250795374B5A6C42F0F5
:1042700010025A645A6C02F010020792079A0895CD
:104280001A6B42F001021A631B6B03F001030893DF
:10429000089B4FF4C0630D9302230E9303231093E6
:1042A000072311930DA92948FDF798FA2A482B4BAB
:1042B00003604FF0006343608560C5604FF4806326
:1042C0000361456185614FF48073C3614FF44033EE
:1042D00003624562FDF704FC28BB1F4BA3639C638C
:1042E0001F48204B03604FF000634360402383600E
:1042F0000023C3604FF48062026143618361C36144
:104300004FF4403202624362FDF7EAFB70B9144B8E
:1043100063639C63002205212520FDF70DFE252007
:10432000FDF71AFE2DE7FCF751F8D6E7FCF74EF83B
:10433000EDE700BF004C004000500040001001407D
:1043400000440040004800400038024000000240A5
:1043500000080240000C0240F8E9002040640240DE
:1043600098E90020B864024000250995434B1A6C77
:1043700042F400321A641A6C02F400320992099A6B
:104380000A951A6B42F001021A631B6B03F00103DA
:104390000A930A9B0C230D9302230E93032310937D
:1043A000072311930DA93648FDF718FA3548364B07
:1043B00003604FF0006343608560C5604FF4806325
:1043C0000361456185614FF48073C3614FF44033ED
:1043D00003624562FDF784FB28BB2A4BA3639C6301
:1043E0002A482B4B03604FF00063436040238360F7
:1043F0000023C3604FF48062026143618361C36143
:104400004FF4403202624362FDF76AFB70B91F4B02
:1044100063639C63002205212620FDF78DFD262085
:10442000FDF79AFDADE6FBF7D1FFD6E7FBF7CEFF30
:10443000EDE700210B91114B1A6C42F480221A64B3
:104440001A6C02F480220B920B9A0C911A6B42F0B8
:1044500008021A631B6B03F008030C930C9B4FF4C8
:1044600040730D9302230E9303231093072311939C
:104470000DA90848FDF7B2F983E600BF00380240F5
:104480000000024038E9002088600240D8E800209F
:10449000A0600240000C0240026802F10C0353E8E5
:1044A000003F23F0C0030C3242E800310029F3D171
:1044B000202380F83D307047026802F10C0353E876
:1044C000003F23F490730C3242E800310029F3D10D
:1044D000026802F1140353E8003F23F00103143291
:1044E00042E800310029F3D1036B012B05D02023D2
:1044F00080F83E30002303637047026802F10C032A
:1045000053E8003F23F010030C3242E80031002949
:10451000F3D1ECE790F83D30DBB2212B01D0022043
:1045200070478368B3F5805F17D0036A5A1C026234
:104530001A7803685A60C38C9BB2013B9BB2C38458
:104540004BB90268D36823F08003D3600268D36854
:1045500043F04003D360002070470369002BE4D18F
:10456000036A1B880268C3F308035360036A0233BB
:104570000362E0E710B504460268136923F4405370
:10458000C1680B431361836802691A4343691A4384
:10459000C3691A430168CB6823F4164323F00C0364
:1045A0001343CB600268536923F4407381690B4362
:1045B00053610368314A934206D002F58062934208
:1045C00002D0FDF7CDF801E0FDF7DAF8E369B3F5C5
:1045D000004F29D00021031849411B1841F1000167
:1045E000C90041EA5371DB00181863684FEA83027F
:1045F0004FEA937341F10001FBF76AFE204AA2FBE8
:1046000000314909642303FB11031B013233A2FB70
:1046100003235B0903F0F00202EB011203F00F0326
:10462000216813448B6010BD0023021843EB030183
:10463000121841F10001C90041EA5271D20010186C
:1046400041F10001626892185B41FBF741FE0C4AA0
:10465000A2FB00314909642303FB1103DB00323361
:10466000A2FB03235B095A0002F4F87202EB011269
:1046700003F00703216813448B60D4E70010014066
:104680001F85EB5158B310B5044690F83D300BB37D
:10469000242384F83D302268D36823F40053D36088
:1046A0002046FFF767FF2268136923F490431361E4
:1046B0002268536923F02A0353612268D36843F4C4
:1046C0000053D36000202064202384F83D3084F818
:1046D0003E3010BD80F83C30FFF738FDD8E70120B0
:1046E0007047000038B5134690F83D20D2B2202A1A
:1046F00037D10446002936D0002B36D090F83C2024
:10470000012A34D0012280F83C2001628384C384D2
:1047100000250564212280F83D20426B1548D063B6
:10472000626B15481064626B1448D064626B156547
:1047300022680432606BFDF739FA23686FF040029B
:104740001A6084F83C50226802F1140353E8003FD9
:1047500043F08003143242E800310029F3D10020F5
:1047600000E0022038BD0120FCE70120FAE702202A
:10477000F8E700BF074800086F4800087F480008B6
:1047800010B5044603685A6990F83D30DBB2212B1E
:104790000AD023685A6902F0400294F83E30DBB236
:1047A000222B19D0002010BD02F08002002AF0D088
:1047B000226802F1140353E8003F23F0800314320F
:1047C00042E800310029F3D1606B08B1FDF723FA0C
:1047D0002046FFF761FEDCE7002AE3D0226802F101
:1047E000140353E8003F23F04003143242E8003141
:1047F0000029F3D1A06B08B1FDF70DFA2046FFF7B1
:104800005BFECFE7704708B50346806B1B681B68EB
:1048100013F4807F1AD10023C384026802F11403C9
:1048200053E8003F23F08003143242E800310029AE
:10483000F3D1026802F10C0353E8003F43F0400358
:104840000C3242E800310029F3D108BDFFF7DAFF4E
:10485000FBE708B50168CA6822F04002CA6020225E
:1048600080F83D20FFF7CEFF002008BD704708B557
:10487000806BFFF7FBFF08BD70477047704710B5AE
:10488000846B23685A6994F83D30DBB2212B10D039
:1048900023685A6902F0400294F83E30DBB2222BC2
:1048A00011D0236C43F0100323642046FFF7E6FF8A
:1048B00010BD02F08002002AEAD00023E3842046E3
:1048C000FFF7EAFDE4E7002AEBD00023E38520466A
:1048D000FFF7F2FDE5E708B5806B0023C385C384CD
:1048E000FFF7CCFF08BD704790F83E30DBB2222BBB
:1048F00067D18368B3F5805F4DD0826AB3F5805F7E
:1049000004D0002B54D10369002B51D103685B689C
:104910001370836A01338362C38D9BB2013B9BB2E8
:10492000C385002B4FD100B583B00268D36823F054
:104930002003D3600268D36823F48073D3600268D5
:10494000536923F001035361202380F83E30036B49
:10495000012B33D100230363026802F10C0353E8F7
:10496000003F23F010030C3242E800310029F3D15C
:1049700003681A6812F0100F06D0002201921A681C
:1049800001925B680193019B818DFFF7ACFF0020D2
:1049900003B05DF804FB0269002AAED1826A0368A5
:1049A0005B68C3F308031380836A02338362B3E74F
:1049B00003685B6803F07F031370AAE7FFF75CFFEF
:1049C000E5E70220704700207047000010B582B074
:1049D000044602681368D068516913F00F0F09D1BB
:1049E00013F0200F0CD010F0200F09D02046FFF755
:1049F0007BFF16E011F0010115D110F4907F12D168
:104A0000216B012979D013F0800F03D010F0800FB3
:104A100040F0108113F0400F03D010F0400F40F031
:104A20000D8102B010BD13F0010F06D010F4807F8D
:104A300003D0226C42F00102226413F0040F04D070
:104A400019B1226C42F00202226413F0020F04D06A
:104A500019B1226C42F00402226413F0080F07D04F
:104A600010F0200F00D119B1226C42F0080222642C
:104A7000226C002AD5D013F0200F02D010F0200FA6
:104A800029D123685B6903F04003226C12F0080F00
:104A900000D163B32046FFF70FFD23685B6913F075
:104AA000400F20D0226802F1140353E8003F23F0A6
:104AB0004003143242E800310029F3D1A36B73B1F3
:104AC000604A1A65A06BFDF7F0F80028A9D0A06B2A
:104AD000036D9847A5E72046FFF706FFD1E720467C
:104AE000FFF7CCFE9DE72046FFF7C8FE99E720467A
:104AF000FFF7C4FE0023236493E713F0100F82D066
:104B000010F0100F3FF47FAF00230193136801935F
:104B100053680193019B536913F0400F50D0A26B6F
:104B200013685B689BB2002B3FF47BAFA18D994269
:104B30007FF677AFE385D369B3F5807F37D02268FE
:104B400002F10C0353E8003F23F480730C3242E877
:104B500000310029F3D1226802F1140353E8003F29
:104B600023F00103143242E800310029F3D1226816
:104B700002F1140353E8003F23F04003143242E8EB
:104B800000310029F3D1202384F83E300023236331
:104B9000226802F10C0353E8003F23F010030C32AB
:104BA00042E800310029F3D1A06BFDF734F8A18D64
:104BB000E38D9BB2C91A89B22046FFF794FE30E715
:104BC000A18DE38D9BB2C91A89B2E38D9BB2002BF4
:104BD0003FF427AF00293FF424AF226802F10C0311
:104BE00053E8003F23F490730C3242E80030002871
:104BF000F3D1226802F1140353E8003F23F00103CC
:104C0000143242E800300028F3D1202384F83E30EB
:104C100000232363226802F10C0353E8003F23F0D2
:104C200010030C3242E800300028F3D12046FFF791
:104C30005AFEF6E62046FFF76DFCF2E62046FFF747
:104C400008FEEEE6D748000808B5806B036B012B21
:104C500002D0FFF712FE08BD818D4908FFF743FE21
:104C6000F9E708B50346806B1B681B6813F4807F67
:104C70002BD10023C385026802F10C0353E8003FE7
:104C800023F480730C3242E800310029F3D102682A
:104C900002F1140353E8003F23F00103143242E809
:104CA00000310029F3D1026802F1140353E8003FF8
:104CB00023F04003143242E800310029F3D12023CD
:104CC00080F83E30036B012B05D0036B012B0FD016
:104CD000FFF7D2FD08BD026802F10C0353E8003F64
:104CE00023F010030C3242E800310029F3D1ECE745
:104CF000818DFFF7F8FDEDE730B583B0044613462C
:104D00008162828500250564222280F83E20826B24
:104D10002048D063A26B20481064A26B1F48D06467
:104D2000A26B156520680A46011DA06BFCF73EFFCB
:104D3000019523681A6801925B680193019B84F8CE
:104D40003C5023695BB1226802F10C0353E8003F39
:104D500043F480730C3242E800310029F3D1226819
:104D600002F1140353E8003F43F00103143242E818
:104D700000310029F3D1226802F1140353E8003F07
:104D800043F04003143242E800310029F3D10020FF
:104D900003B030BD634C0008494C00087F48000850
:104DA00008B590F83E30DBB2202B0DD171B17AB14D
:104DB00090F83C30012B0DD0012380F83C300023CB
:104DC0000363FFF799FF00E0022008BD0120FCE724
:104DD0000120FAE70220F8E708B50A480A4B036009
:104DE0000023436083604FF6FF72C26003618361FA
:104DF000FBF706FF18B90348FBF798FD08BDFBF762
:104E0000E5FAF8E7ACEB00200020004082B0036830
:104E1000104A934204D0104A93420ED002B0704719
:104E2000002300930D4B1A6C42F002021A641B6CB3
:104E300003F002030093009BF0E700230193074B6C
:104E40005A6C42F480325A645B6C03F480330193F1
:104E5000019BE3E7000400400040014000380240AD
:104E600000B583B00368154A934205D0144A9342B3
:104E70000FD003B05DF804FB00230093114B1A6CB4
:104E800042F004021A641B6C03F004030093009BBD
:104E9000EFE7002201920B4B196C41F48071196409
:104EA0001B6C03F480730193019B05212D20FDF7FA
:104EB00043F82D20FDF750F8DBE700BF0008004065
:104EC000002000400038024000B589B00023039361
:104ED00004930593069307930368284A934208D0E6
:104EE000274A93421CD0274A934230D009B05DF83C
:104EF00004FB00230093244B1A6B42F004021A6354
:104F00001B6B03F004030093009B4FF47073039337
:104F100002230493079303A91C48FCF75FFCE5E711
:104F200000230193184B1A6B42F008021A631B6BA3
:104F300003F008030193019B4FF470430393022392
:104F40000493079303A91248FCF748FCCEE700231B
:104F500002930D4B1A6B42F010021A631B6B03F0A5
:104F600010030293029B6023039302230493032301
:104F7000079303A90748FCF731FCB7E7000400409A
:104F80000008004000400140003802400008024094
:104F9000000C02400010024000B58BB000230893C3
:104FA0000993019302930393049305930693079344
:104FB0002648274A0260A722426083604FF47A7233
:104FC000C260036180238361FBF746FE60BB002360
:104FD0000893099308A91D48FCF774F838BB6023AF
:104FE00001930022029202230393059201A917481C
:104FF000FBF796FEF0B904220DEB02011348FBF714
:105000008FFED0B9082201A91048FBF789FEB8B974
:105010000C2201A90D48FBF783FEA0B90B48FFF74E
:1050200053FF0BB05DF804FBFBF7D0F9CFE7FBF7BC
:10503000CDF9D4E7FBF7CAF9DDE7FBF7C7F9E1E7FC
:10504000FBF7C4F9E4E7FBF7C1F9E7E784EC0020DC
:105050000004004000B58FB000230A930B930C931B
:105060000D9308930993019302930393049305937B
:10507000069307933148324A0260532242608360AC
:105080004FF47A72C260036180238361FBF7B8FD3D
:1050900000283AD14FF480530A930AA92748FBF716
:1050A000BAFE002834D12548FBF7D6FD002832D1BE
:1050B00000230893099308A92048FCF703F868BB6C
:1050C000602301930022029202230393059201A917
:1050D0001A48FBF725FE20BB04220DEB02011748FE
:1050E000FBF71EFE00BB082201A91448FBF718FEBF
:1050F000E8B90C2201A91148FBF712FED0B90F48FC
:10510000FFF7E2FE0FB05DF804FBFBF75FF9C1E7C4
:10511000FBF75CF9C7E7FBF759F9C9E7FBF756F965
:10512000CEE7FBF753F9D7E7FBF750F9DBE7FBF7DF
:105130004DF9DEE7FBF74AF9E1E700BF3CEC002060
:105140000008004000B589B0002301930293039347
:1051500004930593069307931648174A0260436029
:1051600083604FF6FF72C26003618361FBF774FDD9
:10517000B8B960230193002202920392059201A91B
:105180000C48FBF7CDFD78B904220DEB020109486C
:10519000FBF7C6FD58B90748FFF796FE09B05DF862
:1051A00004FBFBF713F9E4E7FBF710F9ECE7FBF777
:1051B0000DF9F0E7F4EB00200040014001207047BA
:1051C00008B501F083FD162303604FF0FF3008BDE2
:1051D00008B54FF0FF31FFF7F3FFFEE770B50C465F
:1051E0001646002506E0AFF30080214601F8010BCA
:1051F00001350C46B542F6DB304670BD70B50C4645
:105200001646002504E014F8010BAFF300800135C9
:10521000B542F8DB304670BD08B503460D4A12684A
:105220005AB10C4A106803440B4A11780B4A521ABF
:10523000934206D8074A136008BD064A0849116020
:10524000EFE700BE01F042FD0C2303604FF0FF309A
:10525000F2E700BFCCEC00200004000000000220B8
:10526000387F01204FF0FF3070474FF400534B6000
:1052700000207047012070470020704708B50B4898
:105280000B4B03601023436000238360C360036102
:105290004361037643768376C3760377437700F0E2
:1052A00035F900B908BDFBF791F8FBE7D4EC002015
:1052B0000064004000B589B0002303930493059374
:1052C000069307930268154B9A4202D009B05DF825
:1052D00004FB0021019103F5EA331A6C42F00072DD
:1052E0001A641A6C02F000720192019A02911A6B10
:1052F00042F001021A631B6B03F001030293029B4D
:105300004FF4C0530393022304930323069309230A
:10531000079303A90248FCF761FAD7E7006400404D
:105320000000024008B50B480B4B03600B4B436079
:1053300000238360C3604FF4804202614361836154
:10534000C361036200F088F900B908BDFBF73EF8BD
:10535000FBE700BF50ED002000540040A086010094
:1053600008B50B480B4B03600B4B43600023836075
:10537000C3604FF48042026143618361C361036291
:1053800000F06AF900B908BDFBF720F8FBE700BFA1
:10539000FCEC002000580040A086010030B58BB026
:1053A0000023059306930793089309930368274AFC
:1053B000934204D0264A934224D00BB030BD00253E
:1053C0000195244C236B43F002032363236B03F00A
:1053D00002030193019BC023059312230693032329
:1053E00008930423099305A91B48FCF7F7F90295D4
:1053F000236C43F400132364236C03F4001302931F
:10540000029BDAE700250395124C236B43F002035D
:105410002363236B03F002030393039B4FF4406366
:10542000059312230693032308930423099305A9E4
:105430000948FCF7D3F90495236C43F480032364F3
:10544000236C03F480030493049BB6E700540040EC
:1054500000580040003802400004024008B50D48E2
:105460000D4B03604FF48273436000238360C3607D
:10547000036143614FF400728261C361036243625E
:1054800083620A23C36200F0C5F900B908BDFAF7C8
:105490009DFFFBE7A4ED00200030014000B589B07E
:1054A0000023039304930593069307930268154B17
:1054B0009A4202D009B05DF804FB0021019103F586
:1054C00084335A6C42F480525A645A6C02F480520B
:1054D0000192019A02911A6B42F001021A631B6B4E
:1054E00003F001030293029BE0230393022304933E
:1054F000032306930523079303A90348FCF76EF9DA
:10550000D8E700BF0030014000000240002800F052
:10551000A18038B5044690F82030D3B122681368D2
:1055200043F001031360FCF74BFD054623685A68FE
:1055300012F0010F10D1FCF743FD401B0A28F5D9EA
:10554000636A43F400336362052384F8203001204A
:1055500038BDFFF7AFFEE1E71A6822F002021A60D9
:10556000FCF72EFD054623685A6812F0020F0DD095
:10557000FCF726FD401B0A28F5D9636A43F4003383
:105580006362052384F820300120E1E7227E012AAE
:105590003DD01A6822F080021A60637E012B3BD056
:1055A0002268136823F040031360A37E012B39D0D7
:1055B0002268136823F020031360E37E012B37D0A9
:1055C0002268136843F010031360237F012B35D04A
:1055D0002268136823F008031360637F012B33D024
:1055E0002268136823F004031360A368E26813437E
:1055F00022691343626913436268013A21681343C5
:10560000CB6100206062012384F82030A0E71A6893
:1056100042F080021A60C0E72268136843F040033A
:105620001360C2E72268136843F020031360C4E7E5
:105630002268136823F010031360C6E7226813681A
:1056400043F008031360C8E72268136843F00403BB
:105650001360CAE701207047002800F0CC8070B5C5
:10566000044690F83D30002B77D0242384F83D3059
:105670002268136823F0010313602268136843F45F
:10568000004313602268136823F400431360FCF79F
:1056900067F862685A4B9A4264D85A4B98428CBF5A
:1056A00000230123002B40F0A8805749A1FB0031C3
:1056B0008B0C25686A6822F03F0242EA91426A60D8
:1056C00021680A6A22F03F0266684D4DAE424FD80B
:1056D000013313430B622168CA6922F44F4222F05E
:1056E000FF026568464B9D424CD8431E6D00B3FBDC
:1056F000F5F3013340F6FC70034278D0C3F30B039B
:105700001A43CA6121680B6823F0C003E269206A6A
:10571000024313430B6021688B6823F4034323F097
:10572000FF032269E068024313438B602168CB6862
:1057300023F0FF036269A06902431343CB60226830
:10574000136843F00103136000202064202384F8D1
:105750003D30206384F83E0070BD80F83C30FFF798
:105760001DFE82E7294B98428CBF0023012399E755
:105770004FF4967505FB03F3254DA5FB03539B09D9
:105780000133A6E7A668BEB9431E05EB450CB3FB83
:10579000FCF30133C3F30B03B3FA83F35B0943BB9D
:1057A000C6B9431E05EB4505B3FBF5F30133C3F35F
:1057B0000B0343F40043A3E7431E05EB850C0CEBFE
:1057C0008C0CB3FBFCF30133C3F30B03B3FA83F389
:1057D0005B09E4E7431E05EB850505EB8505B3FB97
:1057E000F5F30133C3F30B0343F4404388E7042389
:1057F00086E7012384E7012070470120ACE700BF62
:10580000A08601007F841E0083DE1B43FF083D004D
:10581000D34D621000285AD010B50446436A33B9FC
:105820004368B3F5827F05D00023C36102E0002303
:10583000036143610023A36294F85130002B40D0F0
:10584000022384F851302268136823F04003136068
:10585000636803F48273A26802F404421343E268AB
:1058600002F400621343226902F0020213436269E8
:1058700002F001021343A26902F400721343E269C9
:1058800002F038021343226A02F080021343A26A34
:1058900002F40052216813430B60638B03F004038E
:1058A000626A02F01002216813434B602268D369D8
:1058B00023F40063D36100206065012384F8513034
:1058C00010BD84F850302046FFF7E8FDB8E701200E
:1058D0007047000000B585B0002300930193029348
:1058E00003931548154A02604FF48032426083608A
:1058F0000361037680F82030C362114A8262C3607C
:105900000122C26180F83030426100F0E9F868B9E4
:105910000E23009301230193002302936946064856
:1059200000F00AF928B905B05DF804FBFAF74EFD5E
:10593000EEE7FAF74BFDF6E7FCED00200020014012
:105940000100000F00B589B0002303930493059371
:1059500006930793026803F1804303F590339A425C
:1059600002D009B05DF804FB0021019103F58C33EE
:105970005A6C42F480725A645A6C02F4807201923A
:10598000019A02911A6B42F004021A631B6B03F036
:1059900004030293029B302303930323049303A97C
:1059A0000148FBF71BFFDCE7000802404A4B5A683E
:1059B00022F440325A605A6841680A435A600268C9
:1059C000536823F48073536002685368016943EAA3
:1059D000012353600268536823F0407353600268E8
:1059E000536881680B4353600268936823F4006333
:1059F000936002689368C1680B439360826A374B77
:105A00009A4257D00268936823F0706393600268EB
:105A10009368816A0B4393600268936823F0405354
:105A2000936002689368C16A0B439360026893684D
:105A300023F00203936002689368017E43EA410306
:105A4000936090F82030002B3FD00268536843F4F5
:105A5000006353600268536823F460435360016835
:105A60004B68426A013A43EA42334B600268D36AA8
:105A700023F47003D3620168CB6AC269013A43EA36
:105A80000253CB620268936823F400739360026848
:105A9000936890F8301043EA41239360026893685A
:105AA00023F48063936002689368416943EA812329
:105AB000936070470268936823F070639360026894
:105AC000936823F040539360B0E70268536823F46F
:105AD00000635360CAE700BF002301400100000FCC
