:020000040800F2
:1000000000000220916B0008E10B0008E30B0008E0
:10001000E50B0008E70B0008E90B000800000000F2
:100020000000000000000000000000004143000844
:10003000EB0B000800000000E1430008D93E000877
:10004000E16B0008E16B0008E16B0008E16B000860
:10005000E16B0008E16B0008E16B0008E16B000850
:10006000E16B0008E16B0008E16B0008E16B000840
:10007000E16B0008E16B0008E16B0008E16B000830
:10008000E16B0008E16B0008E16B0008E16B000820
:10009000E16B0008E16B0008E16B0008E16B000810
:1000A000E16B0008E16B0008E16B0008E16B000800
:1000B000E16B0008E16B0008E16B0008E16B0008F0
:1000C000E16B0008E16B0008E16B0008E16B0008E0
:1000D000E16B0008ED0B0008FD0B0008E16B000868
:1000E000E16B0008E16B0008E16B00080D0C0008F3
:1000F000E16B00081D0C0008E16B0008E16B0008D3
:10010000E16B0008E16B0008E16B0008E16B00089F
:10011000E16B0008E16B0008E16B0008E16B00088F
:10012000E16B0008E16B00082D0C0008E16B000892
:10013000E16B0008E16B0008E16B0008E16B00086F
:10014000E16B0008E16B0008E16B0008E16B00085F
:10015000E16B0008E16B00083D0C0008E16B000852
:10016000E16B0008E16B0008E16B0008E16B00083F
:10017000E16B0008E16B0008E16B00080000000083
:08018000E16B0008E16B0008CF
:1001900010B5054C237833B9044B13B10448AFF3C1
:1001A00000800123237010BD6001002000000000CA
:1001B000085A010808B5034B1BB103490348AFF3C4
:1001C000008008BD0000000064010020085A0108FA
:1001D00010F8012B11F8013B012A28BF9A42F7D0F1
:1001E000D01A7047034613F8012B002AFBD1181AC6
:1001F000013870470000000000000000000000000F
:1002000001F0FF01102A2BDB10F0070F08D010F8C7
:10021000013B013A8B422DD010F0070F42B3F6D1CB
:10022000F0B441EA012141EA014122F007047FF0E4
:1002300000070023F0E80256083C85EA010586EA3B
:10024000010685FA47F5A3FA87F586FA47F6A5FA77
:1002500087F68EB9EED1F0BC01F0FF0102F0070283
:1002600032B110F8013B013A83EA010313B1F8D12E
:100270000020704701387047002D06BF354603380F
:10028000073815F0010F07D1013015F4807F02BF48
:10029000013015F4C03F0130F0BC0138704700BF99
:1002A00081F0004102E000BF83F0004330B54FEA27
:1002B00041044FEA430594EA050F08BF90EA020F94
:1002C0001FBF54EA000C55EA020C7FEA645C7FEA27
:1002D000655C00F0E2804FEA5454D4EB5555B8BF4A
:1002E0006D420CDD2C4480EA020281EA030382EABB
:1002F000000083EA010180EA020281EA0303362D4D
:1003000088BF30BD11F0004F4FEA01314FF4801C1F
:100310004CEA113102D0404261EB410113F0004F31
:100320004FEA03334CEA133302D0524263EB4303E8
:1003300094EA050F00F0A780A4F10104D5F1200E86
:100340000DDB02FA0EFC22FA05F2801841F10001E1
:1003500003FA0EF2801843FA05F359410EE0A5F1B5
:1003600020050EF1200E012A03FA0EFC28BF4CF0E6
:10037000020C43FA05F3C01851EBE37101F000459C
:1003800007D54FF0000EDCF1000C7EEB00006EEBA9
:100390000101B1F5801F1BD3B1F5001F0CD3490833
:1003A0005FEA30004FEA3C0C04F101044FEA44528A
:1003B00012F5800F80F09A80BCF1004F08BF5FEA11
:1003C000500C50F1000041EB045141EA050130BDF1
:1003D0005FEA4C0C404141EB0101013C28BFB1F503
:1003E000801FE9D291F0000F04BF01460020B1FA4E
:1003F00081F308BF2033A3F10B03B3F120020CDA21
:100400000C3208DD02F1140CC2F10C0201FA0CF0FE
:1004100021FA02F10CE002F11402D8BFC2F1200C63
:1004200001FA02F120FA0CFCDCBF41EA0C01904019
:10043000E41AA2BF01EB0451294330BD6FEA040462
:100440001F3C1CDA0C340EDC04F11404C4F120024D
:1004500020FA04F001FA02F340EA030021FA04F35F
:1004600045EA030130BDC4F10C04C4F1200220FAB6
:1004700002F001FA04F340EA0300294630BD21FAF4
:1004800004F0294630BD94F0000F83F4801306BFBA
:1004900081F480110134013D4EE77FEA645C18BFAE
:1004A0007FEA655C29D094EA050F08BF90EA020F45
:1004B00005D054EA000C04BF1946104630BD91EA3D
:1004C000030F1EBF0021002030BD5FEA545C05D140
:1004D0004000494128BF41F0004130BD14F580047F
:1004E0003CBF01F5801130BD01F0004545F0FE41F3
:1004F00041F470014FF0000030BD7FEA645C1ABF28
:10050000194610467FEA655C1CBF0B46024650EA5E
:10051000013406BF52EA033591EA030F41F400218A
:1005200030BD00BF90F0000F04BF0021704730B510
:100530004FF4806404F132044FF000054FF00001E5
:1005400050E700BF90F0000F04BF0021704730B5A6
:100550004FF4806404F1320410F0004548BF40427B
:100560004FF000013EE700BF42004FEAE2014FEAD0
:1005700031014FEA02701FBF12F07F4393F07F4FAB
:1005800081F06051704732F07F4208BF704793F0AE
:100590007F4F04BF41F40021704730B54FF46074C1
:1005A00001F0004521F000411CE700BF50EA0102C4
:1005B00008BF704730B54FF000050AE050EA01026D
:1005C00008BF704730B511F0004502D5404261EBDD
:1005D00041014FF4806404F132045FEA915C3FF41E
:1005E000D8AE4FF003025FEADC0C18BF03325FEABB
:1005F000DC0C18BF033202EBDC02C2F1200300FA6C
:1006000003FC20FA02F001FA03FE40EA0E0021FA90
:1006100002F11444BDE600BF7BB972B90029BEBF28
:1006200000204FF0004106E008BF00281CBF6FF01B
:1006300000414FF0FF3000F0B9B9ADF1080C6DE9A1
:1006400004CE002909DB002B1ADB00F04DF8DDF8A1
:1006500004E0DDE9022304B07047404261EB410150
:10066000002B1BDB00F040F8DDF804E0DDE902239D
:1006700004B0404261EB4101524263EB43037047D7
:10068000524263EB430300F02FF8DDF804E0DDE9AC
:10069000022304B0404261EB41017047524263EBD8
:1006A000430300F021F8DDF804E0DDE9022304B0A3
:1006B000524263EB4303704753B94AB9002908BF5C
:1006C00000281CBF4FF0FF314FF0FF3000F06EB933
:1006D000ADF1080C6DE904CE00F006F8DDF804E099
:1006E000DDE9022304B070472DE9F047089D044678
:1006F0008C46002B40F083808A42174647D9B2FAD5
:1007000082F242B1C2F1200024FA00F091409740F9
:1007100040EA010C94404FEA1748230CBCFBF8F662
:100720001FFA87FE08FB16C143EA014306FB0EF1E0
:10073000994209D9FB1806F1FF3080F019819942DE
:1007400040F21681023E3B445B1AA4B2B3FBF8F0C0
:1007500008FB103344EA034400FB0EFEA64509D90A
:100760003C1900F1FF3380F00581A64540F202817B
:1007700002383C4440EA0640A4EB0E0400261DB1BA
:10078000D4400023C5E900433146BDE8F08702B9F3
:10079000FFDEB2FA82F2002A50D1CB1B4FEA174E8D
:1007A0001FFA87F80126B3FBFEFC210C0EFB1C335D
:1007B00041EA034108FB0CF38B4207D979180CF18D
:1007C000FF3002D28B4200F2E9808446C91AA3B2FC
:1007D000B1FBFEF00EFB101143EA014408FB00F8E8
:1007E000A04507D93C1900F1FF3302D2A04500F221
:1007F000D9801846A4EB080440EA0C40BFE78B42BE
:1008000009D9002D00F0B1800026C5E9000130466D
:100810003146BDE8F087B3FA83F6002E4AD18B4209
:1008200002D3824200F2B880841A61EB03010120F6
:100830008C46002DA8D0C5E9004CA5E7C2F12003E5
:1008400020FA03F6974001FA02F04FEA174ED9401A
:100850003043030CB1FBFEF61FFA87F80EFB1611AE
:1008600043EA014306FB08F1994204FA02F409D96C
:10087000FB1806F1FF3C80F08D80994240F28A809F
:10088000023E3B445B1A81B2B3FBFEF00EFB103319
:1008900041EA034100FB08F38B4207D9791800F1C4
:1008A000FF3C73D28B4271D902383944CB1A40EAEB
:1008B000064678E7C6F1200C03FA06F422FA0CF398
:1008C0001C4320FA0CF701FA06F34FEA144E21FA02
:1008D0000CF11F433B0CB1FBFEF91FFA84F80EFB31
:1008E000191143EA014109FB08FA8A4502FA06F2A6
:1008F00000FA06F308D9611809F1FF3048D28A4599
:1009000046D9A9F102092144A1EB0A01BFB2B1FB0A
:10091000FEF00EFB101147EA014700FB08F8B8454E
:1009200007D9E71900F1FF312ED2B8452CD902388A
:10093000274440EA0940A7EB0807A0FB02894F457E
:10094000C64649461AD317D05DB1B3EB0E0267EB2A
:10095000010707FA0CFCF2404CEA0202F740C5E935
:10096000002700263146BDE8F0872E4628460BE7D3
:100970000646E9E61846FDE64345E5D2B8EB020E29
:1009800069EB04010138DFE70846D2E760468DE7EE
:100990008146B9E7664675E730464AE7ACF1020C96
:1009A000394413E702383C4424E700BF704700BFD6
:1009B00010B504460268094B9A4204D02268084BDD
:1009C0009A4203D010BD01F029FEF7E7054805F073
:1009D00047FE054805F044FEF4E700BF0020004054
:1009E000001800404C5D0120385D012072B6FEE722
:1009F00000B595B03022002108A806F02BF900239D
:100A00000393049305930693079301931F4A116C74
:100A100041F080511164126C02F080520192019AEF
:100A200002931B4A116841F480411160126802F47C
:100A300080420292029A0222089201210B91102117
:100A40000C910E920F9308231093A82311931292E6
:100A50000423139308A800F0DDFE98B90F23039335
:100A600002230493002305934FF4A05306934FF4FD
:100A700080530793052103A801F018F920B915B098
:100A80005DF804FBFFF7B2FFFFF7B0FF003802404C
:100A90000070004008B501F0A7FDFFF7A9FF00F0C6
:100AA0001BF803F0B7FD03F0F1FD03F0D5FD04F0F2
:100AB00097FE04F0CDFE04F021FF04F0BBFD04F02E
:100AC00063FC04F093FC04F0C3FC03F013FA01F0A0
:100AD0001FFF03F021FAFEE72DE9F0418CB000245E
:100AE0000794089409940A940B940194384B1A6B58
:100AF00042F004021A631A6B02F004020192019A96
:100B000002941A6B42F080021A631A6B02F08002A0
:100B10000292029A03941A6B42F001021A631A6B52
:100B200002F001020392039A04941A6B42F002024B
:100B30001A631A6B02F002020492049A05941A6B6B
:100B400042F010021A631A6B02F010020592059A25
:100B500006941A6B42F008021A631B6B03F0080339
:100B60000693069BDFF8748022464FF400514046FE
:100B700001F07AFA174F22460221384601F074FA42
:100B8000154E22464FF4B061304601F06DFA4FF435
:100B9000005307930125089509940A9407A9404634
:100BA00001F078F902230793089509940A9407A99C
:100BB000384601F06FF94FF4B06307930895099434
:100BC0000A9407A9304601F065F90CB0BDE8F08140
:100BD00000380240000402400010024000080240B9
:100BE000FEE7FEE7FEE7FEE7FEE7704708B50248CE
:100BF00004F096F908BD00BF585A012008B5024814
:100C000004F08EF908BD00BFC85A012008B502489B
:100C100000F09AF908BD00BFE85B012008B5024862
:100C200000F092F908BD00BF48DA002008B502487C
:100C300001F098FB08BD00BFF859012008B5024833
:100C400001F090FB08BD00BF9859012000B583B0AA
:100C5000002200920D4B596C41F480415964596C4B
:100C600001F48041009100990192196C41F080518A
:100C700019641B6C03F080530193019B0F216FF0EB
:100C8000010001F06FFC03B05DF804FB0038024086
:100C900030B589B0044600230193214B1A6C42F40D
:100CA00080721A641B6C03F480730193019B02A988
:100CB00003A801F0D1F8069BCBB901F0ADF80346CB
:100CC0001848A0FB03239B0C013B1748174A0260FE
:100CD00040F2E732C26043600023036183608361B6
:100CE00000F04EFA054630B1284609B030BD01F09B
:100CF00093F84300E4E70C4800F0DEF805460028CE
:100D0000F2D12D2001F062FC0F2C01D90125EBE777
:100D1000002221462D2001F025FC054B1C60E3E755
:100D20000038024083DE1B4348DA002000200040E8
:100D30000400002030B4056A026A22F00102026257
:100D40004268846924F073040B681C4325F0020593
:100D50008B682B43104DA84203D005F58065A8424F
:100D600005D123F00803CD682B4323F004030A4D7B
:100D7000A84203D005F58065A84205D122F440724F
:100D80004D6915438A692A43426084614A68426317
:100D9000036230BC704700BF0000014030B4036AFA
:100DA000026A22F4807202624268C46924F0730409
:100DB0000D682C4323F400738D6843EA0523124D1C
:100DC000A84203D005F58065A84206D123F400634C
:100DD000CD6843EA052323F480630B4DA84203D07A
:100DE00005F58065A84207D122F440524D6942EAD8
:100DF00005128D6942EA05124260C4614A68C26305
:100E0000036230BC704700BF0000014030B4036A89
:100E1000026A22F4805202624468C26922F4E64205
:100E20000D6842EA052223F400538D6843EA053336
:100E3000094DA84203D005F58065A84204D124F4E9
:100E400080444D6944EA85144460C2614A68026482
:100E5000036230BC704700BF0000014030B4036A39
:100E6000056A25F001050562846924F0F00444EA6E
:100E7000021423F00A030B438461036230BC704701
:100E800030B4036A056A25F010050562846924F40C
:100E9000704444EA023423F0A00343EA011384615E
:100EA000036230BC7047836823F070030B4343F048
:100EB000070383607047000090F83D30DBB2012BE0
:100EC00037D1022380F83D300268D36843F0010334
:100ED000D3600368194A934220D0B3F1804F1DD0EC
:100EE000A2F57C42934219D002F58062934215D05C
:100EF00002F58062934211D002F5784293420DD000
:100F000002F57052934209D0A2F59432934205D073
:100F10001A6842F001021A60002070479A6802F0D5
:100F20000702062A07D01A6842F001021A60002060
:100F30007047012070470020704700BF000001404B
:100F4000704770477047704770B504460368DE68A5
:100F50001D6915F0020F10D016F0020F0DD06FF0C2
:100F600002021A610123037703689B6913F0030FE0
:100F70005ED0FFF7E6FF0023237715F0040F12D0B1
:100F800016F0040F0FD023686FF004021A610223D9
:100F9000237723689B6913F4407F4FD02046FFF7E7
:100FA000D0FF0023237715F0080F12D016F0080F9A
:100FB0000FD023686FF008021A6104232377236897
:100FC000DB6913F0030F40D02046FFF7BAFF002380
:100FD000237715F0100F12D016F0100F0FD02368E2
:100FE0006FF010021A61082323772368DB6913F47A
:100FF000407F31D02046FFF7A4FF0023237715F070
:10100000010F02D016F0010F2DD115F0800F02D084
:1010100016F0800F2FD115F0400F02D016F0400FC0
:1010200031D115F0200F02D016F0200F33D170BD52
:10103000FFF786FF2046FFF785FF9CE72046FFF776
:101040007FFF2046FFF77EFFABE72046FFF778FFE4
:101050002046FFF777FFBAE72046FFF771FF2046EB
:10106000FFF770FFC9E723686FF001021A6120469D
:10107000FFF79EFCC9E723686FF080021A612046E3
:1010800000F0C6FBC7E723686FF040021A612046F4
:10109000FFF759FFC5E723686FF020021A61204669
:1010A00000F0B5FBC3E700000368344A904212D059
:1010B000B0F1804F0FD0A2F57C4290420BD002F5E8
:1010C0008062904207D002F58062904203D002F520
:1010D0007842904203D123F070034A681343274AB1
:1010E00090422AD0B0F1804F27D0A2F57C429042A6
:1010F00023D002F5806290421FD002F580629042B8
:101100001BD002F57842904217D002F570529042FF
:1011100013D002F5806290420FD002F580629042B7
:101120000BD0A2F59832904207D002F5806290422F
:1011300003D002F58062904203D123F44073CA6861
:10114000134323F080034A69134303608B68C3622F
:101150000B688362094B984203D003F58063984281
:1011600001D10B69036301234361036913F0010F8C
:1011700003D0036923F001030361704700000140BD
:1011800040B310B5044690F83D30F3B1022384F823
:101190003D30214651F8040BFFF786FF012384F808
:1011A000463084F83E3084F83F3084F8403084F88C
:1011B000413084F8423084F8433084F8443084F875
:1011C000453084F83D30002010BD80F83C3004F0FC
:1011D000E1F9DBE70120704740B310B5044690F811
:1011E0003D30F3B1022384F83D30214651F8040B21
:1011F000FFF75AFF012384F8463084F83E3084F824
:101200003F3084F8403084F8413084F8423084F82C
:10121000433084F8443084F8453084F83D30002071
:1012200010BD80F83C3004F03FF9DBE70120704747
:10123000002853D0F8B50D46044690F83D30002BF9
:1012400047D0022384F83D302268936823F480431A
:1012500023F007039360214651F8040BFFF724FFA6
:1012600021688A688E690F6A2868104326F44076E0
:1012700026F00306AA68AB6942EA0323334323F44A
:101280007C4323F0FC03EE68EA6946EA02261E432B
:101290002A6A13032A6943EA0213334327F0AA0791
:1012A0006A686D6942EA05123A43886021688B6179
:1012B00023681A62012384F8463084F83E3084F8AB
:1012C0003F3084F8423084F8433084F83D300020C9
:1012D000F8BD80F83C3004F0FFF8B2E70120704719
:1012E00030B4036A026A22F0100202624468826922
:1012F00022F4E6420D6842EA052223F020038D68BD
:1013000043EA0513114DA84203D005F58065A842B4
:1013100006D123F08003CD6843EA051323F0400390
:101320000A4DA84203D005F58065A84207D124F4F0
:1013300040644D6944EA85048D6944EA850444604B
:1013400082614A688263036230BC704700000140DA
:1013500038B590F83C30012B66D004460D46012389
:1013600080F83C300C2A5AD8DFE802F00759595966
:101370001B5959593059595944000068FFF7DAFC94
:101380002268936943F0080393612268936923F00C
:10139000040393612268936929690B4393610020D8
:1013A0003EE00068FFF79CFF2268936943F4006306
:1013B00093612268936923F480639361226893693F
:1013C000296943EA01239361002029E00068FFF7BF
:1013D000E5FC2268D36943F00803D3612268D3692E
:1013E00023F00403D3612268D36929690B43D361D5
:1013F000002015E00068FFF709FD2268D36943F477
:101400000063D3612268D36923F48063D3612268C7
:10141000D369296943EA0123D361002000E0012058
:10142000002384F83C3038BD0220FCE710B4846807
:1014300024F47F4442EA03220A43224382605DF897
:10144000044B704790F83C30012B78D010B504461F
:10145000012380F83C30022380F83D300268936815
:1014600023F47F4323F0770393600B68602B4CD009
:1014700029D8402B54D00CD9502B22D1CA684968A6
:101480000068FFF7EBFC50212068FFF70CFD0020FF
:1014900005E0202B0DD009D9302B0AD001200123E3
:1014A00084F83D30002384F83C3010BD0BB1102B84
:1014B00005D119462068FFF7F6FC0020EFE7012070
:1014C000EDE70120EBE7B3F5805F34D0B3F5005FC3
:1014D0000CD1CB684A6889680068FFF7A7FF2268CB
:1014E000936843F4804393600020D8E7702B24D1A5
:1014F000CB684A6889680068FFF798FF226893689C
:1015000043F0770393600020C9E7CA684968006820
:10151000FFF7B6FC60212068FFF7C5FC0020BEE79E
:10152000CA6849680068FFF799FC40212068FFF706
:10153000BAFC0020B3E70020B1E70120AFE70220AA
:10154000704710B401F01F01012303FA01F4036A8C
:1015500023EA04030362036A02FA01F10B43036204
:101560005DF8044B7047000010B50446084600299A
:1015700042D194F83E30DBB2013B18BF0123002B6F
:101580006ED1002851D1022384F83E300122014659
:101590002068FFF7D6FF2368334A934203D002F551
:1015A0008062934203D15A6C42F400425A64236829
:1015B0002D4A934249D0B3F1804F46D0A2F57C42E8
:1015C000934242D002F5806293423ED002F580629F
:1015D00093423AD002F57842934236D002F57052E7
:1015E000934232D0A2F5943293422ED01A6842F040
:1015F00001021A60002032E0042908D008290DD029
:1016000094F84130DBB2013B18BF0123B7E794F8EF
:101610003F30DBB2013B18BF0123B0E794F8403004
:10162000DBB2013B18BF0123A9E7042805D0082835
:1016300007D0022384F84130A8E7022384F83F3022
:10164000A4E7022384F84030A0E79A6802F007027A
:10165000062A07D01A6842F001021A60002010BD65
:101660000120FCE70020FAE70000014070B50446C5
:1016700090F83E00C0B294F83F3094F84220D2B2C5
:1016800094F843500E46B1B9012846D1012A45D1FC
:10169000022384F83E3084F8423066B3042E36D0FC
:1016A000012200212068FFF74CFF0122042120685D
:1016B000FFF747FF24E0DBB2EDB2042911D0012887
:1016C00031D1012B2AD1012A2FD1012D2FD1022373
:1016D00084F83E3084F83F3084F8423084F8433058
:1016E000DBE7012B1BD1012D1BD1022384F83F30F6
:1016F00084F84330D1E7012200212068FFF721FF61
:101700002268136843F001031360002006E0012201
:1017100004212068FFF715FFF2E7012070BD0120CA
:10172000FCE71846FAE70120F8E71846F6E7104606
:10173000F4E7000090F83C30012B3BD030B401239B
:1017400080F83C30022380F83D3003685C689D6877
:1017500024F070040A6822435A600368164A9342D0
:101760001AD0B3F1804F17D0A2F57C42934213D028
:1017700002F5806293420FD002F5806293420BD053
:1017800002F57842934207D002F57052934203D09B
:10179000A2F59432934204D125F080054A6815439E
:1017A0009D60012380F83D30002380F83C301846CE
:1017B00030BC7047022070470000014090F83C3078
:1017C000012B22D0012380F83C30CB6823F44073F6
:1017D0008A68134323F480634A68134323F4006345
:1017E0000A68134323F480530A69134323F4005314
:1017F0004A69134323F48043CA691343026853645C
:10180000002380F83C30184670470220704770472C
:1018100070470000002800F0DF8170B582B00446F8
:10182000036813F0010F3BD0A64B9B6803F00C0339
:10183000042B2CD0A34B9B6803F00C03082B21D066
:101840006368B3F5803F4FD0B3F5A02F52D09D4BC6
:101850001A6822F480321A601A6822F480221A6010
:101860006368002B50D000F0E5FE0546954B1B68E1
:1018700013F4003F14D100F0DDFE401B6428F5D9BD
:101880000320B0E18F4B5B6813F4800FD8D08D4BF1
:101890001B6813F4003F03D06368002B00F09E81A7
:1018A000236813F0020F54D0864B9B6813F00C0F83
:1018B0003ED0844B9B6803F00C03082B33D0E368C5
:1018C000002B67D0804B01221A6000F0B3FE054662
:1018D0007C4B1B6813F0020F53D100F0ABFE401B92
:1018E0000228F5D903207EE1764A136843F4803359
:1018F0001360B5E7734B1A6842F480221A601A68C5
:1019000042F480321A60ABE700F094FE05466D4B5E
:101910001B6813F4003FC3D000F08CFE401B64280A
:10192000F5D903205FE1674B5B6813F4800FC6D1E4
:10193000644B1B6813F0020F03D0E368012B40F0E7
:101940004F81604A136823F0F803216943EAC10319
:101950001360236813F0080F40D0636963B35B4BD7
:1019600001221A6000F066FE0546564B5B6F13F0CD
:10197000020F33D100F05EFE401B0228F5D9032090
:1019800031E1504A136823F0F803216943EAC103A7
:101990001360DEE74C4B00221A6000F04BFE054658
:1019A000484B1B6813F0020FD3D000F043FE401BDE
:1019B0000228F5D9032016E1444B00221A6000F0FA
:1019C00039FE05463F4B5B6F13F0020F06D000F067
:1019D00031FE401B0228F5D9032004E1236813F0EF
:1019E000040F78D0374B1B6C13F0805F0DD10023B0
:1019F0000193344B1A6C42F080521A641B6C03F052
:101A000080530193019B012500E00025304B1B68AA
:101A100013F4807F21D0A368012B32D0052B36D060
:101A2000284B1A6F22F001021A671A6F22F0040283
:101A30001A67A368002B34D000F0FCFD0646214B4A
:101A40001B6F13F0020F45D100F0F4FD801B41F233
:101A500088339842F3D90320C5E01D4A136843F444
:101A60008073136000F0E6FD0646194B1B6813F403
:101A7000807FD0D100F0DEFD801B0228F5D9032045
:101A8000B1E0104A136F43F001031367D1E70D4B28
:101A90001A6F42F004021A671A6F42F001021A67C5
:101AA000C7E700F0C7FD0646064B1B6F13F0020F99
:101AB00010D000F0BFFD801B41F288339842F3D96B
:101AC000032090E00038024000004742800E474269
:101AD00000700040EDB9A369002B00F08380494AF3
:101AE000926802F00C02082A51D0022B17D0464B04
:101AF00000221A6000F09EFD0446424B1B6813F062
:101B0000007F42D000F096FD001B0228F5D903208B
:101B100069E03C4A136C23F080531364DBE73A4BD3
:101B200000221A6000F086FD0546364B1B6813F054
:101B3000007F06D000F07EFD401B0228F5D903206F
:101B400051E0E369226A1343626A43EA8213A26A9C
:101B50005208013A43EA0243E26A43EA0263294A2D
:101B60005360294B01221A6000F064FD0446254BA6
:101B70001B6813F0007F06D100F05CFD001B0228FB
:101B8000F5D903202FE000202DE000202BE0012BD1
:101B90002BD01C4B5B6803F48001E269914226D193
:101BA00003F03F02216A8A4223D1616A47F6C0727C
:101BB0001A40B2EB811F1ED103F44031A26A5208D1
:101BC000013AB1EB024F18D103F07063E26AB3EB54
:101BD000026F14D1002006E001207047012002E0CE
:101BE000012000E0002002B070BD0120FBE70120D1
:101BF000F9E70120F7E70120F5E70120F3E70120ED
:101C0000F1E700BF0038024060004742F8B5244BBE
:101C10009B6803F00C03042B3DD0082B3DD1204BD7
:101C20005A6802F03F025B6813F4800F12D01C4B1D
:101C30005968C1F3881100231A48A1FB0001FEF77F
:101C40003BFD174B5B68C3F3014301335B00B0FB03
:101C5000F3F023E0124B5B68C3F388135C010025AB
:101C6000E41A65F10005AE0146EA9466A701381B47
:101C700066EB0501CC0044EA5074C500E81844F155
:101C800000018B0243EA9053840220461946002348
:101C9000FEF712FDD5E7034800E00348F8BD00BF9A
:101CA0000038024040787D010024F400002800F054
:101CB0009B8070B50D4604464F4B1B6803F007032D
:101CC0008B4208D2CBB24C4A1370136803F007035F
:101CD0008B4240F08B80236813F0020F17D013F073
:101CE000040F04D0454A936843F4E053936023689B
:101CF00013F0080F04D0414A936843F460439360A3
:101D00003E4A936823F0F003A1680B439360236875
:101D100013F0010F32D06368012B21D09A1E012AE3
:101D200025D9364A126812F0020F61D033498A6809
:101D300022F0030213438B6000F07CFC06462F4B1D
:101D40009B6803F00C036268B3EB820F16D000F0BF
:101D500071FC801B41F288339842F0D9032042E0A5
:101D6000264A126812F4003FE0D101203BE0234AEA
:101D7000126812F0007FD9D1012034E01E4B1B689D
:101D800003F00703AB4207D9EAB21B4B1A701B687A
:101D900003F00703AB422DD1236813F0040F06D0E4
:101DA000164A936823F4E053E1680B439360236879
:101DB00013F0080F07D0114A936823F46043216998
:101DC00043EAC1039360FFF721FF0C4B9B68C3F309
:101DD00003130B4AD35CD8400A4B18600A4B1868AF
:101DE000FEF756FF002070BD012070470120FAE782
:101DF0000120F8E70120F6E7003C024000380240ED
:101E0000805A01080800002004000020014B1868D7
:101E1000704700BF0800002008B5FFF7F7FF044B2C
:101E20009B68C3F38223034AD35CD84008BD00BF3C
:101E300000380240905A010808B5FFF7E7FF044B4D
:101E40009B68C3F34233034AD35CD84008BD00BF4C
:101E500000380240905A01080F2303600B4B9A6828
:101E600002F0030242609A6802F0F00282609A680F
:101E700002F4E052C2609B68DB0803F4E0530361A4
:101E8000034B1B6803F007030B60704700380240E8
:101E9000003C024000230F2B00F2DD80F0B482B042
:101EA0005DE086685F000324BC4026EA0406CC6837
:101EB000BC4034438460466826EA02064C68C4F39A
:101EC00000129A403243426057E0DC08083450F870
:101ED000247003F0070296000F22B24027EA02079F
:101EE0000A69B2403A4340F824205AE0072200E051
:101EF0000022B2403A430234574E46F82420574A53
:101F00009468EA4324EA05064F6817F4801F01D05D
:101F100045EA0406514CA660E46802EA04064F68EC
:101F200017F4001F01D045EA04064C4CE6606468D3
:101F300002EA04064F6817F4003F01D045EA0406A0
:101F4000464C6660246822404E6816F4803F01D0FB
:101F500045EA0402414C226001330F2B78D801225C
:101F60009A400C6804EA020532EA0404F4D14C6891
:101F700004F00304013C012C93D94A6802F00302E7
:101F8000032A09D0C4685E000322B24024EA020496
:101F90008A68B2402243C2604A6802F00302022A01
:101FA00093D004685E000322B24024EA02044A6827
:101FB00002F00302B240224302604A6812F4403F3A
:101FC000CAD000220192264A546C44F480445464DE
:101FD000526C02F480420192019A9C08A61C1E4A8F
:101FE00052F8267003F0030296000F22B24027EA4F
:101FF00002071C4A90423FF47BAF02F58062904298
:102000001AD002F58062904218D002F580629042A8
:1020100016D002F58062904214D002F580629042A0
:1020200012D002F58062904210D002F58062904298
:102030003FF45CAF08225CE701225AE7022258E72E
:10204000032256E7042254E7052252E7062250E70E
:1020500002B0F0BC7047704700380140003C0140BE
:1020600000380240000002400AB181617047090453
:102070008161704730B405682C6824F480242C609A
:10208000046863608368402B05D003689960036827
:10209000DA6030BC704703689A600368D960F8E77B
:1020A00010B40368D9B210390C4AA2FB01421209DC
:1020B0000B4CA25CC2655F2909D923F47F7323F01E
:1020C000030304338365806D5DF8044B704723F48C
:1020D0007F7323F003038365F5E700BFABAAAAAAC9
:1020E000785A0108836A826992B9012B0AD0022BBF
:1020F00002D00BB100207047C36A13F0807F28D153
:1021000000207047C36AB3F1C07F24D0002070471D
:10211000B2F5005F09D0022B25D9032B25D1C36A64
:1021200013F0807F23D100207047032B03D8DFE812
:1021300003F01404140A00207047C36A13F0807F70
:102140000DD100207047C36AB3F1C07F09D00020D1
:10215000704701207047012070470120704701201F
:102160007047012070470120704700207047012010
:102170007047000070B5044600F05CFA002C5BD09C
:102180000546022384F83530002384F83430226871
:10219000136823F00103136023681A6812F0010F1B
:1021A0000AD000F047FA431B052BF5D920236365BD
:1021B000032084F8350070BD1A682048104061681B
:1021C000A2680A43E1680A4321690A4361690A4334
:1021D000A1690A43E1690A43216A0A430243616A29
:1021E00004291ED01A602668756925F00705636A00
:1021F0001D43042B07D1A36A1D43E36A1BB120468C
:10220000FFF770FF90B975612046FFF749FFE26D57
:102210003F239340836000206065012384F83530BC
:10222000C9E7E16A206B01430A43DBE740236365AA
:10223000012084F83500BEE70120BCE73F8010F0A4
:1022400038B50446856D90F8340001282BD0012064
:1022500084F8340094F83500C0B2012804D000237B
:1022600084F83430022038BD022084F83500002084
:1022700060652046FFF7FEFEE26D3F239340AB60B2
:102280002268136843F016031360236C23B122689D
:10229000136843F0080313602268136843F00103D6
:1022A00013600020DFE70220DDE770B50446866D8D
:1022B00000F0C0F994F83530DBB2022B06D0802351
:1022C0006365002384F83430012070BD0546226820
:1022D000136823F0160313602268536923F0800308
:1022E0005361236CE3B12268136823F00803136081
:1022F0002268136823F00103136023681B6813F03E
:10230000010F11D000F096F9431B052BF5D92023BE
:102310006365032084F83500002384F83430D4E763
:10232000A36C002BDFD1E3E7E26D3F239340B36062
:10233000012384F83530002084F83400C5E790F894
:102340003530DBB2022B03D0802343650120704778
:10235000052380F835300268136823F00103136009
:1023600000207047F0B583B0044600230193724B00
:102370001D68724BA3FB0535AD0A876D3E68C26DC3
:1023800008239340334210D003681A6812F0040FF8
:102390000BD01A6822F004021A60C26D0823934021
:1023A000BB60436D43F001034365E26D012393403D
:1023B000334209D02268526912F0800F04D0BB600A
:1023C000636D43F002036365E26D0423934033427F
:1023D00009D02268126812F0020F04D0BB60636D4E
:1023E00043F004036365E26D10239340334224D02D
:1023F0002268126812F0080F1FD0BB6023681A68A9
:1024000012F4802F0DD01B6813F4002F04D1236C1D
:102410009BB12046984710E0A36C73B120469847C3
:102420000BE01A6812F4807F03D11A6822F00802C8
:102430001A60236C0BB120469847E26D202393402D
:10244000334255D02268126812F0100F50D0BB6092
:1024500094F83530DBB2052B0ED023681A6812F4DD
:10246000802F33D01B6813F4002F2AD1636C002B0C
:102470003ED0204698473BE02268136823F01603BD
:1024800013602268536923F080035361236CA3B166
:102490002268136823F008031360E26D3F23934022
:1024A000BB60012384F83530002384F83430236D79
:1024B000002B3FD0204698473CE0A36C002BE7D18F
:1024C000EBE7E36BA3B12046984711E01A6812F4DA
:1024D000807F09D11A6822F010021A60012384F863
:1024E0003530002384F83430E36B0BB12046984735
:1024F000636DFBB1636D13F0010F17D0052384F8F2
:1025000035302268136823F001031360019B013307
:102510000193AB4204D823681B6813F0010FF5D177
:10252000012384F83530002384F83430E36C0BB198
:102530002046984703B0F0BD08000020B5814E1B2F
:10254000074AD36823F4E0631B041B0C000200F469
:10255000E060034343F0BF6343F40033D36070474C
:1025600000ED00E030B4174BDB68C3F30223C3F186
:102570000704042C28BF04241D1D062D18D9033B75
:102580004FF0FF3505FA04F421EA0401994005FAF9
:1025900003F322EA0303194300280BDB0901C9B244
:1025A00000F1604000F5614080F8001330BC7047D6
:1025B0000023E5E700F00F000901C9B2024B1954EE
:1025C000F4E700BF00ED00E014ED00E0002807DBB9
:1025D00000F01F02400901239340024A42F82030D4
:1025E000704700BF00E100E008B50B4B1A6842F4E9
:1025F00000721A601A6842F480621A601A6842F423
:1026000080721A600320FFF79BFF0F20FEF740FB4C
:10261000FEF71CFB002008BD003C0240034A116885
:10262000034B1B780B441360704700BF90DA002007
:1026300000000020014B1868704700BF90DA0020AE
:1026400038B50446FFF7F6FF0546B4F1FF3F02D068
:10265000044B1B781C44FFF7EDFF401BA042FAD34C
:1026600038BD00BF00000020034AD2F8883043F490
:102670007003C2F88830704700ED00E068B108B51B
:10268000064A1368591C116005490B600022054871
:1026900006F022FA044B186008BD7047B8DB002032
:1026A00088DB00205459012098DB002008B503681E
:1026B0000B4A1360B3F57A7F03DD13464FF47A7249
:1026C0001A60074B1B6813F57A7F02DA044B054A40
:1026D0001A60034B1968044803F0FEFE08BD00BFF2
:1026E0007C01002018FCFFFFF85C012008B503689E
:1026F0000B4A1360B3F57A7F03DD13464FF47A7209
:102700001A60074B1B6813F57A7F02DA044B054AFF
:102710001A60034B1968044803F0DEFE08BD00BFD1
:102720008001002018FCFFFF185D01200000000060
:1027300080B58EB0544B0193544B0093544B554A83
:102740005549012007F040FA09A807F06FF9534BEB
:102750000993534B0A93534B0B93534B0C9309A878
:1027600007F072F9002800F08480504F02A807F0AB
:1027700089F93D4602AC0FCC0FC523682B604C4D48
:102780003B4600221146284607F02AF8494E2B46C0
:10279000494A4A49304607F06DF8494C3B46072202
:1027A0002946204606F028FD07F03AFF0246454B31
:1027B0003146454807F09AF807F032FF0246DFF845
:1027C0004081424B3146404607F0C4F807F028FFED
:1027D00002463F4F3F4B3146384607F0BBF83E4E6E
:1027E0003E4B009326A3D3E900232946304607F049
:1027F000E5F83146204606F0A3FD00250095384B4C
:10280000384A4146204606F067FD0095364B374A68
:102810003946204606F060FD03F0C8FE03F0FCFEDA
:1028200017A3D3E90023264806F0A0FF304A136817
:10283000013313602F4D00224FF400512846FFF75B
:1028400013FC2D4C002202212046FFF70DFCC8206E
:1028500001F0DCFB01224FF400512846FFF704FC95
:10286000012202212046FFF7FFFBC82001F0CEFB2A
:10287000D6E7E421214804F0F5F976E7AFF30080CC
:1028800000E1F50500000000196B0008DB6A000894
:10289000CD6A0008B56A0008585A01204969000845
:1028A0006D6900088D690008CD690008A4DB00206F
:1028B000DC3901208CDB00208C5E0108C05A010845
:1028C000F8DA0020CC5A010854590120DC5A0108DA
:1028D000D8390120EC5A010884DB00207D2600084D
:1028E000AD260008103A0120ED260008A0DB0020EC
:1028F00088DB00200008024000000240985A0108CE
:1029000094DB002008B5012001F080FBFBE700000C
:1029100008B5074A0021074801F01AFB064B18606A
:10292000064A0021064801F013FB064B186008BD5B
:10293000145B01083127000880DB0020385B0108A8
:10294000052900089CDB002000F1080343604FF0DC
:10295000FF328260C360036100230360704700237D
:102960000361704743684B609A688A605160996060
:102970000861036801330360704730B40D68B5F136
:10298000FF3F11D000F108031C465B681A68AA4299
:10299000FAD963684B6099608C6061600861036874
:1029A0000133036030BC70470469F2E70369416892
:1029B00082688A60416851605A68824206D000226B
:1029C00002611A68013A1A601868704782685A6092
:1029D000F5E710B5044601F0C5FCA26BE36B9A4223
:1029E00004D0002401F0E0FC204610BD0124F9E7EA
:1029F00010B5044601F0B6FCA36B23B9012401F025
:102A0000D3FC204610BD0024F9E770B504461546F6
:102A1000866B026C5AB903681BB100200136A663AD
:102A200070BD806800F0E6FF0023A360F6E76DB993
:102A3000406804F001F9226C636813446360A26883
:102A4000934219D3236863602846E7E7C06804F01F
:102A5000F3F8226C5142E3689B1AE36022689342C8
:102A600002D2A3680B44E360022D01D00020D5E719
:102A700026B1013E0020D1E72846CFE70020CDE770
:102A80000346026C6AB110B50846D9681144D96092
:102A90009C68A14201D31968D960D96804F0CCF8C8
:102AA00010BD704738B5054601F05CFC95F845400F
:102AB00064B203E000F088FF013C64B2002C08DD42
:102AC0006B6A33B105F1240000F0CEFE0028F3D08C
:102AD000F0E7FF2385F8453001F066FC01F042FC89
:102AE00095F8444064B203E000F06EFF013C64B22C
:102AF000002C08DD2B6933B105F1100000F0B4FEA5
:102B00000028F3D0F0E7FF2385F8443001F04CFCB7
:102B100038BD000038B5E0B10D46044601F022FC96
:102B20002168E26B236C03FB0210A0600020A0630D
:102B30006160013A02FB0313E360FF2384F8443031
:102B400084F84530EDB9236963B901F02DFC01200B
:102B500038BD4FF0500383F31188BFF36F8FBFF37D
:102B60004F8FFEE704F1100000F07EFE0028ECD04D
:102B7000084B4FF080521A60BFF34F8FBFF36F8F37
:102B8000E3E704F11000FFF7DFFE04F12400FFF794
:102B9000DBFEDAE704ED00E038B51D46049C0B4689
:102BA00049B92460E063236401212046FFF7B2FFA6
:102BB00084F84C5038BD2260F4E740B94FF0500320
:102BC00083F31188BFF36F8FBFF34F8FFEE730B5EC
:102BD00085B01C46054653B192B189B94FF05003F8
:102BE00083F31188BFF36F8FBFF34F8FFEE74FF072
:102BF000500383F31188BFF36F8FBFF34F8FFEE74E
:102C00006AB150230393039B502B13D04FF0500312
:102C100083F31188BFF36F8FBFF34F8FFEE7002957
:102C2000EFD04FF0500383F31188BFF36F8FBFF3E2
:102C30004F8FFEE7039B012384F8463000949DF8F4
:102C400020302846FFF7A8FF204605B030BD000021
:102C5000F0B585B0019288B10E461D460446B1B16B
:102C6000022D20D1E36B012B1DD04FF0500383F3D5
:102C70001188BFF36F8FBFF34F8FFEE74FF0500304
:102C800083F31188BFF36F8FBFF34F8FFEE7036CA1
:102C9000002BE5D04FF0500383F31188BFF36F8F03
:102CA000BFF34F8FFEE700F095FE074658B9019B32
:102CB000002B44D04FF0500383F31188BFF36F8F84
:102CC000BFF34F8FFEE7002739E02A463146204602
:102CD000FFF79BFE626A6AB938B13C4B4FF08052F5
:102CE0001A60BFF34F8FBFF36F8F01F05DFB0120C0
:102CF00005B0F0BD04F1240000F0B6FD0028F4D0CA
:102D0000324B4FF080521A60BFF34F8FBFF36F8F7B
:102D1000EBE701F049FB0020EAE702A800F006FE1D
:102D2000012719E0002384F8443021E0002384F8CF
:102D3000453023E02046FFF7B5FE00F073FC01F0BC
:102D400011FBA26BE36B9A42BFD3022DBDD0019B56
:102D5000002BDED0002FE0D001F026FB00F0C6FBF8
:102D600001F000FB94F844305BB2B3F1FF3FD9D0DF
:102D700094F845305BB2B3F1FF3FD7D001F014FBBC
:102D800001A902A800F0DEFDC8B92046FFF721FE28
:102D90000028CFD0019904F1100000F031FD204649
:102DA000FFF780FE00F03EFC0028C8D1074B4FF033
:102DB00080521A60BFF34F8FBFF36F8FBFE720467B
:102DC000FFF770FE00F02EFC002091E704ED00E01C
:102DD0002DE9F84390B1894690461F460446B1B1AB
:102DE000022F20D1E36B012B1DD04FF0500383F352
:102DF0001188BFF36F8FBFF34F8FFEE74FF0500383
:102E000083F31188BFF36F8FBFF34F8FFEE7036C1F
:102E1000002BE5D04FF0500383F31188BFF36F8F81
:102E2000BFF34F8FFEE701F0C7FBEFF311864FF0C2
:102E3000500383F31188BFF36F8FBFF34F8FA26BE3
:102E4000E36B9A4206D3022F04D0002086F3118848
:102E5000BDE8F88394F845506DB2A36B3A464946F5
:102E60002046FFF7D2FDB5F1FF3F05D06B1C5BB2EA
:102E700084F845300120E9E7636A0BB90120E5E7F2
:102E800004F1240000F0F0FC30B1B8F1000F05D0DF
:102E90000120C8F80000D9E70120D7E70120D5E7D5
:102EA000F0B585B0019290B10E460446C1B100F074
:102EB00091FD074600BB019B002B5CD04FF05003F7
:102EC00083F31188BFF36F8FBFF34F8FFEE74FF08F
:102ED000500383F31188BFF36F8FBFF34F8FFEE76B
:102EE000036C002BE3D04FF0500383F31188BFF342
:102EF0006F8FBFF34F8FFEE700273CE0314620463F
:102F0000FFF7BEFD013DA563236923B901F04CFA2B
:102F1000012005B0F0BD04F1100000F0A5FC002870
:102F2000F4D0354B4FF080521A60BFF34F8FBFF390
:102F30006F8FEBE701F038FA0020EAE702A800F013
:102F4000F5FC012721E0002384F8443029E0002328
:102F500084F845302BE02046FFF7A4FD00F062FB2B
:102F600009E02046FFF79EFD00F05CFB2046FFF7DE
:102F70003FFD00283DD101F0F5F9A56B002DBDD135
:102F8000019B002BD6D0002FD8D001F00DFA00F015
:102F9000ADFA01F0E7F994F844305BB2B3F1FF3FCA
:102FA000D1D094F845305BB2B3F1FF3FCFD001F000
:102FB000FBF901A902A800F0C5FC0028D1D12046E8
:102FC000FFF716FD0028C6D0019904F1240000F097
:102FD00017FC2046FFF766FD00F024FB0028CAD14D
:102FE000054B4FF080521A60BFF34F8FBFF36F8FC6
:102FF000C1E700208DE700BF04ED00E0002300E002
:103000000133072B0BD8064A52F83320002AF7D198
:10301000034A42F8331002EBC3035860704770470D
:103020005859012070B504460D46164601F09AF92C
:1030300094F844305BB2B3F1FF3F0DD094F84530C3
:103040005BB2B3F1FF3F0BD001F0AEF9A36B5BB104
:103050002046FFF727FD70BD002384F84430EDE7DC
:10306000002384F84530EFE73246294604F1240076
:1030700000F0DEFBECE70000084B1B681B6823B97F
:10308000074B4FF0FF321A607047044B1B68DB6838
:10309000DB685A68024B1A60704700BF8801002045
:1030A0002C0600202DE9F04780460D46174699462C
:1030B000089EDDF824A00A9C9200A521206B03F055
:1030C000C9FD236B07F18042013A03EB820727F029
:1030D000070785B300220F2A07D8A95CA31883F835
:1030E0003410AB5C0BB10132F5E7002384F84330B8
:1030F000372E00D93726E662E66400252565201DB7
:10310000FFF72DFC04F11800FFF729FC2461C6F13C
:103110003806A6616462656584F858504A4641469F
:10312000384601F0F1F82060BAF1000F01D0CAF87A
:103130000040BDE8F087002384F83430D8E7000071
:1031400038B50024372C08D804EB840293000E48CD
:103150001844FFF7F9FB0134F4E70C4D2846FFF75C
:10316000F3FB0B4C2046FFF7EFFB0A48FFF7ECFBA5
:103170000948FFF7E9FB0948FFF7E6FB084B1D602C
:10318000084B1C6038BD00BF9001002004060020E1
:103190001806002038060020640600205006002093
:1031A000880100208C01002010B5044601F0DAF8F7
:1031B000214A136801331360204B1B685BB1204B1D
:1031C0001B686BB91D4B1B68DA6AE36A9A4207D821
:1031D0001A4B1C6004E0194B1C601368012B27D0AC
:1031E000184A1368013313606364E06A164B1B6866
:1031F000984201D9144B186000EB8000211D134B3D
:1032000003EB8000FFF7AEFB01F0CEF80C4B1B6820
:103210006BB10A4B1B68DA6AE36A9A4207D20C4B1D
:103220004FF080521A60BFF34F8FBFF36F8F10BD06
:10323000FFF786FFD4E700BFF005002084010020DF
:103240004C060020FC050020000600209001002014
:1032500004ED00E010B5044690F8593063B1012B3D
:1032600011D0022B0ED04FF0500383F31188BFF31F
:103270006F8FBFF34F8FFEE7006B00F0C9FF204652
:1032800000F0C6FF10BD00F0C3FFFBE70F4B1B684B
:10329000D3B110B501F066F80D4BDB68DC68201D7A
:1032A000FFF784FB0B4A1368013B1360074A13685E
:1032B000013B136001F078F82046FFF7CBFF034B8A
:1032C0001B68002BE6D110BD704700BFF40500203D
:1032D00064060020F005002008B5FFF7D7FF064B75
:1032E0001B68012BF9D9054B4FF080521A60BFF3D0
:1032F0004F8FBFF36F8FF0E79001002004ED00E0E7
:1033000070B504460D46174B1E68174B18680430FD
:10331000FFF74CFBB4F1FF3F0DD03444124B1B6858
:103320005C60A64210D9114B18680F4B1968043124
:10333000FFF723FB70BD002DEFD00B4B1968043154
:103340000B48FFF70FFBF5E70A4B1868064B1968A7
:103350000431FFF712FB084B1B68A342EAD9064B66
:103360001C60E7E778060020840100208C01002023
:1033700050060020880100202C06002070B586B081
:103380000B9D0C9C75B1B4B15C260496049E5C2E1A
:103390001AD04FF0500383F31188BFF36F8FBFF340
:1033A0004F8FFEE74FF0500383F31188BFF36F8F09
:1033B000BFF34F8FFEE74FF0500383F31188BFF345
:1033C0006F8FBFF34F8FFEE7049E2563022584F8BD
:1033D000595000250395029405AD01950A9D00956D
:1033E000FFF760FE2046FFF7DFFE059806B070BDD0
:1033F0002DE9F04385B00746884614461E469000E6
:1034000000F088FE00B381465C2000F083FE054694
:10341000B0B1C0F83090E5B1002385F8593003937E
:1034200002950D9B01930C9B009333462246414627
:103430003846FFF737FE2846FFF7B6FE012005E0C5
:10344000484600F0E5FEE6E74FF0FF3005B0BDE886
:10345000F0834FF0FF30F9E710B588B000240594F1
:10346000069407AA06A905A800F0DEFD059B0293B5
:10347000069B019300942346079A17491748FFF7C4
:103480007DFF48B100F06AFB0346012B06D0B3F183
:10349000FF3F18D008B010BD0023F6E74FF05003EF
:1034A00083F31188BFF36F8FBFF34F8F0C4B4FF037
:1034B000FF321A600B4B01221A600B4B00221A607C
:1034C00000F0F2FFE6E74FF0500383F31188BFF3FB
:1034D0006F8FBFF34F8FFEE75C5B0108D9320008A6
:1034E0002C0600204C06002078060020024A1368B3
:1034F00001331360704700BFF8050020014B1868C6
:10350000704700BF78060020F8B53B4B1B68002BC6
:103510006AD13A4B1D6801351D60C5B9384B1B682F
:103520001B6843B14FF0500383F31188BFF36F8FD3
:10353000BFF34F8FFEE7324A1168324B18681060B4
:103540001960314A136801331360FFF795FD2F4B63
:103550001B68AB4211D900242D4B1B68DB6A03EBBF
:1035600083039A002B4B9B58012B00D901242A4B33
:103570001B68002B3DD001243BE0002416E0234BC8
:103580004FF0FF321A60E7E7204A1360E4E703EBED
:1035900083039A0039461F481044FFF7E3F9F26AA3
:1035A0001B4B1B68DB6A9A4200D30124144B1B6837
:1035B0001B68002BE3D0124B1B68DB68DE68736866
:1035C0009D42E1D3371D3846FFF7F0F9B36A1BB1CE
:1035D00006F11800FFF7EAF9F36A104A12689342FD
:1035E000D5D90E4A1360D2E70D4A13680133136030
:1035F00000242046F8BD00BFF80500207806002012
:10360000880100208C010020300600202C060020BC
:1036100084010020900100207C060020000600208C
:103620003406002038B5344B1B6843B94FF05003C3
:1036300083F31188BFF36F8FBFF34F8FFEE700F066
:1036400091FE2D4B1A68013A1A601B68002B4DD170
:103650002A4B1B680BB9002449E00024284B1B6847
:103660001BB3274BDB68DC6804F11800FFF79EF9F9
:10367000251D2846FFF79AF9E06A224B1B689842FD
:1036800001D9204B186000EB800029461E4B03EB4C
:103690008000FFF767F9E26A1C4B1B68DB6A9A42FD
:1036A000DCD31B4B01221A60D8E70CB1FFF7E4FC16
:1036B000184B1C6874B9164B1C68C4B1164B4FF0FC
:1036C00080521A60BFF34F8FBFF36F8F01240EE05B
:1036D000013C07D0FFF718FF0028F9D00C4B01225E
:1036E0001A60F5E70B4B00221A60E4E7002400F0B3
:1036F0005BFE204638BD00BFF8050020F005002025
:1037000038060020000600209001002084010020DF
:103710007C0600203406002004ED00E010B5A8B1BE
:1037200004460F4B1B6843B14FF0500383F31188DD
:10373000BFF36F8FBFF34F8FFEE7FFF7D7FE002178
:103740002046FFF7DDFDFFF76DFF38B9054B4FF061
:1037500080521A60BFF34F8FBFF36F8F10BD00BF51
:10376000F805002004ED00E0204B1B681BB1204B46
:1037700001221A6070471E4B00221A601D4B1B6805
:1037800003EB83018A001C498A585AB90BB1013BEB
:10379000F6E74FF0500383F31188BFF36F8FBFF349
:1037A0004F8FFEE710B403EB830082000A44506899
:1037B0004068506003EB8304A200144608321144B1
:1037C00088420DD003EB830291000B4A0A445268F1
:1037D000D1680A4A1160074A13605DF8044B7047CC
:1037E0004068054A22445060ECE700BFF80500201D
:1037F0007C060020000600209001002084010020AB
:1038000058B110B50C46094B19681831FFF7B5F8D7
:1038100001212046FFF774FD10BD4FF0500383F3E4
:103820001188BFF36F8FBFF34F8FFEE78401002035
:1038300038B570B10C4615460A4B19681831FFF7B8
:1038400091F80DB14FF0FF3429462046FFF758FD9F
:1038500038BD4FF0500383F31188BFF36F8FBFF370
:103860004F8FFEE78401002038B5C368DC6824B3BD
:1038700004F118052846FFF799F8184B1B682BBB75
:10388000251D2846FFF792F8E06A154B1B68984201
:1038900001D9134B186000EB80002946114B03EB54
:1038A0008000FFF75FF8E26A0F4B1B68DB6A9A4201
:1038B00011D901200D4B18600EE04FF0500383F337
:1038C0001188BFF36F8FBFF34F8FFEE7294608487B
:1038D000FFF748F8E7E7002038BD00BFF8050020F3
:1038E0000006002090010020840100207C060020BA
:1038F0003806002060B110B5044600F033FD094BD6
:103900001B682360084B1B68636000F04DFD10BD11
:103910004FF0500383F31188BFF36F8FBFF34F8FC6
:10392000FEE700BF3006002078060020034B1B682E
:103930000360034B1B684360704700BF30060020E4
:1039400078060020F8B5C8B10C460546F9B100F07C
:1039500009FD1B4B19686B68C81A2268B2F1FF3F5A
:1039600026D02F68174E3668B74201D08B4224D933
:10397000824215D80023236001241AE04FF050033F
:1039800083F31188BFF36F8FBFF34F8FFEE74FF0C4
:10399000500383F31188BFF36F8FBFF34F8FFEE7A0
:1039A0005B1A134423602846FFF7C0FF002400E0A1
:1039B000002400F0F9FC2046F8BD0124F9E700BF1F
:1039C0007806002030060020014B01221A60704763
:1039D0007C060020054B1B6833B1054B1B680BB1FF
:1039E0000020704702207047012070474C060020DD
:1039F000F805002000283BD038B504461E4B1B6854
:103A0000834208D04FF0500383F31188BFF36F8FC8
:103A1000BFF34F8FFEE7036D43B94FF0500383F3BD
:103A20001188BFF36F8FBFF34F8FFEE7013B036534
:103A3000C16AC26C91421DD00BB1002038BD051D7A
:103A40002846FEF7B3FFE06CE062C0F13803A361E3
:103A50000A4B1B68984201D9084B186000EB8000A4
:103A60002946074B03EB8000FEF77CFF0120E5E7CA
:103A7000002070470020E1E78401002000060020BC
:103A800090010020064B1A6813682BB901230360CC
:103A900023B9D368186870470023F8E700207047FF
:103AA0008006002008B54160006191420CD8D21A0E
:103AB00083699A4201D3012008BD011D094B186892
:103AC000FEF75BFF0020F7E79A4201D2994206D247
:103AD000011D054B1868FEF750FF0020ECE70120A0
:103AE000EAE700BF840600208006002030B583B0DE
:103AF00000F038FC114B1B681BB100F055FC03B003
:103B000030BD0F4D2846FEF71FFF0E4C2046FEF736
:103B10001BFF0D4B1D600D4B1C60002300930C4BD5
:103B20000C4A10210A20FFF748F8044B18600028BF
:103B3000E3D00949FFF762FADFE700BFA4070020DE
:103B4000280700203C070020800600208406002073
:103B50005407002088060020645B010810B588B077
:103B6000FFF7C4FF124B1B68CBB1002405940694E9
:103B700007AA06A905A800F063FA059B0293069B15
:103B80000193022300932346079A0A490A48FFF744
:103B9000F5FB0A4A106010B1012008B010BD4FF0CB
:103BA000500383F31188BFF36F8FBFF34F8FFEE78E
:103BB000A40700206C5B0108C13E0008A807002094
:103BC000C0B110B584B014461A46034616480068C2
:103BD00038B300910194029305291CDCFFF7FAFE2B
:103BE000022810D000231A4669460F480068FFF7E4
:103BF0002FF814E04FF0500383F31188BFF36F8F59
:103C0000BFF34F8FFEE70023069A69460648006817
:103C1000FFF71EF803E000236946FFF7D9F804B068
:103C200010BD0020FBE700BFA407002070B582B0E4
:103C30001B4B1B681A6862B3DB681E68DC68251DB5
:103C40002846FEF7B3FE236A2046984794F82830AA
:103C500013F0040FECD0A36933449E4207D2636093
:103C6000246129460E4B1868FEF787FEE0E7002125
:103C700000910B4632462046FFF7A2FF0028D7D11D
:103C80004FF0500383F31188BFF36F8FBFF34F8F53
:103C9000FEE7044A106802490860136002B070BD74
:103CA000800600208406002038B50546FFF726FC74
:103CB0000446074B1B68834205D800232B60044B46
:103CC0001C60204638BDFFF7B1FF01232B60F6E7EB
:103CD0005007002070B582B005460E46174B1B6892
:103CE000DB68DC68201DFEF761FE94F8283013F0D5
:103CF000040F08D123F0010384F82830236A2046FA
:103D0000984702B070BDA1692B463246294420462F
:103D1000FFF7C8FE0028F1D0002100910B462A468B
:103D20002046FFF74DFF0028E8D14FF0500383F302
:103D30001188BFF36F8FBFF34F8FFEE7800600201F
:103D400070B582B006460C46FFF7D0FB01A8FFF71E
:103D5000ABFF019B23BB05460CB9B04217D224B17F
:103D6000114A12681268CAB901242246711B0F4B0E
:103D70001868FFF757F9FFF755FC98B90C4B4FF04F
:103D800080521A60BFF34F8FBFF36F8F0AE0FFF7C7
:103D900049FC29463046FFF79DFF03E01C46E4E757
:103DA000FFF740FC02B070BD84060020A40700208D
:103DB00004ED00E010B588B006E007990698059B71
:103DC0009847049B002B0BDA002204A93B4B186890
:103DD000FFF766F800286FD0049B002BF1DAECE7C0
:103DE000069C636913B1201DFEF7E0FD03A8FFF7F1
:103DF0005BFF049B092BE7D8DFE803F005050530DE
:103E000037500505303794F8283043F0010384F823
:103E10002830059BA169024619442046FFF742FE5F
:103E20000028D1D0236A2046984794F8283013F010
:103E3000040FC9D0A269002100910B4605980244E5
:103E40002046FFF7BDFE0028BED14FF0500383F39C
:103E50001188BFF36F8FBFF34F8FFEE794F82830C0
:103E600023F0010384F82830AEE794F8283043F0BB
:103E7000010384F828300599A16131B10346024657
:103E800001442046FFF70EFE9EE74FF0500383F3F8
:103E90001188BFF36F8FBFF34F8FFEE794F8283080
:103EA00013F0020F04D023F0010384F828308BE7CD
:103EB000204600F0ADF987E708B010BDA407002048
:103EC00000B583B001A8FFF7DDFD0199FFF738FFCA
:103ED000FFF770FFF6E7000008B5054B1B68FFF71A
:103EE00079FD012800D108BD00F0ACFAFBE700BF66
:103EF00010E000E0EFF305832BB9064B186828B9F2
:103F000001221A6070476FF0050070474FF0FF30D4
:103F1000704700BF080A0020EFF3058373B90A4B0E
:103F20001B68012B0DD110B50024084BDC77064B24
:103F300002221A60FFF790FA204610BD6FF00500CC
:103F400070474FF0FF307047080A002000ED00E096
:103F5000F0B587B000240594EFF3058474BB68B313
:103F600022B31568936903B918235C1E372C49D80E
:103F7000546814F0010F47D156696EB14FEA960CA0
:103F800094682CB1D7685B2F02D9176907B1C6B9FD
:103F90002CB14FF0FF340EE04FF0800CF0E7D46806
:103FA0008CB9146994B14FF0FF3404E01546002435
:103FB00018234FF0800C012C0AD0ACB1059807B043
:103FC000F0BD0124F7E74FF0FF34F4E70024F2E7F7
:103FD000146992680292019400930B466246294646
:103FE000FFF7CCF90590E9E705AA019200930B468B
:103FF0001FFA8CF22946FFF7FBF90128DED00023D7
:104000000593DBE70020DAE70020D8E708B5EFF3F7
:10401000058333B908B9002008BDFFF77FFB0020F6
:10402000FAE76FF00500F7E7034B0360034B0B6003
:1040300080231360704700BFAC090020AC0700204C
:10404000034B0360034B0B604FF4807313607047A6
:104050000C0E00200C0A0020124A12F0070F1ED08E
:10406000D11D21F00701C1F5705313440A460E48D3
:104070000260002141601344083B23F007030B4812
:10408000036059601960991A51601360084B1960F8
:10409000084B1960084B4FF000421A6070474FF40C
:1040A0007053E4E76C0E0020804A0020680E002068
:1040B000744A0020704A00206C4A002010B4134B50
:1040C0001A461B688342FBD35168541884420AD0B5
:1040D00041684418A3420BD00360904200D01060A6
:1040E0005DF8044B70474068014451601046EFE7AB
:1040F000074C2468A34206D05B68194441601368EA
:104100001B680360E9E70460E7E700BF804A00201E
:10411000680E002070B50446FFF7E8F9364B1B68BF
:10412000A3B1364B1B681C424ED134B1083414F095
:10413000070F02D024F007040834002C46D0304B7F
:104140001B68A34251D32F4B1D6804E0FFF784FF87
:10415000E7E72B4615466A68A24202D22A68002A7F
:10416000F7D1254A1268AA4241D01E6808362A684B
:104170001A606B681B1B102B10D9281910F0070F41
:1041800008D04FF0500383F31188BFF36F8FBFF354
:104190004F8FFEE743606C60FFF790FF6A68184935
:1041A0000B689B1A0B60184909688B4201D21649AB
:1041B0000B60124B1B6813436B6000232B60134A88
:1041C00013680133136002E0002600E00026FFF7C9
:1041D00029FA16F0070F0CD04FF0500383F3118823
:1041E000BFF36F8FBFF34F8FFEE70026EFE7002688
:1041F000EDE7304670BD00BF680E00206C4A00201D
:10420000704A0020804A0020744A0020784A00202A
:10421000002834D038B50446A0F1080550F8043C15
:10422000174A1268134208D14FF0500383F31188E4
:10423000BFF36F8FBFF34F8FFEE750F8081C41B1FB
:104240004FF0500383F31188BFF36F8FBFF34F8F8D
:10425000FEE723EA020340F8043CFFF747F954F86D
:10426000041C084A13680B4413602846FFF726FF16
:10427000054A136801331360FFF7D4F938BD70475E
:104280006C4A0020704A00207C4A002082B0002343
:1042900001930D4B1B68B3F1FF3F08D04FF0500363
:1042A00083F31188BFF36F8FBFF34F8FFEE74FF09B
:1042B000500383F31188BFF36F8FBFF34F8F019BC0
:1042C000002BFCD002B070470C00002008480068AA
:1042D000006880F308884FF0000080F3148862B60D
:1042E00061B6BFF34F8FBFF36F8F00DF00BF0000D9
:1042F00008ED00E0DFF80C00016841F47001016096
:104300007047000088ED00E04FF0807340F8043CF7
:1043100021F0010140F8081C054B40F80C3C40F826
:10432000202C6FF0020340F8243C4438704700BF53
:104330008D420008000000000000000000000000A6
:10434000074B19680868B0E8F04F80F30988BFF39D
:104350006F8F4FF0000080F311887047AFF300803B
:10436000840100204FF0500383F31188BFF36F8F57
:10437000BFF34F8F0A4A136801331360012B00D03B
:104380007047084B1B6813F0FF0FF9D04FF0500334
:1043900083F31188BFF36F8FBFF34F8FFEE700BF2A
:1043A0000C00002004ED00E0094B1B6843B94FF0FE
:1043B000500383F31188BFF36F8FBFF34F8FFEE776
:1043C000013B034A13600BB983F31188704700BFA8
:1043D0000C000020000000000000000000000000B1
:1043E000EFF30980BFF36F8F154B1A681EF0100FA3
:1043F00008BF20ED108A20E9F04F10602DE9090078
:104400004FF0500080F31188BFF34F8FBFF36F8FD1
:10441000FFF7AAF94FF0000080F3118809BC196872
:104420000868B0E8F04F1EF0100F08BFB0EC108A1B
:1044300080F30988BFF36F8F704700BFAFF3008030
:104440008401002008B54FF0500383F31188BFF3B7
:104450006F8FBFF34F8FFFF757F818B1034B4FF033
:1044600080521A60002383F3118808BD04ED00E038
:10447000084A0023136008490B60084B1B68084971
:10448000A1FB03139B09013B06490B600723136043
:10449000704700BF10E000E018E000E008000020D6
:1044A000D34D621014E000E03A4B1A683A4B9A423E
:1044B00029D0384B1A68394B9A422DD010B582B0AA
:1044C000374B1A78D2B20192FF221A701B78DBB2F6
:1044D0008DF803309DF8033003F05003314A137018
:1044E000314B07221A609DF8033013F0800F1CD067
:1044F0002D4A1368013B13609DF803305B00DBB26B
:104500008DF80330EFE74FF0500383F31188BFF3CA
:104510006F8FBFF34F8FFEE74FF0500383F3118887
:10452000BFF36F8FBFF34F8FFEE71F4B1B68032B4B
:1045300008D04FF0500383F31188BFF36F8FBFF3A0
:104540004F8FFEE71B0203F4E063174A1360019BE1
:10455000DBB2134A1370154B1A6842F470021A60EA
:104560001A6842F070421A60FFF782FF0024104B75
:104570001C60FFF7BFFE0F4A136843F0404313600F
:10458000FFF7A4FEFFF7F0F8FFF780FE204602B029
:1045900010BD00BF00ED00E071C20F4170C20F41BD
:1045A00000E400E0884A00208C4A002020ED00E072
:1045B0000C00002034EF00E0EFF305830F2B0FD940
:1045C000104A9B5CDBB2104A12789A4208D94FF02D
:1045D000500383F31188BFF36F8FBFF34F8FFEE754
:1045E0000A4B1B6803F4E063094A1268934208D936
:1045F0004FF0500383F31188BFF36F8FBFF34F8FDA
:10460000FEE77047F0E300E0884A00200CED00E090
:104610008C4A002010B582B0002401940D4B1A6B17
:1046200042F480021A631B6B03F480030193019B25
:10463000224605213A20FDF795FF3A20FDF7C6FFF7
:10464000224605214620FDF78DFF4620FDF7BEFFDF
:1046500002B010BD0038024008B50A480A4B03609A
:104660004FF4E133436000238360C36003610C2295
:1046700042618361C36100F054FA00B908BDFCF7E0
:10468000B5F9FBE7585A01200010014008B50A4867
:104690000A4B03604FF41653436000238360C360EA
:1046A00003610C2242618361C36100F03AFA00B9F0
:1046B00008BDFCF79BF9FBE7C85A01200044004005
:1046C00030B58BB0002305930693079308930993A5
:1046D00003684E4A934204D04D4A934269D00BB0CE
:1046E00030BD0446002501954A4B5A6C42F0100239
:1046F0005A645A6C02F010020192019A02951A6BE8
:1047000042F001021A631B6B03F001030293029B48
:104710004FF4C06305930223069307950323089380
:104720000723099305A93C48FDF7B4FB3B483C4BE4
:1047300003604FF0006343608560C5604FF48063A1
:104740000361456185614FF48073C3614FF4403369
:1047500003624562FDF70EFD28BB304BE3639C63AB
:104760003048314B03604FF0006343604023836067
:104770000023C3604FF48062026143618361C361BF
:104780004FF4403202624362FDF7F4FC70B9254BEE
:10479000A3639C63002205212520FDF7E3FE25206D
:1047A000FDF714FF9BE7FCF721F9D6E7FCF71EF9AC
:1047B000EDE700240394174B1A6C42F400321A649C
:1047C0001A6C02F400320392039A04941A6B42F0BA
:1047D00008021A631B6B03F008030493049B602315
:1047E0000593022306930794032308930723099351
:1047F00005A90E48FDF74EFB224605212620FDF7B0
:10480000B1FE2620FDF7E2FE69E700BF001001407F
:10481000004400400038024000000240F8590120E6
:104820004064024098590120B8640240000C0240E4
:1048300070B504460368184A934203D002F54C420F
:10484000934213D1154B1B88154AD2560A2A0ED013
:1048500001339BB2114A1380272B16D80F4B1B88AC
:1048600001220F491944204600F015FD70BD0C4E81
:104870000025F554304601F02DFD2822294630460A
:1048800002F0E8F9054B1D80E8E70021118028229D
:10489000034802F0DFF9E1E700440040904A0020BD
:1048A000A05A0120026802F10C0353E8003F23F0F4
:1048B000C0030C3242E800310029F3D1202380F8F4
:1048C00041307047026802F10C0353E8003F23F4C3
:1048D00090730C3242E800310029F3D1026802F1F2
:1048E000140353E8003F23F00103143242E800317F
:1048F0000029F3D1036B012B05D0202380F842302F
:10490000002303637047026802F10C0353E8003F81
:1049100023F010030C3242E800310029F3D1ECE718
:1049200090F84130DBB2212B01D002207047836820
:10493000B3F5805F17D0036A5A1C02621A780368C5
:104940005A60C38C9BB2013B9BB2C3844BB90268D3
:10495000D36823F08003D3600268D36843F0400338
:10496000D360002070470369002BE4D1036A1B88E1
:104970000268C3F308035360036A02330362E0E78B
:1049800070B504460268136923F44053C1680B43B1
:10499000136183680269134342691343C2691A436E
:1049A0000168CB6823F4164323F00C031343CB6058
:1049B0000268536923F4407381690B4353610368B0
:1049C000344A934206D002F58062934202D0FDF74A
:1049D00023FA01E0FDF730FAE369B3F5004F2AD07E
:1049E0000026051846EB06012D1846EB0101CB0009
:1049F00043EA5573EA001546194663689A009B0F0F
:104A0000281846EB0101FBF757FE234DA5FB0032AA
:104A10005109642303FB11031B013233A5FB03235C
:104A20005B0903F0F00202EB011203F00F032168AF
:104A300013448B6070BD0026051846EB06012D1847
:104A400046EB0101CB0043EA5573EA0015461946CF
:104A500062683346921846EB0303281846EB0101BF
:104A6000FBF72AFE0C4DA5FB00325109642303FB22
:104A70001103DB003233A5FB03235B095A0002F468
:104A8000F87202EB011203F00703216813448B60F4
:104A9000D0E700BF001001401F85EB512DE9F04326
:104AA00083B005460E4617469946DDF828802C68E7
:104AB000246836EA04030CBF01240024BC4228D138
:104AC000B8F1FF3FF3D0FDF7B5FDA0EB090040457D
:104AD00023D8B8F1000F22D02B68DA6812F0040F47
:104AE000E5D0802EE3D0402EE1D01A6812F0080FF6
:104AF000DDD0002401941A6801925B680193019B48
:104B00002846FFF7DFFE08236B6485F8404001204C
:104B100000E0002003B0BDE8F0830320FAE70320A3
:104B2000F8E760B310B5044690F8413013B324237E
:104B300084F841302268D36823F40053D3602046C0
:104B4000FFF71EFF2268136923F490431361226864
:104B5000536923F02A0353612268D36843F4005356
:104B6000D36000206064202384F8413084F8423010
:104B7000606310BD80F84030FFF7A2FDD7E7012049
:104B800070472DE9F04182B01E4690F84130DBB20B
:104B9000202B56D104460D469046002955D00AB91F
:104BA00001204FE000234364212380F84130FDF7CA
:104BB00041FD0746A4F82480A4F82680A368B3F535
:104BC000805F02D04FF0000814E023692BB34FF050
:104BD00000080FE0202384F84130032032E038F849
:104BE000023B2268C3F308035360E28C92B2013A9D
:104BF00092B2E284E38C9BB293B100963B460022D2
:104C000080212046FFF74AFF0028E3D1002DE6D09F
:104C100015F8012B23685A60E7E7A8460025E9E765
:104C200000963B46002240212046FFF737FF18B987
:104C3000202384F8413005E0202384F8413003200C
:104C400000E0022002B0BDE8F0810120FAE7000098
:104C500038B590F84130DBB2202B30D10446002922
:104C60002FD00AB9012038BD01628284C28400239A
:104C70004364212084F84100A06B134DC563A06BF1
:104C8000124D0564A06B124DC564A06B03652068CE
:104C90001346021DA06BFDF7D3FA23686FF04002A4
:104CA0001A60226802F1140353E8003F43F08003C6
:104CB000143242E800310029F3D10020D3E702206A
:104CC000D1E70120CFE700BF5B4D0008C34D0008CE
:104CD000D14D000810B5044603685A6990F8413078
:104CE000DBB2212B0AD023685A6902F0400294F803
:104CF0004230DBB2222B19D0002010BD02F080021E
:104D0000002AF0D0226802F1140353E8003F23F098
:104D10008003143242E800310029F3D1A06B08B1BE
:104D2000FDF7C3FA2046FFF7BDFDDCE7002AE3D01C
:104D3000226802F1140353E8003F23F040031432C9
:104D400042E800310029F3D1E06B08B1FDF7ADFA7C
:104D50002046FFF7B7FDCFE7704708B50346806BE5
:104D60001B681B6813F4807F1AD10023C384026878
:104D700002F1140353E8003F23F08003143242E8A9
:104D800000310029F3D1026802F10C0353E8003F1F
:104D900043F040030C3242E800310029F3D108BD52
:104DA000FFF7DAFFFBE708B50168CA6822F04002A6
:104DB000CA60202280F84120FFF7CEFF002008BD06
:104DC000704708B5806BFFF7FBFF08BD7047704761
:104DD00010B5846B23685A6994F84130DBB2212BFB
:104DE00010D023685A6902F0400294F84230DBB2D6
:104DF000222B11D0636C43F0100363642046FFF74D
:104E0000E6FF10BD02F08002002AEAD00023E3840E
:104E10002046FFF747FDE4E7002AEBD00023E385B7
:104E20002046FFF74FFDE5E708B5806B0023C385FB
:104E3000C384FFF7CCFF08BD704790F84230DBB267
:104E4000222B69D18368B3F5805F4FD0826AB3F5B6
:104E5000805F04D0002B56D10369002B53D1036827
:104E60005B681370836A01338362C38D9BB2013B1D
:104E70009BB2C385002B51D100B583B00268D368C3
:104E800023F02003D3600268D36823F48073D360D7
:104E90000268536923F001035361202380F84230F4
:104EA00000234363036B012B33D1002303630268A8
:104EB00002F10C0353E8003F23F010030C3242E8E8
:104EC00000310029F3D103681A6812F0100F06D0E0
:104ED000002201921A6801925B680193019B818D07
:104EE000FFF7AAFF002003B05DF804FB0269002A67
:104EF000ACD1826A03685B68C3F308031380836ADA
:104F000002338362B1E703685B6803F07F031370C9
:104F1000A8E7FFF78DFCE5E7022070470020704707
:104F200030B583B0044602681368D068516913F045
:104F30000F0505D113F0200F02D010F0200F19D16A
:104F40002DB111F0010119D110F4907F16D1216B10
:104F500001297DD013F0800F03D010F0800F40F0B6
:104F6000198113F0400F03D010F0400F40F016816C
:104F700003B030BD2046FFF760FFF9E713F0010FE3
:104F800006D010F4807F03D0626C42F001026264AC
:104F900013F0040F04D019B1626C42F00202626493
:104FA00013F0020F04D019B1626C42F00402626483
:104FB00013F0080F07D010F0200F00D119B1626C68
:104FC00042F008026264626C002AD1D013F0200F14
:104FD00002D010F0200F29D123685B6903F0400351
:104FE000626C12F0080F00D163B32046FFF76AFC31
:104FF00023685B6913F0400F20D0226802F114038C
:1050000053E8003F23F04003143242E80031002906
:10501000F3D1E36B73B1634A1A65E06BFDF78FF967
:105020000028A5D0E06B036D9847A1E72046FFF765
:1050300004FFD1E72046FFF7CAFE99E72046FFF7B5
:10504000C6FE95E72046FFF7C2FE002363648FE7A4
:1050500013F0100F3FF47EAF10F0100F3FF47AAF53
:10506000002301931368019353680193019B5369D3
:1050700013F0400F52D0E26B13685B689BB2002BB9
:105080003FF476AFA18D99427FF672AFE385D36985
:10509000B3F5807F37D0226802F10C0353E8003F5C
:1050A00023F480730C3242E800310029F3D12268E6
:1050B00002F1140353E8003F23F00103143242E8E5
:1050C00000310029F3D1226802F1140353E8003FB4
:1050D00023F04003143242E800310029F3D12023A9
:1050E00084F8423000232363226802F10C0353E862
:1050F000003F23F010030C3242E800310029F3D1C5
:10510000E06BFDF7D2F802236363A18DE38D9BB2C0
:10511000C91A89B22046FFF78FFE29E7A18DE38DDA
:105120009BB2C91A89B2E38D9BB2002B3FF420AF2A
:1051300000293FF41DAF226802F10C0353E8003F41
:1051400023F490730C3242E800300028F3D1226837
:1051500002F1140353E8003F23F00103143242E844
:1051600000300028F3D1202384F842300023236349
:10517000226802F10C0353E8003F23F010030C32C5
:1051800042E800300028F3D1022363632046FFF792
:1051900053FEEDE62046FFF7C3FBE9E62046FFF7A6
:1051A00002FEE5E6294E000808B5806B0123436343
:1051B000036B012B02D0FFF709FE08BD818D490862
:1051C000FFF73AFEF9E708B50346806B1B681B68DA
:1051D00013F4807F2BD10023C385026802F10C03F6
:1051E00053E8003F23F480730C3242E80031002979
:1051F000F3D1026802F1140353E8003F23F00103E6
:10520000143242E800310029F3D1026802F114039C
:1052100053E8003F23F04003143242E800310029F4
:10522000F3D1202380F84230036B012B07D00023F9
:105230004363036B012B0FD0FFF7FAFA08BD026836
:1052400002F10C0353E8003F23F010030C3242E854
:1052500000310029F3D1EAE7818DFFF7EDFDEDE79D
:1052600081628285C28500234364222380F8423014
:10527000036923B10268D36843F48073D360026882
:10528000536943F0010353610268D36843F020037C
:10529000D3600020704708B590F84230DBB2202B75
:1052A00008D149B10AB9012008BD00230363FFF703
:1052B000D7FFF9E70220F7E70120F5E730B583B023
:1052C000044613468162828500254564222280F8C7
:1052D0004220C26B1F48D063E26B1F481064E26B30
:1052E0001E48D064E26B156520680A46011DE06B1C
:1052F000FCF7A6FF019523681A6801925B68019389
:10530000019B23695BB1226802F10C0353E8003F63
:1053100043F480730C3242E800310029F3D1226853
:1053200002F1140353E8003F43F00103143242E852
:1053300000310029F3D1226802F1140353E8003F41
:1053400043F04003143242E800310029F3D1002039
:1053500003B030BDC7510008A9510008D14D000865
:1053600008B590F84230DBB2202B08D149B10AB918
:10537000012008BD00230363FFF7A0FFF9E7022027
:10538000F7E70120F5E7000000B58DB00023019399
:1053900002931448144A0260436083604FF6FF7220
:1053A000C260036183610122039204930592069314
:1053B0000793089309920A930B9303A9FBF738FF0D
:1053C00050B900230193029301A90648FCF7B2F9F2
:1053D00028B90DB05DF804FBFBF708FBF1E7FBF71C
:1053E00005FBF6E7585B01200004004000B58DB0D6
:1053F0000023019302931448144A026043608360BF
:105400004FF6FF72C260036183610122039204932D
:10541000059206930793089309920A930B9303A9A5
:10542000FBF706FF50B900230193029301A9064838
:10543000FCF780F928B90DB05DF804FBFBF7D6FA4C
:10544000F1E7FBF7D3FAF6E7105B0120000C004010
:1054500000B585B000230093019302930393104895
:10546000104A026042F2D0024260836042F20F7240
:10547000C260036180238361FBF782FE50B94FF461
:105480008053009369460648FBF7DCFF28B905B056
:105490005DF804FBFBF7AAFAF1E7FBF7A7FAF6E7DA
:1054A000E85B0120001800400268094B9A4200D0D6
:1054B000704782B000230193064B5A6C42F0010200
:1054C0005A645B6C03F001030193019B02B07047C7
:1054D000000001400038024000B58BB00023059366
:1054E00006930793089309930368264A934205D0CD
:1054F000254A934224D00BB05DF804FB00220192B0
:10550000224B196C41F002011964196C01F002017F
:10551000019101990292196B41F0010119631B6B12
:1055200003F001030293029BC02305930223069319
:1055300007920892099305A91548FCF7ABFCDAE736
:1055400000220392114B196C41F008011964196C87
:1055500001F00801039103990492196B41F00101D4
:1055600019631B6B03F001030493049B032305934E
:105570000223069307920892099305A90448FCF7B1
:1055800089FCB8E700040040000C004000380240ED
:105590000000024002680E4B9A4200D0704700B5EE
:1055A00083B00022019203F50833196C41F04001E9
:1055B00019641B6C03F040030193019B05212B2010
:1055C000FCF7D0FF2B20FDF701F803B05DF804FBDA
:1055D0000018004000B587B00023019302930393A5
:1055E000049305930268104B9A4202D007B05DF80D
:1055F00004FB002300930D4A116B41F0100111636D
:10560000126B02F010020092009A4FF4D442019201
:1056100002220292039304930123059301A90448F3
:10562000FCF738FCE2E700BF000001400038024010
:105630000010024010B592B0002410941194099407
:105640000A940B940C940D940E940F9420222146EE
:1056500001A801F0FFFA3148314B03605423436045
:10566000846040F2E733C360046144618023836156
:10567000FBF7B2FD00283CD100231093119310A931
:105680002648FCF757F8002836D1602309930022FA
:105690000A920B920C920D920E920F9209A91F483A
:1056A000FBF756FE58BB042209A91C48FBF750FE25
:1056B00040BB082209A91948FBF74AFE28BB0C2267
:1056C00009A91648FBF744FE10BB0023019302937F
:1056D0000393049305934FF400520692089301A993
:1056E0000E48FCF76BF8B0B90C48FFF773FF12B027
:1056F00010BDFBF77BF9BFE7FBF778F9C5E7FBF7D0
:1057000075F9D0E7FBF772F9D3E7FBF76FF9D6E746
:10571000FBF76CF9D9E7FBF769F9E5E7A05B012036
:10572000000001400120704708B501F05BFA162324
:1057300003604FF0FF3008BD08B54FF0FF31FFF7B1
:10574000F3FFFEE770B50C4616460025B54207DAB2
:10575000AFF30080214601F8010B01350C46F5E757
:10576000304670BD70B50C4616460025B54205DAC8
:1057700014F8010BAFF300800135F7E7304670BD38
:105780004FF0FF3070474FF400534B6000207047DC
:10579000012070470020704710B503460C4A0D49A0
:1057A0000D48006840B10C4800680344521A934207
:1057B00006D8094A136010BD0748084C0460F2E798
:1057C00001F010FA0C2303604FF0FF30F3E700BF45
:1057D0000000022000040000984A0020705D0120B3
:1057E00008B50548054B036000F022F800B908BD74
:1057F000FBF7FCF8FBE700BF305C01200030024003
:105800000268094B9A4200D0704782B0002301938E
:10581000064B1A6B42F480521A631B6B03F48053DD
:105820000193019B02B070470030024000380240F3
:1058300058B110B5044643791BB1012363710020B0
:1058400010BD0371FFF7DCFFF7E701207047000090
:1058500008B50B480B4B03601023436000238360A3
:10586000C36003614361037643768376C37603772F
:10587000437700F099F800B908BDFBF7B7F8FBE7EC
:10588000385C01200064004000B589B00023039318
:1058900004930593069307930268164B9A4202D02D
:1058A00009B05DF804FB0022019203F5EA33196C9C
:1058B00041F000711964196C01F0007101910199B6
:1058C0000292196B41F0010119631B6B03F0010394
:1058D0000293029B4FF4C053039302230493059257
:1058E000032306930923079303A90348FCF7D2FA7D
:1058F000D6E700BF006400400000024008B50B4836
:105900000B4B03600B4B436000238360C3604FF479
:105910008042026143618361C361036200F0EAF87F
:1059200000B908BDFBF762F8FBE700BF605C01202F
:1059300000540040A086010030B589B000230393D5
:1059400004930593069307930268144B9A4201D07F
:1059500009B030BD00250195114C236B43F00203C3
:105960002363236B03F002030193019BC023039382
:10597000122304930595032306930423079303A995
:105980000848FCF787FA0295236C43F4001323645C
:10599000236C03F400130293029BD9E700540040E8
:1059A0000038024000040240002800F0A18038B511
:1059B000044690F82030D3B12268136843F0010305
:1059C0001360FCF737FE054623685A6812F0010F92
:1059D00010D1FCF72FFE401B0A28F5D9636A43F467
:1059E00000336362052384F82030012038BDFFF7BF
:1059F0004BFFE1E71A6822F002021A60FCF71AFE78
:105A0000054623685A6812F0020F0DD0FCF712FE0B
:105A1000401B0A28F5D9636A43F400336362052307
:105A200084F820300120E1E7227E012A3DD01A6867
:105A300022F080021A60637E012B3BD0226813683B
:105A400023F040031360A37E012B39D02268136832
:105A500023F020031360E37E012B37D02268136804
:105A600043F010031360237F012B35D022681368A5
:105A700023F008031360637F012B33D0226813687F
:105A800023F004031360A368E268134322691343FD
:105A9000626913436268013A21681343CB610020B5
:105AA0006062012384F82030A0E71A6842F0800287
:105AB0001A60C0E72268136843F040031360C2E72E
:105AC0002268136843F020031360C4E72268136858
:105AD00023F010031360C6E72268136843F008033D
